{
	"BC/prac8.sol": {
		"Election": {
			"abi": [
				{
					"inputs": [],
					"stateMutability": "nonpayable",
					"type": "constructor"
				},
				{
					"anonymous": false,
					"inputs": [],
					"name": "ElectionEnded",
					"type": "event"
				},
				{
					"anonymous": false,
					"inputs": [],
					"name": "ElectionStarted",
					"type": "event"
				},
				{
					"anonymous": false,
					"inputs": [
						{
							"indexed": false,
							"internalType": "address",
							"name": "voter",
							"type": "address"
						},
						{
							"indexed": false,
							"internalType": "uint256",
							"name": "candidateId",
							"type": "uint256"
						}
					],
					"name": "VoteCast",
					"type": "event"
				},
				{
					"anonymous": false,
					"inputs": [
						{
							"indexed": false,
							"internalType": "address",
							"name": "voter",
							"type": "address"
						}
					],
					"name": "VoterAuthorized",
					"type": "event"
				},
				{
					"inputs": [
						{
							"internalType": "string",
							"name": "_name",
							"type": "string"
						}
					],
					"name": "addCandidate",
					"outputs": [],
					"stateMutability": "nonpayable",
					"type": "function"
				},
				{
					"inputs": [
						{
							"internalType": "address",
							"name": "_voter",
							"type": "address"
						}
					],
					"name": "authorizeVoter",
					"outputs": [],
					"stateMutability": "nonpayable",
					"type": "function"
				},
				{
					"inputs": [
						{
							"internalType": "uint256",
							"name": "",
							"type": "uint256"
						}
					],
					"name": "candidates",
					"outputs": [
						{
							"internalType": "uint256",
							"name": "id",
							"type": "uint256"
						},
						{
							"internalType": "string",
							"name": "name",
							"type": "string"
						},
						{
							"internalType": "uint256",
							"name": "voteCount",
							"type": "uint256"
						}
					],
					"stateMutability": "view",
					"type": "function"
				},
				{
					"inputs": [],
					"name": "candidatesCount",
					"outputs": [
						{
							"internalType": "uint256",
							"name": "",
							"type": "uint256"
						}
					],
					"stateMutability": "view",
					"type": "function"
				},
				{
					"inputs": [],
					"name": "endElection",
					"outputs": [],
					"stateMutability": "nonpayable",
					"type": "function"
				},
				{
					"inputs": [],
					"name": "getWinner",
					"outputs": [
						{
							"internalType": "string",
							"name": "winnerName",
							"type": "string"
						}
					],
					"stateMutability": "view",
					"type": "function"
				},
				{
					"inputs": [],
					"name": "owner",
					"outputs": [
						{
							"internalType": "address",
							"name": "",
							"type": "address"
						}
					],
					"stateMutability": "view",
					"type": "function"
				},
				{
					"inputs": [],
					"name": "startElection",
					"outputs": [],
					"stateMutability": "nonpayable",
					"type": "function"
				},
				{
					"inputs": [],
					"name": "state",
					"outputs": [
						{
							"internalType": "enum Election.ElectionState",
							"name": "",
							"type": "uint8"
						}
					],
					"stateMutability": "view",
					"type": "function"
				},
				{
					"inputs": [],
					"name": "totalVotes",
					"outputs": [
						{
							"internalType": "uint256",
							"name": "",
							"type": "uint256"
						}
					],
					"stateMutability": "view",
					"type": "function"
				},
				{
					"inputs": [
						{
							"internalType": "uint256",
							"name": "_candidateId",
							"type": "uint256"
						}
					],
					"name": "vote",
					"outputs": [],
					"stateMutability": "nonpayable",
					"type": "function"
				},
				{
					"inputs": [
						{
							"internalType": "address",
							"name": "",
							"type": "address"
						}
					],
					"name": "voters",
					"outputs": [
						{
							"internalType": "bool",
							"name": "authorized",
							"type": "bool"
						},
						{
							"internalType": "bool",
							"name": "voted",
							"type": "bool"
						},
						{
							"internalType": "uint256",
							"name": "vote",
							"type": "uint256"
						}
					],
					"stateMutability": "view",
					"type": "function"
				}
			],
			"devdoc": {
				"kind": "dev",
				"methods": {},
				"version": 1
			},
			"evm": {
				"assembly": "    /* \"BC/prac8.sol\":60:3182  contract Election {... */\n  mstore(0x40, 0x80)\n    /* \"BC/prac8.sol\":1142:1233  constructor() {... */\n  callvalue\n  dup1\n  iszero\n  tag_1\n  jumpi\n  0x00\n  dup1\n  revert\ntag_1:\n  pop\n    /* \"BC/prac8.sol\":1175:1185  msg.sender */\n  caller\n    /* \"BC/prac8.sol\":1167:1172  owner */\n  0x00\n  dup1\n    /* \"BC/prac8.sol\":1167:1185  owner = msg.sender */\n  0x0100\n  exp\n  dup2\n  sload\n  dup2\n  0xffffffffffffffffffffffffffffffffffffffff\n  mul\n  not\n  and\n  swap1\n  dup4\n  0xffffffffffffffffffffffffffffffffffffffff\n  and\n  mul\n  or\n  swap1\n  sstore\n  pop\n    /* \"BC/prac8.sol\":1204:1225  ElectionState.Created */\n  0x00\n    /* \"BC/prac8.sol\":1196:1201  state */\n  dup1\n  0x14\n    /* \"BC/prac8.sol\":1196:1225  state = ElectionState.Created */\n  0x0100\n  exp\n  dup2\n  sload\n  dup2\n  0xff\n  mul\n  not\n  and\n  swap1\n  dup4\n  0x02\n  dup2\n  gt\n  iszero\n  tag_4\n  jumpi\n  tag_5\n  tag_6\n  jump\t// in\ntag_5:\ntag_4:\n  mul\n  or\n  swap1\n  sstore\n  pop\n    /* \"BC/prac8.sol\":60:3182  contract Election {... */\n  jump(tag_7)\n    /* \"#utility.yul\":7:187   */\ntag_6:\n    /* \"#utility.yul\":55:132   */\n  0x4e487b7100000000000000000000000000000000000000000000000000000000\n    /* \"#utility.yul\":52:53   */\n  0x00\n    /* \"#utility.yul\":45:133   */\n  mstore\n    /* \"#utility.yul\":152:156   */\n  0x21\n    /* \"#utility.yul\":149:150   */\n  0x04\n    /* \"#utility.yul\":142:157   */\n  mstore\n    /* \"#utility.yul\":176:180   */\n  0x24\n    /* \"#utility.yul\":173:174   */\n  0x00\n    /* \"#utility.yul\":166:181   */\n  revert\n    /* \"BC/prac8.sol\":60:3182  contract Election {... */\ntag_7:\n  dataSize(sub_0)\n  dup1\n  dataOffset(sub_0)\n  0x00\n  codecopy\n  0x00\n  return\nstop\n\nsub_0: assembly {\n        /* \"BC/prac8.sol\":60:3182  contract Election {... */\n      mstore(0x40, 0x80)\n      callvalue\n      dup1\n      iszero\n      tag_1\n      jumpi\n      0x00\n      dup1\n      revert\n    tag_1:\n      pop\n      jumpi(tag_2, lt(calldatasize, 0x04))\n      shr(0xe0, calldataload(0x00))\n      dup1\n      0x62d73eb8\n      gt\n      tag_15\n      jumpi\n      dup1\n      0x62d73eb8\n      eq\n      tag_9\n      jumpi\n      dup1\n      0x8da5cb5b\n      eq\n      tag_10\n      jumpi\n      dup1\n      0x8e7ea5b2\n      eq\n      tag_11\n      jumpi\n      dup1\n      0xa3ec138d\n      eq\n      tag_12\n      jumpi\n      dup1\n      0xc19d93fb\n      eq\n      tag_13\n      jumpi\n      dup1\n      0xfd47b368\n      eq\n      tag_14\n      jumpi\n      jump(tag_2)\n    tag_15:\n      dup1\n      0x0121b93f\n      eq\n      tag_3\n      jumpi\n      dup1\n      0x0d15fd77\n      eq\n      tag_4\n      jumpi\n      dup1\n      0x2d35a8a2\n      eq\n      tag_5\n      jumpi\n      dup1\n      0x3477ee2e\n      eq\n      tag_6\n      jumpi\n      dup1\n      0x462e91ec\n      eq\n      tag_7\n      jumpi\n      dup1\n      0x59f78468\n      eq\n      tag_8\n      jumpi\n    tag_2:\n      0x00\n      dup1\n      revert\n        /* \"BC/prac8.sol\":2130:2672  function vote(uint _candidateId) public inState(ElectionState.Voting) {... */\n    tag_3:\n      tag_16\n      0x04\n      dup1\n      calldatasize\n      sub\n      dup2\n      add\n      swap1\n      tag_17\n      swap2\n      swap1\n      tag_18\n      jump\t// in\n    tag_17:\n      tag_19\n      jump\t// in\n    tag_16:\n      stop\n        /* \"BC/prac8.sol\":661:683  uint public totalVotes */\n    tag_4:\n      tag_20\n      tag_21\n      jump\t// in\n    tag_20:\n      mload(0x40)\n      tag_22\n      swap2\n      swap1\n      tag_23\n      jump\t// in\n    tag_22:\n      mload(0x40)\n      dup1\n      swap2\n      sub\n      swap1\n      return\n        /* \"BC/prac8.sol\":564:591  uint public candidatesCount */\n    tag_5:\n      tag_24\n      tag_25\n      jump\t// in\n    tag_24:\n      mload(0x40)\n      tag_26\n      swap2\n      swap1\n      tag_23\n      jump\t// in\n    tag_26:\n      mload(0x40)\n      dup1\n      swap2\n      sub\n      swap1\n      return\n        /* \"BC/prac8.sol\":513:557  mapping(uint => Candidate) public candidates */\n    tag_6:\n      tag_27\n      0x04\n      dup1\n      calldatasize\n      sub\n      dup2\n      add\n      swap1\n      tag_28\n      swap2\n      swap1\n      tag_18\n      jump\t// in\n    tag_28:\n      tag_29\n      jump\t// in\n    tag_27:\n      mload(0x40)\n      tag_30\n      swap4\n      swap3\n      swap2\n      swap1\n      tag_31\n      jump\t// in\n    tag_30:\n      mload(0x40)\n      dup1\n      swap2\n      sub\n      swap1\n      return\n        /* \"BC/prac8.sol\":1277:1481  function addCandidate(string memory _name) public ownerOnly inState(ElectionState.Created) {... */\n    tag_7:\n      tag_32\n      0x04\n      dup1\n      calldatasize\n      sub\n      dup2\n      add\n      swap1\n      tag_33\n      swap2\n      swap1\n      tag_34\n      jump\t// in\n    tag_33:\n      tag_35\n      jump\t// in\n    tag_32:\n      stop\n        /* \"BC/prac8.sol\":1950:2097  function endElection() public ownerOnly inState(ElectionState.Voting) {... */\n    tag_8:\n      tag_36\n      tag_37\n      jump\t// in\n    tag_36:\n      stop\n        /* \"BC/prac8.sol\":1752:1905  function startElection() public ownerOnly inState(ElectionState.Created) {... */\n    tag_9:\n      tag_38\n      tag_39\n      jump\t// in\n    tag_38:\n      stop\n        /* \"BC/prac8.sol\":115:135  address public owner */\n    tag_10:\n      tag_40\n      tag_41\n      jump\t// in\n    tag_40:\n      mload(0x40)\n      tag_42\n      swap2\n      swap1\n      tag_43\n      jump\t// in\n    tag_42:\n      mload(0x40)\n      dup1\n      swap2\n      sub\n      swap1\n      return\n        /* \"BC/prac8.sol\":2715:3179  function getWinner() public view inState(ElectionState.Ended) returns (string memory winnerName) {... */\n    tag_11:\n      tag_44\n      tag_45\n      jump\t// in\n    tag_44:\n      mload(0x40)\n      tag_46\n      swap2\n      swap1\n      tag_47\n      jump\t// in\n    tag_46:\n      mload(0x40)\n      dup1\n      swap2\n      sub\n      swap1\n      return\n        /* \"BC/prac8.sol\":615:654  mapping(address => Voter) public voters */\n    tag_12:\n      tag_48\n      0x04\n      dup1\n      calldatasize\n      sub\n      dup2\n      add\n      swap1\n      tag_49\n      swap2\n      swap1\n      tag_50\n      jump\t// in\n    tag_49:\n      tag_51\n      jump\t// in\n    tag_48:\n      mload(0x40)\n      tag_52\n      swap4\n      swap3\n      swap2\n      swap1\n      tag_53\n      jump\t// in\n    tag_52:\n      mload(0x40)\n      dup1\n      swap2\n      sub\n      swap1\n      return\n        /* \"BC/prac8.sol\":219:245  ElectionState public state */\n    tag_13:\n      tag_54\n      tag_55\n      jump\t// in\n    tag_54:\n      mload(0x40)\n      tag_56\n      swap2\n      swap1\n      tag_57\n      jump\t// in\n    tag_56:\n      mload(0x40)\n      dup1\n      swap2\n      sub\n      swap1\n      return\n        /* \"BC/prac8.sol\":1527:1705  function authorizeVoter(address _voter) public ownerOnly inState(ElectionState.Created) {... */\n    tag_14:\n      tag_58\n      0x04\n      dup1\n      calldatasize\n      sub\n      dup2\n      add\n      swap1\n      tag_59\n      swap2\n      swap1\n      tag_50\n      jump\t// in\n    tag_59:\n      tag_60\n      jump\t// in\n    tag_58:\n      stop\n        /* \"BC/prac8.sol\":2130:2672  function vote(uint _candidateId) public inState(ElectionState.Voting) {... */\n    tag_19:\n        /* \"BC/prac8.sol\":2178:2198  ElectionState.Voting */\n      0x01\n        /* \"BC/prac8.sol\":1074:1080  _state */\n      dup1\n        /* \"BC/prac8.sol\":1065:1080  state == _state */\n      0x02\n      dup2\n      gt\n      iszero\n      tag_62\n      jumpi\n      tag_63\n      tag_64\n      jump\t// in\n    tag_63:\n    tag_62:\n        /* \"BC/prac8.sol\":1065:1070  state */\n      0x00\n      0x14\n      swap1\n      sload\n      swap1\n      0x0100\n      exp\n      swap1\n      div\n      0xff\n      and\n        /* \"BC/prac8.sol\":1065:1080  state == _state */\n      0x02\n      dup2\n      gt\n      iszero\n      tag_65\n      jumpi\n      tag_66\n      tag_64\n      jump\t// in\n    tag_66:\n    tag_65:\n      eq\n        /* \"BC/prac8.sol\":1057:1114  require(state == _state, \"Invalid state for this action\") */\n      tag_67\n      jumpi\n      mload(0x40)\n      0x08c379a000000000000000000000000000000000000000000000000000000000\n      dup2\n      mstore\n      0x04\n      add\n      tag_68\n      swap1\n      tag_69\n      jump\t// in\n    tag_68:\n      mload(0x40)\n      dup1\n      swap2\n      sub\n      swap1\n      revert\n    tag_67:\n        /* \"BC/prac8.sol\":2219:2225  voters */\n      0x03\n        /* \"BC/prac8.sol\":2219:2237  voters[msg.sender] */\n      0x00\n        /* \"BC/prac8.sol\":2226:2236  msg.sender */\n      caller\n        /* \"BC/prac8.sol\":2219:2237  voters[msg.sender] */\n      0xffffffffffffffffffffffffffffffffffffffff\n      and\n      0xffffffffffffffffffffffffffffffffffffffff\n      and\n      dup2\n      mstore\n      0x20\n      add\n      swap1\n      dup2\n      mstore\n      0x20\n      add\n      0x00\n      keccak256\n        /* \"BC/prac8.sol\":2219:2248  voters[msg.sender].authorized */\n      0x00\n      add\n      0x00\n      swap1\n      sload\n      swap1\n      0x0100\n      exp\n      swap1\n      div\n      0xff\n      and\n        /* \"BC/prac8.sol\":2211:2283  require(voters[msg.sender].authorized, \"You are not authorized to vote\") */\n      tag_71\n      jumpi\n      mload(0x40)\n      0x08c379a000000000000000000000000000000000000000000000000000000000\n      dup2\n      mstore\n      0x04\n      add\n      tag_72\n      swap1\n      tag_73\n      jump\t// in\n    tag_72:\n      mload(0x40)\n      dup1\n      swap2\n      sub\n      swap1\n      revert\n    tag_71:\n        /* \"BC/prac8.sol\":2303:2309  voters */\n      0x03\n        /* \"BC/prac8.sol\":2303:2321  voters[msg.sender] */\n      0x00\n        /* \"BC/prac8.sol\":2310:2320  msg.sender */\n      caller\n        /* \"BC/prac8.sol\":2303:2321  voters[msg.sender] */\n      0xffffffffffffffffffffffffffffffffffffffff\n      and\n      0xffffffffffffffffffffffffffffffffffffffff\n      and\n      dup2\n      mstore\n      0x20\n      add\n      swap1\n      dup2\n      mstore\n      0x20\n      add\n      0x00\n      keccak256\n        /* \"BC/prac8.sol\":2303:2327  voters[msg.sender].voted */\n      0x00\n      add\n      0x01\n      swap1\n      sload\n      swap1\n      0x0100\n      exp\n      swap1\n      div\n      0xff\n      and\n        /* \"BC/prac8.sol\":2302:2327  !voters[msg.sender].voted */\n      iszero\n        /* \"BC/prac8.sol\":2294:2354  require(!voters[msg.sender].voted, \"You have already voted\") */\n      tag_74\n      jumpi\n      mload(0x40)\n      0x08c379a000000000000000000000000000000000000000000000000000000000\n      dup2\n      mstore\n      0x04\n      add\n      tag_75\n      swap1\n      tag_76\n      jump\t// in\n    tag_75:\n      mload(0x40)\n      dup1\n      swap2\n      sub\n      swap1\n      revert\n    tag_74:\n        /* \"BC/prac8.sol\":2388:2389  0 */\n      0x00\n        /* \"BC/prac8.sol\":2373:2385  _candidateId */\n      dup3\n        /* \"BC/prac8.sol\":2373:2389  _candidateId > 0 */\n      gt\n        /* \"BC/prac8.sol\":2373:2424  _candidateId > 0 && _candidateId <= candidatesCount */\n      dup1\n      iszero\n      tag_77\n      jumpi\n      pop\n        /* \"BC/prac8.sol\":2409:2424  candidatesCount */\n      sload(0x02)\n        /* \"BC/prac8.sol\":2393:2405  _candidateId */\n      dup3\n        /* \"BC/prac8.sol\":2393:2424  _candidateId <= candidatesCount */\n      gt\n      iszero\n        /* \"BC/prac8.sol\":2373:2424  _candidateId > 0 && _candidateId <= candidatesCount */\n    tag_77:\n        /* \"BC/prac8.sol\":2365:2449  require(_candidateId > 0 && _candidateId <= candidatesCount, \"Invalid candidate ID\") */\n      tag_78\n      jumpi\n      mload(0x40)\n      0x08c379a000000000000000000000000000000000000000000000000000000000\n      dup2\n      mstore\n      0x04\n      add\n      tag_79\n      swap1\n      tag_80\n      jump\t// in\n    tag_79:\n      mload(0x40)\n      dup1\n      swap2\n      sub\n      swap1\n      revert\n    tag_78:\n        /* \"BC/prac8.sol\":2489:2493  true */\n      0x01\n        /* \"BC/prac8.sol\":2462:2468  voters */\n      0x03\n        /* \"BC/prac8.sol\":2462:2480  voters[msg.sender] */\n      0x00\n        /* \"BC/prac8.sol\":2469:2479  msg.sender */\n      caller\n        /* \"BC/prac8.sol\":2462:2480  voters[msg.sender] */\n      0xffffffffffffffffffffffffffffffffffffffff\n      and\n      0xffffffffffffffffffffffffffffffffffffffff\n      and\n      dup2\n      mstore\n      0x20\n      add\n      swap1\n      dup2\n      mstore\n      0x20\n      add\n      0x00\n      keccak256\n        /* \"BC/prac8.sol\":2462:2486  voters[msg.sender].voted */\n      0x00\n      add\n      0x01\n        /* \"BC/prac8.sol\":2462:2493  voters[msg.sender].voted = true */\n      0x0100\n      exp\n      dup2\n      sload\n      dup2\n      0xff\n      mul\n      not\n      and\n      swap1\n      dup4\n      iszero\n      iszero\n      mul\n      or\n      swap1\n      sstore\n      pop\n        /* \"BC/prac8.sol\":2530:2542  _candidateId */\n      dup2\n        /* \"BC/prac8.sol\":2504:2510  voters */\n      0x03\n        /* \"BC/prac8.sol\":2504:2522  voters[msg.sender] */\n      0x00\n        /* \"BC/prac8.sol\":2511:2521  msg.sender */\n      caller\n        /* \"BC/prac8.sol\":2504:2522  voters[msg.sender] */\n      0xffffffffffffffffffffffffffffffffffffffff\n      and\n      0xffffffffffffffffffffffffffffffffffffffff\n      and\n      dup2\n      mstore\n      0x20\n      add\n      swap1\n      dup2\n      mstore\n      0x20\n      add\n      0x00\n      keccak256\n        /* \"BC/prac8.sol\":2504:2527  voters[msg.sender].vote */\n      0x01\n      add\n        /* \"BC/prac8.sol\":2504:2542  voters[msg.sender].vote = _candidateId */\n      dup2\n      swap1\n      sstore\n      pop\n        /* \"BC/prac8.sol\":2553:2563  candidates */\n      0x01\n        /* \"BC/prac8.sol\":2553:2577  candidates[_candidateId] */\n      0x00\n        /* \"BC/prac8.sol\":2564:2576  _candidateId */\n      dup4\n        /* \"BC/prac8.sol\":2553:2577  candidates[_candidateId] */\n      dup2\n      mstore\n      0x20\n      add\n      swap1\n      dup2\n      mstore\n      0x20\n      add\n      0x00\n      keccak256\n        /* \"BC/prac8.sol\":2553:2587  candidates[_candidateId].voteCount */\n      0x02\n      add\n      0x00\n        /* \"BC/prac8.sol\":2553:2589  candidates[_candidateId].voteCount++ */\n      dup2\n      sload\n      dup1\n      swap3\n      swap2\n      swap1\n      tag_81\n      swap1\n      tag_82\n      jump\t// in\n    tag_81:\n      swap2\n      swap1\n      pop\n      sstore\n      pop\n        /* \"BC/prac8.sol\":2600:2610  totalVotes */\n      0x04\n      0x00\n        /* \"BC/prac8.sol\":2600:2612  totalVotes++ */\n      dup2\n      sload\n      dup1\n      swap3\n      swap2\n      swap1\n      tag_83\n      swap1\n      tag_82\n      jump\t// in\n    tag_83:\n      swap2\n      swap1\n      pop\n      sstore\n      pop\n        /* \"BC/prac8.sol\":2630:2664  VoteCast(msg.sender, _candidateId) */\n      0xa36cc2bebb74db33e9f88110a07ef56e1b31b24b4c4f51b54b1664266e29f45b\n        /* \"BC/prac8.sol\":2639:2649  msg.sender */\n      caller\n        /* \"BC/prac8.sol\":2651:2663  _candidateId */\n      dup4\n        /* \"BC/prac8.sol\":2630:2664  VoteCast(msg.sender, _candidateId) */\n      mload(0x40)\n      tag_84\n      swap3\n      swap2\n      swap1\n      tag_85\n      jump\t// in\n    tag_84:\n      mload(0x40)\n      dup1\n      swap2\n      sub\n      swap1\n      log1\n        /* \"BC/prac8.sol\":2130:2672  function vote(uint _candidateId) public inState(ElectionState.Voting) {... */\n      pop\n      pop\n      jump\t// out\n        /* \"BC/prac8.sol\":661:683  uint public totalVotes */\n    tag_21:\n      sload(0x04)\n      dup2\n      jump\t// out\n        /* \"BC/prac8.sol\":564:591  uint public candidatesCount */\n    tag_25:\n      sload(0x02)\n      dup2\n      jump\t// out\n        /* \"BC/prac8.sol\":513:557  mapping(uint => Candidate) public candidates */\n    tag_29:\n      mstore(0x20, 0x01)\n      dup1\n      0x00\n      mstore\n      keccak256(0x00, 0x40)\n      0x00\n      swap2\n      pop\n      swap1\n      pop\n      dup1\n      0x00\n      add\n      sload\n      swap1\n      dup1\n      0x01\n      add\n      dup1\n      sload\n      tag_86\n      swap1\n      tag_87\n      jump\t// in\n    tag_86:\n      dup1\n      0x1f\n      add\n      0x20\n      dup1\n      swap2\n      div\n      mul\n      0x20\n      add\n      mload(0x40)\n      swap1\n      dup2\n      add\n      0x40\n      mstore\n      dup1\n      swap3\n      swap2\n      swap1\n      dup2\n      dup2\n      mstore\n      0x20\n      add\n      dup3\n      dup1\n      sload\n      tag_88\n      swap1\n      tag_87\n      jump\t// in\n    tag_88:\n      dup1\n      iszero\n      tag_89\n      jumpi\n      dup1\n      0x1f\n      lt\n      tag_90\n      jumpi\n      0x0100\n      dup1\n      dup4\n      sload\n      div\n      mul\n      dup4\n      mstore\n      swap2\n      0x20\n      add\n      swap2\n      jump(tag_89)\n    tag_90:\n      dup3\n      add\n      swap2\n      swap1\n      0x00\n      mstore\n      keccak256(0x00, 0x20)\n      swap1\n    tag_91:\n      dup2\n      sload\n      dup2\n      mstore\n      swap1\n      0x01\n      add\n      swap1\n      0x20\n      add\n      dup1\n      dup4\n      gt\n      tag_91\n      jumpi\n      dup3\n      swap1\n      sub\n      0x1f\n      and\n      dup3\n      add\n      swap2\n    tag_89:\n      pop\n      pop\n      pop\n      pop\n      pop\n      swap1\n      dup1\n      0x02\n      add\n      sload\n      swap1\n      pop\n      dup4\n      jump\t// out\n        /* \"BC/prac8.sol\":1277:1481  function addCandidate(string memory _name) public ownerOnly inState(ElectionState.Created) {... */\n    tag_35:\n        /* \"BC/prac8.sol\":936:941  owner */\n      0x00\n      dup1\n      sload\n      swap1\n      0x0100\n      exp\n      swap1\n      div\n      0xffffffffffffffffffffffffffffffffffffffff\n      and\n        /* \"BC/prac8.sol\":922:941  msg.sender == owner */\n      0xffffffffffffffffffffffffffffffffffffffff\n      and\n        /* \"BC/prac8.sol\":922:932  msg.sender */\n      caller\n        /* \"BC/prac8.sol\":922:941  msg.sender == owner */\n      0xffffffffffffffffffffffffffffffffffffffff\n      and\n      eq\n        /* \"BC/prac8.sol\":914:979  require(msg.sender == owner, \"Only owner can call this function\") */\n      tag_93\n      jumpi\n      mload(0x40)\n      0x08c379a000000000000000000000000000000000000000000000000000000000\n      dup2\n      mstore\n      0x04\n      add\n      tag_94\n      swap1\n      tag_95\n      jump\t// in\n    tag_94:\n      mload(0x40)\n      dup1\n      swap2\n      sub\n      swap1\n      revert\n    tag_93:\n        /* \"BC/prac8.sol\":1345:1366  ElectionState.Created */\n      0x00\n        /* \"BC/prac8.sol\":1074:1080  _state */\n      dup1\n        /* \"BC/prac8.sol\":1065:1080  state == _state */\n      0x02\n      dup2\n      gt\n      iszero\n      tag_97\n      jumpi\n      tag_98\n      tag_64\n      jump\t// in\n    tag_98:\n    tag_97:\n        /* \"BC/prac8.sol\":1065:1070  state */\n      0x00\n      0x14\n      swap1\n      sload\n      swap1\n      0x0100\n      exp\n      swap1\n      div\n      0xff\n      and\n        /* \"BC/prac8.sol\":1065:1080  state == _state */\n      0x02\n      dup2\n      gt\n      iszero\n      tag_99\n      jumpi\n      tag_100\n      tag_64\n      jump\t// in\n    tag_100:\n    tag_99:\n      eq\n        /* \"BC/prac8.sol\":1057:1114  require(state == _state, \"Invalid state for this action\") */\n      tag_101\n      jumpi\n      mload(0x40)\n      0x08c379a000000000000000000000000000000000000000000000000000000000\n      dup2\n      mstore\n      0x04\n      add\n      tag_102\n      swap1\n      tag_69\n      jump\t// in\n    tag_102:\n      mload(0x40)\n      dup1\n      swap2\n      sub\n      swap1\n      revert\n    tag_101:\n        /* \"BC/prac8.sol\":1379:1394  candidatesCount */\n      0x02\n      0x00\n        /* \"BC/prac8.sol\":1379:1396  candidatesCount++ */\n      dup2\n      sload\n      dup1\n      swap3\n      swap2\n      swap1\n      tag_104\n      swap1\n      tag_82\n      jump\t// in\n    tag_104:\n      swap2\n      swap1\n      pop\n      sstore\n      pop\n        /* \"BC/prac8.sol\":1437:1473  Candidate(candidatesCount, _name, 0) */\n      mload(0x40)\n      dup1\n      0x60\n      add\n      0x40\n      mstore\n      dup1\n        /* \"BC/prac8.sol\":1447:1462  candidatesCount */\n      sload(0x02)\n        /* \"BC/prac8.sol\":1437:1473  Candidate(candidatesCount, _name, 0) */\n      dup2\n      mstore\n      0x20\n      add\n        /* \"BC/prac8.sol\":1464:1469  _name */\n      dup4\n        /* \"BC/prac8.sol\":1437:1473  Candidate(candidatesCount, _name, 0) */\n      dup2\n      mstore\n      0x20\n      add\n        /* \"BC/prac8.sol\":1471:1472  0 */\n      0x00\n        /* \"BC/prac8.sol\":1437:1473  Candidate(candidatesCount, _name, 0) */\n      dup2\n      mstore\n      pop\n        /* \"BC/prac8.sol\":1407:1417  candidates */\n      0x01\n        /* \"BC/prac8.sol\":1407:1434  candidates[candidatesCount] */\n      0x00\n        /* \"BC/prac8.sol\":1418:1433  candidatesCount */\n      sload(0x02)\n        /* \"BC/prac8.sol\":1407:1434  candidates[candidatesCount] */\n      dup2\n      mstore\n      0x20\n      add\n      swap1\n      dup2\n      mstore\n      0x20\n      add\n      0x00\n      keccak256\n        /* \"BC/prac8.sol\":1407:1473  candidates[candidatesCount] = Candidate(candidatesCount, _name, 0) */\n      0x00\n      dup3\n      add\n      mload\n      dup2\n      0x00\n      add\n      sstore\n      0x20\n      dup3\n      add\n      mload\n      dup2\n      0x01\n      add\n      swap1\n      dup2\n      tag_105\n      swap2\n      swap1\n      tag_106\n      jump\t// in\n    tag_105:\n      pop\n      0x40\n      dup3\n      add\n      mload\n      dup2\n      0x02\n      add\n      sstore\n      swap1\n      pop\n      pop\n        /* \"BC/prac8.sol\":990:991  _ */\n      pop\n        /* \"BC/prac8.sol\":1277:1481  function addCandidate(string memory _name) public ownerOnly inState(ElectionState.Created) {... */\n      pop\n      jump\t// out\n        /* \"BC/prac8.sol\":1950:2097  function endElection() public ownerOnly inState(ElectionState.Voting) {... */\n    tag_37:\n        /* \"BC/prac8.sol\":936:941  owner */\n      0x00\n      dup1\n      sload\n      swap1\n      0x0100\n      exp\n      swap1\n      div\n      0xffffffffffffffffffffffffffffffffffffffff\n      and\n        /* \"BC/prac8.sol\":922:941  msg.sender == owner */\n      0xffffffffffffffffffffffffffffffffffffffff\n      and\n        /* \"BC/prac8.sol\":922:932  msg.sender */\n      caller\n        /* \"BC/prac8.sol\":922:941  msg.sender == owner */\n      0xffffffffffffffffffffffffffffffffffffffff\n      and\n      eq\n        /* \"BC/prac8.sol\":914:979  require(msg.sender == owner, \"Only owner can call this function\") */\n      tag_108\n      jumpi\n      mload(0x40)\n      0x08c379a000000000000000000000000000000000000000000000000000000000\n      dup2\n      mstore\n      0x04\n      add\n      tag_109\n      swap1\n      tag_95\n      jump\t// in\n    tag_109:\n      mload(0x40)\n      dup1\n      swap2\n      sub\n      swap1\n      revert\n    tag_108:\n        /* \"BC/prac8.sol\":1998:2018  ElectionState.Voting */\n      0x01\n        /* \"BC/prac8.sol\":1074:1080  _state */\n      dup1\n        /* \"BC/prac8.sol\":1065:1080  state == _state */\n      0x02\n      dup2\n      gt\n      iszero\n      tag_111\n      jumpi\n      tag_112\n      tag_64\n      jump\t// in\n    tag_112:\n    tag_111:\n        /* \"BC/prac8.sol\":1065:1070  state */\n      0x00\n      0x14\n      swap1\n      sload\n      swap1\n      0x0100\n      exp\n      swap1\n      div\n      0xff\n      and\n        /* \"BC/prac8.sol\":1065:1080  state == _state */\n      0x02\n      dup2\n      gt\n      iszero\n      tag_113\n      jumpi\n      tag_114\n      tag_64\n      jump\t// in\n    tag_114:\n    tag_113:\n      eq\n        /* \"BC/prac8.sol\":1057:1114  require(state == _state, \"Invalid state for this action\") */\n      tag_115\n      jumpi\n      mload(0x40)\n      0x08c379a000000000000000000000000000000000000000000000000000000000\n      dup2\n      mstore\n      0x04\n      add\n      tag_116\n      swap1\n      tag_69\n      jump\t// in\n    tag_116:\n      mload(0x40)\n      dup1\n      swap2\n      sub\n      swap1\n      revert\n    tag_115:\n        /* \"BC/prac8.sol\":2039:2058  ElectionState.Ended */\n      0x02\n        /* \"BC/prac8.sol\":2031:2036  state */\n      0x00\n      0x14\n        /* \"BC/prac8.sol\":2031:2058  state = ElectionState.Ended */\n      0x0100\n      exp\n      dup2\n      sload\n      dup2\n      0xff\n      mul\n      not\n      and\n      swap1\n      dup4\n      0x02\n      dup2\n      gt\n      iszero\n      tag_118\n      jumpi\n      tag_119\n      tag_64\n      jump\t// in\n    tag_119:\n    tag_118:\n      mul\n      or\n      swap1\n      sstore\n      pop\n        /* \"BC/prac8.sol\":2074:2089  ElectionEnded() */\n      0x66ec723071e4bb646f7b35d31bc2dee8510979bd8c180edd0690d4f5e802f1e4\n      mload(0x40)\n      mload(0x40)\n      dup1\n      swap2\n      sub\n      swap1\n      log1\n        /* \"BC/prac8.sol\":990:991  _ */\n      pop\n        /* \"BC/prac8.sol\":1950:2097  function endElection() public ownerOnly inState(ElectionState.Voting) {... */\n      jump\t// out\n        /* \"BC/prac8.sol\":1752:1905  function startElection() public ownerOnly inState(ElectionState.Created) {... */\n    tag_39:\n        /* \"BC/prac8.sol\":936:941  owner */\n      0x00\n      dup1\n      sload\n      swap1\n      0x0100\n      exp\n      swap1\n      div\n      0xffffffffffffffffffffffffffffffffffffffff\n      and\n        /* \"BC/prac8.sol\":922:941  msg.sender == owner */\n      0xffffffffffffffffffffffffffffffffffffffff\n      and\n        /* \"BC/prac8.sol\":922:932  msg.sender */\n      caller\n        /* \"BC/prac8.sol\":922:941  msg.sender == owner */\n      0xffffffffffffffffffffffffffffffffffffffff\n      and\n      eq\n        /* \"BC/prac8.sol\":914:979  require(msg.sender == owner, \"Only owner can call this function\") */\n      tag_121\n      jumpi\n      mload(0x40)\n      0x08c379a000000000000000000000000000000000000000000000000000000000\n      dup2\n      mstore\n      0x04\n      add\n      tag_122\n      swap1\n      tag_95\n      jump\t// in\n    tag_122:\n      mload(0x40)\n      dup1\n      swap2\n      sub\n      swap1\n      revert\n    tag_121:\n        /* \"BC/prac8.sol\":1802:1823  ElectionState.Created */\n      0x00\n        /* \"BC/prac8.sol\":1074:1080  _state */\n      dup1\n        /* \"BC/prac8.sol\":1065:1080  state == _state */\n      0x02\n      dup2\n      gt\n      iszero\n      tag_124\n      jumpi\n      tag_125\n      tag_64\n      jump\t// in\n    tag_125:\n    tag_124:\n        /* \"BC/prac8.sol\":1065:1070  state */\n      0x00\n      0x14\n      swap1\n      sload\n      swap1\n      0x0100\n      exp\n      swap1\n      div\n      0xff\n      and\n        /* \"BC/prac8.sol\":1065:1080  state == _state */\n      0x02\n      dup2\n      gt\n      iszero\n      tag_126\n      jumpi\n      tag_127\n      tag_64\n      jump\t// in\n    tag_127:\n    tag_126:\n      eq\n        /* \"BC/prac8.sol\":1057:1114  require(state == _state, \"Invalid state for this action\") */\n      tag_128\n      jumpi\n      mload(0x40)\n      0x08c379a000000000000000000000000000000000000000000000000000000000\n      dup2\n      mstore\n      0x04\n      add\n      tag_129\n      swap1\n      tag_69\n      jump\t// in\n    tag_129:\n      mload(0x40)\n      dup1\n      swap2\n      sub\n      swap1\n      revert\n    tag_128:\n        /* \"BC/prac8.sol\":1844:1864  ElectionState.Voting */\n      0x01\n        /* \"BC/prac8.sol\":1836:1841  state */\n      0x00\n      0x14\n        /* \"BC/prac8.sol\":1836:1864  state = ElectionState.Voting */\n      0x0100\n      exp\n      dup2\n      sload\n      dup2\n      0xff\n      mul\n      not\n      and\n      swap1\n      dup4\n      0x02\n      dup2\n      gt\n      iszero\n      tag_131\n      jumpi\n      tag_132\n      tag_64\n      jump\t// in\n    tag_132:\n    tag_131:\n      mul\n      or\n      swap1\n      sstore\n      pop\n        /* \"BC/prac8.sol\":1880:1897  ElectionStarted() */\n      0xc475c26aa25ed8e85a7faa790e5f63b5d7ee1025f12821f4c9bfddd36ab4d112\n      mload(0x40)\n      mload(0x40)\n      dup1\n      swap2\n      sub\n      swap1\n      log1\n        /* \"BC/prac8.sol\":990:991  _ */\n      pop\n        /* \"BC/prac8.sol\":1752:1905  function startElection() public ownerOnly inState(ElectionState.Created) {... */\n      jump\t// out\n        /* \"BC/prac8.sol\":115:135  address public owner */\n    tag_41:\n      0x00\n      dup1\n      sload\n      swap1\n      0x0100\n      exp\n      swap1\n      div\n      0xffffffffffffffffffffffffffffffffffffffff\n      and\n      dup2\n      jump\t// out\n        /* \"BC/prac8.sol\":2715:3179  function getWinner() public view inState(ElectionState.Ended) returns (string memory winnerName) {... */\n    tag_45:\n        /* \"BC/prac8.sol\":2786:2810  string memory winnerName */\n      0x60\n        /* \"BC/prac8.sol\":2756:2775  ElectionState.Ended */\n      0x02\n        /* \"BC/prac8.sol\":1074:1080  _state */\n      dup1\n        /* \"BC/prac8.sol\":1065:1080  state == _state */\n      0x02\n      dup2\n      gt\n      iszero\n      tag_134\n      jumpi\n      tag_135\n      tag_64\n      jump\t// in\n    tag_135:\n    tag_134:\n        /* \"BC/prac8.sol\":1065:1070  state */\n      0x00\n      0x14\n      swap1\n      sload\n      swap1\n      0x0100\n      exp\n      swap1\n      div\n      0xff\n      and\n        /* \"BC/prac8.sol\":1065:1080  state == _state */\n      0x02\n      dup2\n      gt\n      iszero\n      tag_136\n      jumpi\n      tag_137\n      tag_64\n      jump\t// in\n    tag_137:\n    tag_136:\n      eq\n        /* \"BC/prac8.sol\":1057:1114  require(state == _state, \"Invalid state for this action\") */\n      tag_138\n      jumpi\n      mload(0x40)\n      0x08c379a000000000000000000000000000000000000000000000000000000000\n      dup2\n      mstore\n      0x04\n      add\n      tag_139\n      swap1\n      tag_69\n      jump\t// in\n    tag_139:\n      mload(0x40)\n      dup1\n      swap2\n      sub\n      swap1\n      revert\n    tag_138:\n        /* \"BC/prac8.sol\":2823:2836  uint maxVotes */\n      0x00\n        /* \"BC/prac8.sol\":2851:2874  uint winningCandidateId */\n      dup1\n        /* \"BC/prac8.sol\":2896:2902  uint i */\n      0x00\n        /* \"BC/prac8.sol\":2905:2906  1 */\n      0x01\n        /* \"BC/prac8.sol\":2896:2906  uint i = 1 */\n      swap1\n      pop\n        /* \"BC/prac8.sol\":2891:3111  for (uint i = 1; i <= candidatesCount; i++) {... */\n    tag_141:\n        /* \"BC/prac8.sol\":2913:2928  candidatesCount */\n      sload(0x02)\n        /* \"BC/prac8.sol\":2908:2909  i */\n      dup2\n        /* \"BC/prac8.sol\":2908:2928  i <= candidatesCount */\n      gt\n        /* \"BC/prac8.sol\":2891:3111  for (uint i = 1; i <= candidatesCount; i++) {... */\n      tag_142\n      jumpi\n        /* \"BC/prac8.sol\":2980:2988  maxVotes */\n      dup3\n        /* \"BC/prac8.sol\":2954:2964  candidates */\n      0x01\n        /* \"BC/prac8.sol\":2954:2967  candidates[i] */\n      0x00\n        /* \"BC/prac8.sol\":2965:2966  i */\n      dup4\n        /* \"BC/prac8.sol\":2954:2967  candidates[i] */\n      dup2\n      mstore\n      0x20\n      add\n      swap1\n      dup2\n      mstore\n      0x20\n      add\n      0x00\n      keccak256\n        /* \"BC/prac8.sol\":2954:2977  candidates[i].voteCount */\n      0x02\n      add\n      sload\n        /* \"BC/prac8.sol\":2954:2988  candidates[i].voteCount > maxVotes */\n      gt\n        /* \"BC/prac8.sol\":2950:3100  if (candidates[i].voteCount > maxVotes) {... */\n      iszero\n      tag_144\n      jumpi\n        /* \"BC/prac8.sol\":3020:3030  candidates */\n      0x01\n        /* \"BC/prac8.sol\":3020:3033  candidates[i] */\n      0x00\n        /* \"BC/prac8.sol\":3031:3032  i */\n      dup3\n        /* \"BC/prac8.sol\":3020:3033  candidates[i] */\n      dup2\n      mstore\n      0x20\n      add\n      swap1\n      dup2\n      mstore\n      0x20\n      add\n      0x00\n      keccak256\n        /* \"BC/prac8.sol\":3020:3043  candidates[i].voteCount */\n      0x02\n      add\n      sload\n        /* \"BC/prac8.sol\":3009:3043  maxVotes = candidates[i].voteCount */\n      swap3\n      pop\n        /* \"BC/prac8.sol\":3083:3084  i */\n      dup1\n        /* \"BC/prac8.sol\":3062:3084  winningCandidateId = i */\n      swap2\n      pop\n        /* \"BC/prac8.sol\":2950:3100  if (candidates[i].voteCount > maxVotes) {... */\n    tag_144:\n        /* \"BC/prac8.sol\":2930:2933  i++ */\n      dup1\n      dup1\n      tag_145\n      swap1\n      tag_82\n      jump\t// in\n    tag_145:\n      swap2\n      pop\n      pop\n        /* \"BC/prac8.sol\":2891:3111  for (uint i = 1; i <= candidatesCount; i++) {... */\n      jump(tag_141)\n    tag_142:\n      pop\n        /* \"BC/prac8.sol\":3136:3146  candidates */\n      0x01\n        /* \"BC/prac8.sol\":3136:3166  candidates[winningCandidateId] */\n      0x00\n        /* \"BC/prac8.sol\":3147:3165  winningCandidateId */\n      dup3\n        /* \"BC/prac8.sol\":3136:3166  candidates[winningCandidateId] */\n      dup2\n      mstore\n      0x20\n      add\n      swap1\n      dup2\n      mstore\n      0x20\n      add\n      0x00\n      keccak256\n        /* \"BC/prac8.sol\":3136:3171  candidates[winningCandidateId].name */\n      0x01\n      add\n        /* \"BC/prac8.sol\":3123:3171  winnerName = candidates[winningCandidateId].name */\n      dup1\n      sload\n      tag_146\n      swap1\n      tag_87\n      jump\t// in\n    tag_146:\n      dup1\n      0x1f\n      add\n      0x20\n      dup1\n      swap2\n      div\n      mul\n      0x20\n      add\n      mload(0x40)\n      swap1\n      dup2\n      add\n      0x40\n      mstore\n      dup1\n      swap3\n      swap2\n      swap1\n      dup2\n      dup2\n      mstore\n      0x20\n      add\n      dup3\n      dup1\n      sload\n      tag_147\n      swap1\n      tag_87\n      jump\t// in\n    tag_147:\n      dup1\n      iszero\n      tag_148\n      jumpi\n      dup1\n      0x1f\n      lt\n      tag_149\n      jumpi\n      0x0100\n      dup1\n      dup4\n      sload\n      div\n      mul\n      dup4\n      mstore\n      swap2\n      0x20\n      add\n      swap2\n      jump(tag_148)\n    tag_149:\n      dup3\n      add\n      swap2\n      swap1\n      0x00\n      mstore\n      keccak256(0x00, 0x20)\n      swap1\n    tag_150:\n      dup2\n      sload\n      dup2\n      mstore\n      swap1\n      0x01\n      add\n      swap1\n      0x20\n      add\n      dup1\n      dup4\n      gt\n      tag_150\n      jumpi\n      dup3\n      swap1\n      sub\n      0x1f\n      and\n      dup3\n      add\n      swap2\n    tag_148:\n      pop\n      pop\n      pop\n      pop\n      pop\n      swap4\n      pop\n        /* \"BC/prac8.sol\":2812:3179  {... */\n      pop\n      pop\n        /* \"BC/prac8.sol\":2715:3179  function getWinner() public view inState(ElectionState.Ended) returns (string memory winnerName) {... */\n      pop\n      swap1\n      jump\t// out\n        /* \"BC/prac8.sol\":615:654  mapping(address => Voter) public voters */\n    tag_51:\n      mstore(0x20, 0x03)\n      dup1\n      0x00\n      mstore\n      keccak256(0x00, 0x40)\n      0x00\n      swap2\n      pop\n      swap1\n      pop\n      dup1\n      0x00\n      add\n      0x00\n      swap1\n      sload\n      swap1\n      0x0100\n      exp\n      swap1\n      div\n      0xff\n      and\n      swap1\n      dup1\n      0x00\n      add\n      0x01\n      swap1\n      sload\n      swap1\n      0x0100\n      exp\n      swap1\n      div\n      0xff\n      and\n      swap1\n      dup1\n      0x01\n      add\n      sload\n      swap1\n      pop\n      dup4\n      jump\t// out\n        /* \"BC/prac8.sol\":219:245  ElectionState public state */\n    tag_55:\n      0x00\n      0x14\n      swap1\n      sload\n      swap1\n      0x0100\n      exp\n      swap1\n      div\n      0xff\n      and\n      dup2\n      jump\t// out\n        /* \"BC/prac8.sol\":1527:1705  function authorizeVoter(address _voter) public ownerOnly inState(ElectionState.Created) {... */\n    tag_60:\n        /* \"BC/prac8.sol\":936:941  owner */\n      0x00\n      dup1\n      sload\n      swap1\n      0x0100\n      exp\n      swap1\n      div\n      0xffffffffffffffffffffffffffffffffffffffff\n      and\n        /* \"BC/prac8.sol\":922:941  msg.sender == owner */\n      0xffffffffffffffffffffffffffffffffffffffff\n      and\n        /* \"BC/prac8.sol\":922:932  msg.sender */\n      caller\n        /* \"BC/prac8.sol\":922:941  msg.sender == owner */\n      0xffffffffffffffffffffffffffffffffffffffff\n      and\n      eq\n        /* \"BC/prac8.sol\":914:979  require(msg.sender == owner, \"Only owner can call this function\") */\n      tag_152\n      jumpi\n      mload(0x40)\n      0x08c379a000000000000000000000000000000000000000000000000000000000\n      dup2\n      mstore\n      0x04\n      add\n      tag_153\n      swap1\n      tag_95\n      jump\t// in\n    tag_153:\n      mload(0x40)\n      dup1\n      swap2\n      sub\n      swap1\n      revert\n    tag_152:\n        /* \"BC/prac8.sol\":1592:1613  ElectionState.Created */\n      0x00\n        /* \"BC/prac8.sol\":1074:1080  _state */\n      dup1\n        /* \"BC/prac8.sol\":1065:1080  state == _state */\n      0x02\n      dup2\n      gt\n      iszero\n      tag_155\n      jumpi\n      tag_156\n      tag_64\n      jump\t// in\n    tag_156:\n    tag_155:\n        /* \"BC/prac8.sol\":1065:1070  state */\n      0x00\n      0x14\n      swap1\n      sload\n      swap1\n      0x0100\n      exp\n      swap1\n      div\n      0xff\n      and\n        /* \"BC/prac8.sol\":1065:1080  state == _state */\n      0x02\n      dup2\n      gt\n      iszero\n      tag_157\n      jumpi\n      tag_158\n      tag_64\n      jump\t// in\n    tag_158:\n    tag_157:\n      eq\n        /* \"BC/prac8.sol\":1057:1114  require(state == _state, \"Invalid state for this action\") */\n      tag_159\n      jumpi\n      mload(0x40)\n      0x08c379a000000000000000000000000000000000000000000000000000000000\n      dup2\n      mstore\n      0x04\n      add\n      tag_160\n      swap1\n      tag_69\n      jump\t// in\n    tag_160:\n      mload(0x40)\n      dup1\n      swap2\n      sub\n      swap1\n      revert\n    tag_159:\n        /* \"BC/prac8.sol\":1654:1658  true */\n      0x01\n        /* \"BC/prac8.sol\":1626:1632  voters */\n      0x03\n        /* \"BC/prac8.sol\":1626:1640  voters[_voter] */\n      0x00\n        /* \"BC/prac8.sol\":1633:1639  _voter */\n      dup5\n        /* \"BC/prac8.sol\":1626:1640  voters[_voter] */\n      0xffffffffffffffffffffffffffffffffffffffff\n      and\n      0xffffffffffffffffffffffffffffffffffffffff\n      and\n      dup2\n      mstore\n      0x20\n      add\n      swap1\n      dup2\n      mstore\n      0x20\n      add\n      0x00\n      keccak256\n        /* \"BC/prac8.sol\":1626:1651  voters[_voter].authorized */\n      0x00\n      add\n      0x00\n        /* \"BC/prac8.sol\":1626:1658  voters[_voter].authorized = true */\n      0x0100\n      exp\n      dup2\n      sload\n      dup2\n      0xff\n      mul\n      not\n      and\n      swap1\n      dup4\n      iszero\n      iszero\n      mul\n      or\n      swap1\n      sstore\n      pop\n        /* \"BC/prac8.sol\":1674:1697  VoterAuthorized(_voter) */\n      0x0ca65a9f1f88bd7257ac852d1062853358f81cdc56f9634dcbeed6090f8dfb43\n        /* \"BC/prac8.sol\":1690:1696  _voter */\n      dup3\n        /* \"BC/prac8.sol\":1674:1697  VoterAuthorized(_voter) */\n      mload(0x40)\n      tag_162\n      swap2\n      swap1\n      tag_43\n      jump\t// in\n    tag_162:\n      mload(0x40)\n      dup1\n      swap2\n      sub\n      swap1\n      log1\n        /* \"BC/prac8.sol\":990:991  _ */\n      pop\n        /* \"BC/prac8.sol\":1527:1705  function authorizeVoter(address _voter) public ownerOnly inState(ElectionState.Created) {... */\n      pop\n      jump\t// out\n        /* \"#utility.yul\":7:82   */\n    tag_163:\n        /* \"#utility.yul\":40:46   */\n      0x00\n        /* \"#utility.yul\":73:75   */\n      0x40\n        /* \"#utility.yul\":67:76   */\n      mload\n        /* \"#utility.yul\":57:76   */\n      swap1\n      pop\n        /* \"#utility.yul\":7:82   */\n      swap1\n      jump\t// out\n        /* \"#utility.yul\":88:205   */\n    tag_164:\n        /* \"#utility.yul\":197:198   */\n      0x00\n        /* \"#utility.yul\":194:195   */\n      dup1\n        /* \"#utility.yul\":187:199   */\n      revert\n        /* \"#utility.yul\":211:328   */\n    tag_165:\n        /* \"#utility.yul\":320:321   */\n      0x00\n        /* \"#utility.yul\":317:318   */\n      dup1\n        /* \"#utility.yul\":310:322   */\n      revert\n        /* \"#utility.yul\":334:411   */\n    tag_166:\n        /* \"#utility.yul\":371:378   */\n      0x00\n        /* \"#utility.yul\":400:405   */\n      dup2\n        /* \"#utility.yul\":389:405   */\n      swap1\n      pop\n        /* \"#utility.yul\":334:411   */\n      swap2\n      swap1\n      pop\n      jump\t// out\n        /* \"#utility.yul\":417:539   */\n    tag_167:\n        /* \"#utility.yul\":490:514   */\n      tag_228\n        /* \"#utility.yul\":508:513   */\n      dup2\n        /* \"#utility.yul\":490:514   */\n      tag_166\n      jump\t// in\n    tag_228:\n        /* \"#utility.yul\":483:488   */\n      dup2\n        /* \"#utility.yul\":480:515   */\n      eq\n        /* \"#utility.yul\":470:533   */\n      tag_229\n      jumpi\n        /* \"#utility.yul\":529:530   */\n      0x00\n        /* \"#utility.yul\":526:527   */\n      dup1\n        /* \"#utility.yul\":519:531   */\n      revert\n        /* \"#utility.yul\":470:533   */\n    tag_229:\n        /* \"#utility.yul\":417:539   */\n      pop\n      jump\t// out\n        /* \"#utility.yul\":545:684   */\n    tag_168:\n        /* \"#utility.yul\":591:596   */\n      0x00\n        /* \"#utility.yul\":629:635   */\n      dup2\n        /* \"#utility.yul\":616:636   */\n      calldataload\n        /* \"#utility.yul\":607:636   */\n      swap1\n      pop\n        /* \"#utility.yul\":645:678   */\n      tag_231\n        /* \"#utility.yul\":672:677   */\n      dup2\n        /* \"#utility.yul\":645:678   */\n      tag_167\n      jump\t// in\n    tag_231:\n        /* \"#utility.yul\":545:684   */\n      swap3\n      swap2\n      pop\n      pop\n      jump\t// out\n        /* \"#utility.yul\":690:1019   */\n    tag_18:\n        /* \"#utility.yul\":749:755   */\n      0x00\n        /* \"#utility.yul\":798:800   */\n      0x20\n        /* \"#utility.yul\":786:795   */\n      dup3\n        /* \"#utility.yul\":777:784   */\n      dup5\n        /* \"#utility.yul\":773:796   */\n      sub\n        /* \"#utility.yul\":769:801   */\n      slt\n        /* \"#utility.yul\":766:885   */\n      iszero\n      tag_233\n      jumpi\n        /* \"#utility.yul\":804:883   */\n      tag_234\n      tag_164\n      jump\t// in\n    tag_234:\n        /* \"#utility.yul\":766:885   */\n    tag_233:\n        /* \"#utility.yul\":924:925   */\n      0x00\n        /* \"#utility.yul\":949:1002   */\n      tag_235\n        /* \"#utility.yul\":994:1001   */\n      dup5\n        /* \"#utility.yul\":985:991   */\n      dup3\n        /* \"#utility.yul\":974:983   */\n      dup6\n        /* \"#utility.yul\":970:992   */\n      add\n        /* \"#utility.yul\":949:1002   */\n      tag_168\n      jump\t// in\n    tag_235:\n        /* \"#utility.yul\":939:1002   */\n      swap2\n      pop\n        /* \"#utility.yul\":895:1012   */\n      pop\n        /* \"#utility.yul\":690:1019   */\n      swap3\n      swap2\n      pop\n      pop\n      jump\t// out\n        /* \"#utility.yul\":1025:1143   */\n    tag_169:\n        /* \"#utility.yul\":1112:1136   */\n      tag_237\n        /* \"#utility.yul\":1130:1135   */\n      dup2\n        /* \"#utility.yul\":1112:1136   */\n      tag_166\n      jump\t// in\n    tag_237:\n        /* \"#utility.yul\":1107:1110   */\n      dup3\n        /* \"#utility.yul\":1100:1137   */\n      mstore\n        /* \"#utility.yul\":1025:1143   */\n      pop\n      pop\n      jump\t// out\n        /* \"#utility.yul\":1149:1371   */\n    tag_23:\n        /* \"#utility.yul\":1242:1246   */\n      0x00\n        /* \"#utility.yul\":1280:1282   */\n      0x20\n        /* \"#utility.yul\":1269:1278   */\n      dup3\n        /* \"#utility.yul\":1265:1283   */\n      add\n        /* \"#utility.yul\":1257:1283   */\n      swap1\n      pop\n        /* \"#utility.yul\":1293:1364   */\n      tag_239\n        /* \"#utility.yul\":1361:1362   */\n      0x00\n        /* \"#utility.yul\":1350:1359   */\n      dup4\n        /* \"#utility.yul\":1346:1363   */\n      add\n        /* \"#utility.yul\":1337:1343   */\n      dup5\n        /* \"#utility.yul\":1293:1364   */\n      tag_169\n      jump\t// in\n    tag_239:\n        /* \"#utility.yul\":1149:1371   */\n      swap3\n      swap2\n      pop\n      pop\n      jump\t// out\n        /* \"#utility.yul\":1377:1476   */\n    tag_170:\n        /* \"#utility.yul\":1429:1435   */\n      0x00\n        /* \"#utility.yul\":1463:1468   */\n      dup2\n        /* \"#utility.yul\":1457:1469   */\n      mload\n        /* \"#utility.yul\":1447:1469   */\n      swap1\n      pop\n        /* \"#utility.yul\":1377:1476   */\n      swap2\n      swap1\n      pop\n      jump\t// out\n        /* \"#utility.yul\":1482:1651   */\n    tag_171:\n        /* \"#utility.yul\":1566:1577   */\n      0x00\n        /* \"#utility.yul\":1600:1606   */\n      dup3\n        /* \"#utility.yul\":1595:1598   */\n      dup3\n        /* \"#utility.yul\":1588:1607   */\n      mstore\n        /* \"#utility.yul\":1640:1644   */\n      0x20\n        /* \"#utility.yul\":1635:1638   */\n      dup3\n        /* \"#utility.yul\":1631:1645   */\n      add\n        /* \"#utility.yul\":1616:1645   */\n      swap1\n      pop\n        /* \"#utility.yul\":1482:1651   */\n      swap3\n      swap2\n      pop\n      pop\n      jump\t// out\n        /* \"#utility.yul\":1657:1796   */\n    tag_172:\n        /* \"#utility.yul\":1746:1752   */\n      dup3\n        /* \"#utility.yul\":1741:1744   */\n      dup2\n        /* \"#utility.yul\":1736:1739   */\n      dup4\n        /* \"#utility.yul\":1730:1753   */\n      mcopy\n        /* \"#utility.yul\":1787:1788   */\n      0x00\n        /* \"#utility.yul\":1778:1784   */\n      dup4\n        /* \"#utility.yul\":1773:1776   */\n      dup4\n        /* \"#utility.yul\":1769:1785   */\n      add\n        /* \"#utility.yul\":1762:1789   */\n      mstore\n        /* \"#utility.yul\":1657:1796   */\n      pop\n      pop\n      pop\n      jump\t// out\n        /* \"#utility.yul\":1802:1904   */\n    tag_173:\n        /* \"#utility.yul\":1843:1849   */\n      0x00\n        /* \"#utility.yul\":1894:1896   */\n      0x1f\n        /* \"#utility.yul\":1890:1897   */\n      not\n        /* \"#utility.yul\":1885:1887   */\n      0x1f\n        /* \"#utility.yul\":1878:1883   */\n      dup4\n        /* \"#utility.yul\":1874:1888   */\n      add\n        /* \"#utility.yul\":1870:1898   */\n      and\n        /* \"#utility.yul\":1860:1898   */\n      swap1\n      pop\n        /* \"#utility.yul\":1802:1904   */\n      swap2\n      swap1\n      pop\n      jump\t// out\n        /* \"#utility.yul\":1910:2287   */\n    tag_174:\n        /* \"#utility.yul\":1998:2001   */\n      0x00\n        /* \"#utility.yul\":2026:2065   */\n      tag_245\n        /* \"#utility.yul\":2059:2064   */\n      dup3\n        /* \"#utility.yul\":2026:2065   */\n      tag_170\n      jump\t// in\n    tag_245:\n        /* \"#utility.yul\":2081:2152   */\n      tag_246\n        /* \"#utility.yul\":2145:2151   */\n      dup2\n        /* \"#utility.yul\":2140:2143   */\n      dup6\n        /* \"#utility.yul\":2081:2152   */\n      tag_171\n      jump\t// in\n    tag_246:\n        /* \"#utility.yul\":2074:2152   */\n      swap4\n      pop\n        /* \"#utility.yul\":2161:2226   */\n      tag_247\n        /* \"#utility.yul\":2219:2225   */\n      dup2\n        /* \"#utility.yul\":2214:2217   */\n      dup6\n        /* \"#utility.yul\":2207:2211   */\n      0x20\n        /* \"#utility.yul\":2200:2205   */\n      dup7\n        /* \"#utility.yul\":2196:2212   */\n      add\n        /* \"#utility.yul\":2161:2226   */\n      tag_172\n      jump\t// in\n    tag_247:\n        /* \"#utility.yul\":2251:2280   */\n      tag_248\n        /* \"#utility.yul\":2273:2279   */\n      dup2\n        /* \"#utility.yul\":2251:2280   */\n      tag_173\n      jump\t// in\n    tag_248:\n        /* \"#utility.yul\":2246:2249   */\n      dup5\n        /* \"#utility.yul\":2242:2281   */\n      add\n        /* \"#utility.yul\":2235:2281   */\n      swap2\n      pop\n        /* \"#utility.yul\":2002:2287   */\n      pop\n        /* \"#utility.yul\":1910:2287   */\n      swap3\n      swap2\n      pop\n      pop\n      jump\t// out\n        /* \"#utility.yul\":2293:2826   */\n    tag_31:\n        /* \"#utility.yul\":2462:2466   */\n      0x00\n        /* \"#utility.yul\":2500:2502   */\n      0x60\n        /* \"#utility.yul\":2489:2498   */\n      dup3\n        /* \"#utility.yul\":2485:2503   */\n      add\n        /* \"#utility.yul\":2477:2503   */\n      swap1\n      pop\n        /* \"#utility.yul\":2513:2584   */\n      tag_250\n        /* \"#utility.yul\":2581:2582   */\n      0x00\n        /* \"#utility.yul\":2570:2579   */\n      dup4\n        /* \"#utility.yul\":2566:2583   */\n      add\n        /* \"#utility.yul\":2557:2563   */\n      dup7\n        /* \"#utility.yul\":2513:2584   */\n      tag_169\n      jump\t// in\n    tag_250:\n        /* \"#utility.yul\":2631:2640   */\n      dup2\n        /* \"#utility.yul\":2625:2629   */\n      dup2\n        /* \"#utility.yul\":2621:2641   */\n      sub\n        /* \"#utility.yul\":2616:2618   */\n      0x20\n        /* \"#utility.yul\":2605:2614   */\n      dup4\n        /* \"#utility.yul\":2601:2619   */\n      add\n        /* \"#utility.yul\":2594:2642   */\n      mstore\n        /* \"#utility.yul\":2659:2737   */\n      tag_251\n        /* \"#utility.yul\":2732:2736   */\n      dup2\n        /* \"#utility.yul\":2723:2729   */\n      dup6\n        /* \"#utility.yul\":2659:2737   */\n      tag_174\n      jump\t// in\n    tag_251:\n        /* \"#utility.yul\":2651:2737   */\n      swap1\n      pop\n        /* \"#utility.yul\":2747:2819   */\n      tag_252\n        /* \"#utility.yul\":2815:2817   */\n      0x40\n        /* \"#utility.yul\":2804:2813   */\n      dup4\n        /* \"#utility.yul\":2800:2818   */\n      add\n        /* \"#utility.yul\":2791:2797   */\n      dup5\n        /* \"#utility.yul\":2747:2819   */\n      tag_169\n      jump\t// in\n    tag_252:\n        /* \"#utility.yul\":2293:2826   */\n      swap5\n      swap4\n      pop\n      pop\n      pop\n      pop\n      jump\t// out\n        /* \"#utility.yul\":2832:2949   */\n    tag_175:\n        /* \"#utility.yul\":2941:2942   */\n      0x00\n        /* \"#utility.yul\":2938:2939   */\n      dup1\n        /* \"#utility.yul\":2931:2943   */\n      revert\n        /* \"#utility.yul\":2955:3072   */\n    tag_176:\n        /* \"#utility.yul\":3064:3065   */\n      0x00\n        /* \"#utility.yul\":3061:3062   */\n      dup1\n        /* \"#utility.yul\":3054:3066   */\n      revert\n        /* \"#utility.yul\":3078:3258   */\n    tag_177:\n        /* \"#utility.yul\":3126:3203   */\n      0x4e487b7100000000000000000000000000000000000000000000000000000000\n        /* \"#utility.yul\":3123:3124   */\n      0x00\n        /* \"#utility.yul\":3116:3204   */\n      mstore\n        /* \"#utility.yul\":3223:3227   */\n      0x41\n        /* \"#utility.yul\":3220:3221   */\n      0x04\n        /* \"#utility.yul\":3213:3228   */\n      mstore\n        /* \"#utility.yul\":3247:3251   */\n      0x24\n        /* \"#utility.yul\":3244:3245   */\n      0x00\n        /* \"#utility.yul\":3237:3252   */\n      revert\n        /* \"#utility.yul\":3264:3545   */\n    tag_178:\n        /* \"#utility.yul\":3347:3374   */\n      tag_257\n        /* \"#utility.yul\":3369:3373   */\n      dup3\n        /* \"#utility.yul\":3347:3374   */\n      tag_173\n      jump\t// in\n    tag_257:\n        /* \"#utility.yul\":3339:3345   */\n      dup2\n        /* \"#utility.yul\":3335:3375   */\n      add\n        /* \"#utility.yul\":3477:3483   */\n      dup2\n        /* \"#utility.yul\":3465:3475   */\n      dup2\n        /* \"#utility.yul\":3462:3484   */\n      lt\n        /* \"#utility.yul\":3441:3459   */\n      0xffffffffffffffff\n        /* \"#utility.yul\":3429:3439   */\n      dup3\n        /* \"#utility.yul\":3426:3460   */\n      gt\n        /* \"#utility.yul\":3423:3485   */\n      or\n        /* \"#utility.yul\":3420:3508   */\n      iszero\n      tag_258\n      jumpi\n        /* \"#utility.yul\":3488:3506   */\n      tag_259\n      tag_177\n      jump\t// in\n    tag_259:\n        /* \"#utility.yul\":3420:3508   */\n    tag_258:\n        /* \"#utility.yul\":3528:3538   */\n      dup1\n        /* \"#utility.yul\":3524:3526   */\n      0x40\n        /* \"#utility.yul\":3517:3539   */\n      mstore\n        /* \"#utility.yul\":3307:3545   */\n      pop\n        /* \"#utility.yul\":3264:3545   */\n      pop\n      pop\n      jump\t// out\n        /* \"#utility.yul\":3551:3680   */\n    tag_179:\n        /* \"#utility.yul\":3585:3591   */\n      0x00\n        /* \"#utility.yul\":3612:3632   */\n      tag_261\n      tag_163\n      jump\t// in\n    tag_261:\n        /* \"#utility.yul\":3602:3632   */\n      swap1\n      pop\n        /* \"#utility.yul\":3641:3674   */\n      tag_262\n        /* \"#utility.yul\":3669:3673   */\n      dup3\n        /* \"#utility.yul\":3661:3667   */\n      dup3\n        /* \"#utility.yul\":3641:3674   */\n      tag_178\n      jump\t// in\n    tag_262:\n        /* \"#utility.yul\":3551:3680   */\n      swap2\n      swap1\n      pop\n      jump\t// out\n        /* \"#utility.yul\":3686:3994   */\n    tag_180:\n        /* \"#utility.yul\":3748:3752   */\n      0x00\n        /* \"#utility.yul\":3838:3856   */\n      0xffffffffffffffff\n        /* \"#utility.yul\":3830:3836   */\n      dup3\n        /* \"#utility.yul\":3827:3857   */\n      gt\n        /* \"#utility.yul\":3824:3880   */\n      iszero\n      tag_264\n      jumpi\n        /* \"#utility.yul\":3860:3878   */\n      tag_265\n      tag_177\n      jump\t// in\n    tag_265:\n        /* \"#utility.yul\":3824:3880   */\n    tag_264:\n        /* \"#utility.yul\":3898:3927   */\n      tag_266\n        /* \"#utility.yul\":3920:3926   */\n      dup3\n        /* \"#utility.yul\":3898:3927   */\n      tag_173\n      jump\t// in\n    tag_266:\n        /* \"#utility.yul\":3890:3927   */\n      swap1\n      pop\n        /* \"#utility.yul\":3982:3986   */\n      0x20\n        /* \"#utility.yul\":3976:3980   */\n      dup2\n        /* \"#utility.yul\":3972:3987   */\n      add\n        /* \"#utility.yul\":3964:3987   */\n      swap1\n      pop\n        /* \"#utility.yul\":3686:3994   */\n      swap2\n      swap1\n      pop\n      jump\t// out\n        /* \"#utility.yul\":4000:4148   */\n    tag_181:\n        /* \"#utility.yul\":4098:4104   */\n      dup3\n        /* \"#utility.yul\":4093:4096   */\n      dup2\n        /* \"#utility.yul\":4088:4091   */\n      dup4\n        /* \"#utility.yul\":4075:4105   */\n      calldatacopy\n        /* \"#utility.yul\":4139:4140   */\n      0x00\n        /* \"#utility.yul\":4130:4136   */\n      dup4\n        /* \"#utility.yul\":4125:4128   */\n      dup4\n        /* \"#utility.yul\":4121:4137   */\n      add\n        /* \"#utility.yul\":4114:4141   */\n      mstore\n        /* \"#utility.yul\":4000:4148   */\n      pop\n      pop\n      pop\n      jump\t// out\n        /* \"#utility.yul\":4154:4579   */\n    tag_182:\n        /* \"#utility.yul\":4232:4237   */\n      0x00\n        /* \"#utility.yul\":4257:4323   */\n      tag_269\n        /* \"#utility.yul\":4273:4322   */\n      tag_270\n        /* \"#utility.yul\":4315:4321   */\n      dup5\n        /* \"#utility.yul\":4273:4322   */\n      tag_180\n      jump\t// in\n    tag_270:\n        /* \"#utility.yul\":4257:4323   */\n      tag_179\n      jump\t// in\n    tag_269:\n        /* \"#utility.yul\":4248:4323   */\n      swap1\n      pop\n        /* \"#utility.yul\":4346:4352   */\n      dup3\n        /* \"#utility.yul\":4339:4344   */\n      dup2\n        /* \"#utility.yul\":4332:4353   */\n      mstore\n        /* \"#utility.yul\":4384:4388   */\n      0x20\n        /* \"#utility.yul\":4377:4382   */\n      dup2\n        /* \"#utility.yul\":4373:4389   */\n      add\n        /* \"#utility.yul\":4422:4425   */\n      dup5\n        /* \"#utility.yul\":4413:4419   */\n      dup5\n        /* \"#utility.yul\":4408:4411   */\n      dup5\n        /* \"#utility.yul\":4404:4420   */\n      add\n        /* \"#utility.yul\":4401:4426   */\n      gt\n        /* \"#utility.yul\":4398:4510   */\n      iszero\n      tag_271\n      jumpi\n        /* \"#utility.yul\":4429:4508   */\n      tag_272\n      tag_176\n      jump\t// in\n    tag_272:\n        /* \"#utility.yul\":4398:4510   */\n    tag_271:\n        /* \"#utility.yul\":4519:4573   */\n      tag_273\n        /* \"#utility.yul\":4566:4572   */\n      dup5\n        /* \"#utility.yul\":4561:4564   */\n      dup3\n        /* \"#utility.yul\":4556:4559   */\n      dup6\n        /* \"#utility.yul\":4519:4573   */\n      tag_181\n      jump\t// in\n    tag_273:\n        /* \"#utility.yul\":4238:4579   */\n      pop\n        /* \"#utility.yul\":4154:4579   */\n      swap4\n      swap3\n      pop\n      pop\n      pop\n      jump\t// out\n        /* \"#utility.yul\":4599:4939   */\n    tag_183:\n        /* \"#utility.yul\":4655:4660   */\n      0x00\n        /* \"#utility.yul\":4704:4707   */\n      dup3\n        /* \"#utility.yul\":4697:4701   */\n      0x1f\n        /* \"#utility.yul\":4689:4695   */\n      dup4\n        /* \"#utility.yul\":4685:4702   */\n      add\n        /* \"#utility.yul\":4681:4708   */\n      slt\n        /* \"#utility.yul\":4671:4793   */\n      tag_275\n      jumpi\n        /* \"#utility.yul\":4712:4791   */\n      tag_276\n      tag_175\n      jump\t// in\n    tag_276:\n        /* \"#utility.yul\":4671:4793   */\n    tag_275:\n        /* \"#utility.yul\":4829:4835   */\n      dup2\n        /* \"#utility.yul\":4816:4836   */\n      calldataload\n        /* \"#utility.yul\":4854:4933   */\n      tag_277\n        /* \"#utility.yul\":4929:4932   */\n      dup5\n        /* \"#utility.yul\":4921:4927   */\n      dup3\n        /* \"#utility.yul\":4914:4918   */\n      0x20\n        /* \"#utility.yul\":4906:4912   */\n      dup7\n        /* \"#utility.yul\":4902:4919   */\n      add\n        /* \"#utility.yul\":4854:4933   */\n      tag_182\n      jump\t// in\n    tag_277:\n        /* \"#utility.yul\":4845:4933   */\n      swap2\n      pop\n        /* \"#utility.yul\":4661:4939   */\n      pop\n        /* \"#utility.yul\":4599:4939   */\n      swap3\n      swap2\n      pop\n      pop\n      jump\t// out\n        /* \"#utility.yul\":4945:5454   */\n    tag_34:\n        /* \"#utility.yul\":5014:5020   */\n      0x00\n        /* \"#utility.yul\":5063:5065   */\n      0x20\n        /* \"#utility.yul\":5051:5060   */\n      dup3\n        /* \"#utility.yul\":5042:5049   */\n      dup5\n        /* \"#utility.yul\":5038:5061   */\n      sub\n        /* \"#utility.yul\":5034:5066   */\n      slt\n        /* \"#utility.yul\":5031:5150   */\n      iszero\n      tag_279\n      jumpi\n        /* \"#utility.yul\":5069:5148   */\n      tag_280\n      tag_164\n      jump\t// in\n    tag_280:\n        /* \"#utility.yul\":5031:5150   */\n    tag_279:\n        /* \"#utility.yul\":5217:5218   */\n      0x00\n        /* \"#utility.yul\":5206:5215   */\n      dup3\n        /* \"#utility.yul\":5202:5219   */\n      add\n        /* \"#utility.yul\":5189:5220   */\n      calldataload\n        /* \"#utility.yul\":5247:5265   */\n      0xffffffffffffffff\n        /* \"#utility.yul\":5239:5245   */\n      dup2\n        /* \"#utility.yul\":5236:5266   */\n      gt\n        /* \"#utility.yul\":5233:5350   */\n      iszero\n      tag_281\n      jumpi\n        /* \"#utility.yul\":5269:5348   */\n      tag_282\n      tag_165\n      jump\t// in\n    tag_282:\n        /* \"#utility.yul\":5233:5350   */\n    tag_281:\n        /* \"#utility.yul\":5374:5437   */\n      tag_283\n        /* \"#utility.yul\":5429:5436   */\n      dup5\n        /* \"#utility.yul\":5420:5426   */\n      dup3\n        /* \"#utility.yul\":5409:5418   */\n      dup6\n        /* \"#utility.yul\":5405:5427   */\n      add\n        /* \"#utility.yul\":5374:5437   */\n      tag_183\n      jump\t// in\n    tag_283:\n        /* \"#utility.yul\":5364:5437   */\n      swap2\n      pop\n        /* \"#utility.yul\":5160:5447   */\n      pop\n        /* \"#utility.yul\":4945:5454   */\n      swap3\n      swap2\n      pop\n      pop\n      jump\t// out\n        /* \"#utility.yul\":5460:5586   */\n    tag_184:\n        /* \"#utility.yul\":5497:5504   */\n      0x00\n        /* \"#utility.yul\":5537:5579   */\n      0xffffffffffffffffffffffffffffffffffffffff\n        /* \"#utility.yul\":5530:5535   */\n      dup3\n        /* \"#utility.yul\":5526:5580   */\n      and\n        /* \"#utility.yul\":5515:5580   */\n      swap1\n      pop\n        /* \"#utility.yul\":5460:5586   */\n      swap2\n      swap1\n      pop\n      jump\t// out\n        /* \"#utility.yul\":5592:5688   */\n    tag_185:\n        /* \"#utility.yul\":5629:5636   */\n      0x00\n        /* \"#utility.yul\":5658:5682   */\n      tag_286\n        /* \"#utility.yul\":5676:5681   */\n      dup3\n        /* \"#utility.yul\":5658:5682   */\n      tag_184\n      jump\t// in\n    tag_286:\n        /* \"#utility.yul\":5647:5682   */\n      swap1\n      pop\n        /* \"#utility.yul\":5592:5688   */\n      swap2\n      swap1\n      pop\n      jump\t// out\n        /* \"#utility.yul\":5694:5812   */\n    tag_186:\n        /* \"#utility.yul\":5781:5805   */\n      tag_288\n        /* \"#utility.yul\":5799:5804   */\n      dup2\n        /* \"#utility.yul\":5781:5805   */\n      tag_185\n      jump\t// in\n    tag_288:\n        /* \"#utility.yul\":5776:5779   */\n      dup3\n        /* \"#utility.yul\":5769:5806   */\n      mstore\n        /* \"#utility.yul\":5694:5812   */\n      pop\n      pop\n      jump\t// out\n        /* \"#utility.yul\":5818:6040   */\n    tag_43:\n        /* \"#utility.yul\":5911:5915   */\n      0x00\n        /* \"#utility.yul\":5949:5951   */\n      0x20\n        /* \"#utility.yul\":5938:5947   */\n      dup3\n        /* \"#utility.yul\":5934:5952   */\n      add\n        /* \"#utility.yul\":5926:5952   */\n      swap1\n      pop\n        /* \"#utility.yul\":5962:6033   */\n      tag_290\n        /* \"#utility.yul\":6030:6031   */\n      0x00\n        /* \"#utility.yul\":6019:6028   */\n      dup4\n        /* \"#utility.yul\":6015:6032   */\n      add\n        /* \"#utility.yul\":6006:6012   */\n      dup5\n        /* \"#utility.yul\":5962:6033   */\n      tag_186\n      jump\t// in\n    tag_290:\n        /* \"#utility.yul\":5818:6040   */\n      swap3\n      swap2\n      pop\n      pop\n      jump\t// out\n        /* \"#utility.yul\":6046:6359   */\n    tag_47:\n        /* \"#utility.yul\":6159:6163   */\n      0x00\n        /* \"#utility.yul\":6197:6199   */\n      0x20\n        /* \"#utility.yul\":6186:6195   */\n      dup3\n        /* \"#utility.yul\":6182:6200   */\n      add\n        /* \"#utility.yul\":6174:6200   */\n      swap1\n      pop\n        /* \"#utility.yul\":6246:6255   */\n      dup2\n        /* \"#utility.yul\":6240:6244   */\n      dup2\n        /* \"#utility.yul\":6236:6256   */\n      sub\n        /* \"#utility.yul\":6232:6233   */\n      0x00\n        /* \"#utility.yul\":6221:6230   */\n      dup4\n        /* \"#utility.yul\":6217:6234   */\n      add\n        /* \"#utility.yul\":6210:6257   */\n      mstore\n        /* \"#utility.yul\":6274:6352   */\n      tag_292\n        /* \"#utility.yul\":6347:6351   */\n      dup2\n        /* \"#utility.yul\":6338:6344   */\n      dup5\n        /* \"#utility.yul\":6274:6352   */\n      tag_174\n      jump\t// in\n    tag_292:\n        /* \"#utility.yul\":6266:6352   */\n      swap1\n      pop\n        /* \"#utility.yul\":6046:6359   */\n      swap3\n      swap2\n      pop\n      pop\n      jump\t// out\n        /* \"#utility.yul\":6365:6487   */\n    tag_187:\n        /* \"#utility.yul\":6438:6462   */\n      tag_294\n        /* \"#utility.yul\":6456:6461   */\n      dup2\n        /* \"#utility.yul\":6438:6462   */\n      tag_185\n      jump\t// in\n    tag_294:\n        /* \"#utility.yul\":6431:6436   */\n      dup2\n        /* \"#utility.yul\":6428:6463   */\n      eq\n        /* \"#utility.yul\":6418:6481   */\n      tag_295\n      jumpi\n        /* \"#utility.yul\":6477:6478   */\n      0x00\n        /* \"#utility.yul\":6474:6475   */\n      dup1\n        /* \"#utility.yul\":6467:6479   */\n      revert\n        /* \"#utility.yul\":6418:6481   */\n    tag_295:\n        /* \"#utility.yul\":6365:6487   */\n      pop\n      jump\t// out\n        /* \"#utility.yul\":6493:6632   */\n    tag_188:\n        /* \"#utility.yul\":6539:6544   */\n      0x00\n        /* \"#utility.yul\":6577:6583   */\n      dup2\n        /* \"#utility.yul\":6564:6584   */\n      calldataload\n        /* \"#utility.yul\":6555:6584   */\n      swap1\n      pop\n        /* \"#utility.yul\":6593:6626   */\n      tag_297\n        /* \"#utility.yul\":6620:6625   */\n      dup2\n        /* \"#utility.yul\":6593:6626   */\n      tag_187\n      jump\t// in\n    tag_297:\n        /* \"#utility.yul\":6493:6632   */\n      swap3\n      swap2\n      pop\n      pop\n      jump\t// out\n        /* \"#utility.yul\":6638:6967   */\n    tag_50:\n        /* \"#utility.yul\":6697:6703   */\n      0x00\n        /* \"#utility.yul\":6746:6748   */\n      0x20\n        /* \"#utility.yul\":6734:6743   */\n      dup3\n        /* \"#utility.yul\":6725:6732   */\n      dup5\n        /* \"#utility.yul\":6721:6744   */\n      sub\n        /* \"#utility.yul\":6717:6749   */\n      slt\n        /* \"#utility.yul\":6714:6833   */\n      iszero\n      tag_299\n      jumpi\n        /* \"#utility.yul\":6752:6831   */\n      tag_300\n      tag_164\n      jump\t// in\n    tag_300:\n        /* \"#utility.yul\":6714:6833   */\n    tag_299:\n        /* \"#utility.yul\":6872:6873   */\n      0x00\n        /* \"#utility.yul\":6897:6950   */\n      tag_301\n        /* \"#utility.yul\":6942:6949   */\n      dup5\n        /* \"#utility.yul\":6933:6939   */\n      dup3\n        /* \"#utility.yul\":6922:6931   */\n      dup6\n        /* \"#utility.yul\":6918:6940   */\n      add\n        /* \"#utility.yul\":6897:6950   */\n      tag_188\n      jump\t// in\n    tag_301:\n        /* \"#utility.yul\":6887:6950   */\n      swap2\n      pop\n        /* \"#utility.yul\":6843:6960   */\n      pop\n        /* \"#utility.yul\":6638:6967   */\n      swap3\n      swap2\n      pop\n      pop\n      jump\t// out\n        /* \"#utility.yul\":6973:7063   */\n    tag_189:\n        /* \"#utility.yul\":7007:7014   */\n      0x00\n        /* \"#utility.yul\":7050:7055   */\n      dup2\n        /* \"#utility.yul\":7043:7056   */\n      iszero\n        /* \"#utility.yul\":7036:7057   */\n      iszero\n        /* \"#utility.yul\":7025:7057   */\n      swap1\n      pop\n        /* \"#utility.yul\":6973:7063   */\n      swap2\n      swap1\n      pop\n      jump\t// out\n        /* \"#utility.yul\":7069:7178   */\n    tag_190:\n        /* \"#utility.yul\":7150:7171   */\n      tag_304\n        /* \"#utility.yul\":7165:7170   */\n      dup2\n        /* \"#utility.yul\":7150:7171   */\n      tag_189\n      jump\t// in\n    tag_304:\n        /* \"#utility.yul\":7145:7148   */\n      dup3\n        /* \"#utility.yul\":7138:7172   */\n      mstore\n        /* \"#utility.yul\":7069:7178   */\n      pop\n      pop\n      jump\t// out\n        /* \"#utility.yul\":7184:7602   */\n    tag_53:\n        /* \"#utility.yul\":7321:7325   */\n      0x00\n        /* \"#utility.yul\":7359:7361   */\n      0x60\n        /* \"#utility.yul\":7348:7357   */\n      dup3\n        /* \"#utility.yul\":7344:7362   */\n      add\n        /* \"#utility.yul\":7336:7362   */\n      swap1\n      pop\n        /* \"#utility.yul\":7372:7437   */\n      tag_306\n        /* \"#utility.yul\":7434:7435   */\n      0x00\n        /* \"#utility.yul\":7423:7432   */\n      dup4\n        /* \"#utility.yul\":7419:7436   */\n      add\n        /* \"#utility.yul\":7410:7416   */\n      dup7\n        /* \"#utility.yul\":7372:7437   */\n      tag_190\n      jump\t// in\n    tag_306:\n        /* \"#utility.yul\":7447:7513   */\n      tag_307\n        /* \"#utility.yul\":7509:7511   */\n      0x20\n        /* \"#utility.yul\":7498:7507   */\n      dup4\n        /* \"#utility.yul\":7494:7512   */\n      add\n        /* \"#utility.yul\":7485:7491   */\n      dup6\n        /* \"#utility.yul\":7447:7513   */\n      tag_190\n      jump\t// in\n    tag_307:\n        /* \"#utility.yul\":7523:7595   */\n      tag_308\n        /* \"#utility.yul\":7591:7593   */\n      0x40\n        /* \"#utility.yul\":7580:7589   */\n      dup4\n        /* \"#utility.yul\":7576:7594   */\n      add\n        /* \"#utility.yul\":7567:7573   */\n      dup5\n        /* \"#utility.yul\":7523:7595   */\n      tag_169\n      jump\t// in\n    tag_308:\n        /* \"#utility.yul\":7184:7602   */\n      swap5\n      swap4\n      pop\n      pop\n      pop\n      pop\n      jump\t// out\n        /* \"#utility.yul\":7608:7788   */\n    tag_64:\n        /* \"#utility.yul\":7656:7733   */\n      0x4e487b7100000000000000000000000000000000000000000000000000000000\n        /* \"#utility.yul\":7653:7654   */\n      0x00\n        /* \"#utility.yul\":7646:7734   */\n      mstore\n        /* \"#utility.yul\":7753:7757   */\n      0x21\n        /* \"#utility.yul\":7750:7751   */\n      0x04\n        /* \"#utility.yul\":7743:7758   */\n      mstore\n        /* \"#utility.yul\":7777:7781   */\n      0x24\n        /* \"#utility.yul\":7774:7775   */\n      0x00\n        /* \"#utility.yul\":7767:7782   */\n      revert\n        /* \"#utility.yul\":7794:7914   */\n    tag_191:\n        /* \"#utility.yul\":7882:7883   */\n      0x03\n        /* \"#utility.yul\":7875:7880   */\n      dup2\n        /* \"#utility.yul\":7872:7884   */\n      lt\n        /* \"#utility.yul\":7862:7908   */\n      tag_311\n      jumpi\n        /* \"#utility.yul\":7888:7906   */\n      tag_312\n      tag_64\n      jump\t// in\n    tag_312:\n        /* \"#utility.yul\":7862:7908   */\n    tag_311:\n        /* \"#utility.yul\":7794:7914   */\n      pop\n      jump\t// out\n        /* \"#utility.yul\":7920:8061   */\n    tag_192:\n        /* \"#utility.yul\":7972:7979   */\n      0x00\n        /* \"#utility.yul\":8001:8006   */\n      dup2\n        /* \"#utility.yul\":7990:8006   */\n      swap1\n      pop\n        /* \"#utility.yul\":8007:8055   */\n      tag_314\n        /* \"#utility.yul\":8049:8054   */\n      dup3\n        /* \"#utility.yul\":8007:8055   */\n      tag_191\n      jump\t// in\n    tag_314:\n        /* \"#utility.yul\":7920:8061   */\n      swap2\n      swap1\n      pop\n      jump\t// out\n        /* \"#utility.yul\":8067:8208   */\n    tag_193:\n        /* \"#utility.yul\":8130:8139   */\n      0x00\n        /* \"#utility.yul\":8163:8202   */\n      tag_316\n        /* \"#utility.yul\":8196:8201   */\n      dup3\n        /* \"#utility.yul\":8163:8202   */\n      tag_192\n      jump\t// in\n    tag_316:\n        /* \"#utility.yul\":8150:8202   */\n      swap1\n      pop\n        /* \"#utility.yul\":8067:8208   */\n      swap2\n      swap1\n      pop\n      jump\t// out\n        /* \"#utility.yul\":8214:8371   */\n    tag_194:\n        /* \"#utility.yul\":8314:8364   */\n      tag_318\n        /* \"#utility.yul\":8358:8363   */\n      dup2\n        /* \"#utility.yul\":8314:8364   */\n      tag_193\n      jump\t// in\n    tag_318:\n        /* \"#utility.yul\":8309:8312   */\n      dup3\n        /* \"#utility.yul\":8302:8365   */\n      mstore\n        /* \"#utility.yul\":8214:8371   */\n      pop\n      pop\n      jump\t// out\n        /* \"#utility.yul\":8377:8625   */\n    tag_57:\n        /* \"#utility.yul\":8483:8487   */\n      0x00\n        /* \"#utility.yul\":8521:8523   */\n      0x20\n        /* \"#utility.yul\":8510:8519   */\n      dup3\n        /* \"#utility.yul\":8506:8524   */\n      add\n        /* \"#utility.yul\":8498:8524   */\n      swap1\n      pop\n        /* \"#utility.yul\":8534:8618   */\n      tag_320\n        /* \"#utility.yul\":8615:8616   */\n      0x00\n        /* \"#utility.yul\":8604:8613   */\n      dup4\n        /* \"#utility.yul\":8600:8617   */\n      add\n        /* \"#utility.yul\":8591:8597   */\n      dup5\n        /* \"#utility.yul\":8534:8618   */\n      tag_194\n      jump\t// in\n    tag_320:\n        /* \"#utility.yul\":8377:8625   */\n      swap3\n      swap2\n      pop\n      pop\n      jump\t// out\n        /* \"#utility.yul\":8631:8810   */\n    tag_195:\n        /* \"#utility.yul\":8771:8802   */\n      0x496e76616c696420737461746520666f72207468697320616374696f6e000000\n        /* \"#utility.yul\":8767:8768   */\n      0x00\n        /* \"#utility.yul\":8759:8765   */\n      dup3\n        /* \"#utility.yul\":8755:8769   */\n      add\n        /* \"#utility.yul\":8748:8803   */\n      mstore\n        /* \"#utility.yul\":8631:8810   */\n      pop\n      jump\t// out\n        /* \"#utility.yul\":8816:9182   */\n    tag_196:\n        /* \"#utility.yul\":8958:8961   */\n      0x00\n        /* \"#utility.yul\":8979:9046   */\n      tag_323\n        /* \"#utility.yul\":9043:9045   */\n      0x1d\n        /* \"#utility.yul\":9038:9041   */\n      dup4\n        /* \"#utility.yul\":8979:9046   */\n      tag_171\n      jump\t// in\n    tag_323:\n        /* \"#utility.yul\":8972:9046   */\n      swap2\n      pop\n        /* \"#utility.yul\":9055:9148   */\n      tag_324\n        /* \"#utility.yul\":9144:9147   */\n      dup3\n        /* \"#utility.yul\":9055:9148   */\n      tag_195\n      jump\t// in\n    tag_324:\n        /* \"#utility.yul\":9173:9175   */\n      0x20\n        /* \"#utility.yul\":9168:9171   */\n      dup3\n        /* \"#utility.yul\":9164:9176   */\n      add\n        /* \"#utility.yul\":9157:9176   */\n      swap1\n      pop\n        /* \"#utility.yul\":8816:9182   */\n      swap2\n      swap1\n      pop\n      jump\t// out\n        /* \"#utility.yul\":9188:9607   */\n    tag_69:\n        /* \"#utility.yul\":9354:9358   */\n      0x00\n        /* \"#utility.yul\":9392:9394   */\n      0x20\n        /* \"#utility.yul\":9381:9390   */\n      dup3\n        /* \"#utility.yul\":9377:9395   */\n      add\n        /* \"#utility.yul\":9369:9395   */\n      swap1\n      pop\n        /* \"#utility.yul\":9441:9450   */\n      dup2\n        /* \"#utility.yul\":9435:9439   */\n      dup2\n        /* \"#utility.yul\":9431:9451   */\n      sub\n        /* \"#utility.yul\":9427:9428   */\n      0x00\n        /* \"#utility.yul\":9416:9425   */\n      dup4\n        /* \"#utility.yul\":9412:9429   */\n      add\n        /* \"#utility.yul\":9405:9452   */\n      mstore\n        /* \"#utility.yul\":9469:9600   */\n      tag_326\n        /* \"#utility.yul\":9595:9599   */\n      dup2\n        /* \"#utility.yul\":9469:9600   */\n      tag_196\n      jump\t// in\n    tag_326:\n        /* \"#utility.yul\":9461:9600   */\n      swap1\n      pop\n        /* \"#utility.yul\":9188:9607   */\n      swap2\n      swap1\n      pop\n      jump\t// out\n        /* \"#utility.yul\":9613:9793   */\n    tag_197:\n        /* \"#utility.yul\":9753:9785   */\n      0x596f7520617265206e6f7420617574686f72697a656420746f20766f74650000\n        /* \"#utility.yul\":9749:9750   */\n      0x00\n        /* \"#utility.yul\":9741:9747   */\n      dup3\n        /* \"#utility.yul\":9737:9751   */\n      add\n        /* \"#utility.yul\":9730:9786   */\n      mstore\n        /* \"#utility.yul\":9613:9793   */\n      pop\n      jump\t// out\n        /* \"#utility.yul\":9799:10165   */\n    tag_198:\n        /* \"#utility.yul\":9941:9944   */\n      0x00\n        /* \"#utility.yul\":9962:10029   */\n      tag_329\n        /* \"#utility.yul\":10026:10028   */\n      0x1e\n        /* \"#utility.yul\":10021:10024   */\n      dup4\n        /* \"#utility.yul\":9962:10029   */\n      tag_171\n      jump\t// in\n    tag_329:\n        /* \"#utility.yul\":9955:10029   */\n      swap2\n      pop\n        /* \"#utility.yul\":10038:10131   */\n      tag_330\n        /* \"#utility.yul\":10127:10130   */\n      dup3\n        /* \"#utility.yul\":10038:10131   */\n      tag_197\n      jump\t// in\n    tag_330:\n        /* \"#utility.yul\":10156:10158   */\n      0x20\n        /* \"#utility.yul\":10151:10154   */\n      dup3\n        /* \"#utility.yul\":10147:10159   */\n      add\n        /* \"#utility.yul\":10140:10159   */\n      swap1\n      pop\n        /* \"#utility.yul\":9799:10165   */\n      swap2\n      swap1\n      pop\n      jump\t// out\n        /* \"#utility.yul\":10171:10590   */\n    tag_73:\n        /* \"#utility.yul\":10337:10341   */\n      0x00\n        /* \"#utility.yul\":10375:10377   */\n      0x20\n        /* \"#utility.yul\":10364:10373   */\n      dup3\n        /* \"#utility.yul\":10360:10378   */\n      add\n        /* \"#utility.yul\":10352:10378   */\n      swap1\n      pop\n        /* \"#utility.yul\":10424:10433   */\n      dup2\n        /* \"#utility.yul\":10418:10422   */\n      dup2\n        /* \"#utility.yul\":10414:10434   */\n      sub\n        /* \"#utility.yul\":10410:10411   */\n      0x00\n        /* \"#utility.yul\":10399:10408   */\n      dup4\n        /* \"#utility.yul\":10395:10412   */\n      add\n        /* \"#utility.yul\":10388:10435   */\n      mstore\n        /* \"#utility.yul\":10452:10583   */\n      tag_332\n        /* \"#utility.yul\":10578:10582   */\n      dup2\n        /* \"#utility.yul\":10452:10583   */\n      tag_198\n      jump\t// in\n    tag_332:\n        /* \"#utility.yul\":10444:10583   */\n      swap1\n      pop\n        /* \"#utility.yul\":10171:10590   */\n      swap2\n      swap1\n      pop\n      jump\t// out\n        /* \"#utility.yul\":10596:10768   */\n    tag_199:\n        /* \"#utility.yul\":10736:10760   */\n      0x596f75206861766520616c726561647920766f74656400000000000000000000\n        /* \"#utility.yul\":10732:10733   */\n      0x00\n        /* \"#utility.yul\":10724:10730   */\n      dup3\n        /* \"#utility.yul\":10720:10734   */\n      add\n        /* \"#utility.yul\":10713:10761   */\n      mstore\n        /* \"#utility.yul\":10596:10768   */\n      pop\n      jump\t// out\n        /* \"#utility.yul\":10774:11140   */\n    tag_200:\n        /* \"#utility.yul\":10916:10919   */\n      0x00\n        /* \"#utility.yul\":10937:11004   */\n      tag_335\n        /* \"#utility.yul\":11001:11003   */\n      0x16\n        /* \"#utility.yul\":10996:10999   */\n      dup4\n        /* \"#utility.yul\":10937:11004   */\n      tag_171\n      jump\t// in\n    tag_335:\n        /* \"#utility.yul\":10930:11004   */\n      swap2\n      pop\n        /* \"#utility.yul\":11013:11106   */\n      tag_336\n        /* \"#utility.yul\":11102:11105   */\n      dup3\n        /* \"#utility.yul\":11013:11106   */\n      tag_199\n      jump\t// in\n    tag_336:\n        /* \"#utility.yul\":11131:11133   */\n      0x20\n        /* \"#utility.yul\":11126:11129   */\n      dup3\n        /* \"#utility.yul\":11122:11134   */\n      add\n        /* \"#utility.yul\":11115:11134   */\n      swap1\n      pop\n        /* \"#utility.yul\":10774:11140   */\n      swap2\n      swap1\n      pop\n      jump\t// out\n        /* \"#utility.yul\":11146:11565   */\n    tag_76:\n        /* \"#utility.yul\":11312:11316   */\n      0x00\n        /* \"#utility.yul\":11350:11352   */\n      0x20\n        /* \"#utility.yul\":11339:11348   */\n      dup3\n        /* \"#utility.yul\":11335:11353   */\n      add\n        /* \"#utility.yul\":11327:11353   */\n      swap1\n      pop\n        /* \"#utility.yul\":11399:11408   */\n      dup2\n        /* \"#utility.yul\":11393:11397   */\n      dup2\n        /* \"#utility.yul\":11389:11409   */\n      sub\n        /* \"#utility.yul\":11385:11386   */\n      0x00\n        /* \"#utility.yul\":11374:11383   */\n      dup4\n        /* \"#utility.yul\":11370:11387   */\n      add\n        /* \"#utility.yul\":11363:11410   */\n      mstore\n        /* \"#utility.yul\":11427:11558   */\n      tag_338\n        /* \"#utility.yul\":11553:11557   */\n      dup2\n        /* \"#utility.yul\":11427:11558   */\n      tag_200\n      jump\t// in\n    tag_338:\n        /* \"#utility.yul\":11419:11558   */\n      swap1\n      pop\n        /* \"#utility.yul\":11146:11565   */\n      swap2\n      swap1\n      pop\n      jump\t// out\n        /* \"#utility.yul\":11571:11741   */\n    tag_201:\n        /* \"#utility.yul\":11711:11733   */\n      0x496e76616c69642063616e646964617465204944000000000000000000000000\n        /* \"#utility.yul\":11707:11708   */\n      0x00\n        /* \"#utility.yul\":11699:11705   */\n      dup3\n        /* \"#utility.yul\":11695:11709   */\n      add\n        /* \"#utility.yul\":11688:11734   */\n      mstore\n        /* \"#utility.yul\":11571:11741   */\n      pop\n      jump\t// out\n        /* \"#utility.yul\":11747:12113   */\n    tag_202:\n        /* \"#utility.yul\":11889:11892   */\n      0x00\n        /* \"#utility.yul\":11910:11977   */\n      tag_341\n        /* \"#utility.yul\":11974:11976   */\n      0x14\n        /* \"#utility.yul\":11969:11972   */\n      dup4\n        /* \"#utility.yul\":11910:11977   */\n      tag_171\n      jump\t// in\n    tag_341:\n        /* \"#utility.yul\":11903:11977   */\n      swap2\n      pop\n        /* \"#utility.yul\":11986:12079   */\n      tag_342\n        /* \"#utility.yul\":12075:12078   */\n      dup3\n        /* \"#utility.yul\":11986:12079   */\n      tag_201\n      jump\t// in\n    tag_342:\n        /* \"#utility.yul\":12104:12106   */\n      0x20\n        /* \"#utility.yul\":12099:12102   */\n      dup3\n        /* \"#utility.yul\":12095:12107   */\n      add\n        /* \"#utility.yul\":12088:12107   */\n      swap1\n      pop\n        /* \"#utility.yul\":11747:12113   */\n      swap2\n      swap1\n      pop\n      jump\t// out\n        /* \"#utility.yul\":12119:12538   */\n    tag_80:\n        /* \"#utility.yul\":12285:12289   */\n      0x00\n        /* \"#utility.yul\":12323:12325   */\n      0x20\n        /* \"#utility.yul\":12312:12321   */\n      dup3\n        /* \"#utility.yul\":12308:12326   */\n      add\n        /* \"#utility.yul\":12300:12326   */\n      swap1\n      pop\n        /* \"#utility.yul\":12372:12381   */\n      dup2\n        /* \"#utility.yul\":12366:12370   */\n      dup2\n        /* \"#utility.yul\":12362:12382   */\n      sub\n        /* \"#utility.yul\":12358:12359   */\n      0x00\n        /* \"#utility.yul\":12347:12356   */\n      dup4\n        /* \"#utility.yul\":12343:12360   */\n      add\n        /* \"#utility.yul\":12336:12383   */\n      mstore\n        /* \"#utility.yul\":12400:12531   */\n      tag_344\n        /* \"#utility.yul\":12526:12530   */\n      dup2\n        /* \"#utility.yul\":12400:12531   */\n      tag_202\n      jump\t// in\n    tag_344:\n        /* \"#utility.yul\":12392:12531   */\n      swap1\n      pop\n        /* \"#utility.yul\":12119:12538   */\n      swap2\n      swap1\n      pop\n      jump\t// out\n        /* \"#utility.yul\":12544:12724   */\n    tag_203:\n        /* \"#utility.yul\":12592:12669   */\n      0x4e487b7100000000000000000000000000000000000000000000000000000000\n        /* \"#utility.yul\":12589:12590   */\n      0x00\n        /* \"#utility.yul\":12582:12670   */\n      mstore\n        /* \"#utility.yul\":12689:12693   */\n      0x11\n        /* \"#utility.yul\":12686:12687   */\n      0x04\n        /* \"#utility.yul\":12679:12694   */\n      mstore\n        /* \"#utility.yul\":12713:12717   */\n      0x24\n        /* \"#utility.yul\":12710:12711   */\n      0x00\n        /* \"#utility.yul\":12703:12718   */\n      revert\n        /* \"#utility.yul\":12730:12963   */\n    tag_82:\n        /* \"#utility.yul\":12769:12772   */\n      0x00\n        /* \"#utility.yul\":12792:12816   */\n      tag_347\n        /* \"#utility.yul\":12810:12815   */\n      dup3\n        /* \"#utility.yul\":12792:12816   */\n      tag_166\n      jump\t// in\n    tag_347:\n        /* \"#utility.yul\":12783:12816   */\n      swap2\n      pop\n        /* \"#utility.yul\":12838:12904   */\n      0xffffffffffffffffffffffffffffffffffffffffffffffffffffffffffffffff\n        /* \"#utility.yul\":12831:12836   */\n      dup3\n        /* \"#utility.yul\":12828:12905   */\n      sub\n        /* \"#utility.yul\":12825:12928   */\n      tag_348\n      jumpi\n        /* \"#utility.yul\":12908:12926   */\n      tag_349\n      tag_203\n      jump\t// in\n    tag_349:\n        /* \"#utility.yul\":12825:12928   */\n    tag_348:\n        /* \"#utility.yul\":12955:12956   */\n      0x01\n        /* \"#utility.yul\":12948:12953   */\n      dup3\n        /* \"#utility.yul\":12944:12957   */\n      add\n        /* \"#utility.yul\":12937:12957   */\n      swap1\n      pop\n        /* \"#utility.yul\":12730:12963   */\n      swap2\n      swap1\n      pop\n      jump\t// out\n        /* \"#utility.yul\":12969:13301   */\n    tag_85:\n        /* \"#utility.yul\":13090:13094   */\n      0x00\n        /* \"#utility.yul\":13128:13130   */\n      0x40\n        /* \"#utility.yul\":13117:13126   */\n      dup3\n        /* \"#utility.yul\":13113:13131   */\n      add\n        /* \"#utility.yul\":13105:13131   */\n      swap1\n      pop\n        /* \"#utility.yul\":13141:13212   */\n      tag_351\n        /* \"#utility.yul\":13209:13210   */\n      0x00\n        /* \"#utility.yul\":13198:13207   */\n      dup4\n        /* \"#utility.yul\":13194:13211   */\n      add\n        /* \"#utility.yul\":13185:13191   */\n      dup6\n        /* \"#utility.yul\":13141:13212   */\n      tag_186\n      jump\t// in\n    tag_351:\n        /* \"#utility.yul\":13222:13294   */\n      tag_352\n        /* \"#utility.yul\":13290:13292   */\n      0x20\n        /* \"#utility.yul\":13279:13288   */\n      dup4\n        /* \"#utility.yul\":13275:13293   */\n      add\n        /* \"#utility.yul\":13266:13272   */\n      dup5\n        /* \"#utility.yul\":13222:13294   */\n      tag_169\n      jump\t// in\n    tag_352:\n        /* \"#utility.yul\":12969:13301   */\n      swap4\n      swap3\n      pop\n      pop\n      pop\n      jump\t// out\n        /* \"#utility.yul\":13307:13487   */\n    tag_204:\n        /* \"#utility.yul\":13355:13432   */\n      0x4e487b7100000000000000000000000000000000000000000000000000000000\n        /* \"#utility.yul\":13352:13353   */\n      0x00\n        /* \"#utility.yul\":13345:13433   */\n      mstore\n        /* \"#utility.yul\":13452:13456   */\n      0x22\n        /* \"#utility.yul\":13449:13450   */\n      0x04\n        /* \"#utility.yul\":13442:13457   */\n      mstore\n        /* \"#utility.yul\":13476:13480   */\n      0x24\n        /* \"#utility.yul\":13473:13474   */\n      0x00\n        /* \"#utility.yul\":13466:13481   */\n      revert\n        /* \"#utility.yul\":13493:13813   */\n    tag_87:\n        /* \"#utility.yul\":13537:13543   */\n      0x00\n        /* \"#utility.yul\":13574:13575   */\n      0x02\n        /* \"#utility.yul\":13568:13572   */\n      dup3\n        /* \"#utility.yul\":13564:13576   */\n      div\n        /* \"#utility.yul\":13554:13576   */\n      swap1\n      pop\n        /* \"#utility.yul\":13621:13622   */\n      0x01\n        /* \"#utility.yul\":13615:13619   */\n      dup3\n        /* \"#utility.yul\":13611:13623   */\n      and\n        /* \"#utility.yul\":13642:13660   */\n      dup1\n        /* \"#utility.yul\":13632:13713   */\n      tag_355\n      jumpi\n        /* \"#utility.yul\":13698:13702   */\n      0x7f\n        /* \"#utility.yul\":13690:13696   */\n      dup3\n        /* \"#utility.yul\":13686:13703   */\n      and\n        /* \"#utility.yul\":13676:13703   */\n      swap2\n      pop\n        /* \"#utility.yul\":13632:13713   */\n    tag_355:\n        /* \"#utility.yul\":13760:13762   */\n      0x20\n        /* \"#utility.yul\":13752:13758   */\n      dup3\n        /* \"#utility.yul\":13749:13763   */\n      lt\n        /* \"#utility.yul\":13729:13747   */\n      dup2\n        /* \"#utility.yul\":13726:13764   */\n      sub\n        /* \"#utility.yul\":13723:13807   */\n      tag_356\n      jumpi\n        /* \"#utility.yul\":13779:13797   */\n      tag_357\n      tag_204\n      jump\t// in\n    tag_357:\n        /* \"#utility.yul\":13723:13807   */\n    tag_356:\n        /* \"#utility.yul\":13544:13813   */\n      pop\n        /* \"#utility.yul\":13493:13813   */\n      swap2\n      swap1\n      pop\n      jump\t// out\n        /* \"#utility.yul\":13819:14039   */\n    tag_205:\n        /* \"#utility.yul\":13959:13993   */\n      0x4f6e6c79206f776e65722063616e2063616c6c20746869732066756e6374696f\n        /* \"#utility.yul\":13955:13956   */\n      0x00\n        /* \"#utility.yul\":13947:13953   */\n      dup3\n        /* \"#utility.yul\":13943:13957   */\n      add\n        /* \"#utility.yul\":13936:13994   */\n      mstore\n        /* \"#utility.yul\":14028:14031   */\n      0x6e00000000000000000000000000000000000000000000000000000000000000\n        /* \"#utility.yul\":14023:14025   */\n      0x20\n        /* \"#utility.yul\":14015:14021   */\n      dup3\n        /* \"#utility.yul\":14011:14026   */\n      add\n        /* \"#utility.yul\":14004:14032   */\n      mstore\n        /* \"#utility.yul\":13819:14039   */\n      pop\n      jump\t// out\n        /* \"#utility.yul\":14045:14411   */\n    tag_206:\n        /* \"#utility.yul\":14187:14190   */\n      0x00\n        /* \"#utility.yul\":14208:14275   */\n      tag_360\n        /* \"#utility.yul\":14272:14274   */\n      0x21\n        /* \"#utility.yul\":14267:14270   */\n      dup4\n        /* \"#utility.yul\":14208:14275   */\n      tag_171\n      jump\t// in\n    tag_360:\n        /* \"#utility.yul\":14201:14275   */\n      swap2\n      pop\n        /* \"#utility.yul\":14284:14377   */\n      tag_361\n        /* \"#utility.yul\":14373:14376   */\n      dup3\n        /* \"#utility.yul\":14284:14377   */\n      tag_205\n      jump\t// in\n    tag_361:\n        /* \"#utility.yul\":14402:14404   */\n      0x40\n        /* \"#utility.yul\":14397:14400   */\n      dup3\n        /* \"#utility.yul\":14393:14405   */\n      add\n        /* \"#utility.yul\":14386:14405   */\n      swap1\n      pop\n        /* \"#utility.yul\":14045:14411   */\n      swap2\n      swap1\n      pop\n      jump\t// out\n        /* \"#utility.yul\":14417:14836   */\n    tag_95:\n        /* \"#utility.yul\":14583:14587   */\n      0x00\n        /* \"#utility.yul\":14621:14623   */\n      0x20\n        /* \"#utility.yul\":14610:14619   */\n      dup3\n        /* \"#utility.yul\":14606:14624   */\n      add\n        /* \"#utility.yul\":14598:14624   */\n      swap1\n      pop\n        /* \"#utility.yul\":14670:14679   */\n      dup2\n        /* \"#utility.yul\":14664:14668   */\n      dup2\n        /* \"#utility.yul\":14660:14680   */\n      sub\n        /* \"#utility.yul\":14656:14657   */\n      0x00\n        /* \"#utility.yul\":14645:14654   */\n      dup4\n        /* \"#utility.yul\":14641:14658   */\n      add\n        /* \"#utility.yul\":14634:14681   */\n      mstore\n        /* \"#utility.yul\":14698:14829   */\n      tag_363\n        /* \"#utility.yul\":14824:14828   */\n      dup2\n        /* \"#utility.yul\":14698:14829   */\n      tag_206\n      jump\t// in\n    tag_363:\n        /* \"#utility.yul\":14690:14829   */\n      swap1\n      pop\n        /* \"#utility.yul\":14417:14836   */\n      swap2\n      swap1\n      pop\n      jump\t// out\n        /* \"#utility.yul\":14842:14983   */\n    tag_207:\n        /* \"#utility.yul\":14891:14895   */\n      0x00\n        /* \"#utility.yul\":14914:14917   */\n      dup2\n        /* \"#utility.yul\":14906:14917   */\n      swap1\n      pop\n        /* \"#utility.yul\":14937:14940   */\n      dup2\n        /* \"#utility.yul\":14934:14935   */\n      0x00\n        /* \"#utility.yul\":14927:14941   */\n      mstore\n        /* \"#utility.yul\":14971:14975   */\n      0x20\n        /* \"#utility.yul\":14968:14969   */\n      0x00\n        /* \"#utility.yul\":14958:14976   */\n      keccak256\n        /* \"#utility.yul\":14950:14976   */\n      swap1\n      pop\n        /* \"#utility.yul\":14842:14983   */\n      swap2\n      swap1\n      pop\n      jump\t// out\n        /* \"#utility.yul\":14989:15082   */\n    tag_208:\n        /* \"#utility.yul\":15026:15032   */\n      0x00\n        /* \"#utility.yul\":15073:15075   */\n      0x20\n        /* \"#utility.yul\":15068:15070   */\n      0x1f\n        /* \"#utility.yul\":15061:15066   */\n      dup4\n        /* \"#utility.yul\":15057:15071   */\n      add\n        /* \"#utility.yul\":15053:15076   */\n      div\n        /* \"#utility.yul\":15043:15076   */\n      swap1\n      pop\n        /* \"#utility.yul\":14989:15082   */\n      swap2\n      swap1\n      pop\n      jump\t// out\n        /* \"#utility.yul\":15088:15195   */\n    tag_209:\n        /* \"#utility.yul\":15132:15140   */\n      0x00\n        /* \"#utility.yul\":15182:15187   */\n      dup3\n        /* \"#utility.yul\":15176:15180   */\n      dup3\n        /* \"#utility.yul\":15172:15188   */\n      shl\n        /* \"#utility.yul\":15151:15188   */\n      swap1\n      pop\n        /* \"#utility.yul\":15088:15195   */\n      swap3\n      swap2\n      pop\n      pop\n      jump\t// out\n        /* \"#utility.yul\":15201:15594   */\n    tag_210:\n        /* \"#utility.yul\":15270:15276   */\n      0x00\n        /* \"#utility.yul\":15320:15321   */\n      0x08\n        /* \"#utility.yul\":15308:15318   */\n      dup4\n        /* \"#utility.yul\":15304:15322   */\n      mul\n        /* \"#utility.yul\":15343:15440   */\n      tag_368\n        /* \"#utility.yul\":15373:15439   */\n      0xffffffffffffffffffffffffffffffffffffffffffffffffffffffffffffffff\n        /* \"#utility.yul\":15362:15371   */\n      dup3\n        /* \"#utility.yul\":15343:15440   */\n      tag_209\n      jump\t// in\n    tag_368:\n        /* \"#utility.yul\":15461:15500   */\n      tag_369\n        /* \"#utility.yul\":15491:15499   */\n      dup7\n        /* \"#utility.yul\":15480:15489   */\n      dup4\n        /* \"#utility.yul\":15461:15500   */\n      tag_209\n      jump\t// in\n    tag_369:\n        /* \"#utility.yul\":15449:15500   */\n      swap6\n      pop\n        /* \"#utility.yul\":15533:15537   */\n      dup1\n        /* \"#utility.yul\":15529:15538   */\n      not\n        /* \"#utility.yul\":15522:15527   */\n      dup5\n        /* \"#utility.yul\":15518:15539   */\n      and\n        /* \"#utility.yul\":15509:15539   */\n      swap4\n      pop\n        /* \"#utility.yul\":15582:15586   */\n      dup1\n        /* \"#utility.yul\":15572:15580   */\n      dup7\n        /* \"#utility.yul\":15568:15587   */\n      and\n        /* \"#utility.yul\":15561:15566   */\n      dup5\n        /* \"#utility.yul\":15558:15588   */\n      or\n        /* \"#utility.yul\":15548:15588   */\n      swap3\n      pop\n        /* \"#utility.yul\":15277:15594   */\n      pop\n      pop\n        /* \"#utility.yul\":15201:15594   */\n      swap4\n      swap3\n      pop\n      pop\n      pop\n      jump\t// out\n        /* \"#utility.yul\":15600:15660   */\n    tag_211:\n        /* \"#utility.yul\":15628:15631   */\n      0x00\n        /* \"#utility.yul\":15649:15654   */\n      dup2\n        /* \"#utility.yul\":15642:15654   */\n      swap1\n      pop\n        /* \"#utility.yul\":15600:15660   */\n      swap2\n      swap1\n      pop\n      jump\t// out\n        /* \"#utility.yul\":15666:15808   */\n    tag_212:\n        /* \"#utility.yul\":15716:15725   */\n      0x00\n        /* \"#utility.yul\":15749:15802   */\n      tag_372\n        /* \"#utility.yul\":15767:15801   */\n      tag_373\n        /* \"#utility.yul\":15776:15800   */\n      tag_374\n        /* \"#utility.yul\":15794:15799   */\n      dup5\n        /* \"#utility.yul\":15776:15800   */\n      tag_166\n      jump\t// in\n    tag_374:\n        /* \"#utility.yul\":15767:15801   */\n      tag_211\n      jump\t// in\n    tag_373:\n        /* \"#utility.yul\":15749:15802   */\n      tag_166\n      jump\t// in\n    tag_372:\n        /* \"#utility.yul\":15736:15802   */\n      swap1\n      pop\n        /* \"#utility.yul\":15666:15808   */\n      swap2\n      swap1\n      pop\n      jump\t// out\n        /* \"#utility.yul\":15814:15889   */\n    tag_213:\n        /* \"#utility.yul\":15857:15860   */\n      0x00\n        /* \"#utility.yul\":15878:15883   */\n      dup2\n        /* \"#utility.yul\":15871:15883   */\n      swap1\n      pop\n        /* \"#utility.yul\":15814:15889   */\n      swap2\n      swap1\n      pop\n      jump\t// out\n        /* \"#utility.yul\":15895:16164   */\n    tag_214:\n        /* \"#utility.yul\":16005:16044   */\n      tag_377\n        /* \"#utility.yul\":16036:16043   */\n      dup4\n        /* \"#utility.yul\":16005:16044   */\n      tag_212\n      jump\t// in\n    tag_377:\n        /* \"#utility.yul\":16066:16157   */\n      tag_378\n        /* \"#utility.yul\":16115:16156   */\n      tag_379\n        /* \"#utility.yul\":16139:16155   */\n      dup3\n        /* \"#utility.yul\":16115:16156   */\n      tag_213\n      jump\t// in\n    tag_379:\n        /* \"#utility.yul\":16107:16113   */\n      dup5\n        /* \"#utility.yul\":16100:16104   */\n      dup5\n        /* \"#utility.yul\":16094:16105   */\n      sload\n        /* \"#utility.yul\":16066:16157   */\n      tag_210\n      jump\t// in\n    tag_378:\n        /* \"#utility.yul\":16060:16064   */\n      dup3\n        /* \"#utility.yul\":16053:16158   */\n      sstore\n        /* \"#utility.yul\":15971:16164   */\n      pop\n        /* \"#utility.yul\":15895:16164   */\n      pop\n      pop\n      pop\n      jump\t// out\n        /* \"#utility.yul\":16170:16243   */\n    tag_215:\n        /* \"#utility.yul\":16215:16218   */\n      0x00\n        /* \"#utility.yul\":16170:16243   */\n      swap1\n      jump\t// out\n        /* \"#utility.yul\":16249:16438   */\n    tag_216:\n        /* \"#utility.yul\":16326:16358   */\n      tag_382\n      tag_215\n      jump\t// in\n    tag_382:\n        /* \"#utility.yul\":16367:16432   */\n      tag_383\n        /* \"#utility.yul\":16425:16431   */\n      dup2\n        /* \"#utility.yul\":16417:16423   */\n      dup5\n        /* \"#utility.yul\":16411:16415   */\n      dup5\n        /* \"#utility.yul\":16367:16432   */\n      tag_214\n      jump\t// in\n    tag_383:\n        /* \"#utility.yul\":16302:16438   */\n      pop\n        /* \"#utility.yul\":16249:16438   */\n      pop\n      pop\n      jump\t// out\n        /* \"#utility.yul\":16444:16630   */\n    tag_217:\n        /* \"#utility.yul\":16504:16624   */\n    tag_385:\n        /* \"#utility.yul\":16521:16524   */\n      dup2\n        /* \"#utility.yul\":16514:16519   */\n      dup2\n        /* \"#utility.yul\":16511:16525   */\n      lt\n        /* \"#utility.yul\":16504:16624   */\n      iszero\n      tag_387\n      jumpi\n        /* \"#utility.yul\":16575:16614   */\n      tag_388\n        /* \"#utility.yul\":16612:16613   */\n      0x00\n        /* \"#utility.yul\":16605:16610   */\n      dup3\n        /* \"#utility.yul\":16575:16614   */\n      tag_216\n      jump\t// in\n    tag_388:\n        /* \"#utility.yul\":16548:16549   */\n      0x01\n        /* \"#utility.yul\":16541:16546   */\n      dup2\n        /* \"#utility.yul\":16537:16550   */\n      add\n        /* \"#utility.yul\":16528:16550   */\n      swap1\n      pop\n        /* \"#utility.yul\":16504:16624   */\n      jump(tag_385)\n    tag_387:\n        /* \"#utility.yul\":16444:16630   */\n      pop\n      pop\n      jump\t// out\n        /* \"#utility.yul\":16636:17179   */\n    tag_218:\n        /* \"#utility.yul\":16737:16739   */\n      0x1f\n        /* \"#utility.yul\":16732:16735   */\n      dup3\n        /* \"#utility.yul\":16729:16740   */\n      gt\n        /* \"#utility.yul\":16726:17172   */\n      iszero\n      tag_390\n      jumpi\n        /* \"#utility.yul\":16771:16809   */\n      tag_391\n        /* \"#utility.yul\":16803:16808   */\n      dup2\n        /* \"#utility.yul\":16771:16809   */\n      tag_207\n      jump\t// in\n    tag_391:\n        /* \"#utility.yul\":16855:16884   */\n      tag_392\n        /* \"#utility.yul\":16873:16883   */\n      dup5\n        /* \"#utility.yul\":16855:16884   */\n      tag_208\n      jump\t// in\n    tag_392:\n        /* \"#utility.yul\":16845:16853   */\n      dup2\n        /* \"#utility.yul\":16841:16885   */\n      add\n        /* \"#utility.yul\":17038:17040   */\n      0x20\n        /* \"#utility.yul\":17026:17036   */\n      dup6\n        /* \"#utility.yul\":17023:17041   */\n      lt\n        /* \"#utility.yul\":17020:17069   */\n      iszero\n      tag_393\n      jumpi\n        /* \"#utility.yul\":17059:17067   */\n      dup2\n        /* \"#utility.yul\":17044:17067   */\n      swap1\n      pop\n        /* \"#utility.yul\":17020:17069   */\n    tag_393:\n        /* \"#utility.yul\":17082:17162   */\n      tag_394\n        /* \"#utility.yul\":17138:17160   */\n      tag_395\n        /* \"#utility.yul\":17156:17159   */\n      dup6\n        /* \"#utility.yul\":17138:17160   */\n      tag_208\n      jump\t// in\n    tag_395:\n        /* \"#utility.yul\":17128:17136   */\n      dup4\n        /* \"#utility.yul\":17124:17161   */\n      add\n        /* \"#utility.yul\":17111:17122   */\n      dup3\n        /* \"#utility.yul\":17082:17162   */\n      tag_217\n      jump\t// in\n    tag_394:\n        /* \"#utility.yul\":16741:17172   */\n      pop\n      pop\n        /* \"#utility.yul\":16726:17172   */\n    tag_390:\n        /* \"#utility.yul\":16636:17179   */\n      pop\n      pop\n      pop\n      jump\t// out\n        /* \"#utility.yul\":17185:17302   */\n    tag_219:\n        /* \"#utility.yul\":17239:17247   */\n      0x00\n        /* \"#utility.yul\":17289:17294   */\n      dup3\n        /* \"#utility.yul\":17283:17287   */\n      dup3\n        /* \"#utility.yul\":17279:17295   */\n      shr\n        /* \"#utility.yul\":17258:17295   */\n      swap1\n      pop\n        /* \"#utility.yul\":17185:17302   */\n      swap3\n      swap2\n      pop\n      pop\n      jump\t// out\n        /* \"#utility.yul\":17308:17477   */\n    tag_220:\n        /* \"#utility.yul\":17352:17358   */\n      0x00\n        /* \"#utility.yul\":17385:17436   */\n      tag_398\n        /* \"#utility.yul\":17433:17434   */\n      0x00\n        /* \"#utility.yul\":17429:17435   */\n      not\n        /* \"#utility.yul\":17421:17426   */\n      dup5\n        /* \"#utility.yul\":17418:17419   */\n      0x08\n        /* \"#utility.yul\":17414:17427   */\n      mul\n        /* \"#utility.yul\":17385:17436   */\n      tag_219\n      jump\t// in\n    tag_398:\n        /* \"#utility.yul\":17381:17437   */\n      not\n        /* \"#utility.yul\":17466:17470   */\n      dup1\n        /* \"#utility.yul\":17460:17464   */\n      dup4\n        /* \"#utility.yul\":17456:17471   */\n      and\n        /* \"#utility.yul\":17446:17471   */\n      swap2\n      pop\n        /* \"#utility.yul\":17359:17477   */\n      pop\n        /* \"#utility.yul\":17308:17477   */\n      swap3\n      swap2\n      pop\n      pop\n      jump\t// out\n        /* \"#utility.yul\":17482:17777   */\n    tag_221:\n        /* \"#utility.yul\":17558:17562   */\n      0x00\n        /* \"#utility.yul\":17704:17733   */\n      tag_400\n        /* \"#utility.yul\":17729:17732   */\n      dup4\n        /* \"#utility.yul\":17723:17727   */\n      dup4\n        /* \"#utility.yul\":17704:17733   */\n      tag_220\n      jump\t// in\n    tag_400:\n        /* \"#utility.yul\":17696:17733   */\n      swap2\n      pop\n        /* \"#utility.yul\":17766:17769   */\n      dup3\n        /* \"#utility.yul\":17763:17764   */\n      0x02\n        /* \"#utility.yul\":17759:17770   */\n      mul\n        /* \"#utility.yul\":17753:17757   */\n      dup3\n        /* \"#utility.yul\":17750:17771   */\n      or\n        /* \"#utility.yul\":17742:17771   */\n      swap1\n      pop\n        /* \"#utility.yul\":17482:17777   */\n      swap3\n      swap2\n      pop\n      pop\n      jump\t// out\n        /* \"#utility.yul\":17782:19177   */\n    tag_106:\n        /* \"#utility.yul\":17899:17936   */\n      tag_402\n        /* \"#utility.yul\":17932:17935   */\n      dup3\n        /* \"#utility.yul\":17899:17936   */\n      tag_170\n      jump\t// in\n    tag_402:\n        /* \"#utility.yul\":18001:18019   */\n      0xffffffffffffffff\n        /* \"#utility.yul\":17993:17999   */\n      dup2\n        /* \"#utility.yul\":17990:18020   */\n      gt\n        /* \"#utility.yul\":17987:18043   */\n      iszero\n      tag_403\n      jumpi\n        /* \"#utility.yul\":18023:18041   */\n      tag_404\n      tag_177\n      jump\t// in\n    tag_404:\n        /* \"#utility.yul\":17987:18043   */\n    tag_403:\n        /* \"#utility.yul\":18067:18105   */\n      tag_405\n        /* \"#utility.yul\":18099:18103   */\n      dup3\n        /* \"#utility.yul\":18093:18104   */\n      sload\n        /* \"#utility.yul\":18067:18105   */\n      tag_87\n      jump\t// in\n    tag_405:\n        /* \"#utility.yul\":18152:18219   */\n      tag_406\n        /* \"#utility.yul\":18212:18218   */\n      dup3\n        /* \"#utility.yul\":18204:18210   */\n      dup3\n        /* \"#utility.yul\":18198:18202   */\n      dup6\n        /* \"#utility.yul\":18152:18219   */\n      tag_218\n      jump\t// in\n    tag_406:\n        /* \"#utility.yul\":18246:18247   */\n      0x00\n        /* \"#utility.yul\":18270:18274   */\n      0x20\n        /* \"#utility.yul\":18257:18274   */\n      swap1\n      pop\n        /* \"#utility.yul\":18302:18304   */\n      0x1f\n        /* \"#utility.yul\":18294:18300   */\n      dup4\n        /* \"#utility.yul\":18291:18305   */\n      gt\n        /* \"#utility.yul\":18319:18320   */\n      0x01\n        /* \"#utility.yul\":18314:18932   */\n      dup2\n      eq\n      tag_408\n      jumpi\n        /* \"#utility.yul\":18976:18977   */\n      0x00\n        /* \"#utility.yul\":18993:18999   */\n      dup5\n        /* \"#utility.yul\":18990:19067   */\n      iszero\n      tag_409\n      jumpi\n        /* \"#utility.yul\":19042:19051   */\n      dup3\n        /* \"#utility.yul\":19037:19040   */\n      dup8\n        /* \"#utility.yul\":19033:19052   */\n      add\n        /* \"#utility.yul\":19027:19053   */\n      mload\n        /* \"#utility.yul\":19018:19053   */\n      swap1\n      pop\n        /* \"#utility.yul\":18990:19067   */\n    tag_409:\n        /* \"#utility.yul\":19093:19160   */\n      tag_410\n        /* \"#utility.yul\":19153:19159   */\n      dup6\n        /* \"#utility.yul\":19146:19151   */\n      dup3\n        /* \"#utility.yul\":19093:19160   */\n      tag_221\n      jump\t// in\n    tag_410:\n        /* \"#utility.yul\":19087:19091   */\n      dup7\n        /* \"#utility.yul\":19080:19161   */\n      sstore\n        /* \"#utility.yul\":18949:19171   */\n      pop\n        /* \"#utility.yul\":18284:19171   */\n      jump(tag_407)\n        /* \"#utility.yul\":18314:18932   */\n    tag_408:\n        /* \"#utility.yul\":18366:18370   */\n      0x1f\n        /* \"#utility.yul\":18362:18371   */\n      not\n        /* \"#utility.yul\":18354:18360   */\n      dup5\n        /* \"#utility.yul\":18350:18372   */\n      and\n        /* \"#utility.yul\":18400:18437   */\n      tag_411\n        /* \"#utility.yul\":18432:18436   */\n      dup7\n        /* \"#utility.yul\":18400:18437   */\n      tag_207\n      jump\t// in\n    tag_411:\n        /* \"#utility.yul\":18459:18460   */\n      0x00\n        /* \"#utility.yul\":18473:18681   */\n    tag_412:\n        /* \"#utility.yul\":18487:18494   */\n      dup3\n        /* \"#utility.yul\":18484:18485   */\n      dup2\n        /* \"#utility.yul\":18481:18495   */\n      lt\n        /* \"#utility.yul\":18473:18681   */\n      iszero\n      tag_414\n      jumpi\n        /* \"#utility.yul\":18566:18575   */\n      dup5\n        /* \"#utility.yul\":18561:18564   */\n      dup10\n        /* \"#utility.yul\":18557:18576   */\n      add\n        /* \"#utility.yul\":18551:18577   */\n      mload\n        /* \"#utility.yul\":18543:18549   */\n      dup3\n        /* \"#utility.yul\":18536:18578   */\n      sstore\n        /* \"#utility.yul\":18617:18618   */\n      0x01\n        /* \"#utility.yul\":18609:18615   */\n      dup3\n        /* \"#utility.yul\":18605:18619   */\n      add\n        /* \"#utility.yul\":18595:18619   */\n      swap2\n      pop\n        /* \"#utility.yul\":18664:18666   */\n      0x20\n        /* \"#utility.yul\":18653:18662   */\n      dup6\n        /* \"#utility.yul\":18649:18667   */\n      add\n        /* \"#utility.yul\":18636:18667   */\n      swap5\n      pop\n        /* \"#utility.yul\":18510:18514   */\n      0x20\n        /* \"#utility.yul\":18507:18508   */\n      dup2\n        /* \"#utility.yul\":18503:18515   */\n      add\n        /* \"#utility.yul\":18498:18515   */\n      swap1\n      pop\n        /* \"#utility.yul\":18473:18681   */\n      jump(tag_412)\n    tag_414:\n        /* \"#utility.yul\":18709:18715   */\n      dup7\n        /* \"#utility.yul\":18700:18707   */\n      dup4\n        /* \"#utility.yul\":18697:18716   */\n      lt\n        /* \"#utility.yul\":18694:18873   */\n      iszero\n      tag_415\n      jumpi\n        /* \"#utility.yul\":18767:18776   */\n      dup5\n        /* \"#utility.yul\":18762:18765   */\n      dup10\n        /* \"#utility.yul\":18758:18777   */\n      add\n        /* \"#utility.yul\":18752:18778   */\n      mload\n        /* \"#utility.yul\":18810:18858   */\n      tag_416\n        /* \"#utility.yul\":18852:18856   */\n      0x1f\n        /* \"#utility.yul\":18844:18850   */\n      dup10\n        /* \"#utility.yul\":18840:18857   */\n      and\n        /* \"#utility.yul\":18829:18838   */\n      dup3\n        /* \"#utility.yul\":18810:18858   */\n      tag_220\n      jump\t// in\n    tag_416:\n        /* \"#utility.yul\":18802:18808   */\n      dup4\n        /* \"#utility.yul\":18795:18859   */\n      sstore\n        /* \"#utility.yul\":18717:18873   */\n      pop\n        /* \"#utility.yul\":18694:18873   */\n    tag_415:\n        /* \"#utility.yul\":18919:18920   */\n      0x01\n        /* \"#utility.yul\":18915:18916   */\n      0x02\n        /* \"#utility.yul\":18907:18913   */\n      dup9\n        /* \"#utility.yul\":18903:18917   */\n      mul\n        /* \"#utility.yul\":18899:18921   */\n      add\n        /* \"#utility.yul\":18893:18897   */\n      dup9\n        /* \"#utility.yul\":18886:18922   */\n      sstore\n        /* \"#utility.yul\":18321:18932   */\n      pop\n      pop\n      pop\n        /* \"#utility.yul\":18284:19171   */\n    tag_407:\n      pop\n        /* \"#utility.yul\":17874:19177   */\n      pop\n      pop\n      pop\n        /* \"#utility.yul\":17782:19177   */\n      pop\n      pop\n      jump\t// out\n\n    auxdata: 0xa26469706673582212200682f887c01c64a3fcfc520a061780c8a8331541cdec782fc315bf38184a099464736f6c634300081a0033\n}\n",
				"bytecode": {
					"linkReferences": {},
					"object": "6080604052348015600e575f80fd5b50335f806101000a81548173ffffffffffffffffffffffffffffffffffffffff021916908373ffffffffffffffffffffffffffffffffffffffff1602179055505f8060146101000a81548160ff02191690836002811115606f57606e6078565b5b021790555060a5565b7f4e487b71000000000000000000000000000000000000000000000000000000005f52602160045260245ffd5b61179b806100b25f395ff3fe608060405234801561000f575f80fd5b50600436106100b2575f3560e01c806362d73eb81161006f57806362d73eb8146101665780638da5cb5b146101705780638e7ea5b21461018e578063a3ec138d146101ac578063c19d93fb146101de578063fd47b368146101fc576100b2565b80630121b93f146100b65780630d15fd77146100d25780632d35a8a2146100f05780633477ee2e1461010e578063462e91ec1461014057806359f784681461015c575b5f80fd5b6100d060048036038101906100cb9190610db9565b610218565b005b6100da610510565b6040516100e79190610df3565b60405180910390f35b6100f8610516565b6040516101059190610df3565b60405180910390f35b61012860048036038101906101239190610db9565b61051c565b60405161013793929190610e7c565b60405180910390f35b61015a60048036038101906101559190610fe4565b6105c8565b005b610164610740565b005b61016e61089c565b005b6101786109f7565b604051610185919061106a565b60405180910390f35b610196610a1a565b6040516101a39190611083565b60405180910390f35b6101c660048036038101906101c191906110cd565b610b91565b6040516101d593929190611112565b60405180910390f35b6101e6610bcf565b6040516101f391906111ba565b60405180910390f35b610216600480360381019061021191906110cd565b610be1565b005b600180600281111561022d5761022c611147565b5b5f60149054906101000a900460ff16600281111561024e5761024d611147565b5b1461028e576040517f08c379a00000000000000000000000000000000000000000000000000000000081526004016102859061121d565b60405180910390fd5b60035f3373ffffffffffffffffffffffffffffffffffffffff1673ffffffffffffffffffffffffffffffffffffffff1681526020019081526020015f205f015f9054906101000a900460ff16610319576040517f08c379a000000000000000000000000000000000000000000000000000000000815260040161031090611285565b60405180910390fd5b60035f3373ffffffffffffffffffffffffffffffffffffffff1673ffffffffffffffffffffffffffffffffffffffff1681526020019081526020015f205f0160019054906101000a900460ff16156103a6576040517f08c379a000000000000000000000000000000000000000000000000000000000815260040161039d906112ed565b60405180910390fd5b5f821180156103b757506002548211155b6103f6576040517f08c379a00000000000000000000000000000000000000000000000000000000081526004016103ed90611355565b60405180910390fd5b600160035f3373ffffffffffffffffffffffffffffffffffffffff1673ffffffffffffffffffffffffffffffffffffffff1681526020019081526020015f205f0160016101000a81548160ff0219169083151502179055508160035f3373ffffffffffffffffffffffffffffffffffffffff1673ffffffffffffffffffffffffffffffffffffffff1681526020019081526020015f206001018190555060015f8381526020019081526020015f206002015f8154809291906104b7906113a0565b919050555060045f8154809291906104ce906113a0565b91905055507fa36cc2bebb74db33e9f88110a07ef56e1b31b24b4c4f51b54b1664266e29f45b33836040516105049291906113e7565b60405180910390a15050565b60045481565b60025481565b6001602052805f5260405f205f91509050805f0154908060010180546105419061143b565b80601f016020809104026020016040519081016040528092919081815260200182805461056d9061143b565b80156105b85780601f1061058f576101008083540402835291602001916105b8565b820191905f5260205f20905b81548152906001019060200180831161059b57829003601f168201915b5050505050908060020154905083565b5f8054906101000a900473ffffffffffffffffffffffffffffffffffffffff1673ffffffffffffffffffffffffffffffffffffffff163373ffffffffffffffffffffffffffffffffffffffff1614610655576040517f08c379a000000000000000000000000000000000000000000000000000000000815260040161064c906114db565b60405180910390fd5b5f80600281111561066957610668611147565b5b5f60149054906101000a900460ff16600281111561068a57610689611147565b5b146106ca576040517f08c379a00000000000000000000000000000000000000000000000000000000081526004016106c19061121d565b60405180910390fd5b60025f8154809291906106dc906113a0565b9190505550604051806060016040528060025481526020018381526020015f81525060015f60025481526020019081526020015f205f820151815f0155602082015181600101908161072e9190611696565b50604082015181600201559050505050565b5f8054906101000a900473ffffffffffffffffffffffffffffffffffffffff1673ffffffffffffffffffffffffffffffffffffffff163373ffffffffffffffffffffffffffffffffffffffff16146107cd576040517f08c379a00000000000000000000000000000000000000000000000000000000081526004016107c4906114db565b60405180910390fd5b60018060028111156107e2576107e1611147565b5b5f60149054906101000a900460ff16600281111561080357610802611147565b5b14610843576040517f08c379a000000000000000000000000000000000000000000000000000000000815260040161083a9061121d565b60405180910390fd5b60025f60146101000a81548160ff0219169083600281111561086857610867611147565b5b02179055507f66ec723071e4bb646f7b35d31bc2dee8510979bd8c180edd0690d4f5e802f1e460405160405180910390a150565b5f8054906101000a900473ffffffffffffffffffffffffffffffffffffffff1673ffffffffffffffffffffffffffffffffffffffff163373ffffffffffffffffffffffffffffffffffffffff1614610929576040517f08c379a0000000000000000000000000000000000000000000000000000000008152600401610920906114db565b60405180910390fd5b5f80600281111561093d5761093c611147565b5b5f60149054906101000a900460ff16600281111561095e5761095d611147565b5b1461099e576040517f08c379a00000000000000000000000000000000000000000000000000000000081526004016109959061121d565b60405180910390fd5b60015f60146101000a81548160ff021916908360028111156109c3576109c2611147565b5b02179055507fc475c26aa25ed8e85a7faa790e5f63b5d7ee1025f12821f4c9bfddd36ab4d11260405160405180910390a150565b5f8054906101000a900473ffffffffffffffffffffffffffffffffffffffff1681565b60606002806002811115610a3157610a30611147565b5b5f60149054906101000a900460ff166002811115610a5257610a51611147565b5b14610a92576040517f08c379a0000000000000000000000000000000000000000000000000000000008152600401610a899061121d565b60405180910390fd5b5f805f600190505b6002548111610aed578260015f8381526020019081526020015f20600201541115610ada5760015f8281526020019081526020015f206002015492508091505b8080610ae5906113a0565b915050610a9a565b5060015f8281526020019081526020015f206001018054610b0d9061143b565b80601f0160208091040260200160405190810160405280929190818152602001828054610b399061143b565b8015610b845780601f10610b5b57610100808354040283529160200191610b84565b820191905f5260205f20905b815481529060010190602001808311610b6757829003601f168201915b5050505050935050505090565b6003602052805f5260405f205f91509050805f015f9054906101000a900460ff1690805f0160019054906101000a900460ff16908060010154905083565b5f60149054906101000a900460ff1681565b5f8054906101000a900473ffffffffffffffffffffffffffffffffffffffff1673ffffffffffffffffffffffffffffffffffffffff163373ffffffffffffffffffffffffffffffffffffffff1614610c6e576040517f08c379a0000000000000000000000000000000000000000000000000000000008152600401610c65906114db565b60405180910390fd5b5f806002811115610c8257610c81611147565b5b5f60149054906101000a900460ff166002811115610ca357610ca2611147565b5b14610ce3576040517f08c379a0000000000000000000000000000000000000000000000000000000008152600401610cda9061121d565b60405180910390fd5b600160035f8473ffffffffffffffffffffffffffffffffffffffff1673ffffffffffffffffffffffffffffffffffffffff1681526020019081526020015f205f015f6101000a81548160ff0219169083151502179055507f0ca65a9f1f88bd7257ac852d1062853358f81cdc56f9634dcbeed6090f8dfb4382604051610d69919061106a565b60405180910390a15050565b5f604051905090565b5f80fd5b5f80fd5b5f819050919050565b610d9881610d86565b8114610da2575f80fd5b50565b5f81359050610db381610d8f565b92915050565b5f60208284031215610dce57610dcd610d7e565b5b5f610ddb84828501610da5565b91505092915050565b610ded81610d86565b82525050565b5f602082019050610e065f830184610de4565b92915050565b5f81519050919050565b5f82825260208201905092915050565b8281835e5f83830152505050565b5f601f19601f8301169050919050565b5f610e4e82610e0c565b610e588185610e16565b9350610e68818560208601610e26565b610e7181610e34565b840191505092915050565b5f606082019050610e8f5f830186610de4565b8181036020830152610ea18185610e44565b9050610eb06040830184610de4565b949350505050565b5f80fd5b5f80fd5b7f4e487b71000000000000000000000000000000000000000000000000000000005f52604160045260245ffd5b610ef682610e34565b810181811067ffffffffffffffff82111715610f1557610f14610ec0565b5b80604052505050565b5f610f27610d75565b9050610f338282610eed565b919050565b5f67ffffffffffffffff821115610f5257610f51610ec0565b5b610f5b82610e34565b9050602081019050919050565b828183375f83830152505050565b5f610f88610f8384610f38565b610f1e565b905082815260208101848484011115610fa457610fa3610ebc565b5b610faf848285610f68565b509392505050565b5f82601f830112610fcb57610fca610eb8565b5b8135610fdb848260208601610f76565b91505092915050565b5f60208284031215610ff957610ff8610d7e565b5b5f82013567ffffffffffffffff81111561101657611015610d82565b5b61102284828501610fb7565b91505092915050565b5f73ffffffffffffffffffffffffffffffffffffffff82169050919050565b5f6110548261102b565b9050919050565b6110648161104a565b82525050565b5f60208201905061107d5f83018461105b565b92915050565b5f6020820190508181035f83015261109b8184610e44565b905092915050565b6110ac8161104a565b81146110b6575f80fd5b50565b5f813590506110c7816110a3565b92915050565b5f602082840312156110e2576110e1610d7e565b5b5f6110ef848285016110b9565b91505092915050565b5f8115159050919050565b61110c816110f8565b82525050565b5f6060820190506111255f830186611103565b6111326020830185611103565b61113f6040830184610de4565b949350505050565b7f4e487b71000000000000000000000000000000000000000000000000000000005f52602160045260245ffd5b6003811061118557611184611147565b5b50565b5f81905061119582611174565b919050565b5f6111a482611188565b9050919050565b6111b48161119a565b82525050565b5f6020820190506111cd5f8301846111ab565b92915050565b7f496e76616c696420737461746520666f72207468697320616374696f6e0000005f82015250565b5f611207601d83610e16565b9150611212826111d3565b602082019050919050565b5f6020820190508181035f830152611234816111fb565b9050919050565b7f596f7520617265206e6f7420617574686f72697a656420746f20766f746500005f82015250565b5f61126f601e83610e16565b915061127a8261123b565b602082019050919050565b5f6020820190508181035f83015261129c81611263565b9050919050565b7f596f75206861766520616c726561647920766f746564000000000000000000005f82015250565b5f6112d7601683610e16565b91506112e2826112a3565b602082019050919050565b5f6020820190508181035f830152611304816112cb565b9050919050565b7f496e76616c69642063616e6469646174652049440000000000000000000000005f82015250565b5f61133f601483610e16565b915061134a8261130b565b602082019050919050565b5f6020820190508181035f83015261136c81611333565b9050919050565b7f4e487b71000000000000000000000000000000000000000000000000000000005f52601160045260245ffd5b5f6113aa82610d86565b91507fffffffffffffffffffffffffffffffffffffffffffffffffffffffffffffffff82036113dc576113db611373565b5b600182019050919050565b5f6040820190506113fa5f83018561105b565b6114076020830184610de4565b9392505050565b7f4e487b71000000000000000000000000000000000000000000000000000000005f52602260045260245ffd5b5f600282049050600182168061145257607f821691505b6020821081036114655761146461140e565b5b50919050565b7f4f6e6c79206f776e65722063616e2063616c6c20746869732066756e6374696f5f8201527f6e00000000000000000000000000000000000000000000000000000000000000602082015250565b5f6114c5602183610e16565b91506114d08261146b565b604082019050919050565b5f6020820190508181035f8301526114f2816114b9565b9050919050565b5f819050815f5260205f209050919050565b5f6020601f8301049050919050565b5f82821b905092915050565b5f600883026115557fffffffffffffffffffffffffffffffffffffffffffffffffffffffffffffffff8261151a565b61155f868361151a565b95508019841693508086168417925050509392505050565b5f819050919050565b5f61159a61159561159084610d86565b611577565b610d86565b9050919050565b5f819050919050565b6115b383611580565b6115c76115bf826115a1565b848454611526565b825550505050565b5f90565b6115db6115cf565b6115e68184846115aa565b505050565b5b81811015611609576115fe5f826115d3565b6001810190506115ec565b5050565b601f82111561164e5761161f816114f9565b6116288461150b565b81016020851015611637578190505b61164b6116438561150b565b8301826115eb565b50505b505050565b5f82821c905092915050565b5f61166e5f1984600802611653565b1980831691505092915050565b5f611686838361165f565b9150826002028217905092915050565b61169f82610e0c565b67ffffffffffffffff8111156116b8576116b7610ec0565b5b6116c2825461143b565b6116cd82828561160d565b5f60209050601f8311600181146116fe575f84156116ec578287015190505b6116f6858261167b565b86555061175d565b601f19841661170c866114f9565b5f5b828110156117335784890151825560018201915060208501945060208101905061170e565b86831015611750578489015161174c601f89168261165f565b8355505b6001600288020188555050505b50505050505056fea26469706673582212200682f887c01c64a3fcfc520a061780c8a8331541cdec782fc315bf38184a099464736f6c634300081a0033",
					"opcodes": "PUSH1 0x80 PUSH1 0x40 MSTORE CALLVALUE DUP1 ISZERO PUSH1 0xE JUMPI PUSH0 DUP1 REVERT JUMPDEST POP CALLER PUSH0 DUP1 PUSH2 0x100 EXP DUP2 SLOAD DUP2 PUSH20 0xFFFFFFFFFFFFFFFFFFFFFFFFFFFFFFFFFFFFFFFF MUL NOT AND SWAP1 DUP4 PUSH20 0xFFFFFFFFFFFFFFFFFFFFFFFFFFFFFFFFFFFFFFFF AND MUL OR SWAP1 SSTORE POP PUSH0 DUP1 PUSH1 0x14 PUSH2 0x100 EXP DUP2 SLOAD DUP2 PUSH1 0xFF MUL NOT AND SWAP1 DUP4 PUSH1 0x2 DUP2 GT ISZERO PUSH1 0x6F JUMPI PUSH1 0x6E PUSH1 0x78 JUMP JUMPDEST JUMPDEST MUL OR SWAP1 SSTORE POP PUSH1 0xA5 JUMP JUMPDEST PUSH32 0x4E487B7100000000000000000000000000000000000000000000000000000000 PUSH0 MSTORE PUSH1 0x21 PUSH1 0x4 MSTORE PUSH1 0x24 PUSH0 REVERT JUMPDEST PUSH2 0x179B DUP1 PUSH2 0xB2 PUSH0 CODECOPY PUSH0 RETURN INVALID PUSH1 0x80 PUSH1 0x40 MSTORE CALLVALUE DUP1 ISZERO PUSH2 0xF JUMPI PUSH0 DUP1 REVERT JUMPDEST POP PUSH1 0x4 CALLDATASIZE LT PUSH2 0xB2 JUMPI PUSH0 CALLDATALOAD PUSH1 0xE0 SHR DUP1 PUSH4 0x62D73EB8 GT PUSH2 0x6F JUMPI DUP1 PUSH4 0x62D73EB8 EQ PUSH2 0x166 JUMPI DUP1 PUSH4 0x8DA5CB5B EQ PUSH2 0x170 JUMPI DUP1 PUSH4 0x8E7EA5B2 EQ PUSH2 0x18E JUMPI DUP1 PUSH4 0xA3EC138D EQ PUSH2 0x1AC JUMPI DUP1 PUSH4 0xC19D93FB EQ PUSH2 0x1DE JUMPI DUP1 PUSH4 0xFD47B368 EQ PUSH2 0x1FC JUMPI PUSH2 0xB2 JUMP JUMPDEST DUP1 PUSH4 0x121B93F EQ PUSH2 0xB6 JUMPI DUP1 PUSH4 0xD15FD77 EQ PUSH2 0xD2 JUMPI DUP1 PUSH4 0x2D35A8A2 EQ PUSH2 0xF0 JUMPI DUP1 PUSH4 0x3477EE2E EQ PUSH2 0x10E JUMPI DUP1 PUSH4 0x462E91EC EQ PUSH2 0x140 JUMPI DUP1 PUSH4 0x59F78468 EQ PUSH2 0x15C JUMPI JUMPDEST PUSH0 DUP1 REVERT JUMPDEST PUSH2 0xD0 PUSH1 0x4 DUP1 CALLDATASIZE SUB DUP2 ADD SWAP1 PUSH2 0xCB SWAP2 SWAP1 PUSH2 0xDB9 JUMP JUMPDEST PUSH2 0x218 JUMP JUMPDEST STOP JUMPDEST PUSH2 0xDA PUSH2 0x510 JUMP JUMPDEST PUSH1 0x40 MLOAD PUSH2 0xE7 SWAP2 SWAP1 PUSH2 0xDF3 JUMP JUMPDEST PUSH1 0x40 MLOAD DUP1 SWAP2 SUB SWAP1 RETURN JUMPDEST PUSH2 0xF8 PUSH2 0x516 JUMP JUMPDEST PUSH1 0x40 MLOAD PUSH2 0x105 SWAP2 SWAP1 PUSH2 0xDF3 JUMP JUMPDEST PUSH1 0x40 MLOAD DUP1 SWAP2 SUB SWAP1 RETURN JUMPDEST PUSH2 0x128 PUSH1 0x4 DUP1 CALLDATASIZE SUB DUP2 ADD SWAP1 PUSH2 0x123 SWAP2 SWAP1 PUSH2 0xDB9 JUMP JUMPDEST PUSH2 0x51C JUMP JUMPDEST PUSH1 0x40 MLOAD PUSH2 0x137 SWAP4 SWAP3 SWAP2 SWAP1 PUSH2 0xE7C JUMP JUMPDEST PUSH1 0x40 MLOAD DUP1 SWAP2 SUB SWAP1 RETURN JUMPDEST PUSH2 0x15A PUSH1 0x4 DUP1 CALLDATASIZE SUB DUP2 ADD SWAP1 PUSH2 0x155 SWAP2 SWAP1 PUSH2 0xFE4 JUMP JUMPDEST PUSH2 0x5C8 JUMP JUMPDEST STOP JUMPDEST PUSH2 0x164 PUSH2 0x740 JUMP JUMPDEST STOP JUMPDEST PUSH2 0x16E PUSH2 0x89C JUMP JUMPDEST STOP JUMPDEST PUSH2 0x178 PUSH2 0x9F7 JUMP JUMPDEST PUSH1 0x40 MLOAD PUSH2 0x185 SWAP2 SWAP1 PUSH2 0x106A JUMP JUMPDEST PUSH1 0x40 MLOAD DUP1 SWAP2 SUB SWAP1 RETURN JUMPDEST PUSH2 0x196 PUSH2 0xA1A JUMP JUMPDEST PUSH1 0x40 MLOAD PUSH2 0x1A3 SWAP2 SWAP1 PUSH2 0x1083 JUMP JUMPDEST PUSH1 0x40 MLOAD DUP1 SWAP2 SUB SWAP1 RETURN JUMPDEST PUSH2 0x1C6 PUSH1 0x4 DUP1 CALLDATASIZE SUB DUP2 ADD SWAP1 PUSH2 0x1C1 SWAP2 SWAP1 PUSH2 0x10CD JUMP JUMPDEST PUSH2 0xB91 JUMP JUMPDEST PUSH1 0x40 MLOAD PUSH2 0x1D5 SWAP4 SWAP3 SWAP2 SWAP1 PUSH2 0x1112 JUMP JUMPDEST PUSH1 0x40 MLOAD DUP1 SWAP2 SUB SWAP1 RETURN JUMPDEST PUSH2 0x1E6 PUSH2 0xBCF JUMP JUMPDEST PUSH1 0x40 MLOAD PUSH2 0x1F3 SWAP2 SWAP1 PUSH2 0x11BA JUMP JUMPDEST PUSH1 0x40 MLOAD DUP1 SWAP2 SUB SWAP1 RETURN JUMPDEST PUSH2 0x216 PUSH1 0x4 DUP1 CALLDATASIZE SUB DUP2 ADD SWAP1 PUSH2 0x211 SWAP2 SWAP1 PUSH2 0x10CD JUMP JUMPDEST PUSH2 0xBE1 JUMP JUMPDEST STOP JUMPDEST PUSH1 0x1 DUP1 PUSH1 0x2 DUP2 GT ISZERO PUSH2 0x22D JUMPI PUSH2 0x22C PUSH2 0x1147 JUMP JUMPDEST JUMPDEST PUSH0 PUSH1 0x14 SWAP1 SLOAD SWAP1 PUSH2 0x100 EXP SWAP1 DIV PUSH1 0xFF AND PUSH1 0x2 DUP2 GT ISZERO PUSH2 0x24E JUMPI PUSH2 0x24D PUSH2 0x1147 JUMP JUMPDEST JUMPDEST EQ PUSH2 0x28E JUMPI PUSH1 0x40 MLOAD PUSH32 0x8C379A000000000000000000000000000000000000000000000000000000000 DUP2 MSTORE PUSH1 0x4 ADD PUSH2 0x285 SWAP1 PUSH2 0x121D JUMP JUMPDEST PUSH1 0x40 MLOAD DUP1 SWAP2 SUB SWAP1 REVERT JUMPDEST PUSH1 0x3 PUSH0 CALLER PUSH20 0xFFFFFFFFFFFFFFFFFFFFFFFFFFFFFFFFFFFFFFFF AND PUSH20 0xFFFFFFFFFFFFFFFFFFFFFFFFFFFFFFFFFFFFFFFF AND DUP2 MSTORE PUSH1 0x20 ADD SWAP1 DUP2 MSTORE PUSH1 0x20 ADD PUSH0 KECCAK256 PUSH0 ADD PUSH0 SWAP1 SLOAD SWAP1 PUSH2 0x100 EXP SWAP1 DIV PUSH1 0xFF AND PUSH2 0x319 JUMPI PUSH1 0x40 MLOAD PUSH32 0x8C379A000000000000000000000000000000000000000000000000000000000 DUP2 MSTORE PUSH1 0x4 ADD PUSH2 0x310 SWAP1 PUSH2 0x1285 JUMP JUMPDEST PUSH1 0x40 MLOAD DUP1 SWAP2 SUB SWAP1 REVERT JUMPDEST PUSH1 0x3 PUSH0 CALLER PUSH20 0xFFFFFFFFFFFFFFFFFFFFFFFFFFFFFFFFFFFFFFFF AND PUSH20 0xFFFFFFFFFFFFFFFFFFFFFFFFFFFFFFFFFFFFFFFF AND DUP2 MSTORE PUSH1 0x20 ADD SWAP1 DUP2 MSTORE PUSH1 0x20 ADD PUSH0 KECCAK256 PUSH0 ADD PUSH1 0x1 SWAP1 SLOAD SWAP1 PUSH2 0x100 EXP SWAP1 DIV PUSH1 0xFF AND ISZERO PUSH2 0x3A6 JUMPI PUSH1 0x40 MLOAD PUSH32 0x8C379A000000000000000000000000000000000000000000000000000000000 DUP2 MSTORE PUSH1 0x4 ADD PUSH2 0x39D SWAP1 PUSH2 0x12ED JUMP JUMPDEST PUSH1 0x40 MLOAD DUP1 SWAP2 SUB SWAP1 REVERT JUMPDEST PUSH0 DUP3 GT DUP1 ISZERO PUSH2 0x3B7 JUMPI POP PUSH1 0x2 SLOAD DUP3 GT ISZERO JUMPDEST PUSH2 0x3F6 JUMPI PUSH1 0x40 MLOAD PUSH32 0x8C379A000000000000000000000000000000000000000000000000000000000 DUP2 MSTORE PUSH1 0x4 ADD PUSH2 0x3ED SWAP1 PUSH2 0x1355 JUMP JUMPDEST PUSH1 0x40 MLOAD DUP1 SWAP2 SUB SWAP1 REVERT JUMPDEST PUSH1 0x1 PUSH1 0x3 PUSH0 CALLER PUSH20 0xFFFFFFFFFFFFFFFFFFFFFFFFFFFFFFFFFFFFFFFF AND PUSH20 0xFFFFFFFFFFFFFFFFFFFFFFFFFFFFFFFFFFFFFFFF AND DUP2 MSTORE PUSH1 0x20 ADD SWAP1 DUP2 MSTORE PUSH1 0x20 ADD PUSH0 KECCAK256 PUSH0 ADD PUSH1 0x1 PUSH2 0x100 EXP DUP2 SLOAD DUP2 PUSH1 0xFF MUL NOT AND SWAP1 DUP4 ISZERO ISZERO MUL OR SWAP1 SSTORE POP DUP2 PUSH1 0x3 PUSH0 CALLER PUSH20 0xFFFFFFFFFFFFFFFFFFFFFFFFFFFFFFFFFFFFFFFF AND PUSH20 0xFFFFFFFFFFFFFFFFFFFFFFFFFFFFFFFFFFFFFFFF AND DUP2 MSTORE PUSH1 0x20 ADD SWAP1 DUP2 MSTORE PUSH1 0x20 ADD PUSH0 KECCAK256 PUSH1 0x1 ADD DUP2 SWAP1 SSTORE POP PUSH1 0x1 PUSH0 DUP4 DUP2 MSTORE PUSH1 0x20 ADD SWAP1 DUP2 MSTORE PUSH1 0x20 ADD PUSH0 KECCAK256 PUSH1 0x2 ADD PUSH0 DUP2 SLOAD DUP1 SWAP3 SWAP2 SWAP1 PUSH2 0x4B7 SWAP1 PUSH2 0x13A0 JUMP JUMPDEST SWAP2 SWAP1 POP SSTORE POP PUSH1 0x4 PUSH0 DUP2 SLOAD DUP1 SWAP3 SWAP2 SWAP1 PUSH2 0x4CE SWAP1 PUSH2 0x13A0 JUMP JUMPDEST SWAP2 SWAP1 POP SSTORE POP PUSH32 0xA36CC2BEBB74DB33E9F88110A07EF56E1B31B24B4C4F51B54B1664266E29F45B CALLER DUP4 PUSH1 0x40 MLOAD PUSH2 0x504 SWAP3 SWAP2 SWAP1 PUSH2 0x13E7 JUMP JUMPDEST PUSH1 0x40 MLOAD DUP1 SWAP2 SUB SWAP1 LOG1 POP POP JUMP JUMPDEST PUSH1 0x4 SLOAD DUP2 JUMP JUMPDEST PUSH1 0x2 SLOAD DUP2 JUMP JUMPDEST PUSH1 0x1 PUSH1 0x20 MSTORE DUP1 PUSH0 MSTORE PUSH1 0x40 PUSH0 KECCAK256 PUSH0 SWAP2 POP SWAP1 POP DUP1 PUSH0 ADD SLOAD SWAP1 DUP1 PUSH1 0x1 ADD DUP1 SLOAD PUSH2 0x541 SWAP1 PUSH2 0x143B JUMP JUMPDEST DUP1 PUSH1 0x1F ADD PUSH1 0x20 DUP1 SWAP2 DIV MUL PUSH1 0x20 ADD PUSH1 0x40 MLOAD SWAP1 DUP2 ADD PUSH1 0x40 MSTORE DUP1 SWAP3 SWAP2 SWAP1 DUP2 DUP2 MSTORE PUSH1 0x20 ADD DUP3 DUP1 SLOAD PUSH2 0x56D SWAP1 PUSH2 0x143B JUMP JUMPDEST DUP1 ISZERO PUSH2 0x5B8 JUMPI DUP1 PUSH1 0x1F LT PUSH2 0x58F JUMPI PUSH2 0x100 DUP1 DUP4 SLOAD DIV MUL DUP4 MSTORE SWAP2 PUSH1 0x20 ADD SWAP2 PUSH2 0x5B8 JUMP JUMPDEST DUP3 ADD SWAP2 SWAP1 PUSH0 MSTORE PUSH1 0x20 PUSH0 KECCAK256 SWAP1 JUMPDEST DUP2 SLOAD DUP2 MSTORE SWAP1 PUSH1 0x1 ADD SWAP1 PUSH1 0x20 ADD DUP1 DUP4 GT PUSH2 0x59B JUMPI DUP3 SWAP1 SUB PUSH1 0x1F AND DUP3 ADD SWAP2 JUMPDEST POP POP POP POP POP SWAP1 DUP1 PUSH1 0x2 ADD SLOAD SWAP1 POP DUP4 JUMP JUMPDEST PUSH0 DUP1 SLOAD SWAP1 PUSH2 0x100 EXP SWAP1 DIV PUSH20 0xFFFFFFFFFFFFFFFFFFFFFFFFFFFFFFFFFFFFFFFF AND PUSH20 0xFFFFFFFFFFFFFFFFFFFFFFFFFFFFFFFFFFFFFFFF AND CALLER PUSH20 0xFFFFFFFFFFFFFFFFFFFFFFFFFFFFFFFFFFFFFFFF AND EQ PUSH2 0x655 JUMPI PUSH1 0x40 MLOAD PUSH32 0x8C379A000000000000000000000000000000000000000000000000000000000 DUP2 MSTORE PUSH1 0x4 ADD PUSH2 0x64C SWAP1 PUSH2 0x14DB JUMP JUMPDEST PUSH1 0x40 MLOAD DUP1 SWAP2 SUB SWAP1 REVERT JUMPDEST PUSH0 DUP1 PUSH1 0x2 DUP2 GT ISZERO PUSH2 0x669 JUMPI PUSH2 0x668 PUSH2 0x1147 JUMP JUMPDEST JUMPDEST PUSH0 PUSH1 0x14 SWAP1 SLOAD SWAP1 PUSH2 0x100 EXP SWAP1 DIV PUSH1 0xFF AND PUSH1 0x2 DUP2 GT ISZERO PUSH2 0x68A JUMPI PUSH2 0x689 PUSH2 0x1147 JUMP JUMPDEST JUMPDEST EQ PUSH2 0x6CA JUMPI PUSH1 0x40 MLOAD PUSH32 0x8C379A000000000000000000000000000000000000000000000000000000000 DUP2 MSTORE PUSH1 0x4 ADD PUSH2 0x6C1 SWAP1 PUSH2 0x121D JUMP JUMPDEST PUSH1 0x40 MLOAD DUP1 SWAP2 SUB SWAP1 REVERT JUMPDEST PUSH1 0x2 PUSH0 DUP2 SLOAD DUP1 SWAP3 SWAP2 SWAP1 PUSH2 0x6DC SWAP1 PUSH2 0x13A0 JUMP JUMPDEST SWAP2 SWAP1 POP SSTORE POP PUSH1 0x40 MLOAD DUP1 PUSH1 0x60 ADD PUSH1 0x40 MSTORE DUP1 PUSH1 0x2 SLOAD DUP2 MSTORE PUSH1 0x20 ADD DUP4 DUP2 MSTORE PUSH1 0x20 ADD PUSH0 DUP2 MSTORE POP PUSH1 0x1 PUSH0 PUSH1 0x2 SLOAD DUP2 MSTORE PUSH1 0x20 ADD SWAP1 DUP2 MSTORE PUSH1 0x20 ADD PUSH0 KECCAK256 PUSH0 DUP3 ADD MLOAD DUP2 PUSH0 ADD SSTORE PUSH1 0x20 DUP3 ADD MLOAD DUP2 PUSH1 0x1 ADD SWAP1 DUP2 PUSH2 0x72E SWAP2 SWAP1 PUSH2 0x1696 JUMP JUMPDEST POP PUSH1 0x40 DUP3 ADD MLOAD DUP2 PUSH1 0x2 ADD SSTORE SWAP1 POP POP POP POP JUMP JUMPDEST PUSH0 DUP1 SLOAD SWAP1 PUSH2 0x100 EXP SWAP1 DIV PUSH20 0xFFFFFFFFFFFFFFFFFFFFFFFFFFFFFFFFFFFFFFFF AND PUSH20 0xFFFFFFFFFFFFFFFFFFFFFFFFFFFFFFFFFFFFFFFF AND CALLER PUSH20 0xFFFFFFFFFFFFFFFFFFFFFFFFFFFFFFFFFFFFFFFF AND EQ PUSH2 0x7CD JUMPI PUSH1 0x40 MLOAD PUSH32 0x8C379A000000000000000000000000000000000000000000000000000000000 DUP2 MSTORE PUSH1 0x4 ADD PUSH2 0x7C4 SWAP1 PUSH2 0x14DB JUMP JUMPDEST PUSH1 0x40 MLOAD DUP1 SWAP2 SUB SWAP1 REVERT JUMPDEST PUSH1 0x1 DUP1 PUSH1 0x2 DUP2 GT ISZERO PUSH2 0x7E2 JUMPI PUSH2 0x7E1 PUSH2 0x1147 JUMP JUMPDEST JUMPDEST PUSH0 PUSH1 0x14 SWAP1 SLOAD SWAP1 PUSH2 0x100 EXP SWAP1 DIV PUSH1 0xFF AND PUSH1 0x2 DUP2 GT ISZERO PUSH2 0x803 JUMPI PUSH2 0x802 PUSH2 0x1147 JUMP JUMPDEST JUMPDEST EQ PUSH2 0x843 JUMPI PUSH1 0x40 MLOAD PUSH32 0x8C379A000000000000000000000000000000000000000000000000000000000 DUP2 MSTORE PUSH1 0x4 ADD PUSH2 0x83A SWAP1 PUSH2 0x121D JUMP JUMPDEST PUSH1 0x40 MLOAD DUP1 SWAP2 SUB SWAP1 REVERT JUMPDEST PUSH1 0x2 PUSH0 PUSH1 0x14 PUSH2 0x100 EXP DUP2 SLOAD DUP2 PUSH1 0xFF MUL NOT AND SWAP1 DUP4 PUSH1 0x2 DUP2 GT ISZERO PUSH2 0x868 JUMPI PUSH2 0x867 PUSH2 0x1147 JUMP JUMPDEST JUMPDEST MUL OR SWAP1 SSTORE POP PUSH32 0x66EC723071E4BB646F7B35D31BC2DEE8510979BD8C180EDD0690D4F5E802F1E4 PUSH1 0x40 MLOAD PUSH1 0x40 MLOAD DUP1 SWAP2 SUB SWAP1 LOG1 POP JUMP JUMPDEST PUSH0 DUP1 SLOAD SWAP1 PUSH2 0x100 EXP SWAP1 DIV PUSH20 0xFFFFFFFFFFFFFFFFFFFFFFFFFFFFFFFFFFFFFFFF AND PUSH20 0xFFFFFFFFFFFFFFFFFFFFFFFFFFFFFFFFFFFFFFFF AND CALLER PUSH20 0xFFFFFFFFFFFFFFFFFFFFFFFFFFFFFFFFFFFFFFFF AND EQ PUSH2 0x929 JUMPI PUSH1 0x40 MLOAD PUSH32 0x8C379A000000000000000000000000000000000000000000000000000000000 DUP2 MSTORE PUSH1 0x4 ADD PUSH2 0x920 SWAP1 PUSH2 0x14DB JUMP JUMPDEST PUSH1 0x40 MLOAD DUP1 SWAP2 SUB SWAP1 REVERT JUMPDEST PUSH0 DUP1 PUSH1 0x2 DUP2 GT ISZERO PUSH2 0x93D JUMPI PUSH2 0x93C PUSH2 0x1147 JUMP JUMPDEST JUMPDEST PUSH0 PUSH1 0x14 SWAP1 SLOAD SWAP1 PUSH2 0x100 EXP SWAP1 DIV PUSH1 0xFF AND PUSH1 0x2 DUP2 GT ISZERO PUSH2 0x95E JUMPI PUSH2 0x95D PUSH2 0x1147 JUMP JUMPDEST JUMPDEST EQ PUSH2 0x99E JUMPI PUSH1 0x40 MLOAD PUSH32 0x8C379A000000000000000000000000000000000000000000000000000000000 DUP2 MSTORE PUSH1 0x4 ADD PUSH2 0x995 SWAP1 PUSH2 0x121D JUMP JUMPDEST PUSH1 0x40 MLOAD DUP1 SWAP2 SUB SWAP1 REVERT JUMPDEST PUSH1 0x1 PUSH0 PUSH1 0x14 PUSH2 0x100 EXP DUP2 SLOAD DUP2 PUSH1 0xFF MUL NOT AND SWAP1 DUP4 PUSH1 0x2 DUP2 GT ISZERO PUSH2 0x9C3 JUMPI PUSH2 0x9C2 PUSH2 0x1147 JUMP JUMPDEST JUMPDEST MUL OR SWAP1 SSTORE POP PUSH32 0xC475C26AA25ED8E85A7FAA790E5F63B5D7EE1025F12821F4C9BFDDD36AB4D112 PUSH1 0x40 MLOAD PUSH1 0x40 MLOAD DUP1 SWAP2 SUB SWAP1 LOG1 POP JUMP JUMPDEST PUSH0 DUP1 SLOAD SWAP1 PUSH2 0x100 EXP SWAP1 DIV PUSH20 0xFFFFFFFFFFFFFFFFFFFFFFFFFFFFFFFFFFFFFFFF AND DUP2 JUMP JUMPDEST PUSH1 0x60 PUSH1 0x2 DUP1 PUSH1 0x2 DUP2 GT ISZERO PUSH2 0xA31 JUMPI PUSH2 0xA30 PUSH2 0x1147 JUMP JUMPDEST JUMPDEST PUSH0 PUSH1 0x14 SWAP1 SLOAD SWAP1 PUSH2 0x100 EXP SWAP1 DIV PUSH1 0xFF AND PUSH1 0x2 DUP2 GT ISZERO PUSH2 0xA52 JUMPI PUSH2 0xA51 PUSH2 0x1147 JUMP JUMPDEST JUMPDEST EQ PUSH2 0xA92 JUMPI PUSH1 0x40 MLOAD PUSH32 0x8C379A000000000000000000000000000000000000000000000000000000000 DUP2 MSTORE PUSH1 0x4 ADD PUSH2 0xA89 SWAP1 PUSH2 0x121D JUMP JUMPDEST PUSH1 0x40 MLOAD DUP1 SWAP2 SUB SWAP1 REVERT JUMPDEST PUSH0 DUP1 PUSH0 PUSH1 0x1 SWAP1 POP JUMPDEST PUSH1 0x2 SLOAD DUP2 GT PUSH2 0xAED JUMPI DUP3 PUSH1 0x1 PUSH0 DUP4 DUP2 MSTORE PUSH1 0x20 ADD SWAP1 DUP2 MSTORE PUSH1 0x20 ADD PUSH0 KECCAK256 PUSH1 0x2 ADD SLOAD GT ISZERO PUSH2 0xADA JUMPI PUSH1 0x1 PUSH0 DUP3 DUP2 MSTORE PUSH1 0x20 ADD SWAP1 DUP2 MSTORE PUSH1 0x20 ADD PUSH0 KECCAK256 PUSH1 0x2 ADD SLOAD SWAP3 POP DUP1 SWAP2 POP JUMPDEST DUP1 DUP1 PUSH2 0xAE5 SWAP1 PUSH2 0x13A0 JUMP JUMPDEST SWAP2 POP POP PUSH2 0xA9A JUMP JUMPDEST POP PUSH1 0x1 PUSH0 DUP3 DUP2 MSTORE PUSH1 0x20 ADD SWAP1 DUP2 MSTORE PUSH1 0x20 ADD PUSH0 KECCAK256 PUSH1 0x1 ADD DUP1 SLOAD PUSH2 0xB0D SWAP1 PUSH2 0x143B JUMP JUMPDEST DUP1 PUSH1 0x1F ADD PUSH1 0x20 DUP1 SWAP2 DIV MUL PUSH1 0x20 ADD PUSH1 0x40 MLOAD SWAP1 DUP2 ADD PUSH1 0x40 MSTORE DUP1 SWAP3 SWAP2 SWAP1 DUP2 DUP2 MSTORE PUSH1 0x20 ADD DUP3 DUP1 SLOAD PUSH2 0xB39 SWAP1 PUSH2 0x143B JUMP JUMPDEST DUP1 ISZERO PUSH2 0xB84 JUMPI DUP1 PUSH1 0x1F LT PUSH2 0xB5B JUMPI PUSH2 0x100 DUP1 DUP4 SLOAD DIV MUL DUP4 MSTORE SWAP2 PUSH1 0x20 ADD SWAP2 PUSH2 0xB84 JUMP JUMPDEST DUP3 ADD SWAP2 SWAP1 PUSH0 MSTORE PUSH1 0x20 PUSH0 KECCAK256 SWAP1 JUMPDEST DUP2 SLOAD DUP2 MSTORE SWAP1 PUSH1 0x1 ADD SWAP1 PUSH1 0x20 ADD DUP1 DUP4 GT PUSH2 0xB67 JUMPI DUP3 SWAP1 SUB PUSH1 0x1F AND DUP3 ADD SWAP2 JUMPDEST POP POP POP POP POP SWAP4 POP POP POP POP SWAP1 JUMP JUMPDEST PUSH1 0x3 PUSH1 0x20 MSTORE DUP1 PUSH0 MSTORE PUSH1 0x40 PUSH0 KECCAK256 PUSH0 SWAP2 POP SWAP1 POP DUP1 PUSH0 ADD PUSH0 SWAP1 SLOAD SWAP1 PUSH2 0x100 EXP SWAP1 DIV PUSH1 0xFF AND SWAP1 DUP1 PUSH0 ADD PUSH1 0x1 SWAP1 SLOAD SWAP1 PUSH2 0x100 EXP SWAP1 DIV PUSH1 0xFF AND SWAP1 DUP1 PUSH1 0x1 ADD SLOAD SWAP1 POP DUP4 JUMP JUMPDEST PUSH0 PUSH1 0x14 SWAP1 SLOAD SWAP1 PUSH2 0x100 EXP SWAP1 DIV PUSH1 0xFF AND DUP2 JUMP JUMPDEST PUSH0 DUP1 SLOAD SWAP1 PUSH2 0x100 EXP SWAP1 DIV PUSH20 0xFFFFFFFFFFFFFFFFFFFFFFFFFFFFFFFFFFFFFFFF AND PUSH20 0xFFFFFFFFFFFFFFFFFFFFFFFFFFFFFFFFFFFFFFFF AND CALLER PUSH20 0xFFFFFFFFFFFFFFFFFFFFFFFFFFFFFFFFFFFFFFFF AND EQ PUSH2 0xC6E JUMPI PUSH1 0x40 MLOAD PUSH32 0x8C379A000000000000000000000000000000000000000000000000000000000 DUP2 MSTORE PUSH1 0x4 ADD PUSH2 0xC65 SWAP1 PUSH2 0x14DB JUMP JUMPDEST PUSH1 0x40 MLOAD DUP1 SWAP2 SUB SWAP1 REVERT JUMPDEST PUSH0 DUP1 PUSH1 0x2 DUP2 GT ISZERO PUSH2 0xC82 JUMPI PUSH2 0xC81 PUSH2 0x1147 JUMP JUMPDEST JUMPDEST PUSH0 PUSH1 0x14 SWAP1 SLOAD SWAP1 PUSH2 0x100 EXP SWAP1 DIV PUSH1 0xFF AND PUSH1 0x2 DUP2 GT ISZERO PUSH2 0xCA3 JUMPI PUSH2 0xCA2 PUSH2 0x1147 JUMP JUMPDEST JUMPDEST EQ PUSH2 0xCE3 JUMPI PUSH1 0x40 MLOAD PUSH32 0x8C379A000000000000000000000000000000000000000000000000000000000 DUP2 MSTORE PUSH1 0x4 ADD PUSH2 0xCDA SWAP1 PUSH2 0x121D JUMP JUMPDEST PUSH1 0x40 MLOAD DUP1 SWAP2 SUB SWAP1 REVERT JUMPDEST PUSH1 0x1 PUSH1 0x3 PUSH0 DUP5 PUSH20 0xFFFFFFFFFFFFFFFFFFFFFFFFFFFFFFFFFFFFFFFF AND PUSH20 0xFFFFFFFFFFFFFFFFFFFFFFFFFFFFFFFFFFFFFFFF AND DUP2 MSTORE PUSH1 0x20 ADD SWAP1 DUP2 MSTORE PUSH1 0x20 ADD PUSH0 KECCAK256 PUSH0 ADD PUSH0 PUSH2 0x100 EXP DUP2 SLOAD DUP2 PUSH1 0xFF MUL NOT AND SWAP1 DUP4 ISZERO ISZERO MUL OR SWAP1 SSTORE POP PUSH32 0xCA65A9F1F88BD7257AC852D1062853358F81CDC56F9634DCBEED6090F8DFB43 DUP3 PUSH1 0x40 MLOAD PUSH2 0xD69 SWAP2 SWAP1 PUSH2 0x106A JUMP JUMPDEST PUSH1 0x40 MLOAD DUP1 SWAP2 SUB SWAP1 LOG1 POP POP JUMP JUMPDEST PUSH0 PUSH1 0x40 MLOAD SWAP1 POP SWAP1 JUMP JUMPDEST PUSH0 DUP1 REVERT JUMPDEST PUSH0 DUP1 REVERT JUMPDEST PUSH0 DUP2 SWAP1 POP SWAP2 SWAP1 POP JUMP JUMPDEST PUSH2 0xD98 DUP2 PUSH2 0xD86 JUMP JUMPDEST DUP2 EQ PUSH2 0xDA2 JUMPI PUSH0 DUP1 REVERT JUMPDEST POP JUMP JUMPDEST PUSH0 DUP2 CALLDATALOAD SWAP1 POP PUSH2 0xDB3 DUP2 PUSH2 0xD8F JUMP JUMPDEST SWAP3 SWAP2 POP POP JUMP JUMPDEST PUSH0 PUSH1 0x20 DUP3 DUP5 SUB SLT ISZERO PUSH2 0xDCE JUMPI PUSH2 0xDCD PUSH2 0xD7E JUMP JUMPDEST JUMPDEST PUSH0 PUSH2 0xDDB DUP5 DUP3 DUP6 ADD PUSH2 0xDA5 JUMP JUMPDEST SWAP2 POP POP SWAP3 SWAP2 POP POP JUMP JUMPDEST PUSH2 0xDED DUP2 PUSH2 0xD86 JUMP JUMPDEST DUP3 MSTORE POP POP JUMP JUMPDEST PUSH0 PUSH1 0x20 DUP3 ADD SWAP1 POP PUSH2 0xE06 PUSH0 DUP4 ADD DUP5 PUSH2 0xDE4 JUMP JUMPDEST SWAP3 SWAP2 POP POP JUMP JUMPDEST PUSH0 DUP2 MLOAD SWAP1 POP SWAP2 SWAP1 POP JUMP JUMPDEST PUSH0 DUP3 DUP3 MSTORE PUSH1 0x20 DUP3 ADD SWAP1 POP SWAP3 SWAP2 POP POP JUMP JUMPDEST DUP3 DUP2 DUP4 MCOPY PUSH0 DUP4 DUP4 ADD MSTORE POP POP POP JUMP JUMPDEST PUSH0 PUSH1 0x1F NOT PUSH1 0x1F DUP4 ADD AND SWAP1 POP SWAP2 SWAP1 POP JUMP JUMPDEST PUSH0 PUSH2 0xE4E DUP3 PUSH2 0xE0C JUMP JUMPDEST PUSH2 0xE58 DUP2 DUP6 PUSH2 0xE16 JUMP JUMPDEST SWAP4 POP PUSH2 0xE68 DUP2 DUP6 PUSH1 0x20 DUP7 ADD PUSH2 0xE26 JUMP JUMPDEST PUSH2 0xE71 DUP2 PUSH2 0xE34 JUMP JUMPDEST DUP5 ADD SWAP2 POP POP SWAP3 SWAP2 POP POP JUMP JUMPDEST PUSH0 PUSH1 0x60 DUP3 ADD SWAP1 POP PUSH2 0xE8F PUSH0 DUP4 ADD DUP7 PUSH2 0xDE4 JUMP JUMPDEST DUP2 DUP2 SUB PUSH1 0x20 DUP4 ADD MSTORE PUSH2 0xEA1 DUP2 DUP6 PUSH2 0xE44 JUMP JUMPDEST SWAP1 POP PUSH2 0xEB0 PUSH1 0x40 DUP4 ADD DUP5 PUSH2 0xDE4 JUMP JUMPDEST SWAP5 SWAP4 POP POP POP POP JUMP JUMPDEST PUSH0 DUP1 REVERT JUMPDEST PUSH0 DUP1 REVERT JUMPDEST PUSH32 0x4E487B7100000000000000000000000000000000000000000000000000000000 PUSH0 MSTORE PUSH1 0x41 PUSH1 0x4 MSTORE PUSH1 0x24 PUSH0 REVERT JUMPDEST PUSH2 0xEF6 DUP3 PUSH2 0xE34 JUMP JUMPDEST DUP2 ADD DUP2 DUP2 LT PUSH8 0xFFFFFFFFFFFFFFFF DUP3 GT OR ISZERO PUSH2 0xF15 JUMPI PUSH2 0xF14 PUSH2 0xEC0 JUMP JUMPDEST JUMPDEST DUP1 PUSH1 0x40 MSTORE POP POP POP JUMP JUMPDEST PUSH0 PUSH2 0xF27 PUSH2 0xD75 JUMP JUMPDEST SWAP1 POP PUSH2 0xF33 DUP3 DUP3 PUSH2 0xEED JUMP JUMPDEST SWAP2 SWAP1 POP JUMP JUMPDEST PUSH0 PUSH8 0xFFFFFFFFFFFFFFFF DUP3 GT ISZERO PUSH2 0xF52 JUMPI PUSH2 0xF51 PUSH2 0xEC0 JUMP JUMPDEST JUMPDEST PUSH2 0xF5B DUP3 PUSH2 0xE34 JUMP JUMPDEST SWAP1 POP PUSH1 0x20 DUP2 ADD SWAP1 POP SWAP2 SWAP1 POP JUMP JUMPDEST DUP3 DUP2 DUP4 CALLDATACOPY PUSH0 DUP4 DUP4 ADD MSTORE POP POP POP JUMP JUMPDEST PUSH0 PUSH2 0xF88 PUSH2 0xF83 DUP5 PUSH2 0xF38 JUMP JUMPDEST PUSH2 0xF1E JUMP JUMPDEST SWAP1 POP DUP3 DUP2 MSTORE PUSH1 0x20 DUP2 ADD DUP5 DUP5 DUP5 ADD GT ISZERO PUSH2 0xFA4 JUMPI PUSH2 0xFA3 PUSH2 0xEBC JUMP JUMPDEST JUMPDEST PUSH2 0xFAF DUP5 DUP3 DUP6 PUSH2 0xF68 JUMP JUMPDEST POP SWAP4 SWAP3 POP POP POP JUMP JUMPDEST PUSH0 DUP3 PUSH1 0x1F DUP4 ADD SLT PUSH2 0xFCB JUMPI PUSH2 0xFCA PUSH2 0xEB8 JUMP JUMPDEST JUMPDEST DUP2 CALLDATALOAD PUSH2 0xFDB DUP5 DUP3 PUSH1 0x20 DUP7 ADD PUSH2 0xF76 JUMP JUMPDEST SWAP2 POP POP SWAP3 SWAP2 POP POP JUMP JUMPDEST PUSH0 PUSH1 0x20 DUP3 DUP5 SUB SLT ISZERO PUSH2 0xFF9 JUMPI PUSH2 0xFF8 PUSH2 0xD7E JUMP JUMPDEST JUMPDEST PUSH0 DUP3 ADD CALLDATALOAD PUSH8 0xFFFFFFFFFFFFFFFF DUP2 GT ISZERO PUSH2 0x1016 JUMPI PUSH2 0x1015 PUSH2 0xD82 JUMP JUMPDEST JUMPDEST PUSH2 0x1022 DUP5 DUP3 DUP6 ADD PUSH2 0xFB7 JUMP JUMPDEST SWAP2 POP POP SWAP3 SWAP2 POP POP JUMP JUMPDEST PUSH0 PUSH20 0xFFFFFFFFFFFFFFFFFFFFFFFFFFFFFFFFFFFFFFFF DUP3 AND SWAP1 POP SWAP2 SWAP1 POP JUMP JUMPDEST PUSH0 PUSH2 0x1054 DUP3 PUSH2 0x102B JUMP JUMPDEST SWAP1 POP SWAP2 SWAP1 POP JUMP JUMPDEST PUSH2 0x1064 DUP2 PUSH2 0x104A JUMP JUMPDEST DUP3 MSTORE POP POP JUMP JUMPDEST PUSH0 PUSH1 0x20 DUP3 ADD SWAP1 POP PUSH2 0x107D PUSH0 DUP4 ADD DUP5 PUSH2 0x105B JUMP JUMPDEST SWAP3 SWAP2 POP POP JUMP JUMPDEST PUSH0 PUSH1 0x20 DUP3 ADD SWAP1 POP DUP2 DUP2 SUB PUSH0 DUP4 ADD MSTORE PUSH2 0x109B DUP2 DUP5 PUSH2 0xE44 JUMP JUMPDEST SWAP1 POP SWAP3 SWAP2 POP POP JUMP JUMPDEST PUSH2 0x10AC DUP2 PUSH2 0x104A JUMP JUMPDEST DUP2 EQ PUSH2 0x10B6 JUMPI PUSH0 DUP1 REVERT JUMPDEST POP JUMP JUMPDEST PUSH0 DUP2 CALLDATALOAD SWAP1 POP PUSH2 0x10C7 DUP2 PUSH2 0x10A3 JUMP JUMPDEST SWAP3 SWAP2 POP POP JUMP JUMPDEST PUSH0 PUSH1 0x20 DUP3 DUP5 SUB SLT ISZERO PUSH2 0x10E2 JUMPI PUSH2 0x10E1 PUSH2 0xD7E JUMP JUMPDEST JUMPDEST PUSH0 PUSH2 0x10EF DUP5 DUP3 DUP6 ADD PUSH2 0x10B9 JUMP JUMPDEST SWAP2 POP POP SWAP3 SWAP2 POP POP JUMP JUMPDEST PUSH0 DUP2 ISZERO ISZERO SWAP1 POP SWAP2 SWAP1 POP JUMP JUMPDEST PUSH2 0x110C DUP2 PUSH2 0x10F8 JUMP JUMPDEST DUP3 MSTORE POP POP JUMP JUMPDEST PUSH0 PUSH1 0x60 DUP3 ADD SWAP1 POP PUSH2 0x1125 PUSH0 DUP4 ADD DUP7 PUSH2 0x1103 JUMP JUMPDEST PUSH2 0x1132 PUSH1 0x20 DUP4 ADD DUP6 PUSH2 0x1103 JUMP JUMPDEST PUSH2 0x113F PUSH1 0x40 DUP4 ADD DUP5 PUSH2 0xDE4 JUMP JUMPDEST SWAP5 SWAP4 POP POP POP POP JUMP JUMPDEST PUSH32 0x4E487B7100000000000000000000000000000000000000000000000000000000 PUSH0 MSTORE PUSH1 0x21 PUSH1 0x4 MSTORE PUSH1 0x24 PUSH0 REVERT JUMPDEST PUSH1 0x3 DUP2 LT PUSH2 0x1185 JUMPI PUSH2 0x1184 PUSH2 0x1147 JUMP JUMPDEST JUMPDEST POP JUMP JUMPDEST PUSH0 DUP2 SWAP1 POP PUSH2 0x1195 DUP3 PUSH2 0x1174 JUMP JUMPDEST SWAP2 SWAP1 POP JUMP JUMPDEST PUSH0 PUSH2 0x11A4 DUP3 PUSH2 0x1188 JUMP JUMPDEST SWAP1 POP SWAP2 SWAP1 POP JUMP JUMPDEST PUSH2 0x11B4 DUP2 PUSH2 0x119A JUMP JUMPDEST DUP3 MSTORE POP POP JUMP JUMPDEST PUSH0 PUSH1 0x20 DUP3 ADD SWAP1 POP PUSH2 0x11CD PUSH0 DUP4 ADD DUP5 PUSH2 0x11AB JUMP JUMPDEST SWAP3 SWAP2 POP POP JUMP JUMPDEST PUSH32 0x496E76616C696420737461746520666F72207468697320616374696F6E000000 PUSH0 DUP3 ADD MSTORE POP JUMP JUMPDEST PUSH0 PUSH2 0x1207 PUSH1 0x1D DUP4 PUSH2 0xE16 JUMP JUMPDEST SWAP2 POP PUSH2 0x1212 DUP3 PUSH2 0x11D3 JUMP JUMPDEST PUSH1 0x20 DUP3 ADD SWAP1 POP SWAP2 SWAP1 POP JUMP JUMPDEST PUSH0 PUSH1 0x20 DUP3 ADD SWAP1 POP DUP2 DUP2 SUB PUSH0 DUP4 ADD MSTORE PUSH2 0x1234 DUP2 PUSH2 0x11FB JUMP JUMPDEST SWAP1 POP SWAP2 SWAP1 POP JUMP JUMPDEST PUSH32 0x596F7520617265206E6F7420617574686F72697A656420746F20766F74650000 PUSH0 DUP3 ADD MSTORE POP JUMP JUMPDEST PUSH0 PUSH2 0x126F PUSH1 0x1E DUP4 PUSH2 0xE16 JUMP JUMPDEST SWAP2 POP PUSH2 0x127A DUP3 PUSH2 0x123B JUMP JUMPDEST PUSH1 0x20 DUP3 ADD SWAP1 POP SWAP2 SWAP1 POP JUMP JUMPDEST PUSH0 PUSH1 0x20 DUP3 ADD SWAP1 POP DUP2 DUP2 SUB PUSH0 DUP4 ADD MSTORE PUSH2 0x129C DUP2 PUSH2 0x1263 JUMP JUMPDEST SWAP1 POP SWAP2 SWAP1 POP JUMP JUMPDEST PUSH32 0x596F75206861766520616C726561647920766F74656400000000000000000000 PUSH0 DUP3 ADD MSTORE POP JUMP JUMPDEST PUSH0 PUSH2 0x12D7 PUSH1 0x16 DUP4 PUSH2 0xE16 JUMP JUMPDEST SWAP2 POP PUSH2 0x12E2 DUP3 PUSH2 0x12A3 JUMP JUMPDEST PUSH1 0x20 DUP3 ADD SWAP1 POP SWAP2 SWAP1 POP JUMP JUMPDEST PUSH0 PUSH1 0x20 DUP3 ADD SWAP1 POP DUP2 DUP2 SUB PUSH0 DUP4 ADD MSTORE PUSH2 0x1304 DUP2 PUSH2 0x12CB JUMP JUMPDEST SWAP1 POP SWAP2 SWAP1 POP JUMP JUMPDEST PUSH32 0x496E76616C69642063616E646964617465204944000000000000000000000000 PUSH0 DUP3 ADD MSTORE POP JUMP JUMPDEST PUSH0 PUSH2 0x133F PUSH1 0x14 DUP4 PUSH2 0xE16 JUMP JUMPDEST SWAP2 POP PUSH2 0x134A DUP3 PUSH2 0x130B JUMP JUMPDEST PUSH1 0x20 DUP3 ADD SWAP1 POP SWAP2 SWAP1 POP JUMP JUMPDEST PUSH0 PUSH1 0x20 DUP3 ADD SWAP1 POP DUP2 DUP2 SUB PUSH0 DUP4 ADD MSTORE PUSH2 0x136C DUP2 PUSH2 0x1333 JUMP JUMPDEST SWAP1 POP SWAP2 SWAP1 POP JUMP JUMPDEST PUSH32 0x4E487B7100000000000000000000000000000000000000000000000000000000 PUSH0 MSTORE PUSH1 0x11 PUSH1 0x4 MSTORE PUSH1 0x24 PUSH0 REVERT JUMPDEST PUSH0 PUSH2 0x13AA DUP3 PUSH2 0xD86 JUMP JUMPDEST SWAP2 POP PUSH32 0xFFFFFFFFFFFFFFFFFFFFFFFFFFFFFFFFFFFFFFFFFFFFFFFFFFFFFFFFFFFFFFFF DUP3 SUB PUSH2 0x13DC JUMPI PUSH2 0x13DB PUSH2 0x1373 JUMP JUMPDEST JUMPDEST PUSH1 0x1 DUP3 ADD SWAP1 POP SWAP2 SWAP1 POP JUMP JUMPDEST PUSH0 PUSH1 0x40 DUP3 ADD SWAP1 POP PUSH2 0x13FA PUSH0 DUP4 ADD DUP6 PUSH2 0x105B JUMP JUMPDEST PUSH2 0x1407 PUSH1 0x20 DUP4 ADD DUP5 PUSH2 0xDE4 JUMP JUMPDEST SWAP4 SWAP3 POP POP POP JUMP JUMPDEST PUSH32 0x4E487B7100000000000000000000000000000000000000000000000000000000 PUSH0 MSTORE PUSH1 0x22 PUSH1 0x4 MSTORE PUSH1 0x24 PUSH0 REVERT JUMPDEST PUSH0 PUSH1 0x2 DUP3 DIV SWAP1 POP PUSH1 0x1 DUP3 AND DUP1 PUSH2 0x1452 JUMPI PUSH1 0x7F DUP3 AND SWAP2 POP JUMPDEST PUSH1 0x20 DUP3 LT DUP2 SUB PUSH2 0x1465 JUMPI PUSH2 0x1464 PUSH2 0x140E JUMP JUMPDEST JUMPDEST POP SWAP2 SWAP1 POP JUMP JUMPDEST PUSH32 0x4F6E6C79206F776E65722063616E2063616C6C20746869732066756E6374696F PUSH0 DUP3 ADD MSTORE PUSH32 0x6E00000000000000000000000000000000000000000000000000000000000000 PUSH1 0x20 DUP3 ADD MSTORE POP JUMP JUMPDEST PUSH0 PUSH2 0x14C5 PUSH1 0x21 DUP4 PUSH2 0xE16 JUMP JUMPDEST SWAP2 POP PUSH2 0x14D0 DUP3 PUSH2 0x146B JUMP JUMPDEST PUSH1 0x40 DUP3 ADD SWAP1 POP SWAP2 SWAP1 POP JUMP JUMPDEST PUSH0 PUSH1 0x20 DUP3 ADD SWAP1 POP DUP2 DUP2 SUB PUSH0 DUP4 ADD MSTORE PUSH2 0x14F2 DUP2 PUSH2 0x14B9 JUMP JUMPDEST SWAP1 POP SWAP2 SWAP1 POP JUMP JUMPDEST PUSH0 DUP2 SWAP1 POP DUP2 PUSH0 MSTORE PUSH1 0x20 PUSH0 KECCAK256 SWAP1 POP SWAP2 SWAP1 POP JUMP JUMPDEST PUSH0 PUSH1 0x20 PUSH1 0x1F DUP4 ADD DIV SWAP1 POP SWAP2 SWAP1 POP JUMP JUMPDEST PUSH0 DUP3 DUP3 SHL SWAP1 POP SWAP3 SWAP2 POP POP JUMP JUMPDEST PUSH0 PUSH1 0x8 DUP4 MUL PUSH2 0x1555 PUSH32 0xFFFFFFFFFFFFFFFFFFFFFFFFFFFFFFFFFFFFFFFFFFFFFFFFFFFFFFFFFFFFFFFF DUP3 PUSH2 0x151A JUMP JUMPDEST PUSH2 0x155F DUP7 DUP4 PUSH2 0x151A JUMP JUMPDEST SWAP6 POP DUP1 NOT DUP5 AND SWAP4 POP DUP1 DUP7 AND DUP5 OR SWAP3 POP POP POP SWAP4 SWAP3 POP POP POP JUMP JUMPDEST PUSH0 DUP2 SWAP1 POP SWAP2 SWAP1 POP JUMP JUMPDEST PUSH0 PUSH2 0x159A PUSH2 0x1595 PUSH2 0x1590 DUP5 PUSH2 0xD86 JUMP JUMPDEST PUSH2 0x1577 JUMP JUMPDEST PUSH2 0xD86 JUMP JUMPDEST SWAP1 POP SWAP2 SWAP1 POP JUMP JUMPDEST PUSH0 DUP2 SWAP1 POP SWAP2 SWAP1 POP JUMP JUMPDEST PUSH2 0x15B3 DUP4 PUSH2 0x1580 JUMP JUMPDEST PUSH2 0x15C7 PUSH2 0x15BF DUP3 PUSH2 0x15A1 JUMP JUMPDEST DUP5 DUP5 SLOAD PUSH2 0x1526 JUMP JUMPDEST DUP3 SSTORE POP POP POP POP JUMP JUMPDEST PUSH0 SWAP1 JUMP JUMPDEST PUSH2 0x15DB PUSH2 0x15CF JUMP JUMPDEST PUSH2 0x15E6 DUP2 DUP5 DUP5 PUSH2 0x15AA JUMP JUMPDEST POP POP POP JUMP JUMPDEST JUMPDEST DUP2 DUP2 LT ISZERO PUSH2 0x1609 JUMPI PUSH2 0x15FE PUSH0 DUP3 PUSH2 0x15D3 JUMP JUMPDEST PUSH1 0x1 DUP2 ADD SWAP1 POP PUSH2 0x15EC JUMP JUMPDEST POP POP JUMP JUMPDEST PUSH1 0x1F DUP3 GT ISZERO PUSH2 0x164E JUMPI PUSH2 0x161F DUP2 PUSH2 0x14F9 JUMP JUMPDEST PUSH2 0x1628 DUP5 PUSH2 0x150B JUMP JUMPDEST DUP2 ADD PUSH1 0x20 DUP6 LT ISZERO PUSH2 0x1637 JUMPI DUP2 SWAP1 POP JUMPDEST PUSH2 0x164B PUSH2 0x1643 DUP6 PUSH2 0x150B JUMP JUMPDEST DUP4 ADD DUP3 PUSH2 0x15EB JUMP JUMPDEST POP POP JUMPDEST POP POP POP JUMP JUMPDEST PUSH0 DUP3 DUP3 SHR SWAP1 POP SWAP3 SWAP2 POP POP JUMP JUMPDEST PUSH0 PUSH2 0x166E PUSH0 NOT DUP5 PUSH1 0x8 MUL PUSH2 0x1653 JUMP JUMPDEST NOT DUP1 DUP4 AND SWAP2 POP POP SWAP3 SWAP2 POP POP JUMP JUMPDEST PUSH0 PUSH2 0x1686 DUP4 DUP4 PUSH2 0x165F JUMP JUMPDEST SWAP2 POP DUP3 PUSH1 0x2 MUL DUP3 OR SWAP1 POP SWAP3 SWAP2 POP POP JUMP JUMPDEST PUSH2 0x169F DUP3 PUSH2 0xE0C JUMP JUMPDEST PUSH8 0xFFFFFFFFFFFFFFFF DUP2 GT ISZERO PUSH2 0x16B8 JUMPI PUSH2 0x16B7 PUSH2 0xEC0 JUMP JUMPDEST JUMPDEST PUSH2 0x16C2 DUP3 SLOAD PUSH2 0x143B JUMP JUMPDEST PUSH2 0x16CD DUP3 DUP3 DUP6 PUSH2 0x160D JUMP JUMPDEST PUSH0 PUSH1 0x20 SWAP1 POP PUSH1 0x1F DUP4 GT PUSH1 0x1 DUP2 EQ PUSH2 0x16FE JUMPI PUSH0 DUP5 ISZERO PUSH2 0x16EC JUMPI DUP3 DUP8 ADD MLOAD SWAP1 POP JUMPDEST PUSH2 0x16F6 DUP6 DUP3 PUSH2 0x167B JUMP JUMPDEST DUP7 SSTORE POP PUSH2 0x175D JUMP JUMPDEST PUSH1 0x1F NOT DUP5 AND PUSH2 0x170C DUP7 PUSH2 0x14F9 JUMP JUMPDEST PUSH0 JUMPDEST DUP3 DUP2 LT ISZERO PUSH2 0x1733 JUMPI DUP5 DUP10 ADD MLOAD DUP3 SSTORE PUSH1 0x1 DUP3 ADD SWAP2 POP PUSH1 0x20 DUP6 ADD SWAP5 POP PUSH1 0x20 DUP2 ADD SWAP1 POP PUSH2 0x170E JUMP JUMPDEST DUP7 DUP4 LT ISZERO PUSH2 0x1750 JUMPI DUP5 DUP10 ADD MLOAD PUSH2 0x174C PUSH1 0x1F DUP10 AND DUP3 PUSH2 0x165F JUMP JUMPDEST DUP4 SSTORE POP JUMPDEST PUSH1 0x1 PUSH1 0x2 DUP9 MUL ADD DUP9 SSTORE POP POP POP JUMPDEST POP POP POP POP POP POP JUMP INVALID LOG2 PUSH5 0x6970667358 0x22 SLT KECCAK256 MOD DUP3 0xF8 DUP8 0xC0 SHR PUSH5 0xA3FCFC520A MOD OR DUP1 0xC8 0xA8 CALLER ISZERO COINBASE 0xCD 0xEC PUSH25 0x2FC315BF38184A099464736F6C634300081A00330000000000 "
				},
				"gasEstimates": {
					"creation": {
						"codeDepositCost": "1208600",
						"executionCost": "49865",
						"totalCost": "1258465"
					},
					"external": {
						"addCandidate(string)": "infinite",
						"authorizeVoter(address)": "infinite",
						"candidates(uint256)": "infinite",
						"candidatesCount()": "2470",
						"endElection()": "29798",
						"getWinner()": "infinite",
						"owner()": "2527",
						"startElection()": "29686",
						"state()": "2692",
						"totalVotes()": "2448",
						"vote(uint256)": "infinite",
						"voters(address)": "infinite"
					}
				},
				"methodIdentifiers": {
					"addCandidate(string)": "462e91ec",
					"authorizeVoter(address)": "fd47b368",
					"candidates(uint256)": "3477ee2e",
					"candidatesCount()": "2d35a8a2",
					"endElection()": "59f78468",
					"getWinner()": "8e7ea5b2",
					"owner()": "8da5cb5b",
					"startElection()": "62d73eb8",
					"state()": "c19d93fb",
					"totalVotes()": "0d15fd77",
					"vote(uint256)": "0121b93f",
					"voters(address)": "a3ec138d"
				}
			},
			"storageLayout": {
				"storage": [
					{
						"astId": 3,
						"contract": "BC/prac8.sol:Election",
						"label": "owner",
						"offset": 0,
						"slot": "0",
						"type": "t_address"
					},
					{
						"astId": 10,
						"contract": "BC/prac8.sol:Election",
						"label": "state",
						"offset": 20,
						"slot": "0",
						"type": "t_enum(ElectionState)7"
					},
					{
						"astId": 29,
						"contract": "BC/prac8.sol:Election",
						"label": "candidates",
						"offset": 0,
						"slot": "1",
						"type": "t_mapping(t_uint256,t_struct(Candidate)17_storage)"
					},
					{
						"astId": 31,
						"contract": "BC/prac8.sol:Election",
						"label": "candidatesCount",
						"offset": 0,
						"slot": "2",
						"type": "t_uint256"
					},
					{
						"astId": 36,
						"contract": "BC/prac8.sol:Election",
						"label": "voters",
						"offset": 0,
						"slot": "3",
						"type": "t_mapping(t_address,t_struct(Voter)24_storage)"
					},
					{
						"astId": 38,
						"contract": "BC/prac8.sol:Election",
						"label": "totalVotes",
						"offset": 0,
						"slot": "4",
						"type": "t_uint256"
					}
				],
				"types": {
					"t_address": {
						"encoding": "inplace",
						"label": "address",
						"numberOfBytes": "20"
					},
					"t_bool": {
						"encoding": "inplace",
						"label": "bool",
						"numberOfBytes": "1"
					},
					"t_enum(ElectionState)7": {
						"encoding": "inplace",
						"label": "enum Election.ElectionState",
						"numberOfBytes": "1"
					},
					"t_mapping(t_address,t_struct(Voter)24_storage)": {
						"encoding": "mapping",
						"key": "t_address",
						"label": "mapping(address => struct Election.Voter)",
						"numberOfBytes": "32",
						"value": "t_struct(Voter)24_storage"
					},
					"t_mapping(t_uint256,t_struct(Candidate)17_storage)": {
						"encoding": "mapping",
						"key": "t_uint256",
						"label": "mapping(uint256 => struct Election.Candidate)",
						"numberOfBytes": "32",
						"value": "t_struct(Candidate)17_storage"
					},
					"t_string_storage": {
						"encoding": "bytes",
						"label": "string",
						"numberOfBytes": "32"
					},
					"t_struct(Candidate)17_storage": {
						"encoding": "inplace",
						"label": "struct Election.Candidate",
						"members": [
							{
								"astId": 12,
								"contract": "BC/prac8.sol:Election",
								"label": "id",
								"offset": 0,
								"slot": "0",
								"type": "t_uint256"
							},
							{
								"astId": 14,
								"contract": "BC/prac8.sol:Election",
								"label": "name",
								"offset": 0,
								"slot": "1",
								"type": "t_string_storage"
							},
							{
								"astId": 16,
								"contract": "BC/prac8.sol:Election",
								"label": "voteCount",
								"offset": 0,
								"slot": "2",
								"type": "t_uint256"
							}
						],
						"numberOfBytes": "96"
					},
					"t_struct(Voter)24_storage": {
						"encoding": "inplace",
						"label": "struct Election.Voter",
						"members": [
							{
								"astId": 19,
								"contract": "BC/prac8.sol:Election",
								"label": "authorized",
								"offset": 0,
								"slot": "0",
								"type": "t_bool"
							},
							{
								"astId": 21,
								"contract": "BC/prac8.sol:Election",
								"label": "voted",
								"offset": 1,
								"slot": "0",
								"type": "t_bool"
							},
							{
								"astId": 23,
								"contract": "BC/prac8.sol:Election",
								"label": "vote",
								"offset": 0,
								"slot": "1",
								"type": "t_uint256"
							}
						],
						"numberOfBytes": "64"
					},
					"t_uint256": {
						"encoding": "inplace",
						"label": "uint256",
						"numberOfBytes": "32"
					}
				}
			},
			"userdoc": {
				"kind": "user",
				"methods": {},
				"version": 1
			}
		}
	}
}