{
	"BC/prac2b.sol": {
		"Calculater": {
			"abi": [
				{
					"inputs": [],
					"name": "Add",
					"outputs": [
						{
							"internalType": "uint256",
							"name": "",
							"type": "uint256"
						}
					],
					"stateMutability": "view",
					"type": "function"
				},
				{
					"inputs": [],
					"name": "Div",
					"outputs": [
						{
							"internalType": "uint256",
							"name": "",
							"type": "uint256"
						}
					],
					"stateMutability": "view",
					"type": "function"
				},
				{
					"inputs": [
						{
							"internalType": "uint256",
							"name": "num1",
							"type": "uint256"
						},
						{
							"internalType": "uint256",
							"name": "num2",
							"type": "uint256"
						}
					],
					"name": "EnterNumber",
					"outputs": [],
					"stateMutability": "nonpayable",
					"type": "function"
				},
				{
					"inputs": [],
					"name": "Mul",
					"outputs": [
						{
							"internalType": "uint256",
							"name": "",
							"type": "uint256"
						}
					],
					"stateMutability": "view",
					"type": "function"
				},
				{
					"inputs": [],
					"name": "Sub",
					"outputs": [
						{
							"internalType": "uint256",
							"name": "",
							"type": "uint256"
						}
					],
					"stateMutability": "view",
					"type": "function"
				}
			],
			"devdoc": {
				"kind": "dev",
				"methods": {},
				"version": 1
			},
			"evm": {
				"assembly": "    /* \"BC/prac2b.sol\":70:618  contract Calculater{... */\n  mstore(0x40, 0x80)\n  callvalue\n  dup1\n  iszero\n  tag_1\n  jumpi\n  0x00\n  dup1\n  revert\ntag_1:\n  pop\n  dataSize(sub_0)\n  dup1\n  dataOffset(sub_0)\n  0x00\n  codecopy\n  0x00\n  return\nstop\n\nsub_0: assembly {\n        /* \"BC/prac2b.sol\":70:618  contract Calculater{... */\n      mstore(0x40, 0x80)\n      callvalue\n      dup1\n      iszero\n      tag_1\n      jumpi\n      0x00\n      dup1\n      revert\n    tag_1:\n      pop\n      jumpi(tag_2, lt(calldatasize, 0x04))\n      shr(0xe0, calldataload(0x00))\n      dup1\n      0x67e06858\n      eq\n      tag_3\n      jumpi\n      dup1\n      0x6c582aa3\n      eq\n      tag_4\n      jumpi\n      dup1\n      0xb1298428\n      eq\n      tag_5\n      jumpi\n      dup1\n      0xb87f3280\n      eq\n      tag_6\n      jumpi\n      dup1\n      0xdeee4403\n      eq\n      tag_7\n      jumpi\n    tag_2:\n      0x00\n      dup1\n      revert\n        /* \"BC/prac2b.sol\":257:342  function Add()public view returns(uint256){... */\n    tag_3:\n      tag_8\n      tag_9\n      jump\t// in\n    tag_8:\n      mload(0x40)\n      tag_10\n      swap2\n      swap1\n      tag_11\n      jump\t// in\n    tag_10:\n      mload(0x40)\n      dup1\n      swap2\n      sub\n      swap1\n      return\n        /* \"BC/prac2b.sol\":140:251  function EnterNumber(uint256 num1,uint256 num2)public{... */\n    tag_4:\n      tag_12\n      0x04\n      dup1\n      calldatasize\n      sub\n      dup2\n      add\n      swap1\n      tag_13\n      swap2\n      swap1\n      tag_14\n      jump\t// in\n    tag_13:\n      tag_15\n      jump\t// in\n    tag_12:\n      stop\n        /* \"BC/prac2b.sol\":530:615  function Mul()public view returns(uint256){... */\n    tag_5:\n      tag_16\n      tag_17\n      jump\t// in\n    tag_16:\n      mload(0x40)\n      tag_18\n      swap2\n      swap1\n      tag_11\n      jump\t// in\n    tag_18:\n      mload(0x40)\n      dup1\n      swap2\n      sub\n      swap1\n      return\n        /* \"BC/prac2b.sol\":348:433  function Sub()public view returns(uint256){... */\n    tag_6:\n      tag_19\n      tag_20\n      jump\t// in\n    tag_19:\n      mload(0x40)\n      tag_21\n      swap2\n      swap1\n      tag_11\n      jump\t// in\n    tag_21:\n      mload(0x40)\n      dup1\n      swap2\n      sub\n      swap1\n      return\n        /* \"BC/prac2b.sol\":439:524  function Div()public view returns(uint256){... */\n    tag_7:\n      tag_22\n      tag_23\n      jump\t// in\n    tag_22:\n      mload(0x40)\n      tag_24\n      swap2\n      swap1\n      tag_11\n      jump\t// in\n    tag_24:\n      mload(0x40)\n      dup1\n      swap2\n      sub\n      swap1\n      return\n        /* \"BC/prac2b.sol\":257:342  function Add()public view returns(uint256){... */\n    tag_9:\n        /* \"BC/prac2b.sol\":291:298  uint256 */\n      0x00\n        /* \"BC/prac2b.sol\":327:334  number2 */\n      sload(0x01)\n        /* \"BC/prac2b.sol\":317:324  number1 */\n      sload(0x00)\n        /* \"BC/prac2b.sol\":317:334  number1 + number2 */\n      tag_26\n      swap2\n      swap1\n      tag_27\n      jump\t// in\n    tag_26:\n        /* \"BC/prac2b.sol\":310:334  return number1 + number2 */\n      swap1\n      pop\n        /* \"BC/prac2b.sol\":257:342  function Add()public view returns(uint256){... */\n      swap1\n      jump\t// out\n        /* \"BC/prac2b.sol\":140:251  function EnterNumber(uint256 num1,uint256 num2)public{... */\n    tag_15:\n        /* \"BC/prac2b.sol\":214:218  num1 */\n      dup2\n        /* \"BC/prac2b.sol\":204:211  number1 */\n      0x00\n        /* \"BC/prac2b.sol\":204:218  number1 = num1 */\n      dup2\n      swap1\n      sstore\n      pop\n        /* \"BC/prac2b.sol\":239:243  num2 */\n      dup1\n        /* \"BC/prac2b.sol\":229:236  number2 */\n      0x01\n        /* \"BC/prac2b.sol\":229:243  number2 = num2 */\n      dup2\n      swap1\n      sstore\n      pop\n        /* \"BC/prac2b.sol\":140:251  function EnterNumber(uint256 num1,uint256 num2)public{... */\n      pop\n      pop\n      jump\t// out\n        /* \"BC/prac2b.sol\":530:615  function Mul()public view returns(uint256){... */\n    tag_17:\n        /* \"BC/prac2b.sol\":564:571  uint256 */\n      0x00\n        /* \"BC/prac2b.sol\":600:607  number2 */\n      sload(0x01)\n        /* \"BC/prac2b.sol\":590:597  number1 */\n      sload(0x00)\n        /* \"BC/prac2b.sol\":590:607  number1 * number2 */\n      tag_30\n      swap2\n      swap1\n      tag_31\n      jump\t// in\n    tag_30:\n        /* \"BC/prac2b.sol\":583:607  return number1 * number2 */\n      swap1\n      pop\n        /* \"BC/prac2b.sol\":530:615  function Mul()public view returns(uint256){... */\n      swap1\n      jump\t// out\n        /* \"BC/prac2b.sol\":348:433  function Sub()public view returns(uint256){... */\n    tag_20:\n        /* \"BC/prac2b.sol\":382:389  uint256 */\n      0x00\n        /* \"BC/prac2b.sol\":418:425  number2 */\n      sload(0x01)\n        /* \"BC/prac2b.sol\":408:415  number1 */\n      sload(0x00)\n        /* \"BC/prac2b.sol\":408:425  number1 - number2 */\n      tag_33\n      swap2\n      swap1\n      tag_34\n      jump\t// in\n    tag_33:\n        /* \"BC/prac2b.sol\":401:425  return number1 - number2 */\n      swap1\n      pop\n        /* \"BC/prac2b.sol\":348:433  function Sub()public view returns(uint256){... */\n      swap1\n      jump\t// out\n        /* \"BC/prac2b.sol\":439:524  function Div()public view returns(uint256){... */\n    tag_23:\n        /* \"BC/prac2b.sol\":473:480  uint256 */\n      0x00\n        /* \"BC/prac2b.sol\":509:516  number2 */\n      sload(0x01)\n        /* \"BC/prac2b.sol\":499:506  number1 */\n      sload(0x00)\n        /* \"BC/prac2b.sol\":499:516  number1 / number2 */\n      tag_36\n      swap2\n      swap1\n      tag_37\n      jump\t// in\n    tag_36:\n        /* \"BC/prac2b.sol\":492:516  return number1 / number2 */\n      swap1\n      pop\n        /* \"BC/prac2b.sol\":439:524  function Div()public view returns(uint256){... */\n      swap1\n      jump\t// out\n        /* \"#utility.yul\":7:84   */\n    tag_38:\n        /* \"#utility.yul\":44:51   */\n      0x00\n        /* \"#utility.yul\":73:78   */\n      dup2\n        /* \"#utility.yul\":62:78   */\n      swap1\n      pop\n        /* \"#utility.yul\":7:84   */\n      swap2\n      swap1\n      pop\n      jump\t// out\n        /* \"#utility.yul\":90:208   */\n    tag_39:\n        /* \"#utility.yul\":177:201   */\n      tag_50\n        /* \"#utility.yul\":195:200   */\n      dup2\n        /* \"#utility.yul\":177:201   */\n      tag_38\n      jump\t// in\n    tag_50:\n        /* \"#utility.yul\":172:175   */\n      dup3\n        /* \"#utility.yul\":165:202   */\n      mstore\n        /* \"#utility.yul\":90:208   */\n      pop\n      pop\n      jump\t// out\n        /* \"#utility.yul\":214:436   */\n    tag_11:\n        /* \"#utility.yul\":307:311   */\n      0x00\n        /* \"#utility.yul\":345:347   */\n      0x20\n        /* \"#utility.yul\":334:343   */\n      dup3\n        /* \"#utility.yul\":330:348   */\n      add\n        /* \"#utility.yul\":322:348   */\n      swap1\n      pop\n        /* \"#utility.yul\":358:429   */\n      tag_52\n        /* \"#utility.yul\":426:427   */\n      0x00\n        /* \"#utility.yul\":415:424   */\n      dup4\n        /* \"#utility.yul\":411:428   */\n      add\n        /* \"#utility.yul\":402:408   */\n      dup5\n        /* \"#utility.yul\":358:429   */\n      tag_39\n      jump\t// in\n    tag_52:\n        /* \"#utility.yul\":214:436   */\n      swap3\n      swap2\n      pop\n      pop\n      jump\t// out\n        /* \"#utility.yul\":523:640   */\n    tag_41:\n        /* \"#utility.yul\":632:633   */\n      0x00\n        /* \"#utility.yul\":629:630   */\n      dup1\n        /* \"#utility.yul\":622:634   */\n      revert\n        /* \"#utility.yul\":769:891   */\n    tag_43:\n        /* \"#utility.yul\":842:866   */\n      tag_57\n        /* \"#utility.yul\":860:865   */\n      dup2\n        /* \"#utility.yul\":842:866   */\n      tag_38\n      jump\t// in\n    tag_57:\n        /* \"#utility.yul\":835:840   */\n      dup2\n        /* \"#utility.yul\":832:867   */\n      eq\n        /* \"#utility.yul\":822:885   */\n      tag_58\n      jumpi\n        /* \"#utility.yul\":881:882   */\n      0x00\n        /* \"#utility.yul\":878:879   */\n      dup1\n        /* \"#utility.yul\":871:883   */\n      revert\n        /* \"#utility.yul\":822:885   */\n    tag_58:\n        /* \"#utility.yul\":769:891   */\n      pop\n      jump\t// out\n        /* \"#utility.yul\":897:1036   */\n    tag_44:\n        /* \"#utility.yul\":943:948   */\n      0x00\n        /* \"#utility.yul\":981:987   */\n      dup2\n        /* \"#utility.yul\":968:988   */\n      calldataload\n        /* \"#utility.yul\":959:988   */\n      swap1\n      pop\n        /* \"#utility.yul\":997:1030   */\n      tag_60\n        /* \"#utility.yul\":1024:1029   */\n      dup2\n        /* \"#utility.yul\":997:1030   */\n      tag_43\n      jump\t// in\n    tag_60:\n        /* \"#utility.yul\":897:1036   */\n      swap3\n      swap2\n      pop\n      pop\n      jump\t// out\n        /* \"#utility.yul\":1042:1516   */\n    tag_14:\n        /* \"#utility.yul\":1110:1116   */\n      0x00\n        /* \"#utility.yul\":1118:1124   */\n      dup1\n        /* \"#utility.yul\":1167:1169   */\n      0x40\n        /* \"#utility.yul\":1155:1164   */\n      dup4\n        /* \"#utility.yul\":1146:1153   */\n      dup6\n        /* \"#utility.yul\":1142:1165   */\n      sub\n        /* \"#utility.yul\":1138:1170   */\n      slt\n        /* \"#utility.yul\":1135:1254   */\n      iszero\n      tag_62\n      jumpi\n        /* \"#utility.yul\":1173:1252   */\n      tag_63\n      tag_41\n      jump\t// in\n    tag_63:\n        /* \"#utility.yul\":1135:1254   */\n    tag_62:\n        /* \"#utility.yul\":1293:1294   */\n      0x00\n        /* \"#utility.yul\":1318:1371   */\n      tag_64\n        /* \"#utility.yul\":1363:1370   */\n      dup6\n        /* \"#utility.yul\":1354:1360   */\n      dup3\n        /* \"#utility.yul\":1343:1352   */\n      dup7\n        /* \"#utility.yul\":1339:1361   */\n      add\n        /* \"#utility.yul\":1318:1371   */\n      tag_44\n      jump\t// in\n    tag_64:\n        /* \"#utility.yul\":1308:1371   */\n      swap3\n      pop\n        /* \"#utility.yul\":1264:1381   */\n      pop\n        /* \"#utility.yul\":1420:1422   */\n      0x20\n        /* \"#utility.yul\":1446:1499   */\n      tag_65\n        /* \"#utility.yul\":1491:1498   */\n      dup6\n        /* \"#utility.yul\":1482:1488   */\n      dup3\n        /* \"#utility.yul\":1471:1480   */\n      dup7\n        /* \"#utility.yul\":1467:1489   */\n      add\n        /* \"#utility.yul\":1446:1499   */\n      tag_44\n      jump\t// in\n    tag_65:\n        /* \"#utility.yul\":1436:1499   */\n      swap2\n      pop\n        /* \"#utility.yul\":1391:1509   */\n      pop\n        /* \"#utility.yul\":1042:1516   */\n      swap3\n      pop\n      swap3\n      swap1\n      pop\n      jump\t// out\n        /* \"#utility.yul\":1522:1702   */\n    tag_45:\n        /* \"#utility.yul\":1570:1647   */\n      0x4e487b7100000000000000000000000000000000000000000000000000000000\n        /* \"#utility.yul\":1567:1568   */\n      0x00\n        /* \"#utility.yul\":1560:1648   */\n      mstore\n        /* \"#utility.yul\":1667:1671   */\n      0x11\n        /* \"#utility.yul\":1664:1665   */\n      0x04\n        /* \"#utility.yul\":1657:1672   */\n      mstore\n        /* \"#utility.yul\":1691:1695   */\n      0x24\n        /* \"#utility.yul\":1688:1689   */\n      0x00\n        /* \"#utility.yul\":1681:1696   */\n      revert\n        /* \"#utility.yul\":1708:1899   */\n    tag_27:\n        /* \"#utility.yul\":1748:1751   */\n      0x00\n        /* \"#utility.yul\":1767:1787   */\n      tag_68\n        /* \"#utility.yul\":1785:1786   */\n      dup3\n        /* \"#utility.yul\":1767:1787   */\n      tag_38\n      jump\t// in\n    tag_68:\n        /* \"#utility.yul\":1762:1787   */\n      swap2\n      pop\n        /* \"#utility.yul\":1801:1821   */\n      tag_69\n        /* \"#utility.yul\":1819:1820   */\n      dup4\n        /* \"#utility.yul\":1801:1821   */\n      tag_38\n      jump\t// in\n    tag_69:\n        /* \"#utility.yul\":1796:1821   */\n      swap3\n      pop\n        /* \"#utility.yul\":1844:1845   */\n      dup3\n        /* \"#utility.yul\":1841:1842   */\n      dup3\n        /* \"#utility.yul\":1837:1846   */\n      add\n        /* \"#utility.yul\":1830:1846   */\n      swap1\n      pop\n        /* \"#utility.yul\":1865:1868   */\n      dup1\n        /* \"#utility.yul\":1862:1863   */\n      dup3\n        /* \"#utility.yul\":1859:1869   */\n      gt\n        /* \"#utility.yul\":1856:1892   */\n      iszero\n      tag_70\n      jumpi\n        /* \"#utility.yul\":1872:1890   */\n      tag_71\n      tag_45\n      jump\t// in\n    tag_71:\n        /* \"#utility.yul\":1856:1892   */\n    tag_70:\n        /* \"#utility.yul\":1708:1899   */\n      swap3\n      swap2\n      pop\n      pop\n      jump\t// out\n        /* \"#utility.yul\":1905:2315   */\n    tag_31:\n        /* \"#utility.yul\":1945:1952   */\n      0x00\n        /* \"#utility.yul\":1968:1988   */\n      tag_73\n        /* \"#utility.yul\":1986:1987   */\n      dup3\n        /* \"#utility.yul\":1968:1988   */\n      tag_38\n      jump\t// in\n    tag_73:\n        /* \"#utility.yul\":1963:1988   */\n      swap2\n      pop\n        /* \"#utility.yul\":2002:2022   */\n      tag_74\n        /* \"#utility.yul\":2020:2021   */\n      dup4\n        /* \"#utility.yul\":2002:2022   */\n      tag_38\n      jump\t// in\n    tag_74:\n        /* \"#utility.yul\":1997:2022   */\n      swap3\n      pop\n        /* \"#utility.yul\":2057:2058   */\n      dup3\n        /* \"#utility.yul\":2054:2055   */\n      dup3\n        /* \"#utility.yul\":2050:2059   */\n      mul\n        /* \"#utility.yul\":2079:2109   */\n      tag_75\n        /* \"#utility.yul\":2097:2108   */\n      dup2\n        /* \"#utility.yul\":2079:2109   */\n      tag_38\n      jump\t// in\n    tag_75:\n        /* \"#utility.yul\":2068:2109   */\n      swap2\n      pop\n        /* \"#utility.yul\":2258:2259   */\n      dup3\n        /* \"#utility.yul\":2249:2256   */\n      dup3\n        /* \"#utility.yul\":2245:2260   */\n      div\n        /* \"#utility.yul\":2242:2243   */\n      dup5\n        /* \"#utility.yul\":2239:2261   */\n      eq\n        /* \"#utility.yul\":2219:2220   */\n      dup4\n        /* \"#utility.yul\":2212:2221   */\n      iszero\n        /* \"#utility.yul\":2192:2275   */\n      or\n        /* \"#utility.yul\":2169:2308   */\n      tag_76\n      jumpi\n        /* \"#utility.yul\":2288:2306   */\n      tag_77\n      tag_45\n      jump\t// in\n    tag_77:\n        /* \"#utility.yul\":2169:2308   */\n    tag_76:\n        /* \"#utility.yul\":1953:2315   */\n      pop\n        /* \"#utility.yul\":1905:2315   */\n      swap3\n      swap2\n      pop\n      pop\n      jump\t// out\n        /* \"#utility.yul\":2321:2515   */\n    tag_34:\n        /* \"#utility.yul\":2361:2365   */\n      0x00\n        /* \"#utility.yul\":2381:2401   */\n      tag_79\n        /* \"#utility.yul\":2399:2400   */\n      dup3\n        /* \"#utility.yul\":2381:2401   */\n      tag_38\n      jump\t// in\n    tag_79:\n        /* \"#utility.yul\":2376:2401   */\n      swap2\n      pop\n        /* \"#utility.yul\":2415:2435   */\n      tag_80\n        /* \"#utility.yul\":2433:2434   */\n      dup4\n        /* \"#utility.yul\":2415:2435   */\n      tag_38\n      jump\t// in\n    tag_80:\n        /* \"#utility.yul\":2410:2435   */\n      swap3\n      pop\n        /* \"#utility.yul\":2459:2460   */\n      dup3\n        /* \"#utility.yul\":2456:2457   */\n      dup3\n        /* \"#utility.yul\":2452:2461   */\n      sub\n        /* \"#utility.yul\":2444:2461   */\n      swap1\n      pop\n        /* \"#utility.yul\":2483:2484   */\n      dup2\n        /* \"#utility.yul\":2477:2481   */\n      dup2\n        /* \"#utility.yul\":2474:2485   */\n      gt\n        /* \"#utility.yul\":2471:2508   */\n      iszero\n      tag_81\n      jumpi\n        /* \"#utility.yul\":2488:2506   */\n      tag_82\n      tag_45\n      jump\t// in\n    tag_82:\n        /* \"#utility.yul\":2471:2508   */\n    tag_81:\n        /* \"#utility.yul\":2321:2515   */\n      swap3\n      swap2\n      pop\n      pop\n      jump\t// out\n        /* \"#utility.yul\":2521:2701   */\n    tag_46:\n        /* \"#utility.yul\":2569:2646   */\n      0x4e487b7100000000000000000000000000000000000000000000000000000000\n        /* \"#utility.yul\":2566:2567   */\n      0x00\n        /* \"#utility.yul\":2559:2647   */\n      mstore\n        /* \"#utility.yul\":2666:2670   */\n      0x12\n        /* \"#utility.yul\":2663:2664   */\n      0x04\n        /* \"#utility.yul\":2656:2671   */\n      mstore\n        /* \"#utility.yul\":2690:2694   */\n      0x24\n        /* \"#utility.yul\":2687:2688   */\n      0x00\n        /* \"#utility.yul\":2680:2695   */\n      revert\n        /* \"#utility.yul\":2707:2892   */\n    tag_37:\n        /* \"#utility.yul\":2747:2748   */\n      0x00\n        /* \"#utility.yul\":2764:2784   */\n      tag_85\n        /* \"#utility.yul\":2782:2783   */\n      dup3\n        /* \"#utility.yul\":2764:2784   */\n      tag_38\n      jump\t// in\n    tag_85:\n        /* \"#utility.yul\":2759:2784   */\n      swap2\n      pop\n        /* \"#utility.yul\":2798:2818   */\n      tag_86\n        /* \"#utility.yul\":2816:2817   */\n      dup4\n        /* \"#utility.yul\":2798:2818   */\n      tag_38\n      jump\t// in\n    tag_86:\n        /* \"#utility.yul\":2793:2818   */\n      swap3\n      pop\n        /* \"#utility.yul\":2837:2838   */\n      dup3\n        /* \"#utility.yul\":2827:2862   */\n      tag_87\n      jumpi\n        /* \"#utility.yul\":2842:2860   */\n      tag_88\n      tag_46\n      jump\t// in\n    tag_88:\n        /* \"#utility.yul\":2827:2862   */\n    tag_87:\n        /* \"#utility.yul\":2884:2885   */\n      dup3\n        /* \"#utility.yul\":2881:2882   */\n      dup3\n        /* \"#utility.yul\":2877:2886   */\n      div\n        /* \"#utility.yul\":2872:2886   */\n      swap1\n      pop\n        /* \"#utility.yul\":2707:2892   */\n      swap3\n      swap2\n      pop\n      pop\n      jump\t// out\n\n    auxdata: 0xa26469706673582212203d454fdc2165ff20ed6773820ff76630d67eb9a0428349c4a409d1602fa51dbc64736f6c634300081a0033\n}\n",
				"bytecode": {
					"linkReferences": {},
					"object": "6080604052348015600e575f80fd5b506103568061001c5f395ff3fe608060405234801561000f575f80fd5b5060043610610055575f3560e01c806367e06858146100595780636c582aa314610077578063b129842814610093578063b87f3280146100b1578063deee4403146100cf575b5f80fd5b6100616100ed565b60405161006e919061016a565b60405180910390f35b610091600480360381019061008c91906101b1565b610102565b005b61009b610113565b6040516100a8919061016a565b60405180910390f35b6100b9610128565b6040516100c6919061016a565b60405180910390f35b6100d761013d565b6040516100e4919061016a565b60405180910390f35b5f6001545f546100fd919061021c565b905090565b815f81905550806001819055505050565b5f6001545f54610123919061024f565b905090565b5f6001545f546101389190610290565b905090565b5f6001545f5461014d91906102f0565b905090565b5f819050919050565b61016481610152565b82525050565b5f60208201905061017d5f83018461015b565b92915050565b5f80fd5b61019081610152565b811461019a575f80fd5b50565b5f813590506101ab81610187565b92915050565b5f80604083850312156101c7576101c6610183565b5b5f6101d48582860161019d565b92505060206101e58582860161019d565b9150509250929050565b7f4e487b71000000000000000000000000000000000000000000000000000000005f52601160045260245ffd5b5f61022682610152565b915061023183610152565b9250828201905080821115610249576102486101ef565b5b92915050565b5f61025982610152565b915061026483610152565b925082820261027281610152565b91508282048414831517610289576102886101ef565b5b5092915050565b5f61029a82610152565b91506102a583610152565b92508282039050818111156102bd576102bc6101ef565b5b92915050565b7f4e487b71000000000000000000000000000000000000000000000000000000005f52601260045260245ffd5b5f6102fa82610152565b915061030583610152565b925082610315576103146102c3565b5b82820490509291505056fea26469706673582212203d454fdc2165ff20ed6773820ff76630d67eb9a0428349c4a409d1602fa51dbc64736f6c634300081a0033",
					"opcodes": "PUSH1 0x80 PUSH1 0x40 MSTORE CALLVALUE DUP1 ISZERO PUSH1 0xE JUMPI PUSH0 DUP1 REVERT JUMPDEST POP PUSH2 0x356 DUP1 PUSH2 0x1C PUSH0 CODECOPY PUSH0 RETURN INVALID PUSH1 0x80 PUSH1 0x40 MSTORE CALLVALUE DUP1 ISZERO PUSH2 0xF JUMPI PUSH0 DUP1 REVERT JUMPDEST POP PUSH1 0x4 CALLDATASIZE LT PUSH2 0x55 JUMPI PUSH0 CALLDATALOAD PUSH1 0xE0 SHR DUP1 PUSH4 0x67E06858 EQ PUSH2 0x59 JUMPI DUP1 PUSH4 0x6C582AA3 EQ PUSH2 0x77 JUMPI DUP1 PUSH4 0xB1298428 EQ PUSH2 0x93 JUMPI DUP1 PUSH4 0xB87F3280 EQ PUSH2 0xB1 JUMPI DUP1 PUSH4 0xDEEE4403 EQ PUSH2 0xCF JUMPI JUMPDEST PUSH0 DUP1 REVERT JUMPDEST PUSH2 0x61 PUSH2 0xED JUMP JUMPDEST PUSH1 0x40 MLOAD PUSH2 0x6E SWAP2 SWAP1 PUSH2 0x16A JUMP JUMPDEST PUSH1 0x40 MLOAD DUP1 SWAP2 SUB SWAP1 RETURN JUMPDEST PUSH2 0x91 PUSH1 0x4 DUP1 CALLDATASIZE SUB DUP2 ADD SWAP1 PUSH2 0x8C SWAP2 SWAP1 PUSH2 0x1B1 JUMP JUMPDEST PUSH2 0x102 JUMP JUMPDEST STOP JUMPDEST PUSH2 0x9B PUSH2 0x113 JUMP JUMPDEST PUSH1 0x40 MLOAD PUSH2 0xA8 SWAP2 SWAP1 PUSH2 0x16A JUMP JUMPDEST PUSH1 0x40 MLOAD DUP1 SWAP2 SUB SWAP1 RETURN JUMPDEST PUSH2 0xB9 PUSH2 0x128 JUMP JUMPDEST PUSH1 0x40 MLOAD PUSH2 0xC6 SWAP2 SWAP1 PUSH2 0x16A JUMP JUMPDEST PUSH1 0x40 MLOAD DUP1 SWAP2 SUB SWAP1 RETURN JUMPDEST PUSH2 0xD7 PUSH2 0x13D JUMP JUMPDEST PUSH1 0x40 MLOAD PUSH2 0xE4 SWAP2 SWAP1 PUSH2 0x16A JUMP JUMPDEST PUSH1 0x40 MLOAD DUP1 SWAP2 SUB SWAP1 RETURN JUMPDEST PUSH0 PUSH1 0x1 SLOAD PUSH0 SLOAD PUSH2 0xFD SWAP2 SWAP1 PUSH2 0x21C JUMP JUMPDEST SWAP1 POP SWAP1 JUMP JUMPDEST DUP2 PUSH0 DUP2 SWAP1 SSTORE POP DUP1 PUSH1 0x1 DUP2 SWAP1 SSTORE POP POP POP JUMP JUMPDEST PUSH0 PUSH1 0x1 SLOAD PUSH0 SLOAD PUSH2 0x123 SWAP2 SWAP1 PUSH2 0x24F JUMP JUMPDEST SWAP1 POP SWAP1 JUMP JUMPDEST PUSH0 PUSH1 0x1 SLOAD PUSH0 SLOAD PUSH2 0x138 SWAP2 SWAP1 PUSH2 0x290 JUMP JUMPDEST SWAP1 POP SWAP1 JUMP JUMPDEST PUSH0 PUSH1 0x1 SLOAD PUSH0 SLOAD PUSH2 0x14D SWAP2 SWAP1 PUSH2 0x2F0 JUMP JUMPDEST SWAP1 POP SWAP1 JUMP JUMPDEST PUSH0 DUP2 SWAP1 POP SWAP2 SWAP1 POP JUMP JUMPDEST PUSH2 0x164 DUP2 PUSH2 0x152 JUMP JUMPDEST DUP3 MSTORE POP POP JUMP JUMPDEST PUSH0 PUSH1 0x20 DUP3 ADD SWAP1 POP PUSH2 0x17D PUSH0 DUP4 ADD DUP5 PUSH2 0x15B JUMP JUMPDEST SWAP3 SWAP2 POP POP JUMP JUMPDEST PUSH0 DUP1 REVERT JUMPDEST PUSH2 0x190 DUP2 PUSH2 0x152 JUMP JUMPDEST DUP2 EQ PUSH2 0x19A JUMPI PUSH0 DUP1 REVERT JUMPDEST POP JUMP JUMPDEST PUSH0 DUP2 CALLDATALOAD SWAP1 POP PUSH2 0x1AB DUP2 PUSH2 0x187 JUMP JUMPDEST SWAP3 SWAP2 POP POP JUMP JUMPDEST PUSH0 DUP1 PUSH1 0x40 DUP4 DUP6 SUB SLT ISZERO PUSH2 0x1C7 JUMPI PUSH2 0x1C6 PUSH2 0x183 JUMP JUMPDEST JUMPDEST PUSH0 PUSH2 0x1D4 DUP6 DUP3 DUP7 ADD PUSH2 0x19D JUMP JUMPDEST SWAP3 POP POP PUSH1 0x20 PUSH2 0x1E5 DUP6 DUP3 DUP7 ADD PUSH2 0x19D JUMP JUMPDEST SWAP2 POP POP SWAP3 POP SWAP3 SWAP1 POP JUMP JUMPDEST PUSH32 0x4E487B7100000000000000000000000000000000000000000000000000000000 PUSH0 MSTORE PUSH1 0x11 PUSH1 0x4 MSTORE PUSH1 0x24 PUSH0 REVERT JUMPDEST PUSH0 PUSH2 0x226 DUP3 PUSH2 0x152 JUMP JUMPDEST SWAP2 POP PUSH2 0x231 DUP4 PUSH2 0x152 JUMP JUMPDEST SWAP3 POP DUP3 DUP3 ADD SWAP1 POP DUP1 DUP3 GT ISZERO PUSH2 0x249 JUMPI PUSH2 0x248 PUSH2 0x1EF JUMP JUMPDEST JUMPDEST SWAP3 SWAP2 POP POP JUMP JUMPDEST PUSH0 PUSH2 0x259 DUP3 PUSH2 0x152 JUMP JUMPDEST SWAP2 POP PUSH2 0x264 DUP4 PUSH2 0x152 JUMP JUMPDEST SWAP3 POP DUP3 DUP3 MUL PUSH2 0x272 DUP2 PUSH2 0x152 JUMP JUMPDEST SWAP2 POP DUP3 DUP3 DIV DUP5 EQ DUP4 ISZERO OR PUSH2 0x289 JUMPI PUSH2 0x288 PUSH2 0x1EF JUMP JUMPDEST JUMPDEST POP SWAP3 SWAP2 POP POP JUMP JUMPDEST PUSH0 PUSH2 0x29A DUP3 PUSH2 0x152 JUMP JUMPDEST SWAP2 POP PUSH2 0x2A5 DUP4 PUSH2 0x152 JUMP JUMPDEST SWAP3 POP DUP3 DUP3 SUB SWAP1 POP DUP2 DUP2 GT ISZERO PUSH2 0x2BD JUMPI PUSH2 0x2BC PUSH2 0x1EF JUMP JUMPDEST JUMPDEST SWAP3 SWAP2 POP POP JUMP JUMPDEST PUSH32 0x4E487B7100000000000000000000000000000000000000000000000000000000 PUSH0 MSTORE PUSH1 0x12 PUSH1 0x4 MSTORE PUSH1 0x24 PUSH0 REVERT JUMPDEST PUSH0 PUSH2 0x2FA DUP3 PUSH2 0x152 JUMP JUMPDEST SWAP2 POP PUSH2 0x305 DUP4 PUSH2 0x152 JUMP JUMPDEST SWAP3 POP DUP3 PUSH2 0x315 JUMPI PUSH2 0x314 PUSH2 0x2C3 JUMP JUMPDEST JUMPDEST DUP3 DUP3 DIV SWAP1 POP SWAP3 SWAP2 POP POP JUMP INVALID LOG2 PUSH5 0x6970667358 0x22 SLT KECCAK256 RETURNDATASIZE GASLIMIT 0x4F 0xDC 0x21 PUSH6 0xFF20ED677382 0xF 0xF7 PUSH7 0x30D67EB9A04283 BLOBHASH 0xC4 LOG4 MULMOD 0xD1 PUSH1 0x2F 0xA5 SAR 0xBC PUSH5 0x736F6C6343 STOP ADDMOD BYTE STOP CALLER "
				},
				"gasEstimates": {
					"creation": {
						"codeDepositCost": "170800",
						"executionCost": "212",
						"totalCost": "171012"
					},
					"external": {
						"Add()": "infinite",
						"Div()": "infinite",
						"EnterNumber(uint256,uint256)": "infinite",
						"Mul()": "infinite",
						"Sub()": "infinite"
					}
				},
				"methodIdentifiers": {
					"Add()": "67e06858",
					"Div()": "deee4403",
					"EnterNumber(uint256,uint256)": "6c582aa3",
					"Mul()": "b1298428",
					"Sub()": "b87f3280"
				}
			},
			"storageLayout": {
				"storage": [
					{
						"astId": 3,
						"contract": "BC/prac2b.sol:Calculater",
						"label": "number1",
						"offset": 0,
						"slot": "0",
						"type": "t_uint256"
					},
					{
						"astId": 5,
						"contract": "BC/prac2b.sol:Calculater",
						"label": "number2",
						"offset": 0,
						"slot": "1",
						"type": "t_uint256"
					}
				],
				"types": {
					"t_uint256": {
						"encoding": "inplace",
						"label": "uint256",
						"numberOfBytes": "32"
					}
				}
			},
			"userdoc": {
				"kind": "user",
				"methods": {},
				"version": 1
			}
		}
	}
}