{
	"BC/prac1.sol": {
		"Storage": {
			"abi": [
				{
					"inputs": [],
					"stateMutability": "nonpayable",
					"type": "constructor"
				},
				{
					"inputs": [
						{
							"internalType": "string",
							"name": "data",
							"type": "string"
						}
					],
					"name": "addblock",
					"outputs": [],
					"stateMutability": "nonpayable",
					"type": "function"
				},
				{
					"inputs": [
						{
							"internalType": "uint256",
							"name": "index",
							"type": "uint256"
						}
					],
					"name": "getBlock",
					"outputs": [
						{
							"components": [
								{
									"internalType": "uint256",
									"name": "index",
									"type": "uint256"
								},
								{
									"internalType": "uint256",
									"name": "timestamp",
									"type": "uint256"
								},
								{
									"internalType": "string",
									"name": "data",
									"type": "string"
								},
								{
									"internalType": "bytes32",
									"name": "previoushah",
									"type": "bytes32"
								},
								{
									"internalType": "bytes32",
									"name": "currenthash",
									"type": "bytes32"
								}
							],
							"internalType": "struct Storage.Block",
							"name": "",
							"type": "tuple"
						}
					],
					"stateMutability": "view",
					"type": "function"
				},
				{
					"inputs": [],
					"name": "getlatestchain",
					"outputs": [
						{
							"components": [
								{
									"internalType": "uint256",
									"name": "index",
									"type": "uint256"
								},
								{
									"internalType": "uint256",
									"name": "timestamp",
									"type": "uint256"
								},
								{
									"internalType": "string",
									"name": "data",
									"type": "string"
								},
								{
									"internalType": "bytes32",
									"name": "previoushah",
									"type": "bytes32"
								},
								{
									"internalType": "bytes32",
									"name": "currenthash",
									"type": "bytes32"
								}
							],
							"internalType": "struct Storage.Block",
							"name": "",
							"type": "tuple"
						}
					],
					"stateMutability": "view",
					"type": "function"
				}
			],
			"devdoc": {
				"kind": "dev",
				"methods": {},
				"version": 1
			},
			"evm": {
				"assembly": "    /* \"BC/prac1.sol\":66:1615  contract Storage{... */\n  mstore(0x40, 0x80)\n    /* \"BC/prac1.sol\":281:321  constructor(){... */\n  callvalue\n  dup1\n  iszero\n  tag_1\n  jumpi\n  0x00\n  dup1\n  revert\ntag_1:\n  pop\n    /* \"BC/prac1.sol\":305:313  create() */\n  tag_4\n    /* \"BC/prac1.sol\":305:311  create */\n  shl(0x20, tag_5)\n    /* \"BC/prac1.sol\":305:313  create() */\n  0x20\n  shr\n  jump\t// in\ntag_4:\n    /* \"BC/prac1.sol\":66:1615  contract Storage{... */\n  jump(tag_6)\n    /* \"BC/prac1.sol\":327:689  function create()internal{... */\ntag_5:\n    /* \"BC/prac1.sol\":363:382  Block memory geness */\n  0x00\n    /* \"BC/prac1.sol\":385:647  Block({... */\n  mload(0x40)\n  dup1\n  0xa0\n  add\n  0x40\n  mstore\n  dup1\n    /* \"BC/prac1.sol\":414:415  0 */\n  0x00\n    /* \"BC/prac1.sol\":385:647  Block({... */\n  dup2\n  mstore\n  0x20\n  add\n    /* \"BC/prac1.sol\":441:456  block.timestamp */\n  timestamp\n    /* \"BC/prac1.sol\":385:647  Block({... */\n  dup2\n  mstore\n  0x20\n  add\n  mload(0x40)\n  dup1\n  0x40\n  add\n  0x40\n  mstore\n  dup1\n  0x0b\n  dup2\n  mstore\n  0x20\n  add\n  0x466972737420626c6f636b000000000000000000000000000000000000000000\n  dup2\n  mstore\n  pop\n  dup2\n  mstore\n  0x20\n  add\n    /* \"BC/prac1.sol\":525:526  0 */\n  0x00\n    /* \"BC/prac1.sol\":517:527  bytes32(0) */\n  dup1\n  shl\n    /* \"BC/prac1.sol\":385:647  Block({... */\n  dup2\n  mstore\n  0x20\n  add\n    /* \"BC/prac1.sol\":590:591  0 */\n  0x00\n    /* \"BC/prac1.sol\":593:608  block.timestamp */\n  timestamp\n    /* \"BC/prac1.sol\":631:632  0 */\n  0x00\n    /* \"BC/prac1.sol\":623:633  bytes32(0) */\n  dup1\n  shl\n    /* \"BC/prac1.sol\":565:634  abi.encodePacked(uint256(0),block.timestamp,\"First block\",bytes32(0)) */\n  add(0x20, mload(0x40))\n  tag_8\n  swap4\n  swap3\n  swap2\n  swap1\n  tag_9\n  jump\t// in\ntag_8:\n  mload(0x40)\n  0x20\n  dup2\n  dup4\n  sub\n  sub\n  dup2\n  mstore\n  swap1\n  0x40\n  mstore\n    /* \"BC/prac1.sol\":555:635  keccak256(abi.encodePacked(uint256(0),block.timestamp,\"First block\",bytes32(0))) */\n  dup1\n  mload\n  swap1\n  0x20\n  add\n  keccak256\n    /* \"BC/prac1.sol\":385:647  Block({... */\n  dup2\n  mstore\n  pop\n    /* \"BC/prac1.sol\":363:647  Block memory geness = Block({... */\n  swap1\n  pop\n    /* \"BC/prac1.sol\":658:668  blockchain */\n  0x00\n    /* \"BC/prac1.sol\":674:680  geness */\n  dup2\n    /* \"BC/prac1.sol\":658:681  blockchain.push(geness) */\n  swap1\n  dup1\n  0x01\n  dup2\n  sload\n  add\n  dup1\n  dup3\n  sstore\n  dup1\n  swap2\n  pop\n  pop\n  0x01\n  swap1\n  sub\n  swap1\n  0x00\n  mstore\n  keccak256(0x00, 0x20)\n  swap1\n  0x05\n  mul\n  add\n  0x00\n  swap1\n  swap2\n  swap1\n  swap2\n  swap1\n  swap2\n  pop\n  0x00\n  dup3\n  add\n  mload\n  dup2\n  0x00\n  add\n  sstore\n  0x20\n  dup3\n  add\n  mload\n  dup2\n  0x01\n  add\n  sstore\n  0x40\n  dup3\n  add\n  mload\n  dup2\n  0x02\n  add\n  swap1\n  dup2\n  tag_11\n  swap2\n  swap1\n  tag_12\n  jump\t// in\ntag_11:\n  pop\n  0x60\n  dup3\n  add\n  mload\n  dup2\n  0x03\n  add\n  sstore\n  0x80\n  dup3\n  add\n  mload\n  dup2\n  0x04\n  add\n  sstore\n  pop\n  pop\n    /* \"BC/prac1.sol\":352:689  {... */\n  pop\n    /* \"BC/prac1.sol\":327:689  function create()internal{... */\n  jump\t// out\n    /* \"#utility.yul\":7:84   */\ntag_13:\n    /* \"#utility.yul\":44:51   */\n  0x00\n    /* \"#utility.yul\":73:78   */\n  dup2\n    /* \"#utility.yul\":62:78   */\n  swap1\n  pop\n    /* \"#utility.yul\":7:84   */\n  swap2\n  swap1\n  pop\n  jump\t// out\n    /* \"#utility.yul\":90:169   */\ntag_14:\n    /* \"#utility.yul\":129:136   */\n  0x00\n    /* \"#utility.yul\":158:163   */\n  dup2\n    /* \"#utility.yul\":147:163   */\n  swap1\n  pop\n    /* \"#utility.yul\":90:169   */\n  swap2\n  swap1\n  pop\n  jump\t// out\n    /* \"#utility.yul\":175:332   */\ntag_15:\n    /* \"#utility.yul\":280:325   */\n  tag_45\n    /* \"#utility.yul\":300:324   */\n  tag_46\n    /* \"#utility.yul\":318:323   */\n  dup3\n    /* \"#utility.yul\":300:324   */\n  tag_13\n  jump\t// in\ntag_46:\n    /* \"#utility.yul\":280:325   */\n  tag_14\n  jump\t// in\ntag_45:\n    /* \"#utility.yul\":275:278   */\n  dup3\n    /* \"#utility.yul\":268:326   */\n  mstore\n    /* \"#utility.yul\":175:332   */\n  pop\n  pop\n  jump\t// out\n    /* \"#utility.yul\":338:486   */\ntag_16:\n    /* \"#utility.yul\":440:451   */\n  0x00\n    /* \"#utility.yul\":477:480   */\n  dup2\n    /* \"#utility.yul\":462:480   */\n  swap1\n  pop\n    /* \"#utility.yul\":338:486   */\n  swap3\n  swap2\n  pop\n  pop\n  jump\t// out\n    /* \"#utility.yul\":492:653   */\ntag_17:\n    /* \"#utility.yul\":632:645   */\n  0x466972737420626c6f636b000000000000000000000000000000000000000000\n    /* \"#utility.yul\":628:629   */\n  0x00\n    /* \"#utility.yul\":620:626   */\n  dup3\n    /* \"#utility.yul\":616:630   */\n  add\n    /* \"#utility.yul\":609:646   */\n  mstore\n    /* \"#utility.yul\":492:653   */\n  pop\n  jump\t// out\n    /* \"#utility.yul\":659:1061   */\ntag_18:\n    /* \"#utility.yul\":819:822   */\n  0x00\n    /* \"#utility.yul\":840:925   */\n  tag_50\n    /* \"#utility.yul\":922:924   */\n  0x0b\n    /* \"#utility.yul\":917:920   */\n  dup4\n    /* \"#utility.yul\":840:925   */\n  tag_16\n  jump\t// in\ntag_50:\n    /* \"#utility.yul\":833:925   */\n  swap2\n  pop\n    /* \"#utility.yul\":934:1027   */\n  tag_51\n    /* \"#utility.yul\":1023:1026   */\n  dup3\n    /* \"#utility.yul\":934:1027   */\n  tag_17\n  jump\t// in\ntag_51:\n    /* \"#utility.yul\":1052:1054   */\n  0x0b\n    /* \"#utility.yul\":1047:1050   */\n  dup3\n    /* \"#utility.yul\":1043:1055   */\n  add\n    /* \"#utility.yul\":1036:1055   */\n  swap1\n  pop\n    /* \"#utility.yul\":659:1061   */\n  swap2\n  swap1\n  pop\n  jump\t// out\n    /* \"#utility.yul\":1067:1144   */\ntag_19:\n    /* \"#utility.yul\":1104:1111   */\n  0x00\n    /* \"#utility.yul\":1133:1138   */\n  dup2\n    /* \"#utility.yul\":1122:1138   */\n  swap1\n  pop\n    /* \"#utility.yul\":1067:1144   */\n  swap2\n  swap1\n  pop\n  jump\t// out\n    /* \"#utility.yul\":1150:1229   */\ntag_20:\n    /* \"#utility.yul\":1189:1196   */\n  0x00\n    /* \"#utility.yul\":1218:1223   */\n  dup2\n    /* \"#utility.yul\":1207:1223   */\n  swap1\n  pop\n    /* \"#utility.yul\":1150:1229   */\n  swap2\n  swap1\n  pop\n  jump\t// out\n    /* \"#utility.yul\":1235:1392   */\ntag_21:\n    /* \"#utility.yul\":1340:1385   */\n  tag_55\n    /* \"#utility.yul\":1360:1384   */\n  tag_56\n    /* \"#utility.yul\":1378:1383   */\n  dup3\n    /* \"#utility.yul\":1360:1384   */\n  tag_19\n  jump\t// in\ntag_56:\n    /* \"#utility.yul\":1340:1385   */\n  tag_20\n  jump\t// in\ntag_55:\n    /* \"#utility.yul\":1335:1338   */\n  dup3\n    /* \"#utility.yul\":1328:1386   */\n  mstore\n    /* \"#utility.yul\":1235:1392   */\n  pop\n  pop\n  jump\t// out\n    /* \"#utility.yul\":1398:2202   */\ntag_9:\n    /* \"#utility.yul\":1667:1670   */\n  0x00\n    /* \"#utility.yul\":1682:1757   */\n  tag_58\n    /* \"#utility.yul\":1753:1756   */\n  dup3\n    /* \"#utility.yul\":1744:1750   */\n  dup7\n    /* \"#utility.yul\":1682:1757   */\n  tag_15\n  jump\t// in\ntag_58:\n    /* \"#utility.yul\":1782:1784   */\n  0x20\n    /* \"#utility.yul\":1777:1780   */\n  dup3\n    /* \"#utility.yul\":1773:1785   */\n  add\n    /* \"#utility.yul\":1766:1785   */\n  swap2\n  pop\n    /* \"#utility.yul\":1795:1870   */\n  tag_59\n    /* \"#utility.yul\":1866:1869   */\n  dup3\n    /* \"#utility.yul\":1857:1863   */\n  dup6\n    /* \"#utility.yul\":1795:1870   */\n  tag_15\n  jump\t// in\ntag_59:\n    /* \"#utility.yul\":1895:1897   */\n  0x20\n    /* \"#utility.yul\":1890:1893   */\n  dup3\n    /* \"#utility.yul\":1886:1898   */\n  add\n    /* \"#utility.yul\":1879:1898   */\n  swap2\n  pop\n    /* \"#utility.yul\":1915:2063   */\n  tag_60\n    /* \"#utility.yul\":2059:2062   */\n  dup3\n    /* \"#utility.yul\":1915:2063   */\n  tag_18\n  jump\t// in\ntag_60:\n    /* \"#utility.yul\":1908:2063   */\n  swap2\n  pop\n    /* \"#utility.yul\":2073:2148   */\n  tag_61\n    /* \"#utility.yul\":2144:2147   */\n  dup3\n    /* \"#utility.yul\":2135:2141   */\n  dup5\n    /* \"#utility.yul\":2073:2148   */\n  tag_21\n  jump\t// in\ntag_61:\n    /* \"#utility.yul\":2173:2175   */\n  0x20\n    /* \"#utility.yul\":2168:2171   */\n  dup3\n    /* \"#utility.yul\":2164:2176   */\n  add\n    /* \"#utility.yul\":2157:2176   */\n  swap2\n  pop\n    /* \"#utility.yul\":2193:2196   */\n  dup2\n    /* \"#utility.yul\":2186:2196   */\n  swap1\n  pop\n    /* \"#utility.yul\":1398:2202   */\n  swap5\n  swap4\n  pop\n  pop\n  pop\n  pop\n  jump\t// out\n    /* \"#utility.yul\":2208:2307   */\ntag_22:\n    /* \"#utility.yul\":2260:2266   */\n  0x00\n    /* \"#utility.yul\":2294:2299   */\n  dup2\n    /* \"#utility.yul\":2288:2300   */\n  mload\n    /* \"#utility.yul\":2278:2300   */\n  swap1\n  pop\n    /* \"#utility.yul\":2208:2307   */\n  swap2\n  swap1\n  pop\n  jump\t// out\n    /* \"#utility.yul\":2313:2493   */\ntag_23:\n    /* \"#utility.yul\":2361:2438   */\n  0x4e487b7100000000000000000000000000000000000000000000000000000000\n    /* \"#utility.yul\":2358:2359   */\n  0x00\n    /* \"#utility.yul\":2351:2439   */\n  mstore\n    /* \"#utility.yul\":2458:2462   */\n  0x41\n    /* \"#utility.yul\":2455:2456   */\n  0x04\n    /* \"#utility.yul\":2448:2463   */\n  mstore\n    /* \"#utility.yul\":2482:2486   */\n  0x24\n    /* \"#utility.yul\":2479:2480   */\n  0x00\n    /* \"#utility.yul\":2472:2487   */\n  revert\n    /* \"#utility.yul\":2499:2679   */\ntag_24:\n    /* \"#utility.yul\":2547:2624   */\n  0x4e487b7100000000000000000000000000000000000000000000000000000000\n    /* \"#utility.yul\":2544:2545   */\n  0x00\n    /* \"#utility.yul\":2537:2625   */\n  mstore\n    /* \"#utility.yul\":2644:2648   */\n  0x22\n    /* \"#utility.yul\":2641:2642   */\n  0x04\n    /* \"#utility.yul\":2634:2649   */\n  mstore\n    /* \"#utility.yul\":2668:2672   */\n  0x24\n    /* \"#utility.yul\":2665:2666   */\n  0x00\n    /* \"#utility.yul\":2658:2673   */\n  revert\n    /* \"#utility.yul\":2685:3005   */\ntag_25:\n    /* \"#utility.yul\":2729:2735   */\n  0x00\n    /* \"#utility.yul\":2766:2767   */\n  0x02\n    /* \"#utility.yul\":2760:2764   */\n  dup3\n    /* \"#utility.yul\":2756:2768   */\n  div\n    /* \"#utility.yul\":2746:2768   */\n  swap1\n  pop\n    /* \"#utility.yul\":2813:2814   */\n  0x01\n    /* \"#utility.yul\":2807:2811   */\n  dup3\n    /* \"#utility.yul\":2803:2815   */\n  and\n    /* \"#utility.yul\":2834:2852   */\n  dup1\n    /* \"#utility.yul\":2824:2905   */\n  tag_66\n  jumpi\n    /* \"#utility.yul\":2890:2894   */\n  0x7f\n    /* \"#utility.yul\":2882:2888   */\n  dup3\n    /* \"#utility.yul\":2878:2895   */\n  and\n    /* \"#utility.yul\":2868:2895   */\n  swap2\n  pop\n    /* \"#utility.yul\":2824:2905   */\ntag_66:\n    /* \"#utility.yul\":2952:2954   */\n  0x20\n    /* \"#utility.yul\":2944:2950   */\n  dup3\n    /* \"#utility.yul\":2941:2955   */\n  lt\n    /* \"#utility.yul\":2921:2939   */\n  dup2\n    /* \"#utility.yul\":2918:2956   */\n  sub\n    /* \"#utility.yul\":2915:2999   */\n  tag_67\n  jumpi\n    /* \"#utility.yul\":2971:2989   */\n  tag_68\n  tag_24\n  jump\t// in\ntag_68:\n    /* \"#utility.yul\":2915:2999   */\ntag_67:\n    /* \"#utility.yul\":2736:3005   */\n  pop\n    /* \"#utility.yul\":2685:3005   */\n  swap2\n  swap1\n  pop\n  jump\t// out\n    /* \"#utility.yul\":3011:3152   */\ntag_26:\n    /* \"#utility.yul\":3060:3064   */\n  0x00\n    /* \"#utility.yul\":3083:3086   */\n  dup2\n    /* \"#utility.yul\":3075:3086   */\n  swap1\n  pop\n    /* \"#utility.yul\":3106:3109   */\n  dup2\n    /* \"#utility.yul\":3103:3104   */\n  0x00\n    /* \"#utility.yul\":3096:3110   */\n  mstore\n    /* \"#utility.yul\":3140:3144   */\n  0x20\n    /* \"#utility.yul\":3137:3138   */\n  0x00\n    /* \"#utility.yul\":3127:3145   */\n  keccak256\n    /* \"#utility.yul\":3119:3145   */\n  swap1\n  pop\n    /* \"#utility.yul\":3011:3152   */\n  swap2\n  swap1\n  pop\n  jump\t// out\n    /* \"#utility.yul\":3158:3251   */\ntag_27:\n    /* \"#utility.yul\":3195:3201   */\n  0x00\n    /* \"#utility.yul\":3242:3244   */\n  0x20\n    /* \"#utility.yul\":3237:3239   */\n  0x1f\n    /* \"#utility.yul\":3230:3235   */\n  dup4\n    /* \"#utility.yul\":3226:3240   */\n  add\n    /* \"#utility.yul\":3222:3245   */\n  div\n    /* \"#utility.yul\":3212:3245   */\n  swap1\n  pop\n    /* \"#utility.yul\":3158:3251   */\n  swap2\n  swap1\n  pop\n  jump\t// out\n    /* \"#utility.yul\":3257:3364   */\ntag_28:\n    /* \"#utility.yul\":3301:3309   */\n  0x00\n    /* \"#utility.yul\":3351:3356   */\n  dup3\n    /* \"#utility.yul\":3345:3349   */\n  dup3\n    /* \"#utility.yul\":3341:3357   */\n  shl\n    /* \"#utility.yul\":3320:3357   */\n  swap1\n  pop\n    /* \"#utility.yul\":3257:3364   */\n  swap3\n  swap2\n  pop\n  pop\n  jump\t// out\n    /* \"#utility.yul\":3370:3763   */\ntag_29:\n    /* \"#utility.yul\":3439:3445   */\n  0x00\n    /* \"#utility.yul\":3489:3490   */\n  0x08\n    /* \"#utility.yul\":3477:3487   */\n  dup4\n    /* \"#utility.yul\":3473:3491   */\n  mul\n    /* \"#utility.yul\":3512:3609   */\n  tag_73\n    /* \"#utility.yul\":3542:3608   */\n  0xffffffffffffffffffffffffffffffffffffffffffffffffffffffffffffffff\n    /* \"#utility.yul\":3531:3540   */\n  dup3\n    /* \"#utility.yul\":3512:3609   */\n  tag_28\n  jump\t// in\ntag_73:\n    /* \"#utility.yul\":3630:3669   */\n  tag_74\n    /* \"#utility.yul\":3660:3668   */\n  dup7\n    /* \"#utility.yul\":3649:3658   */\n  dup4\n    /* \"#utility.yul\":3630:3669   */\n  tag_28\n  jump\t// in\ntag_74:\n    /* \"#utility.yul\":3618:3669   */\n  swap6\n  pop\n    /* \"#utility.yul\":3702:3706   */\n  dup1\n    /* \"#utility.yul\":3698:3707   */\n  not\n    /* \"#utility.yul\":3691:3696   */\n  dup5\n    /* \"#utility.yul\":3687:3708   */\n  and\n    /* \"#utility.yul\":3678:3708   */\n  swap4\n  pop\n    /* \"#utility.yul\":3751:3755   */\n  dup1\n    /* \"#utility.yul\":3741:3749   */\n  dup7\n    /* \"#utility.yul\":3737:3756   */\n  and\n    /* \"#utility.yul\":3730:3735   */\n  dup5\n    /* \"#utility.yul\":3727:3757   */\n  or\n    /* \"#utility.yul\":3717:3757   */\n  swap3\n  pop\n    /* \"#utility.yul\":3446:3763   */\n  pop\n  pop\n    /* \"#utility.yul\":3370:3763   */\n  swap4\n  swap3\n  pop\n  pop\n  pop\n  jump\t// out\n    /* \"#utility.yul\":3769:3829   */\ntag_30:\n    /* \"#utility.yul\":3797:3800   */\n  0x00\n    /* \"#utility.yul\":3818:3823   */\n  dup2\n    /* \"#utility.yul\":3811:3823   */\n  swap1\n  pop\n    /* \"#utility.yul\":3769:3829   */\n  swap2\n  swap1\n  pop\n  jump\t// out\n    /* \"#utility.yul\":3835:3977   */\ntag_31:\n    /* \"#utility.yul\":3885:3894   */\n  0x00\n    /* \"#utility.yul\":3918:3971   */\n  tag_77\n    /* \"#utility.yul\":3936:3970   */\n  tag_78\n    /* \"#utility.yul\":3945:3969   */\n  tag_79\n    /* \"#utility.yul\":3963:3968   */\n  dup5\n    /* \"#utility.yul\":3945:3969   */\n  tag_13\n  jump\t// in\ntag_79:\n    /* \"#utility.yul\":3936:3970   */\n  tag_30\n  jump\t// in\ntag_78:\n    /* \"#utility.yul\":3918:3971   */\n  tag_13\n  jump\t// in\ntag_77:\n    /* \"#utility.yul\":3905:3971   */\n  swap1\n  pop\n    /* \"#utility.yul\":3835:3977   */\n  swap2\n  swap1\n  pop\n  jump\t// out\n    /* \"#utility.yul\":3983:4058   */\ntag_32:\n    /* \"#utility.yul\":4026:4029   */\n  0x00\n    /* \"#utility.yul\":4047:4052   */\n  dup2\n    /* \"#utility.yul\":4040:4052   */\n  swap1\n  pop\n    /* \"#utility.yul\":3983:4058   */\n  swap2\n  swap1\n  pop\n  jump\t// out\n    /* \"#utility.yul\":4064:4333   */\ntag_33:\n    /* \"#utility.yul\":4174:4213   */\n  tag_82\n    /* \"#utility.yul\":4205:4212   */\n  dup4\n    /* \"#utility.yul\":4174:4213   */\n  tag_31\n  jump\t// in\ntag_82:\n    /* \"#utility.yul\":4235:4326   */\n  tag_83\n    /* \"#utility.yul\":4284:4325   */\n  tag_84\n    /* \"#utility.yul\":4308:4324   */\n  dup3\n    /* \"#utility.yul\":4284:4325   */\n  tag_32\n  jump\t// in\ntag_84:\n    /* \"#utility.yul\":4276:4282   */\n  dup5\n    /* \"#utility.yul\":4269:4273   */\n  dup5\n    /* \"#utility.yul\":4263:4274   */\n  sload\n    /* \"#utility.yul\":4235:4326   */\n  tag_29\n  jump\t// in\ntag_83:\n    /* \"#utility.yul\":4229:4233   */\n  dup3\n    /* \"#utility.yul\":4222:4327   */\n  sstore\n    /* \"#utility.yul\":4140:4333   */\n  pop\n    /* \"#utility.yul\":4064:4333   */\n  pop\n  pop\n  pop\n  jump\t// out\n    /* \"#utility.yul\":4339:4412   */\ntag_34:\n    /* \"#utility.yul\":4384:4387   */\n  0x00\n    /* \"#utility.yul\":4339:4412   */\n  swap1\n  jump\t// out\n    /* \"#utility.yul\":4418:4607   */\ntag_35:\n    /* \"#utility.yul\":4495:4527   */\n  tag_87\n  tag_34\n  jump\t// in\ntag_87:\n    /* \"#utility.yul\":4536:4601   */\n  tag_88\n    /* \"#utility.yul\":4594:4600   */\n  dup2\n    /* \"#utility.yul\":4586:4592   */\n  dup5\n    /* \"#utility.yul\":4580:4584   */\n  dup5\n    /* \"#utility.yul\":4536:4601   */\n  tag_33\n  jump\t// in\ntag_88:\n    /* \"#utility.yul\":4471:4607   */\n  pop\n    /* \"#utility.yul\":4418:4607   */\n  pop\n  pop\n  jump\t// out\n    /* \"#utility.yul\":4613:4799   */\ntag_36:\n    /* \"#utility.yul\":4673:4793   */\ntag_90:\n    /* \"#utility.yul\":4690:4693   */\n  dup2\n    /* \"#utility.yul\":4683:4688   */\n  dup2\n    /* \"#utility.yul\":4680:4694   */\n  lt\n    /* \"#utility.yul\":4673:4793   */\n  iszero\n  tag_92\n  jumpi\n    /* \"#utility.yul\":4744:4783   */\n  tag_93\n    /* \"#utility.yul\":4781:4782   */\n  0x00\n    /* \"#utility.yul\":4774:4779   */\n  dup3\n    /* \"#utility.yul\":4744:4783   */\n  tag_35\n  jump\t// in\ntag_93:\n    /* \"#utility.yul\":4717:4718   */\n  0x01\n    /* \"#utility.yul\":4710:4715   */\n  dup2\n    /* \"#utility.yul\":4706:4719   */\n  add\n    /* \"#utility.yul\":4697:4719   */\n  swap1\n  pop\n    /* \"#utility.yul\":4673:4793   */\n  jump(tag_90)\ntag_92:\n    /* \"#utility.yul\":4613:4799   */\n  pop\n  pop\n  jump\t// out\n    /* \"#utility.yul\":4805:5348   */\ntag_37:\n    /* \"#utility.yul\":4906:4908   */\n  0x1f\n    /* \"#utility.yul\":4901:4904   */\n  dup3\n    /* \"#utility.yul\":4898:4909   */\n  gt\n    /* \"#utility.yul\":4895:5341   */\n  iszero\n  tag_95\n  jumpi\n    /* \"#utility.yul\":4940:4978   */\n  tag_96\n    /* \"#utility.yul\":4972:4977   */\n  dup2\n    /* \"#utility.yul\":4940:4978   */\n  tag_26\n  jump\t// in\ntag_96:\n    /* \"#utility.yul\":5024:5053   */\n  tag_97\n    /* \"#utility.yul\":5042:5052   */\n  dup5\n    /* \"#utility.yul\":5024:5053   */\n  tag_27\n  jump\t// in\ntag_97:\n    /* \"#utility.yul\":5014:5022   */\n  dup2\n    /* \"#utility.yul\":5010:5054   */\n  add\n    /* \"#utility.yul\":5207:5209   */\n  0x20\n    /* \"#utility.yul\":5195:5205   */\n  dup6\n    /* \"#utility.yul\":5192:5210   */\n  lt\n    /* \"#utility.yul\":5189:5238   */\n  iszero\n  tag_98\n  jumpi\n    /* \"#utility.yul\":5228:5236   */\n  dup2\n    /* \"#utility.yul\":5213:5236   */\n  swap1\n  pop\n    /* \"#utility.yul\":5189:5238   */\ntag_98:\n    /* \"#utility.yul\":5251:5331   */\n  tag_99\n    /* \"#utility.yul\":5307:5329   */\n  tag_100\n    /* \"#utility.yul\":5325:5328   */\n  dup6\n    /* \"#utility.yul\":5307:5329   */\n  tag_27\n  jump\t// in\ntag_100:\n    /* \"#utility.yul\":5297:5305   */\n  dup4\n    /* \"#utility.yul\":5293:5330   */\n  add\n    /* \"#utility.yul\":5280:5291   */\n  dup3\n    /* \"#utility.yul\":5251:5331   */\n  tag_36\n  jump\t// in\ntag_99:\n    /* \"#utility.yul\":4910:5341   */\n  pop\n  pop\n    /* \"#utility.yul\":4895:5341   */\ntag_95:\n    /* \"#utility.yul\":4805:5348   */\n  pop\n  pop\n  pop\n  jump\t// out\n    /* \"#utility.yul\":5354:5471   */\ntag_38:\n    /* \"#utility.yul\":5408:5416   */\n  0x00\n    /* \"#utility.yul\":5458:5463   */\n  dup3\n    /* \"#utility.yul\":5452:5456   */\n  dup3\n    /* \"#utility.yul\":5448:5464   */\n  shr\n    /* \"#utility.yul\":5427:5464   */\n  swap1\n  pop\n    /* \"#utility.yul\":5354:5471   */\n  swap3\n  swap2\n  pop\n  pop\n  jump\t// out\n    /* \"#utility.yul\":5477:5646   */\ntag_39:\n    /* \"#utility.yul\":5521:5527   */\n  0x00\n    /* \"#utility.yul\":5554:5605   */\n  tag_103\n    /* \"#utility.yul\":5602:5603   */\n  0x00\n    /* \"#utility.yul\":5598:5604   */\n  not\n    /* \"#utility.yul\":5590:5595   */\n  dup5\n    /* \"#utility.yul\":5587:5588   */\n  0x08\n    /* \"#utility.yul\":5583:5596   */\n  mul\n    /* \"#utility.yul\":5554:5605   */\n  tag_38\n  jump\t// in\ntag_103:\n    /* \"#utility.yul\":5550:5606   */\n  not\n    /* \"#utility.yul\":5635:5639   */\n  dup1\n    /* \"#utility.yul\":5629:5633   */\n  dup4\n    /* \"#utility.yul\":5625:5640   */\n  and\n    /* \"#utility.yul\":5615:5640   */\n  swap2\n  pop\n    /* \"#utility.yul\":5528:5646   */\n  pop\n    /* \"#utility.yul\":5477:5646   */\n  swap3\n  swap2\n  pop\n  pop\n  jump\t// out\n    /* \"#utility.yul\":5651:5946   */\ntag_40:\n    /* \"#utility.yul\":5727:5731   */\n  0x00\n    /* \"#utility.yul\":5873:5902   */\n  tag_105\n    /* \"#utility.yul\":5898:5901   */\n  dup4\n    /* \"#utility.yul\":5892:5896   */\n  dup4\n    /* \"#utility.yul\":5873:5902   */\n  tag_39\n  jump\t// in\ntag_105:\n    /* \"#utility.yul\":5865:5902   */\n  swap2\n  pop\n    /* \"#utility.yul\":5935:5938   */\n  dup3\n    /* \"#utility.yul\":5932:5933   */\n  0x02\n    /* \"#utility.yul\":5928:5939   */\n  mul\n    /* \"#utility.yul\":5922:5926   */\n  dup3\n    /* \"#utility.yul\":5919:5940   */\n  or\n    /* \"#utility.yul\":5911:5940   */\n  swap1\n  pop\n    /* \"#utility.yul\":5651:5946   */\n  swap3\n  swap2\n  pop\n  pop\n  jump\t// out\n    /* \"#utility.yul\":5951:7346   */\ntag_12:\n    /* \"#utility.yul\":6068:6105   */\n  tag_107\n    /* \"#utility.yul\":6101:6104   */\n  dup3\n    /* \"#utility.yul\":6068:6105   */\n  tag_22\n  jump\t// in\ntag_107:\n    /* \"#utility.yul\":6170:6188   */\n  0xffffffffffffffff\n    /* \"#utility.yul\":6162:6168   */\n  dup2\n    /* \"#utility.yul\":6159:6189   */\n  gt\n    /* \"#utility.yul\":6156:6212   */\n  iszero\n  tag_108\n  jumpi\n    /* \"#utility.yul\":6192:6210   */\n  tag_109\n  tag_23\n  jump\t// in\ntag_109:\n    /* \"#utility.yul\":6156:6212   */\ntag_108:\n    /* \"#utility.yul\":6236:6274   */\n  tag_110\n    /* \"#utility.yul\":6268:6272   */\n  dup3\n    /* \"#utility.yul\":6262:6273   */\n  sload\n    /* \"#utility.yul\":6236:6274   */\n  tag_25\n  jump\t// in\ntag_110:\n    /* \"#utility.yul\":6321:6388   */\n  tag_111\n    /* \"#utility.yul\":6381:6387   */\n  dup3\n    /* \"#utility.yul\":6373:6379   */\n  dup3\n    /* \"#utility.yul\":6367:6371   */\n  dup6\n    /* \"#utility.yul\":6321:6388   */\n  tag_37\n  jump\t// in\ntag_111:\n    /* \"#utility.yul\":6415:6416   */\n  0x00\n    /* \"#utility.yul\":6439:6443   */\n  0x20\n    /* \"#utility.yul\":6426:6443   */\n  swap1\n  pop\n    /* \"#utility.yul\":6471:6473   */\n  0x1f\n    /* \"#utility.yul\":6463:6469   */\n  dup4\n    /* \"#utility.yul\":6460:6474   */\n  gt\n    /* \"#utility.yul\":6488:6489   */\n  0x01\n    /* \"#utility.yul\":6483:7101   */\n  dup2\n  eq\n  tag_113\n  jumpi\n    /* \"#utility.yul\":7145:7146   */\n  0x00\n    /* \"#utility.yul\":7162:7168   */\n  dup5\n    /* \"#utility.yul\":7159:7236   */\n  iszero\n  tag_114\n  jumpi\n    /* \"#utility.yul\":7211:7220   */\n  dup3\n    /* \"#utility.yul\":7206:7209   */\n  dup8\n    /* \"#utility.yul\":7202:7221   */\n  add\n    /* \"#utility.yul\":7196:7222   */\n  mload\n    /* \"#utility.yul\":7187:7222   */\n  swap1\n  pop\n    /* \"#utility.yul\":7159:7236   */\ntag_114:\n    /* \"#utility.yul\":7262:7329   */\n  tag_115\n    /* \"#utility.yul\":7322:7328   */\n  dup6\n    /* \"#utility.yul\":7315:7320   */\n  dup3\n    /* \"#utility.yul\":7262:7329   */\n  tag_40\n  jump\t// in\ntag_115:\n    /* \"#utility.yul\":7256:7260   */\n  dup7\n    /* \"#utility.yul\":7249:7330   */\n  sstore\n    /* \"#utility.yul\":7118:7340   */\n  pop\n    /* \"#utility.yul\":6453:7340   */\n  jump(tag_112)\n    /* \"#utility.yul\":6483:7101   */\ntag_113:\n    /* \"#utility.yul\":6535:6539   */\n  0x1f\n    /* \"#utility.yul\":6531:6540   */\n  not\n    /* \"#utility.yul\":6523:6529   */\n  dup5\n    /* \"#utility.yul\":6519:6541   */\n  and\n    /* \"#utility.yul\":6569:6606   */\n  tag_116\n    /* \"#utility.yul\":6601:6605   */\n  dup7\n    /* \"#utility.yul\":6569:6606   */\n  tag_26\n  jump\t// in\ntag_116:\n    /* \"#utility.yul\":6628:6629   */\n  0x00\n    /* \"#utility.yul\":6642:6850   */\ntag_117:\n    /* \"#utility.yul\":6656:6663   */\n  dup3\n    /* \"#utility.yul\":6653:6654   */\n  dup2\n    /* \"#utility.yul\":6650:6664   */\n  lt\n    /* \"#utility.yul\":6642:6850   */\n  iszero\n  tag_119\n  jumpi\n    /* \"#utility.yul\":6735:6744   */\n  dup5\n    /* \"#utility.yul\":6730:6733   */\n  dup10\n    /* \"#utility.yul\":6726:6745   */\n  add\n    /* \"#utility.yul\":6720:6746   */\n  mload\n    /* \"#utility.yul\":6712:6718   */\n  dup3\n    /* \"#utility.yul\":6705:6747   */\n  sstore\n    /* \"#utility.yul\":6786:6787   */\n  0x01\n    /* \"#utility.yul\":6778:6784   */\n  dup3\n    /* \"#utility.yul\":6774:6788   */\n  add\n    /* \"#utility.yul\":6764:6788   */\n  swap2\n  pop\n    /* \"#utility.yul\":6833:6835   */\n  0x20\n    /* \"#utility.yul\":6822:6831   */\n  dup6\n    /* \"#utility.yul\":6818:6836   */\n  add\n    /* \"#utility.yul\":6805:6836   */\n  swap5\n  pop\n    /* \"#utility.yul\":6679:6683   */\n  0x20\n    /* \"#utility.yul\":6676:6677   */\n  dup2\n    /* \"#utility.yul\":6672:6684   */\n  add\n    /* \"#utility.yul\":6667:6684   */\n  swap1\n  pop\n    /* \"#utility.yul\":6642:6850   */\n  jump(tag_117)\ntag_119:\n    /* \"#utility.yul\":6878:6884   */\n  dup7\n    /* \"#utility.yul\":6869:6876   */\n  dup4\n    /* \"#utility.yul\":6866:6885   */\n  lt\n    /* \"#utility.yul\":6863:7042   */\n  iszero\n  tag_120\n  jumpi\n    /* \"#utility.yul\":6936:6945   */\n  dup5\n    /* \"#utility.yul\":6931:6934   */\n  dup10\n    /* \"#utility.yul\":6927:6946   */\n  add\n    /* \"#utility.yul\":6921:6947   */\n  mload\n    /* \"#utility.yul\":6979:7027   */\n  tag_121\n    /* \"#utility.yul\":7021:7025   */\n  0x1f\n    /* \"#utility.yul\":7013:7019   */\n  dup10\n    /* \"#utility.yul\":7009:7026   */\n  and\n    /* \"#utility.yul\":6998:7007   */\n  dup3\n    /* \"#utility.yul\":6979:7027   */\n  tag_39\n  jump\t// in\ntag_121:\n    /* \"#utility.yul\":6971:6977   */\n  dup4\n    /* \"#utility.yul\":6964:7028   */\n  sstore\n    /* \"#utility.yul\":6886:7042   */\n  pop\n    /* \"#utility.yul\":6863:7042   */\ntag_120:\n    /* \"#utility.yul\":7088:7089   */\n  0x01\n    /* \"#utility.yul\":7084:7085   */\n  0x02\n    /* \"#utility.yul\":7076:7082   */\n  dup9\n    /* \"#utility.yul\":7072:7086   */\n  mul\n    /* \"#utility.yul\":7068:7090   */\n  add\n    /* \"#utility.yul\":7062:7066   */\n  dup9\n    /* \"#utility.yul\":7055:7091   */\n  sstore\n    /* \"#utility.yul\":6490:7101   */\n  pop\n  pop\n  pop\n    /* \"#utility.yul\":6453:7340   */\ntag_112:\n  pop\n    /* \"#utility.yul\":6043:7346   */\n  pop\n  pop\n  pop\n    /* \"#utility.yul\":5951:7346   */\n  pop\n  pop\n  jump\t// out\n    /* \"BC/prac1.sol\":66:1615  contract Storage{... */\ntag_6:\n  dataSize(sub_0)\n  dup1\n  dataOffset(sub_0)\n  0x00\n  codecopy\n  0x00\n  return\nstop\n\nsub_0: assembly {\n        /* \"BC/prac1.sol\":66:1615  contract Storage{... */\n      mstore(0x40, 0x80)\n      callvalue\n      dup1\n      iszero\n      tag_1\n      jumpi\n      0x00\n      dup1\n      revert\n    tag_1:\n      pop\n      jumpi(tag_2, lt(calldatasize, 0x04))\n      shr(0xe0, calldataload(0x00))\n      dup1\n      0x04c07569\n      eq\n      tag_3\n      jumpi\n      dup1\n      0x8f07ae3f\n      eq\n      tag_4\n      jumpi\n      dup1\n      0xc7594183\n      eq\n      tag_5\n      jumpi\n    tag_2:\n      0x00\n      dup1\n      revert\n        /* \"BC/prac1.sol\":1309:1490  function getBlock(uint256 index) public view returns (Block memory) {... */\n    tag_3:\n      tag_6\n      0x04\n      dup1\n      calldatasize\n      sub\n      dup2\n      add\n      swap1\n      tag_7\n      swap2\n      swap1\n      tag_8\n      jump\t// in\n    tag_7:\n      tag_9\n      jump\t// in\n    tag_6:\n      mload(0x40)\n      tag_10\n      swap2\n      swap1\n      tag_11\n      jump\t// in\n    tag_10:\n      mload(0x40)\n      dup1\n      swap2\n      sub\n      swap1\n      return\n        /* \"BC/prac1.sol\":695:1302  function addblock(string memory data)public{... */\n    tag_4:\n      tag_12\n      0x04\n      dup1\n      calldatasize\n      sub\n      dup2\n      add\n      swap1\n      tag_13\n      swap2\n      swap1\n      tag_14\n      jump\t// in\n    tag_13:\n      tag_15\n      jump\t// in\n    tag_12:\n      stop\n        /* \"BC/prac1.sol\":1496:1612  function getlatestchain()public view returns(Block memory){... */\n    tag_5:\n      tag_16\n      tag_17\n      jump\t// in\n    tag_16:\n      mload(0x40)\n      tag_18\n      swap2\n      swap1\n      tag_11\n      jump\t// in\n    tag_18:\n      mload(0x40)\n      dup1\n      swap2\n      sub\n      swap1\n      return\n        /* \"BC/prac1.sol\":1309:1490  function getBlock(uint256 index) public view returns (Block memory) {... */\n    tag_9:\n        /* \"BC/prac1.sol\":1363:1375  Block memory */\n      tag_19\n      tag_20\n      jump\t// in\n    tag_19:\n        /* \"BC/prac1.sol\":1404:1414  blockchain */\n      0x00\n        /* \"BC/prac1.sol\":1404:1421  blockchain.length */\n      dup1\n      sload\n      swap1\n      pop\n        /* \"BC/prac1.sol\":1396:1401  index */\n      dup3\n        /* \"BC/prac1.sol\":1396:1421  index < blockchain.length */\n      lt\n        /* \"BC/prac1.sol\":1388:1447  require(index < blockchain.length, \"Block does not exist.\") */\n      tag_22\n      jumpi\n      mload(0x40)\n      0x08c379a000000000000000000000000000000000000000000000000000000000\n      dup2\n      mstore\n      0x04\n      add\n      tag_23\n      swap1\n      tag_24\n      jump\t// in\n    tag_23:\n      mload(0x40)\n      dup1\n      swap2\n      sub\n      swap1\n      revert\n    tag_22:\n        /* \"BC/prac1.sol\":1465:1475  blockchain */\n      0x00\n        /* \"BC/prac1.sol\":1476:1481  index */\n      dup3\n        /* \"BC/prac1.sol\":1465:1482  blockchain[index] */\n      dup2\n      sload\n      dup2\n      lt\n      tag_25\n      jumpi\n      tag_26\n      tag_27\n      jump\t// in\n    tag_26:\n    tag_25:\n      swap1\n      0x00\n      mstore\n      keccak256(0x00, 0x20)\n      swap1\n      0x05\n      mul\n      add\n        /* \"BC/prac1.sol\":1458:1482  return blockchain[index] */\n      mload(0x40)\n      dup1\n      0xa0\n      add\n      0x40\n      mstore\n      swap1\n      dup2\n      0x00\n      dup3\n      add\n      sload\n      dup2\n      mstore\n      0x20\n      add\n      0x01\n      dup3\n      add\n      sload\n      dup2\n      mstore\n      0x20\n      add\n      0x02\n      dup3\n      add\n      dup1\n      sload\n      tag_29\n      swap1\n      tag_30\n      jump\t// in\n    tag_29:\n      dup1\n      0x1f\n      add\n      0x20\n      dup1\n      swap2\n      div\n      mul\n      0x20\n      add\n      mload(0x40)\n      swap1\n      dup2\n      add\n      0x40\n      mstore\n      dup1\n      swap3\n      swap2\n      swap1\n      dup2\n      dup2\n      mstore\n      0x20\n      add\n      dup3\n      dup1\n      sload\n      tag_31\n      swap1\n      tag_30\n      jump\t// in\n    tag_31:\n      dup1\n      iszero\n      tag_32\n      jumpi\n      dup1\n      0x1f\n      lt\n      tag_33\n      jumpi\n      0x0100\n      dup1\n      dup4\n      sload\n      div\n      mul\n      dup4\n      mstore\n      swap2\n      0x20\n      add\n      swap2\n      jump(tag_32)\n    tag_33:\n      dup3\n      add\n      swap2\n      swap1\n      0x00\n      mstore\n      keccak256(0x00, 0x20)\n      swap1\n    tag_34:\n      dup2\n      sload\n      dup2\n      mstore\n      swap1\n      0x01\n      add\n      swap1\n      0x20\n      add\n      dup1\n      dup4\n      gt\n      tag_34\n      jumpi\n      dup3\n      swap1\n      sub\n      0x1f\n      and\n      dup3\n      add\n      swap2\n    tag_32:\n      pop\n      pop\n      pop\n      pop\n      pop\n      dup2\n      mstore\n      0x20\n      add\n      0x03\n      dup3\n      add\n      sload\n      dup2\n      mstore\n      0x20\n      add\n      0x04\n      dup3\n      add\n      sload\n      dup2\n      mstore\n      pop\n      pop\n      swap1\n      pop\n        /* \"BC/prac1.sol\":1309:1490  function getBlock(uint256 index) public view returns (Block memory) {... */\n      swap2\n      swap1\n      pop\n      jump\t// out\n        /* \"BC/prac1.sol\":695:1302  function addblock(string memory data)public{... */\n    tag_15:\n        /* \"BC/prac1.sol\":749:770  Block memory previous */\n      0x00\n        /* \"BC/prac1.sol\":773:783  blockchain */\n      dup1\n        /* \"BC/prac1.sol\":804:805  1 */\n      0x01\n        /* \"BC/prac1.sol\":784:794  blockchain */\n      0x00\n        /* \"BC/prac1.sol\":784:801  blockchain.length */\n      dup1\n      sload\n      swap1\n      pop\n        /* \"BC/prac1.sol\":784:805  blockchain.length - 1 */\n      tag_36\n      swap2\n      swap1\n      tag_37\n      jump\t// in\n    tag_36:\n        /* \"BC/prac1.sol\":773:806  blockchain[blockchain.length - 1] */\n      dup2\n      sload\n      dup2\n      lt\n      tag_38\n      jumpi\n      tag_39\n      tag_27\n      jump\t// in\n    tag_39:\n    tag_38:\n      swap1\n      0x00\n      mstore\n      keccak256(0x00, 0x20)\n      swap1\n      0x05\n      mul\n      add\n        /* \"BC/prac1.sol\":749:806  Block memory previous = blockchain[blockchain.length - 1] */\n      mload(0x40)\n      dup1\n      0xa0\n      add\n      0x40\n      mstore\n      swap1\n      dup2\n      0x00\n      dup3\n      add\n      sload\n      dup2\n      mstore\n      0x20\n      add\n      0x01\n      dup3\n      add\n      sload\n      dup2\n      mstore\n      0x20\n      add\n      0x02\n      dup3\n      add\n      dup1\n      sload\n      tag_41\n      swap1\n      tag_30\n      jump\t// in\n    tag_41:\n      dup1\n      0x1f\n      add\n      0x20\n      dup1\n      swap2\n      div\n      mul\n      0x20\n      add\n      mload(0x40)\n      swap1\n      dup2\n      add\n      0x40\n      mstore\n      dup1\n      swap3\n      swap2\n      swap1\n      dup2\n      dup2\n      mstore\n      0x20\n      add\n      dup3\n      dup1\n      sload\n      tag_42\n      swap1\n      tag_30\n      jump\t// in\n    tag_42:\n      dup1\n      iszero\n      tag_43\n      jumpi\n      dup1\n      0x1f\n      lt\n      tag_44\n      jumpi\n      0x0100\n      dup1\n      dup4\n      sload\n      div\n      mul\n      dup4\n      mstore\n      swap2\n      0x20\n      add\n      swap2\n      jump(tag_43)\n    tag_44:\n      dup3\n      add\n      swap2\n      swap1\n      0x00\n      mstore\n      keccak256(0x00, 0x20)\n      swap1\n    tag_45:\n      dup2\n      sload\n      dup2\n      mstore\n      swap1\n      0x01\n      add\n      swap1\n      0x20\n      add\n      dup1\n      dup4\n      gt\n      tag_45\n      jumpi\n      dup3\n      swap1\n      sub\n      0x1f\n      and\n      dup3\n      add\n      swap2\n    tag_43:\n      pop\n      pop\n      pop\n      pop\n      pop\n      dup2\n      mstore\n      0x20\n      add\n      0x03\n      dup3\n      add\n      sload\n      dup2\n      mstore\n      0x20\n      add\n      0x04\n      dup3\n      add\n      sload\n      dup2\n      mstore\n      pop\n      pop\n      swap1\n      pop\n        /* \"BC/prac1.sol\":817:833  uint256 newindex */\n      0x00\n        /* \"BC/prac1.sol\":853:854  1 */\n      0x01\n        /* \"BC/prac1.sol\":836:844  previous */\n      dup3\n        /* \"BC/prac1.sol\":836:850  previous.index */\n      0x00\n      add\n      mload\n        /* \"BC/prac1.sol\":836:854  previous.index + 1 */\n      tag_46\n      swap2\n      swap1\n      tag_47\n      jump\t// in\n    tag_46:\n        /* \"BC/prac1.sol\":817:854  uint256 newindex = previous.index + 1 */\n      swap1\n      pop\n        /* \"BC/prac1.sol\":865:885  uint256 newtimestamp */\n      0x00\n        /* \"BC/prac1.sol\":888:903  block.timestamp */\n      timestamp\n        /* \"BC/prac1.sol\":865:903  uint256 newtimestamp = block.timestamp */\n      swap1\n      pop\n        /* \"BC/prac1.sol\":914:929  bytes32 newprev */\n      0x00\n        /* \"BC/prac1.sol\":932:940  previous */\n      dup4\n        /* \"BC/prac1.sol\":932:952  previous.currenthash */\n      0x80\n      add\n      mload\n        /* \"BC/prac1.sol\":914:952  bytes32 newprev = previous.currenthash */\n      swap1\n      pop\n        /* \"BC/prac1.sol\":963:978  bytes32 newhash */\n      0x00\n        /* \"BC/prac1.sol\":1008:1016  newindex */\n      dup4\n        /* \"BC/prac1.sol\":1017:1029  newtimestamp */\n      dup4\n        /* \"BC/prac1.sol\":1030:1034  data */\n      dup8\n        /* \"BC/prac1.sol\":1035:1042  newprev */\n      dup5\n        /* \"BC/prac1.sol\":991:1043  abi.encodePacked(newindex,newtimestamp,data,newprev) */\n      add(0x20, mload(0x40))\n      tag_48\n      swap5\n      swap4\n      swap3\n      swap2\n      swap1\n      tag_49\n      jump\t// in\n    tag_48:\n      mload(0x40)\n      0x20\n      dup2\n      dup4\n      sub\n      sub\n      dup2\n      mstore\n      swap1\n      0x40\n      mstore\n        /* \"BC/prac1.sol\":981:1044  keccak256(abi.encodePacked(newindex,newtimestamp,data,newprev)) */\n      dup1\n      mload\n      swap1\n      0x20\n      add\n      keccak256\n        /* \"BC/prac1.sol\":963:1044  bytes32 newhash = keccak256(abi.encodePacked(newindex,newtimestamp,data,newprev)) */\n      swap1\n      pop\n        /* \"BC/prac1.sol\":1055:1074  Block memory newgen */\n      0x00\n        /* \"BC/prac1.sol\":1077:1258  Block({... */\n      mload(0x40)\n      dup1\n      0xa0\n      add\n      0x40\n      mstore\n      dup1\n        /* \"BC/prac1.sol\":1106:1114  newindex */\n      dup7\n        /* \"BC/prac1.sol\":1077:1258  Block({... */\n      dup2\n      mstore\n      0x20\n      add\n        /* \"BC/prac1.sol\":1140:1152  newtimestamp */\n      dup6\n        /* \"BC/prac1.sol\":1077:1258  Block({... */\n      dup2\n      mstore\n      0x20\n      add\n        /* \"BC/prac1.sol\":1172:1176  data */\n      dup9\n        /* \"BC/prac1.sol\":1077:1258  Block({... */\n      dup2\n      mstore\n      0x20\n      add\n        /* \"BC/prac1.sol\":1204:1211  newprev */\n      dup5\n        /* \"BC/prac1.sol\":1077:1258  Block({... */\n      dup2\n      mstore\n      0x20\n      add\n        /* \"BC/prac1.sol\":1239:1246  newhash */\n      dup4\n        /* \"BC/prac1.sol\":1077:1258  Block({... */\n      dup2\n      mstore\n      pop\n        /* \"BC/prac1.sol\":1055:1258  Block memory newgen = Block({... */\n      swap1\n      pop\n        /* \"BC/prac1.sol\":1269:1279  blockchain */\n      0x00\n        /* \"BC/prac1.sol\":1285:1291  newgen */\n      dup2\n        /* \"BC/prac1.sol\":1269:1292  blockchain.push(newgen) */\n      swap1\n      dup1\n      0x01\n      dup2\n      sload\n      add\n      dup1\n      dup3\n      sstore\n      dup1\n      swap2\n      pop\n      pop\n      0x01\n      swap1\n      sub\n      swap1\n      0x00\n      mstore\n      keccak256(0x00, 0x20)\n      swap1\n      0x05\n      mul\n      add\n      0x00\n      swap1\n      swap2\n      swap1\n      swap2\n      swap1\n      swap2\n      pop\n      0x00\n      dup3\n      add\n      mload\n      dup2\n      0x00\n      add\n      sstore\n      0x20\n      dup3\n      add\n      mload\n      dup2\n      0x01\n      add\n      sstore\n      0x40\n      dup3\n      add\n      mload\n      dup2\n      0x02\n      add\n      swap1\n      dup2\n      tag_51\n      swap2\n      swap1\n      tag_52\n      jump\t// in\n    tag_51:\n      pop\n      0x60\n      dup3\n      add\n      mload\n      dup2\n      0x03\n      add\n      sstore\n      0x80\n      dup3\n      add\n      mload\n      dup2\n      0x04\n      add\n      sstore\n      pop\n      pop\n        /* \"BC/prac1.sol\":738:1302  {... */\n      pop\n      pop\n      pop\n      pop\n      pop\n      pop\n        /* \"BC/prac1.sol\":695:1302  function addblock(string memory data)public{... */\n      pop\n      jump\t// out\n        /* \"BC/prac1.sol\":1496:1612  function getlatestchain()public view returns(Block memory){... */\n    tag_17:\n        /* \"BC/prac1.sol\":1541:1553  Block memory */\n      tag_53\n      tag_20\n      jump\t// in\n    tag_53:\n        /* \"BC/prac1.sol\":1572:1582  blockchain */\n      0x00\n        /* \"BC/prac1.sol\":1602:1603  1 */\n      0x01\n        /* \"BC/prac1.sol\":1583:1593  blockchain */\n      0x00\n        /* \"BC/prac1.sol\":1583:1600  blockchain.length */\n      dup1\n      sload\n      swap1\n      pop\n        /* \"BC/prac1.sol\":1583:1603  blockchain.length -1 */\n      tag_55\n      swap2\n      swap1\n      tag_37\n      jump\t// in\n    tag_55:\n        /* \"BC/prac1.sol\":1572:1604  blockchain[blockchain.length -1] */\n      dup2\n      sload\n      dup2\n      lt\n      tag_56\n      jumpi\n      tag_57\n      tag_27\n      jump\t// in\n    tag_57:\n    tag_56:\n      swap1\n      0x00\n      mstore\n      keccak256(0x00, 0x20)\n      swap1\n      0x05\n      mul\n      add\n        /* \"BC/prac1.sol\":1565:1604  return blockchain[blockchain.length -1] */\n      mload(0x40)\n      dup1\n      0xa0\n      add\n      0x40\n      mstore\n      swap1\n      dup2\n      0x00\n      dup3\n      add\n      sload\n      dup2\n      mstore\n      0x20\n      add\n      0x01\n      dup3\n      add\n      sload\n      dup2\n      mstore\n      0x20\n      add\n      0x02\n      dup3\n      add\n      dup1\n      sload\n      tag_59\n      swap1\n      tag_30\n      jump\t// in\n    tag_59:\n      dup1\n      0x1f\n      add\n      0x20\n      dup1\n      swap2\n      div\n      mul\n      0x20\n      add\n      mload(0x40)\n      swap1\n      dup2\n      add\n      0x40\n      mstore\n      dup1\n      swap3\n      swap2\n      swap1\n      dup2\n      dup2\n      mstore\n      0x20\n      add\n      dup3\n      dup1\n      sload\n      tag_60\n      swap1\n      tag_30\n      jump\t// in\n    tag_60:\n      dup1\n      iszero\n      tag_61\n      jumpi\n      dup1\n      0x1f\n      lt\n      tag_62\n      jumpi\n      0x0100\n      dup1\n      dup4\n      sload\n      div\n      mul\n      dup4\n      mstore\n      swap2\n      0x20\n      add\n      swap2\n      jump(tag_61)\n    tag_62:\n      dup3\n      add\n      swap2\n      swap1\n      0x00\n      mstore\n      keccak256(0x00, 0x20)\n      swap1\n    tag_63:\n      dup2\n      sload\n      dup2\n      mstore\n      swap1\n      0x01\n      add\n      swap1\n      0x20\n      add\n      dup1\n      dup4\n      gt\n      tag_63\n      jumpi\n      dup3\n      swap1\n      sub\n      0x1f\n      and\n      dup3\n      add\n      swap2\n    tag_61:\n      pop\n      pop\n      pop\n      pop\n      pop\n      dup2\n      mstore\n      0x20\n      add\n      0x03\n      dup3\n      add\n      sload\n      dup2\n      mstore\n      0x20\n      add\n      0x04\n      dup3\n      add\n      sload\n      dup2\n      mstore\n      pop\n      pop\n      swap1\n      pop\n        /* \"BC/prac1.sol\":1496:1612  function getlatestchain()public view returns(Block memory){... */\n      swap1\n      jump\t// out\n    tag_20:\n      mload(0x40)\n      dup1\n      0xa0\n      add\n      0x40\n      mstore\n      dup1\n      0x00\n      dup2\n      mstore\n      0x20\n      add\n      0x00\n      dup2\n      mstore\n      0x20\n      add\n      0x60\n      dup2\n      mstore\n      0x20\n      add\n      0x00\n      dup1\n      not\n      and\n      dup2\n      mstore\n      0x20\n      add\n      0x00\n      dup1\n      not\n      and\n      dup2\n      mstore\n      pop\n      swap1\n      jump\t// out\n        /* \"#utility.yul\":7:82   */\n    tag_64:\n        /* \"#utility.yul\":40:46   */\n      0x00\n        /* \"#utility.yul\":73:75   */\n      0x40\n        /* \"#utility.yul\":67:76   */\n      mload\n        /* \"#utility.yul\":57:76   */\n      swap1\n      pop\n        /* \"#utility.yul\":7:82   */\n      swap1\n      jump\t// out\n        /* \"#utility.yul\":88:205   */\n    tag_65:\n        /* \"#utility.yul\":197:198   */\n      0x00\n        /* \"#utility.yul\":194:195   */\n      dup1\n        /* \"#utility.yul\":187:199   */\n      revert\n        /* \"#utility.yul\":211:328   */\n    tag_66:\n        /* \"#utility.yul\":320:321   */\n      0x00\n        /* \"#utility.yul\":317:318   */\n      dup1\n        /* \"#utility.yul\":310:322   */\n      revert\n        /* \"#utility.yul\":334:411   */\n    tag_67:\n        /* \"#utility.yul\":371:378   */\n      0x00\n        /* \"#utility.yul\":400:405   */\n      dup2\n        /* \"#utility.yul\":389:405   */\n      swap1\n      pop\n        /* \"#utility.yul\":334:411   */\n      swap2\n      swap1\n      pop\n      jump\t// out\n        /* \"#utility.yul\":417:539   */\n    tag_68:\n        /* \"#utility.yul\":490:514   */\n      tag_120\n        /* \"#utility.yul\":508:513   */\n      dup2\n        /* \"#utility.yul\":490:514   */\n      tag_67\n      jump\t// in\n    tag_120:\n        /* \"#utility.yul\":483:488   */\n      dup2\n        /* \"#utility.yul\":480:515   */\n      eq\n        /* \"#utility.yul\":470:533   */\n      tag_121\n      jumpi\n        /* \"#utility.yul\":529:530   */\n      0x00\n        /* \"#utility.yul\":526:527   */\n      dup1\n        /* \"#utility.yul\":519:531   */\n      revert\n        /* \"#utility.yul\":470:533   */\n    tag_121:\n        /* \"#utility.yul\":417:539   */\n      pop\n      jump\t// out\n        /* \"#utility.yul\":545:684   */\n    tag_69:\n        /* \"#utility.yul\":591:596   */\n      0x00\n        /* \"#utility.yul\":629:635   */\n      dup2\n        /* \"#utility.yul\":616:636   */\n      calldataload\n        /* \"#utility.yul\":607:636   */\n      swap1\n      pop\n        /* \"#utility.yul\":645:678   */\n      tag_123\n        /* \"#utility.yul\":672:677   */\n      dup2\n        /* \"#utility.yul\":645:678   */\n      tag_68\n      jump\t// in\n    tag_123:\n        /* \"#utility.yul\":545:684   */\n      swap3\n      swap2\n      pop\n      pop\n      jump\t// out\n        /* \"#utility.yul\":690:1019   */\n    tag_8:\n        /* \"#utility.yul\":749:755   */\n      0x00\n        /* \"#utility.yul\":798:800   */\n      0x20\n        /* \"#utility.yul\":786:795   */\n      dup3\n        /* \"#utility.yul\":777:784   */\n      dup5\n        /* \"#utility.yul\":773:796   */\n      sub\n        /* \"#utility.yul\":769:801   */\n      slt\n        /* \"#utility.yul\":766:885   */\n      iszero\n      tag_125\n      jumpi\n        /* \"#utility.yul\":804:883   */\n      tag_126\n      tag_65\n      jump\t// in\n    tag_126:\n        /* \"#utility.yul\":766:885   */\n    tag_125:\n        /* \"#utility.yul\":924:925   */\n      0x00\n        /* \"#utility.yul\":949:1002   */\n      tag_127\n        /* \"#utility.yul\":994:1001   */\n      dup5\n        /* \"#utility.yul\":985:991   */\n      dup3\n        /* \"#utility.yul\":974:983   */\n      dup6\n        /* \"#utility.yul\":970:992   */\n      add\n        /* \"#utility.yul\":949:1002   */\n      tag_69\n      jump\t// in\n    tag_127:\n        /* \"#utility.yul\":939:1002   */\n      swap2\n      pop\n        /* \"#utility.yul\":895:1012   */\n      pop\n        /* \"#utility.yul\":690:1019   */\n      swap3\n      swap2\n      pop\n      pop\n      jump\t// out\n        /* \"#utility.yul\":1025:1133   */\n    tag_70:\n        /* \"#utility.yul\":1102:1126   */\n      tag_129\n        /* \"#utility.yul\":1120:1125   */\n      dup2\n        /* \"#utility.yul\":1102:1126   */\n      tag_67\n      jump\t// in\n    tag_129:\n        /* \"#utility.yul\":1097:1100   */\n      dup3\n        /* \"#utility.yul\":1090:1127   */\n      mstore\n        /* \"#utility.yul\":1025:1133   */\n      pop\n      pop\n      jump\t// out\n        /* \"#utility.yul\":1139:1238   */\n    tag_71:\n        /* \"#utility.yul\":1191:1197   */\n      0x00\n        /* \"#utility.yul\":1225:1230   */\n      dup2\n        /* \"#utility.yul\":1219:1231   */\n      mload\n        /* \"#utility.yul\":1209:1231   */\n      swap1\n      pop\n        /* \"#utility.yul\":1139:1238   */\n      swap2\n      swap1\n      pop\n      jump\t// out\n        /* \"#utility.yul\":1244:1403   */\n    tag_72:\n        /* \"#utility.yul\":1318:1329   */\n      0x00\n        /* \"#utility.yul\":1352:1358   */\n      dup3\n        /* \"#utility.yul\":1347:1350   */\n      dup3\n        /* \"#utility.yul\":1340:1359   */\n      mstore\n        /* \"#utility.yul\":1392:1396   */\n      0x20\n        /* \"#utility.yul\":1387:1390   */\n      dup3\n        /* \"#utility.yul\":1383:1397   */\n      add\n        /* \"#utility.yul\":1368:1397   */\n      swap1\n      pop\n        /* \"#utility.yul\":1244:1403   */\n      swap3\n      swap2\n      pop\n      pop\n      jump\t// out\n        /* \"#utility.yul\":1409:1548   */\n    tag_73:\n        /* \"#utility.yul\":1498:1504   */\n      dup3\n        /* \"#utility.yul\":1493:1496   */\n      dup2\n        /* \"#utility.yul\":1488:1491   */\n      dup4\n        /* \"#utility.yul\":1482:1505   */\n      mcopy\n        /* \"#utility.yul\":1539:1540   */\n      0x00\n        /* \"#utility.yul\":1530:1536   */\n      dup4\n        /* \"#utility.yul\":1525:1528   */\n      dup4\n        /* \"#utility.yul\":1521:1537   */\n      add\n        /* \"#utility.yul\":1514:1541   */\n      mstore\n        /* \"#utility.yul\":1409:1548   */\n      pop\n      pop\n      pop\n      jump\t// out\n        /* \"#utility.yul\":1554:1656   */\n    tag_74:\n        /* \"#utility.yul\":1595:1601   */\n      0x00\n        /* \"#utility.yul\":1646:1648   */\n      0x1f\n        /* \"#utility.yul\":1642:1649   */\n      not\n        /* \"#utility.yul\":1637:1639   */\n      0x1f\n        /* \"#utility.yul\":1630:1635   */\n      dup4\n        /* \"#utility.yul\":1626:1640   */\n      add\n        /* \"#utility.yul\":1622:1650   */\n      and\n        /* \"#utility.yul\":1612:1650   */\n      swap1\n      pop\n        /* \"#utility.yul\":1554:1656   */\n      swap2\n      swap1\n      pop\n      jump\t// out\n        /* \"#utility.yul\":1662:2019   */\n    tag_75:\n        /* \"#utility.yul\":1740:1743   */\n      0x00\n        /* \"#utility.yul\":1768:1807   */\n      tag_135\n        /* \"#utility.yul\":1801:1806   */\n      dup3\n        /* \"#utility.yul\":1768:1807   */\n      tag_71\n      jump\t// in\n    tag_135:\n        /* \"#utility.yul\":1823:1884   */\n      tag_136\n        /* \"#utility.yul\":1877:1883   */\n      dup2\n        /* \"#utility.yul\":1872:1875   */\n      dup6\n        /* \"#utility.yul\":1823:1884   */\n      tag_72\n      jump\t// in\n    tag_136:\n        /* \"#utility.yul\":1816:1884   */\n      swap4\n      pop\n        /* \"#utility.yul\":1893:1958   */\n      tag_137\n        /* \"#utility.yul\":1951:1957   */\n      dup2\n        /* \"#utility.yul\":1946:1949   */\n      dup6\n        /* \"#utility.yul\":1939:1943   */\n      0x20\n        /* \"#utility.yul\":1932:1937   */\n      dup7\n        /* \"#utility.yul\":1928:1944   */\n      add\n        /* \"#utility.yul\":1893:1958   */\n      tag_73\n      jump\t// in\n    tag_137:\n        /* \"#utility.yul\":1983:2012   */\n      tag_138\n        /* \"#utility.yul\":2005:2011   */\n      dup2\n        /* \"#utility.yul\":1983:2012   */\n      tag_74\n      jump\t// in\n    tag_138:\n        /* \"#utility.yul\":1978:1981   */\n      dup5\n        /* \"#utility.yul\":1974:2013   */\n      add\n        /* \"#utility.yul\":1967:2013   */\n      swap2\n      pop\n        /* \"#utility.yul\":1744:2019   */\n      pop\n        /* \"#utility.yul\":1662:2019   */\n      swap3\n      swap2\n      pop\n      pop\n      jump\t// out\n        /* \"#utility.yul\":2025:2102   */\n    tag_76:\n        /* \"#utility.yul\":2062:2069   */\n      0x00\n        /* \"#utility.yul\":2091:2096   */\n      dup2\n        /* \"#utility.yul\":2080:2096   */\n      swap1\n      pop\n        /* \"#utility.yul\":2025:2102   */\n      swap2\n      swap1\n      pop\n      jump\t// out\n        /* \"#utility.yul\":2108:2216   */\n    tag_77:\n        /* \"#utility.yul\":2185:2209   */\n      tag_141\n        /* \"#utility.yul\":2203:2208   */\n      dup2\n        /* \"#utility.yul\":2185:2209   */\n      tag_76\n      jump\t// in\n    tag_141:\n        /* \"#utility.yul\":2180:2183   */\n      dup3\n        /* \"#utility.yul\":2173:2210   */\n      mstore\n        /* \"#utility.yul\":2108:2216   */\n      pop\n      pop\n      jump\t// out\n        /* \"#utility.yul\":2274:3414   */\n    tag_78:\n        /* \"#utility.yul\":2385:2388   */\n      0x00\n        /* \"#utility.yul\":2421:2425   */\n      0xa0\n        /* \"#utility.yul\":2416:2419   */\n      dup4\n        /* \"#utility.yul\":2412:2426   */\n      add\n        /* \"#utility.yul\":2509:2513   */\n      0x00\n        /* \"#utility.yul\":2502:2507   */\n      dup4\n        /* \"#utility.yul\":2498:2514   */\n      add\n        /* \"#utility.yul\":2492:2515   */\n      mload\n        /* \"#utility.yul\":2528:2591   */\n      tag_143\n        /* \"#utility.yul\":2585:2589   */\n      0x00\n        /* \"#utility.yul\":2580:2583   */\n      dup7\n        /* \"#utility.yul\":2576:2590   */\n      add\n        /* \"#utility.yul\":2562:2574   */\n      dup3\n        /* \"#utility.yul\":2528:2591   */\n      tag_70\n      jump\t// in\n    tag_143:\n        /* \"#utility.yul\":2436:2601   */\n      pop\n        /* \"#utility.yul\":2688:2692   */\n      0x20\n        /* \"#utility.yul\":2681:2686   */\n      dup4\n        /* \"#utility.yul\":2677:2693   */\n      add\n        /* \"#utility.yul\":2671:2694   */\n      mload\n        /* \"#utility.yul\":2707:2770   */\n      tag_144\n        /* \"#utility.yul\":2764:2768   */\n      0x20\n        /* \"#utility.yul\":2759:2762   */\n      dup7\n        /* \"#utility.yul\":2755:2769   */\n      add\n        /* \"#utility.yul\":2741:2753   */\n      dup3\n        /* \"#utility.yul\":2707:2770   */\n      tag_70\n      jump\t// in\n    tag_144:\n        /* \"#utility.yul\":2611:2780   */\n      pop\n        /* \"#utility.yul\":2862:2866   */\n      0x40\n        /* \"#utility.yul\":2855:2860   */\n      dup4\n        /* \"#utility.yul\":2851:2867   */\n      add\n        /* \"#utility.yul\":2845:2868   */\n      mload\n        /* \"#utility.yul\":2915:2918   */\n      dup5\n        /* \"#utility.yul\":2909:2913   */\n      dup3\n        /* \"#utility.yul\":2905:2919   */\n      sub\n        /* \"#utility.yul\":2898:2902   */\n      0x40\n        /* \"#utility.yul\":2893:2896   */\n      dup7\n        /* \"#utility.yul\":2889:2903   */\n      add\n        /* \"#utility.yul\":2882:2920   */\n      mstore\n        /* \"#utility.yul\":2941:3014   */\n      tag_145\n        /* \"#utility.yul\":3009:3013   */\n      dup3\n        /* \"#utility.yul\":2995:3007   */\n      dup3\n        /* \"#utility.yul\":2941:3014   */\n      tag_75\n      jump\t// in\n    tag_145:\n        /* \"#utility.yul\":2933:3014   */\n      swap2\n      pop\n        /* \"#utility.yul\":2790:3025   */\n      pop\n        /* \"#utility.yul\":3114:3118   */\n      0x60\n        /* \"#utility.yul\":3107:3112   */\n      dup4\n        /* \"#utility.yul\":3103:3119   */\n      add\n        /* \"#utility.yul\":3097:3120   */\n      mload\n        /* \"#utility.yul\":3133:3196   */\n      tag_146\n        /* \"#utility.yul\":3190:3194   */\n      0x60\n        /* \"#utility.yul\":3185:3188   */\n      dup7\n        /* \"#utility.yul\":3181:3195   */\n      add\n        /* \"#utility.yul\":3167:3179   */\n      dup3\n        /* \"#utility.yul\":3133:3196   */\n      tag_77\n      jump\t// in\n    tag_146:\n        /* \"#utility.yul\":3035:3206   */\n      pop\n        /* \"#utility.yul\":3295:3299   */\n      0x80\n        /* \"#utility.yul\":3288:3293   */\n      dup4\n        /* \"#utility.yul\":3284:3300   */\n      add\n        /* \"#utility.yul\":3278:3301   */\n      mload\n        /* \"#utility.yul\":3314:3377   */\n      tag_147\n        /* \"#utility.yul\":3371:3375   */\n      0x80\n        /* \"#utility.yul\":3366:3369   */\n      dup7\n        /* \"#utility.yul\":3362:3376   */\n      add\n        /* \"#utility.yul\":3348:3360   */\n      dup3\n        /* \"#utility.yul\":3314:3377   */\n      tag_77\n      jump\t// in\n    tag_147:\n        /* \"#utility.yul\":3216:3387   */\n      pop\n        /* \"#utility.yul\":3404:3408   */\n      dup1\n        /* \"#utility.yul\":3397:3408   */\n      swap2\n      pop\n        /* \"#utility.yul\":2390:3414   */\n      pop\n        /* \"#utility.yul\":2274:3414   */\n      swap3\n      swap2\n      pop\n      pop\n      jump\t// out\n        /* \"#utility.yul\":3420:3777   */\n    tag_11:\n        /* \"#utility.yul\":3555:3559   */\n      0x00\n        /* \"#utility.yul\":3593:3595   */\n      0x20\n        /* \"#utility.yul\":3582:3591   */\n      dup3\n        /* \"#utility.yul\":3578:3596   */\n      add\n        /* \"#utility.yul\":3570:3596   */\n      swap1\n      pop\n        /* \"#utility.yul\":3642:3651   */\n      dup2\n        /* \"#utility.yul\":3636:3640   */\n      dup2\n        /* \"#utility.yul\":3632:3652   */\n      sub\n        /* \"#utility.yul\":3628:3629   */\n      0x00\n        /* \"#utility.yul\":3617:3626   */\n      dup4\n        /* \"#utility.yul\":3613:3630   */\n      add\n        /* \"#utility.yul\":3606:3653   */\n      mstore\n        /* \"#utility.yul\":3670:3770   */\n      tag_149\n        /* \"#utility.yul\":3765:3769   */\n      dup2\n        /* \"#utility.yul\":3756:3762   */\n      dup5\n        /* \"#utility.yul\":3670:3770   */\n      tag_78\n      jump\t// in\n    tag_149:\n        /* \"#utility.yul\":3662:3770   */\n      swap1\n      pop\n        /* \"#utility.yul\":3420:3777   */\n      swap3\n      swap2\n      pop\n      pop\n      jump\t// out\n        /* \"#utility.yul\":3783:3900   */\n    tag_79:\n        /* \"#utility.yul\":3892:3893   */\n      0x00\n        /* \"#utility.yul\":3889:3890   */\n      dup1\n        /* \"#utility.yul\":3882:3894   */\n      revert\n        /* \"#utility.yul\":3906:4023   */\n    tag_80:\n        /* \"#utility.yul\":4015:4016   */\n      0x00\n        /* \"#utility.yul\":4012:4013   */\n      dup1\n        /* \"#utility.yul\":4005:4017   */\n      revert\n        /* \"#utility.yul\":4029:4209   */\n    tag_81:\n        /* \"#utility.yul\":4077:4154   */\n      0x4e487b7100000000000000000000000000000000000000000000000000000000\n        /* \"#utility.yul\":4074:4075   */\n      0x00\n        /* \"#utility.yul\":4067:4155   */\n      mstore\n        /* \"#utility.yul\":4174:4178   */\n      0x41\n        /* \"#utility.yul\":4171:4172   */\n      0x04\n        /* \"#utility.yul\":4164:4179   */\n      mstore\n        /* \"#utility.yul\":4198:4202   */\n      0x24\n        /* \"#utility.yul\":4195:4196   */\n      0x00\n        /* \"#utility.yul\":4188:4203   */\n      revert\n        /* \"#utility.yul\":4215:4496   */\n    tag_82:\n        /* \"#utility.yul\":4298:4325   */\n      tag_154\n        /* \"#utility.yul\":4320:4324   */\n      dup3\n        /* \"#utility.yul\":4298:4325   */\n      tag_74\n      jump\t// in\n    tag_154:\n        /* \"#utility.yul\":4290:4296   */\n      dup2\n        /* \"#utility.yul\":4286:4326   */\n      add\n        /* \"#utility.yul\":4428:4434   */\n      dup2\n        /* \"#utility.yul\":4416:4426   */\n      dup2\n        /* \"#utility.yul\":4413:4435   */\n      lt\n        /* \"#utility.yul\":4392:4410   */\n      0xffffffffffffffff\n        /* \"#utility.yul\":4380:4390   */\n      dup3\n        /* \"#utility.yul\":4377:4411   */\n      gt\n        /* \"#utility.yul\":4374:4436   */\n      or\n        /* \"#utility.yul\":4371:4459   */\n      iszero\n      tag_155\n      jumpi\n        /* \"#utility.yul\":4439:4457   */\n      tag_156\n      tag_81\n      jump\t// in\n    tag_156:\n        /* \"#utility.yul\":4371:4459   */\n    tag_155:\n        /* \"#utility.yul\":4479:4489   */\n      dup1\n        /* \"#utility.yul\":4475:4477   */\n      0x40\n        /* \"#utility.yul\":4468:4490   */\n      mstore\n        /* \"#utility.yul\":4258:4496   */\n      pop\n        /* \"#utility.yul\":4215:4496   */\n      pop\n      pop\n      jump\t// out\n        /* \"#utility.yul\":4502:4631   */\n    tag_83:\n        /* \"#utility.yul\":4536:4542   */\n      0x00\n        /* \"#utility.yul\":4563:4583   */\n      tag_158\n      tag_64\n      jump\t// in\n    tag_158:\n        /* \"#utility.yul\":4553:4583   */\n      swap1\n      pop\n        /* \"#utility.yul\":4592:4625   */\n      tag_159\n        /* \"#utility.yul\":4620:4624   */\n      dup3\n        /* \"#utility.yul\":4612:4618   */\n      dup3\n        /* \"#utility.yul\":4592:4625   */\n      tag_82\n      jump\t// in\n    tag_159:\n        /* \"#utility.yul\":4502:4631   */\n      swap2\n      swap1\n      pop\n      jump\t// out\n        /* \"#utility.yul\":4637:4945   */\n    tag_84:\n        /* \"#utility.yul\":4699:4703   */\n      0x00\n        /* \"#utility.yul\":4789:4807   */\n      0xffffffffffffffff\n        /* \"#utility.yul\":4781:4787   */\n      dup3\n        /* \"#utility.yul\":4778:4808   */\n      gt\n        /* \"#utility.yul\":4775:4831   */\n      iszero\n      tag_161\n      jumpi\n        /* \"#utility.yul\":4811:4829   */\n      tag_162\n      tag_81\n      jump\t// in\n    tag_162:\n        /* \"#utility.yul\":4775:4831   */\n    tag_161:\n        /* \"#utility.yul\":4849:4878   */\n      tag_163\n        /* \"#utility.yul\":4871:4877   */\n      dup3\n        /* \"#utility.yul\":4849:4878   */\n      tag_74\n      jump\t// in\n    tag_163:\n        /* \"#utility.yul\":4841:4878   */\n      swap1\n      pop\n        /* \"#utility.yul\":4933:4937   */\n      0x20\n        /* \"#utility.yul\":4927:4931   */\n      dup2\n        /* \"#utility.yul\":4923:4938   */\n      add\n        /* \"#utility.yul\":4915:4938   */\n      swap1\n      pop\n        /* \"#utility.yul\":4637:4945   */\n      swap2\n      swap1\n      pop\n      jump\t// out\n        /* \"#utility.yul\":4951:5099   */\n    tag_85:\n        /* \"#utility.yul\":5049:5055   */\n      dup3\n        /* \"#utility.yul\":5044:5047   */\n      dup2\n        /* \"#utility.yul\":5039:5042   */\n      dup4\n        /* \"#utility.yul\":5026:5056   */\n      calldatacopy\n        /* \"#utility.yul\":5090:5091   */\n      0x00\n        /* \"#utility.yul\":5081:5087   */\n      dup4\n        /* \"#utility.yul\":5076:5079   */\n      dup4\n        /* \"#utility.yul\":5072:5088   */\n      add\n        /* \"#utility.yul\":5065:5092   */\n      mstore\n        /* \"#utility.yul\":4951:5099   */\n      pop\n      pop\n      pop\n      jump\t// out\n        /* \"#utility.yul\":5105:5530   */\n    tag_86:\n        /* \"#utility.yul\":5183:5188   */\n      0x00\n        /* \"#utility.yul\":5208:5274   */\n      tag_166\n        /* \"#utility.yul\":5224:5273   */\n      tag_167\n        /* \"#utility.yul\":5266:5272   */\n      dup5\n        /* \"#utility.yul\":5224:5273   */\n      tag_84\n      jump\t// in\n    tag_167:\n        /* \"#utility.yul\":5208:5274   */\n      tag_83\n      jump\t// in\n    tag_166:\n        /* \"#utility.yul\":5199:5274   */\n      swap1\n      pop\n        /* \"#utility.yul\":5297:5303   */\n      dup3\n        /* \"#utility.yul\":5290:5295   */\n      dup2\n        /* \"#utility.yul\":5283:5304   */\n      mstore\n        /* \"#utility.yul\":5335:5339   */\n      0x20\n        /* \"#utility.yul\":5328:5333   */\n      dup2\n        /* \"#utility.yul\":5324:5340   */\n      add\n        /* \"#utility.yul\":5373:5376   */\n      dup5\n        /* \"#utility.yul\":5364:5370   */\n      dup5\n        /* \"#utility.yul\":5359:5362   */\n      dup5\n        /* \"#utility.yul\":5355:5371   */\n      add\n        /* \"#utility.yul\":5352:5377   */\n      gt\n        /* \"#utility.yul\":5349:5461   */\n      iszero\n      tag_168\n      jumpi\n        /* \"#utility.yul\":5380:5459   */\n      tag_169\n      tag_80\n      jump\t// in\n    tag_169:\n        /* \"#utility.yul\":5349:5461   */\n    tag_168:\n        /* \"#utility.yul\":5470:5524   */\n      tag_170\n        /* \"#utility.yul\":5517:5523   */\n      dup5\n        /* \"#utility.yul\":5512:5515   */\n      dup3\n        /* \"#utility.yul\":5507:5510   */\n      dup6\n        /* \"#utility.yul\":5470:5524   */\n      tag_85\n      jump\t// in\n    tag_170:\n        /* \"#utility.yul\":5189:5530   */\n      pop\n        /* \"#utility.yul\":5105:5530   */\n      swap4\n      swap3\n      pop\n      pop\n      pop\n      jump\t// out\n        /* \"#utility.yul\":5550:5890   */\n    tag_87:\n        /* \"#utility.yul\":5606:5611   */\n      0x00\n        /* \"#utility.yul\":5655:5658   */\n      dup3\n        /* \"#utility.yul\":5648:5652   */\n      0x1f\n        /* \"#utility.yul\":5640:5646   */\n      dup4\n        /* \"#utility.yul\":5636:5653   */\n      add\n        /* \"#utility.yul\":5632:5659   */\n      slt\n        /* \"#utility.yul\":5622:5744   */\n      tag_172\n      jumpi\n        /* \"#utility.yul\":5663:5742   */\n      tag_173\n      tag_79\n      jump\t// in\n    tag_173:\n        /* \"#utility.yul\":5622:5744   */\n    tag_172:\n        /* \"#utility.yul\":5780:5786   */\n      dup2\n        /* \"#utility.yul\":5767:5787   */\n      calldataload\n        /* \"#utility.yul\":5805:5884   */\n      tag_174\n        /* \"#utility.yul\":5880:5883   */\n      dup5\n        /* \"#utility.yul\":5872:5878   */\n      dup3\n        /* \"#utility.yul\":5865:5869   */\n      0x20\n        /* \"#utility.yul\":5857:5863   */\n      dup7\n        /* \"#utility.yul\":5853:5870   */\n      add\n        /* \"#utility.yul\":5805:5884   */\n      tag_86\n      jump\t// in\n    tag_174:\n        /* \"#utility.yul\":5796:5884   */\n      swap2\n      pop\n        /* \"#utility.yul\":5612:5890   */\n      pop\n        /* \"#utility.yul\":5550:5890   */\n      swap3\n      swap2\n      pop\n      pop\n      jump\t// out\n        /* \"#utility.yul\":5896:6405   */\n    tag_14:\n        /* \"#utility.yul\":5965:5971   */\n      0x00\n        /* \"#utility.yul\":6014:6016   */\n      0x20\n        /* \"#utility.yul\":6002:6011   */\n      dup3\n        /* \"#utility.yul\":5993:6000   */\n      dup5\n        /* \"#utility.yul\":5989:6012   */\n      sub\n        /* \"#utility.yul\":5985:6017   */\n      slt\n        /* \"#utility.yul\":5982:6101   */\n      iszero\n      tag_176\n      jumpi\n        /* \"#utility.yul\":6020:6099   */\n      tag_177\n      tag_65\n      jump\t// in\n    tag_177:\n        /* \"#utility.yul\":5982:6101   */\n    tag_176:\n        /* \"#utility.yul\":6168:6169   */\n      0x00\n        /* \"#utility.yul\":6157:6166   */\n      dup3\n        /* \"#utility.yul\":6153:6170   */\n      add\n        /* \"#utility.yul\":6140:6171   */\n      calldataload\n        /* \"#utility.yul\":6198:6216   */\n      0xffffffffffffffff\n        /* \"#utility.yul\":6190:6196   */\n      dup2\n        /* \"#utility.yul\":6187:6217   */\n      gt\n        /* \"#utility.yul\":6184:6301   */\n      iszero\n      tag_178\n      jumpi\n        /* \"#utility.yul\":6220:6299   */\n      tag_179\n      tag_66\n      jump\t// in\n    tag_179:\n        /* \"#utility.yul\":6184:6301   */\n    tag_178:\n        /* \"#utility.yul\":6325:6388   */\n      tag_180\n        /* \"#utility.yul\":6380:6387   */\n      dup5\n        /* \"#utility.yul\":6371:6377   */\n      dup3\n        /* \"#utility.yul\":6360:6369   */\n      dup6\n        /* \"#utility.yul\":6356:6378   */\n      add\n        /* \"#utility.yul\":6325:6388   */\n      tag_87\n      jump\t// in\n    tag_180:\n        /* \"#utility.yul\":6315:6388   */\n      swap2\n      pop\n        /* \"#utility.yul\":6111:6398   */\n      pop\n        /* \"#utility.yul\":5896:6405   */\n      swap3\n      swap2\n      pop\n      pop\n      jump\t// out\n        /* \"#utility.yul\":6411:6580   */\n    tag_88:\n        /* \"#utility.yul\":6495:6506   */\n      0x00\n        /* \"#utility.yul\":6529:6535   */\n      dup3\n        /* \"#utility.yul\":6524:6527   */\n      dup3\n        /* \"#utility.yul\":6517:6536   */\n      mstore\n        /* \"#utility.yul\":6569:6573   */\n      0x20\n        /* \"#utility.yul\":6564:6567   */\n      dup3\n        /* \"#utility.yul\":6560:6574   */\n      add\n        /* \"#utility.yul\":6545:6574   */\n      swap1\n      pop\n        /* \"#utility.yul\":6411:6580   */\n      swap3\n      swap2\n      pop\n      pop\n      jump\t// out\n        /* \"#utility.yul\":6586:6757   */\n    tag_89:\n        /* \"#utility.yul\":6726:6749   */\n      0x426c6f636b20646f6573206e6f742065786973742e0000000000000000000000\n        /* \"#utility.yul\":6722:6723   */\n      0x00\n        /* \"#utility.yul\":6714:6720   */\n      dup3\n        /* \"#utility.yul\":6710:6724   */\n      add\n        /* \"#utility.yul\":6703:6750   */\n      mstore\n        /* \"#utility.yul\":6586:6757   */\n      pop\n      jump\t// out\n        /* \"#utility.yul\":6763:7129   */\n    tag_90:\n        /* \"#utility.yul\":6905:6908   */\n      0x00\n        /* \"#utility.yul\":6926:6993   */\n      tag_184\n        /* \"#utility.yul\":6990:6992   */\n      0x15\n        /* \"#utility.yul\":6985:6988   */\n      dup4\n        /* \"#utility.yul\":6926:6993   */\n      tag_88\n      jump\t// in\n    tag_184:\n        /* \"#utility.yul\":6919:6993   */\n      swap2\n      pop\n        /* \"#utility.yul\":7002:7095   */\n      tag_185\n        /* \"#utility.yul\":7091:7094   */\n      dup3\n        /* \"#utility.yul\":7002:7095   */\n      tag_89\n      jump\t// in\n    tag_185:\n        /* \"#utility.yul\":7120:7122   */\n      0x20\n        /* \"#utility.yul\":7115:7118   */\n      dup3\n        /* \"#utility.yul\":7111:7123   */\n      add\n        /* \"#utility.yul\":7104:7123   */\n      swap1\n      pop\n        /* \"#utility.yul\":6763:7129   */\n      swap2\n      swap1\n      pop\n      jump\t// out\n        /* \"#utility.yul\":7135:7554   */\n    tag_24:\n        /* \"#utility.yul\":7301:7305   */\n      0x00\n        /* \"#utility.yul\":7339:7341   */\n      0x20\n        /* \"#utility.yul\":7328:7337   */\n      dup3\n        /* \"#utility.yul\":7324:7342   */\n      add\n        /* \"#utility.yul\":7316:7342   */\n      swap1\n      pop\n        /* \"#utility.yul\":7388:7397   */\n      dup2\n        /* \"#utility.yul\":7382:7386   */\n      dup2\n        /* \"#utility.yul\":7378:7398   */\n      sub\n        /* \"#utility.yul\":7374:7375   */\n      0x00\n        /* \"#utility.yul\":7363:7372   */\n      dup4\n        /* \"#utility.yul\":7359:7376   */\n      add\n        /* \"#utility.yul\":7352:7399   */\n      mstore\n        /* \"#utility.yul\":7416:7547   */\n      tag_187\n        /* \"#utility.yul\":7542:7546   */\n      dup2\n        /* \"#utility.yul\":7416:7547   */\n      tag_90\n      jump\t// in\n    tag_187:\n        /* \"#utility.yul\":7408:7547   */\n      swap1\n      pop\n        /* \"#utility.yul\":7135:7554   */\n      swap2\n      swap1\n      pop\n      jump\t// out\n        /* \"#utility.yul\":7560:7740   */\n    tag_27:\n        /* \"#utility.yul\":7608:7685   */\n      0x4e487b7100000000000000000000000000000000000000000000000000000000\n        /* \"#utility.yul\":7605:7606   */\n      0x00\n        /* \"#utility.yul\":7598:7686   */\n      mstore\n        /* \"#utility.yul\":7705:7709   */\n      0x32\n        /* \"#utility.yul\":7702:7703   */\n      0x04\n        /* \"#utility.yul\":7695:7710   */\n      mstore\n        /* \"#utility.yul\":7729:7733   */\n      0x24\n        /* \"#utility.yul\":7726:7727   */\n      0x00\n        /* \"#utility.yul\":7719:7734   */\n      revert\n        /* \"#utility.yul\":7746:7926   */\n    tag_91:\n        /* \"#utility.yul\":7794:7871   */\n      0x4e487b7100000000000000000000000000000000000000000000000000000000\n        /* \"#utility.yul\":7791:7792   */\n      0x00\n        /* \"#utility.yul\":7784:7872   */\n      mstore\n        /* \"#utility.yul\":7891:7895   */\n      0x22\n        /* \"#utility.yul\":7888:7889   */\n      0x04\n        /* \"#utility.yul\":7881:7896   */\n      mstore\n        /* \"#utility.yul\":7915:7919   */\n      0x24\n        /* \"#utility.yul\":7912:7913   */\n      0x00\n        /* \"#utility.yul\":7905:7920   */\n      revert\n        /* \"#utility.yul\":7932:8252   */\n    tag_30:\n        /* \"#utility.yul\":7976:7982   */\n      0x00\n        /* \"#utility.yul\":8013:8014   */\n      0x02\n        /* \"#utility.yul\":8007:8011   */\n      dup3\n        /* \"#utility.yul\":8003:8015   */\n      div\n        /* \"#utility.yul\":7993:8015   */\n      swap1\n      pop\n        /* \"#utility.yul\":8060:8061   */\n      0x01\n        /* \"#utility.yul\":8054:8058   */\n      dup3\n        /* \"#utility.yul\":8050:8062   */\n      and\n        /* \"#utility.yul\":8081:8099   */\n      dup1\n        /* \"#utility.yul\":8071:8152   */\n      tag_191\n      jumpi\n        /* \"#utility.yul\":8137:8141   */\n      0x7f\n        /* \"#utility.yul\":8129:8135   */\n      dup3\n        /* \"#utility.yul\":8125:8142   */\n      and\n        /* \"#utility.yul\":8115:8142   */\n      swap2\n      pop\n        /* \"#utility.yul\":8071:8152   */\n    tag_191:\n        /* \"#utility.yul\":8199:8201   */\n      0x20\n        /* \"#utility.yul\":8191:8197   */\n      dup3\n        /* \"#utility.yul\":8188:8202   */\n      lt\n        /* \"#utility.yul\":8168:8186   */\n      dup2\n        /* \"#utility.yul\":8165:8203   */\n      sub\n        /* \"#utility.yul\":8162:8246   */\n      tag_192\n      jumpi\n        /* \"#utility.yul\":8218:8236   */\n      tag_193\n      tag_91\n      jump\t// in\n    tag_193:\n        /* \"#utility.yul\":8162:8246   */\n    tag_192:\n        /* \"#utility.yul\":7983:8252   */\n      pop\n        /* \"#utility.yul\":7932:8252   */\n      swap2\n      swap1\n      pop\n      jump\t// out\n        /* \"#utility.yul\":8258:8438   */\n    tag_92:\n        /* \"#utility.yul\":8306:8383   */\n      0x4e487b7100000000000000000000000000000000000000000000000000000000\n        /* \"#utility.yul\":8303:8304   */\n      0x00\n        /* \"#utility.yul\":8296:8384   */\n      mstore\n        /* \"#utility.yul\":8403:8407   */\n      0x11\n        /* \"#utility.yul\":8400:8401   */\n      0x04\n        /* \"#utility.yul\":8393:8408   */\n      mstore\n        /* \"#utility.yul\":8427:8431   */\n      0x24\n        /* \"#utility.yul\":8424:8425   */\n      0x00\n        /* \"#utility.yul\":8417:8432   */\n      revert\n        /* \"#utility.yul\":8444:8638   */\n    tag_37:\n        /* \"#utility.yul\":8484:8488   */\n      0x00\n        /* \"#utility.yul\":8504:8524   */\n      tag_196\n        /* \"#utility.yul\":8522:8523   */\n      dup3\n        /* \"#utility.yul\":8504:8524   */\n      tag_67\n      jump\t// in\n    tag_196:\n        /* \"#utility.yul\":8499:8524   */\n      swap2\n      pop\n        /* \"#utility.yul\":8538:8558   */\n      tag_197\n        /* \"#utility.yul\":8556:8557   */\n      dup4\n        /* \"#utility.yul\":8538:8558   */\n      tag_67\n      jump\t// in\n    tag_197:\n        /* \"#utility.yul\":8533:8558   */\n      swap3\n      pop\n        /* \"#utility.yul\":8582:8583   */\n      dup3\n        /* \"#utility.yul\":8579:8580   */\n      dup3\n        /* \"#utility.yul\":8575:8584   */\n      sub\n        /* \"#utility.yul\":8567:8584   */\n      swap1\n      pop\n        /* \"#utility.yul\":8606:8607   */\n      dup2\n        /* \"#utility.yul\":8600:8604   */\n      dup2\n        /* \"#utility.yul\":8597:8608   */\n      gt\n        /* \"#utility.yul\":8594:8631   */\n      iszero\n      tag_198\n      jumpi\n        /* \"#utility.yul\":8611:8629   */\n      tag_199\n      tag_92\n      jump\t// in\n    tag_199:\n        /* \"#utility.yul\":8594:8631   */\n    tag_198:\n        /* \"#utility.yul\":8444:8638   */\n      swap3\n      swap2\n      pop\n      pop\n      jump\t// out\n        /* \"#utility.yul\":8644:8835   */\n    tag_47:\n        /* \"#utility.yul\":8684:8687   */\n      0x00\n        /* \"#utility.yul\":8703:8723   */\n      tag_201\n        /* \"#utility.yul\":8721:8722   */\n      dup3\n        /* \"#utility.yul\":8703:8723   */\n      tag_67\n      jump\t// in\n    tag_201:\n        /* \"#utility.yul\":8698:8723   */\n      swap2\n      pop\n        /* \"#utility.yul\":8737:8757   */\n      tag_202\n        /* \"#utility.yul\":8755:8756   */\n      dup4\n        /* \"#utility.yul\":8737:8757   */\n      tag_67\n      jump\t// in\n    tag_202:\n        /* \"#utility.yul\":8732:8757   */\n      swap3\n      pop\n        /* \"#utility.yul\":8780:8781   */\n      dup3\n        /* \"#utility.yul\":8777:8778   */\n      dup3\n        /* \"#utility.yul\":8773:8782   */\n      add\n        /* \"#utility.yul\":8766:8782   */\n      swap1\n      pop\n        /* \"#utility.yul\":8801:8804   */\n      dup1\n        /* \"#utility.yul\":8798:8799   */\n      dup3\n        /* \"#utility.yul\":8795:8805   */\n      gt\n        /* \"#utility.yul\":8792:8828   */\n      iszero\n      tag_203\n      jumpi\n        /* \"#utility.yul\":8808:8826   */\n      tag_204\n      tag_92\n      jump\t// in\n    tag_204:\n        /* \"#utility.yul\":8792:8828   */\n    tag_203:\n        /* \"#utility.yul\":8644:8835   */\n      swap3\n      swap2\n      pop\n      pop\n      jump\t// out\n        /* \"#utility.yul\":8841:8920   */\n    tag_93:\n        /* \"#utility.yul\":8880:8887   */\n      0x00\n        /* \"#utility.yul\":8909:8914   */\n      dup2\n        /* \"#utility.yul\":8898:8914   */\n      swap1\n      pop\n        /* \"#utility.yul\":8841:8920   */\n      swap2\n      swap1\n      pop\n      jump\t// out\n        /* \"#utility.yul\":8926:9083   */\n    tag_94:\n        /* \"#utility.yul\":9031:9076   */\n      tag_207\n        /* \"#utility.yul\":9051:9075   */\n      tag_208\n        /* \"#utility.yul\":9069:9074   */\n      dup3\n        /* \"#utility.yul\":9051:9075   */\n      tag_67\n      jump\t// in\n    tag_208:\n        /* \"#utility.yul\":9031:9076   */\n      tag_93\n      jump\t// in\n    tag_207:\n        /* \"#utility.yul\":9026:9029   */\n      dup3\n        /* \"#utility.yul\":9019:9077   */\n      mstore\n        /* \"#utility.yul\":8926:9083   */\n      pop\n      pop\n      jump\t// out\n        /* \"#utility.yul\":9089:9237   */\n    tag_95:\n        /* \"#utility.yul\":9191:9202   */\n      0x00\n        /* \"#utility.yul\":9228:9231   */\n      dup2\n        /* \"#utility.yul\":9213:9231   */\n      swap1\n      pop\n        /* \"#utility.yul\":9089:9237   */\n      swap3\n      swap2\n      pop\n      pop\n      jump\t// out\n        /* \"#utility.yul\":9243:9633   */\n    tag_96:\n        /* \"#utility.yul\":9349:9352   */\n      0x00\n        /* \"#utility.yul\":9377:9416   */\n      tag_211\n        /* \"#utility.yul\":9410:9415   */\n      dup3\n        /* \"#utility.yul\":9377:9416   */\n      tag_71\n      jump\t// in\n    tag_211:\n        /* \"#utility.yul\":9432:9521   */\n      tag_212\n        /* \"#utility.yul\":9514:9520   */\n      dup2\n        /* \"#utility.yul\":9509:9512   */\n      dup6\n        /* \"#utility.yul\":9432:9521   */\n      tag_95\n      jump\t// in\n    tag_212:\n        /* \"#utility.yul\":9425:9521   */\n      swap4\n      pop\n        /* \"#utility.yul\":9530:9595   */\n      tag_213\n        /* \"#utility.yul\":9588:9594   */\n      dup2\n        /* \"#utility.yul\":9583:9586   */\n      dup6\n        /* \"#utility.yul\":9576:9580   */\n      0x20\n        /* \"#utility.yul\":9569:9574   */\n      dup7\n        /* \"#utility.yul\":9565:9581   */\n      add\n        /* \"#utility.yul\":9530:9595   */\n      tag_73\n      jump\t// in\n    tag_213:\n        /* \"#utility.yul\":9620:9626   */\n      dup1\n        /* \"#utility.yul\":9615:9618   */\n      dup5\n        /* \"#utility.yul\":9611:9627   */\n      add\n        /* \"#utility.yul\":9604:9627   */\n      swap2\n      pop\n        /* \"#utility.yul\":9353:9633   */\n      pop\n        /* \"#utility.yul\":9243:9633   */\n      swap3\n      swap2\n      pop\n      pop\n      jump\t// out\n        /* \"#utility.yul\":9639:9718   */\n    tag_97:\n        /* \"#utility.yul\":9678:9685   */\n      0x00\n        /* \"#utility.yul\":9707:9712   */\n      dup2\n        /* \"#utility.yul\":9696:9712   */\n      swap1\n      pop\n        /* \"#utility.yul\":9639:9718   */\n      swap2\n      swap1\n      pop\n      jump\t// out\n        /* \"#utility.yul\":9724:9881   */\n    tag_98:\n        /* \"#utility.yul\":9829:9874   */\n      tag_216\n        /* \"#utility.yul\":9849:9873   */\n      tag_217\n        /* \"#utility.yul\":9867:9872   */\n      dup3\n        /* \"#utility.yul\":9849:9873   */\n      tag_76\n      jump\t// in\n    tag_217:\n        /* \"#utility.yul\":9829:9874   */\n      tag_97\n      jump\t// in\n    tag_216:\n        /* \"#utility.yul\":9824:9827   */\n      dup3\n        /* \"#utility.yul\":9817:9875   */\n      mstore\n        /* \"#utility.yul\":9724:9881   */\n      pop\n      pop\n      jump\t// out\n        /* \"#utility.yul\":9887:10585   */\n    tag_49:\n        /* \"#utility.yul\":10103:10106   */\n      0x00\n        /* \"#utility.yul\":10118:10193   */\n      tag_219\n        /* \"#utility.yul\":10189:10192   */\n      dup3\n        /* \"#utility.yul\":10180:10186   */\n      dup8\n        /* \"#utility.yul\":10118:10193   */\n      tag_94\n      jump\t// in\n    tag_219:\n        /* \"#utility.yul\":10218:10220   */\n      0x20\n        /* \"#utility.yul\":10213:10216   */\n      dup3\n        /* \"#utility.yul\":10209:10221   */\n      add\n        /* \"#utility.yul\":10202:10221   */\n      swap2\n      pop\n        /* \"#utility.yul\":10231:10306   */\n      tag_220\n        /* \"#utility.yul\":10302:10305   */\n      dup3\n        /* \"#utility.yul\":10293:10299   */\n      dup7\n        /* \"#utility.yul\":10231:10306   */\n      tag_94\n      jump\t// in\n    tag_220:\n        /* \"#utility.yul\":10331:10333   */\n      0x20\n        /* \"#utility.yul\":10326:10329   */\n      dup3\n        /* \"#utility.yul\":10322:10334   */\n      add\n        /* \"#utility.yul\":10315:10334   */\n      swap2\n      pop\n        /* \"#utility.yul\":10351:10446   */\n      tag_221\n        /* \"#utility.yul\":10442:10445   */\n      dup3\n        /* \"#utility.yul\":10433:10439   */\n      dup6\n        /* \"#utility.yul\":10351:10446   */\n      tag_96\n      jump\t// in\n    tag_221:\n        /* \"#utility.yul\":10344:10446   */\n      swap2\n      pop\n        /* \"#utility.yul\":10456:10531   */\n      tag_222\n        /* \"#utility.yul\":10527:10530   */\n      dup3\n        /* \"#utility.yul\":10518:10524   */\n      dup5\n        /* \"#utility.yul\":10456:10531   */\n      tag_98\n      jump\t// in\n    tag_222:\n        /* \"#utility.yul\":10556:10558   */\n      0x20\n        /* \"#utility.yul\":10551:10554   */\n      dup3\n        /* \"#utility.yul\":10547:10559   */\n      add\n        /* \"#utility.yul\":10540:10559   */\n      swap2\n      pop\n        /* \"#utility.yul\":10576:10579   */\n      dup2\n        /* \"#utility.yul\":10569:10579   */\n      swap1\n      pop\n        /* \"#utility.yul\":9887:10585   */\n      swap6\n      swap5\n      pop\n      pop\n      pop\n      pop\n      pop\n      jump\t// out\n        /* \"#utility.yul\":10591:10732   */\n    tag_99:\n        /* \"#utility.yul\":10640:10644   */\n      0x00\n        /* \"#utility.yul\":10663:10666   */\n      dup2\n        /* \"#utility.yul\":10655:10666   */\n      swap1\n      pop\n        /* \"#utility.yul\":10686:10689   */\n      dup2\n        /* \"#utility.yul\":10683:10684   */\n      0x00\n        /* \"#utility.yul\":10676:10690   */\n      mstore\n        /* \"#utility.yul\":10720:10724   */\n      0x20\n        /* \"#utility.yul\":10717:10718   */\n      0x00\n        /* \"#utility.yul\":10707:10725   */\n      keccak256\n        /* \"#utility.yul\":10699:10725   */\n      swap1\n      pop\n        /* \"#utility.yul\":10591:10732   */\n      swap2\n      swap1\n      pop\n      jump\t// out\n        /* \"#utility.yul\":10738:10831   */\n    tag_100:\n        /* \"#utility.yul\":10775:10781   */\n      0x00\n        /* \"#utility.yul\":10822:10824   */\n      0x20\n        /* \"#utility.yul\":10817:10819   */\n      0x1f\n        /* \"#utility.yul\":10810:10815   */\n      dup4\n        /* \"#utility.yul\":10806:10820   */\n      add\n        /* \"#utility.yul\":10802:10825   */\n      div\n        /* \"#utility.yul\":10792:10825   */\n      swap1\n      pop\n        /* \"#utility.yul\":10738:10831   */\n      swap2\n      swap1\n      pop\n      jump\t// out\n        /* \"#utility.yul\":10837:10944   */\n    tag_101:\n        /* \"#utility.yul\":10881:10889   */\n      0x00\n        /* \"#utility.yul\":10931:10936   */\n      dup3\n        /* \"#utility.yul\":10925:10929   */\n      dup3\n        /* \"#utility.yul\":10921:10937   */\n      shl\n        /* \"#utility.yul\":10900:10937   */\n      swap1\n      pop\n        /* \"#utility.yul\":10837:10944   */\n      swap3\n      swap2\n      pop\n      pop\n      jump\t// out\n        /* \"#utility.yul\":10950:11343   */\n    tag_102:\n        /* \"#utility.yul\":11019:11025   */\n      0x00\n        /* \"#utility.yul\":11069:11070   */\n      0x08\n        /* \"#utility.yul\":11057:11067   */\n      dup4\n        /* \"#utility.yul\":11053:11071   */\n      mul\n        /* \"#utility.yul\":11092:11189   */\n      tag_227\n        /* \"#utility.yul\":11122:11188   */\n      0xffffffffffffffffffffffffffffffffffffffffffffffffffffffffffffffff\n        /* \"#utility.yul\":11111:11120   */\n      dup3\n        /* \"#utility.yul\":11092:11189   */\n      tag_101\n      jump\t// in\n    tag_227:\n        /* \"#utility.yul\":11210:11249   */\n      tag_228\n        /* \"#utility.yul\":11240:11248   */\n      dup7\n        /* \"#utility.yul\":11229:11238   */\n      dup4\n        /* \"#utility.yul\":11210:11249   */\n      tag_101\n      jump\t// in\n    tag_228:\n        /* \"#utility.yul\":11198:11249   */\n      swap6\n      pop\n        /* \"#utility.yul\":11282:11286   */\n      dup1\n        /* \"#utility.yul\":11278:11287   */\n      not\n        /* \"#utility.yul\":11271:11276   */\n      dup5\n        /* \"#utility.yul\":11267:11288   */\n      and\n        /* \"#utility.yul\":11258:11288   */\n      swap4\n      pop\n        /* \"#utility.yul\":11331:11335   */\n      dup1\n        /* \"#utility.yul\":11321:11329   */\n      dup7\n        /* \"#utility.yul\":11317:11336   */\n      and\n        /* \"#utility.yul\":11310:11315   */\n      dup5\n        /* \"#utility.yul\":11307:11337   */\n      or\n        /* \"#utility.yul\":11297:11337   */\n      swap3\n      pop\n        /* \"#utility.yul\":11026:11343   */\n      pop\n      pop\n        /* \"#utility.yul\":10950:11343   */\n      swap4\n      swap3\n      pop\n      pop\n      pop\n      jump\t// out\n        /* \"#utility.yul\":11349:11409   */\n    tag_103:\n        /* \"#utility.yul\":11377:11380   */\n      0x00\n        /* \"#utility.yul\":11398:11403   */\n      dup2\n        /* \"#utility.yul\":11391:11403   */\n      swap1\n      pop\n        /* \"#utility.yul\":11349:11409   */\n      swap2\n      swap1\n      pop\n      jump\t// out\n        /* \"#utility.yul\":11415:11557   */\n    tag_104:\n        /* \"#utility.yul\":11465:11474   */\n      0x00\n        /* \"#utility.yul\":11498:11551   */\n      tag_231\n        /* \"#utility.yul\":11516:11550   */\n      tag_232\n        /* \"#utility.yul\":11525:11549   */\n      tag_233\n        /* \"#utility.yul\":11543:11548   */\n      dup5\n        /* \"#utility.yul\":11525:11549   */\n      tag_67\n      jump\t// in\n    tag_233:\n        /* \"#utility.yul\":11516:11550   */\n      tag_103\n      jump\t// in\n    tag_232:\n        /* \"#utility.yul\":11498:11551   */\n      tag_67\n      jump\t// in\n    tag_231:\n        /* \"#utility.yul\":11485:11551   */\n      swap1\n      pop\n        /* \"#utility.yul\":11415:11557   */\n      swap2\n      swap1\n      pop\n      jump\t// out\n        /* \"#utility.yul\":11563:11638   */\n    tag_105:\n        /* \"#utility.yul\":11606:11609   */\n      0x00\n        /* \"#utility.yul\":11627:11632   */\n      dup2\n        /* \"#utility.yul\":11620:11632   */\n      swap1\n      pop\n        /* \"#utility.yul\":11563:11638   */\n      swap2\n      swap1\n      pop\n      jump\t// out\n        /* \"#utility.yul\":11644:11913   */\n    tag_106:\n        /* \"#utility.yul\":11754:11793   */\n      tag_236\n        /* \"#utility.yul\":11785:11792   */\n      dup4\n        /* \"#utility.yul\":11754:11793   */\n      tag_104\n      jump\t// in\n    tag_236:\n        /* \"#utility.yul\":11815:11906   */\n      tag_237\n        /* \"#utility.yul\":11864:11905   */\n      tag_238\n        /* \"#utility.yul\":11888:11904   */\n      dup3\n        /* \"#utility.yul\":11864:11905   */\n      tag_105\n      jump\t// in\n    tag_238:\n        /* \"#utility.yul\":11856:11862   */\n      dup5\n        /* \"#utility.yul\":11849:11853   */\n      dup5\n        /* \"#utility.yul\":11843:11854   */\n      sload\n        /* \"#utility.yul\":11815:11906   */\n      tag_102\n      jump\t// in\n    tag_237:\n        /* \"#utility.yul\":11809:11813   */\n      dup3\n        /* \"#utility.yul\":11802:11907   */\n      sstore\n        /* \"#utility.yul\":11720:11913   */\n      pop\n        /* \"#utility.yul\":11644:11913   */\n      pop\n      pop\n      pop\n      jump\t// out\n        /* \"#utility.yul\":11919:11992   */\n    tag_107:\n        /* \"#utility.yul\":11964:11967   */\n      0x00\n        /* \"#utility.yul\":11919:11992   */\n      swap1\n      jump\t// out\n        /* \"#utility.yul\":11998:12187   */\n    tag_108:\n        /* \"#utility.yul\":12075:12107   */\n      tag_241\n      tag_107\n      jump\t// in\n    tag_241:\n        /* \"#utility.yul\":12116:12181   */\n      tag_242\n        /* \"#utility.yul\":12174:12180   */\n      dup2\n        /* \"#utility.yul\":12166:12172   */\n      dup5\n        /* \"#utility.yul\":12160:12164   */\n      dup5\n        /* \"#utility.yul\":12116:12181   */\n      tag_106\n      jump\t// in\n    tag_242:\n        /* \"#utility.yul\":12051:12187   */\n      pop\n        /* \"#utility.yul\":11998:12187   */\n      pop\n      pop\n      jump\t// out\n        /* \"#utility.yul\":12193:12379   */\n    tag_109:\n        /* \"#utility.yul\":12253:12373   */\n    tag_244:\n        /* \"#utility.yul\":12270:12273   */\n      dup2\n        /* \"#utility.yul\":12263:12268   */\n      dup2\n        /* \"#utility.yul\":12260:12274   */\n      lt\n        /* \"#utility.yul\":12253:12373   */\n      iszero\n      tag_246\n      jumpi\n        /* \"#utility.yul\":12324:12363   */\n      tag_247\n        /* \"#utility.yul\":12361:12362   */\n      0x00\n        /* \"#utility.yul\":12354:12359   */\n      dup3\n        /* \"#utility.yul\":12324:12363   */\n      tag_108\n      jump\t// in\n    tag_247:\n        /* \"#utility.yul\":12297:12298   */\n      0x01\n        /* \"#utility.yul\":12290:12295   */\n      dup2\n        /* \"#utility.yul\":12286:12299   */\n      add\n        /* \"#utility.yul\":12277:12299   */\n      swap1\n      pop\n        /* \"#utility.yul\":12253:12373   */\n      jump(tag_244)\n    tag_246:\n        /* \"#utility.yul\":12193:12379   */\n      pop\n      pop\n      jump\t// out\n        /* \"#utility.yul\":12385:12928   */\n    tag_110:\n        /* \"#utility.yul\":12486:12488   */\n      0x1f\n        /* \"#utility.yul\":12481:12484   */\n      dup3\n        /* \"#utility.yul\":12478:12489   */\n      gt\n        /* \"#utility.yul\":12475:12921   */\n      iszero\n      tag_249\n      jumpi\n        /* \"#utility.yul\":12520:12558   */\n      tag_250\n        /* \"#utility.yul\":12552:12557   */\n      dup2\n        /* \"#utility.yul\":12520:12558   */\n      tag_99\n      jump\t// in\n    tag_250:\n        /* \"#utility.yul\":12604:12633   */\n      tag_251\n        /* \"#utility.yul\":12622:12632   */\n      dup5\n        /* \"#utility.yul\":12604:12633   */\n      tag_100\n      jump\t// in\n    tag_251:\n        /* \"#utility.yul\":12594:12602   */\n      dup2\n        /* \"#utility.yul\":12590:12634   */\n      add\n        /* \"#utility.yul\":12787:12789   */\n      0x20\n        /* \"#utility.yul\":12775:12785   */\n      dup6\n        /* \"#utility.yul\":12772:12790   */\n      lt\n        /* \"#utility.yul\":12769:12818   */\n      iszero\n      tag_252\n      jumpi\n        /* \"#utility.yul\":12808:12816   */\n      dup2\n        /* \"#utility.yul\":12793:12816   */\n      swap1\n      pop\n        /* \"#utility.yul\":12769:12818   */\n    tag_252:\n        /* \"#utility.yul\":12831:12911   */\n      tag_253\n        /* \"#utility.yul\":12887:12909   */\n      tag_254\n        /* \"#utility.yul\":12905:12908   */\n      dup6\n        /* \"#utility.yul\":12887:12909   */\n      tag_100\n      jump\t// in\n    tag_254:\n        /* \"#utility.yul\":12877:12885   */\n      dup4\n        /* \"#utility.yul\":12873:12910   */\n      add\n        /* \"#utility.yul\":12860:12871   */\n      dup3\n        /* \"#utility.yul\":12831:12911   */\n      tag_109\n      jump\t// in\n    tag_253:\n        /* \"#utility.yul\":12490:12921   */\n      pop\n      pop\n        /* \"#utility.yul\":12475:12921   */\n    tag_249:\n        /* \"#utility.yul\":12385:12928   */\n      pop\n      pop\n      pop\n      jump\t// out\n        /* \"#utility.yul\":12934:13051   */\n    tag_111:\n        /* \"#utility.yul\":12988:12996   */\n      0x00\n        /* \"#utility.yul\":13038:13043   */\n      dup3\n        /* \"#utility.yul\":13032:13036   */\n      dup3\n        /* \"#utility.yul\":13028:13044   */\n      shr\n        /* \"#utility.yul\":13007:13044   */\n      swap1\n      pop\n        /* \"#utility.yul\":12934:13051   */\n      swap3\n      swap2\n      pop\n      pop\n      jump\t// out\n        /* \"#utility.yul\":13057:13226   */\n    tag_112:\n        /* \"#utility.yul\":13101:13107   */\n      0x00\n        /* \"#utility.yul\":13134:13185   */\n      tag_257\n        /* \"#utility.yul\":13182:13183   */\n      0x00\n        /* \"#utility.yul\":13178:13184   */\n      not\n        /* \"#utility.yul\":13170:13175   */\n      dup5\n        /* \"#utility.yul\":13167:13168   */\n      0x08\n        /* \"#utility.yul\":13163:13176   */\n      mul\n        /* \"#utility.yul\":13134:13185   */\n      tag_111\n      jump\t// in\n    tag_257:\n        /* \"#utility.yul\":13130:13186   */\n      not\n        /* \"#utility.yul\":13215:13219   */\n      dup1\n        /* \"#utility.yul\":13209:13213   */\n      dup4\n        /* \"#utility.yul\":13205:13220   */\n      and\n        /* \"#utility.yul\":13195:13220   */\n      swap2\n      pop\n        /* \"#utility.yul\":13108:13226   */\n      pop\n        /* \"#utility.yul\":13057:13226   */\n      swap3\n      swap2\n      pop\n      pop\n      jump\t// out\n        /* \"#utility.yul\":13231:13526   */\n    tag_113:\n        /* \"#utility.yul\":13307:13311   */\n      0x00\n        /* \"#utility.yul\":13453:13482   */\n      tag_259\n        /* \"#utility.yul\":13478:13481   */\n      dup4\n        /* \"#utility.yul\":13472:13476   */\n      dup4\n        /* \"#utility.yul\":13453:13482   */\n      tag_112\n      jump\t// in\n    tag_259:\n        /* \"#utility.yul\":13445:13482   */\n      swap2\n      pop\n        /* \"#utility.yul\":13515:13518   */\n      dup3\n        /* \"#utility.yul\":13512:13513   */\n      0x02\n        /* \"#utility.yul\":13508:13519   */\n      mul\n        /* \"#utility.yul\":13502:13506   */\n      dup3\n        /* \"#utility.yul\":13499:13520   */\n      or\n        /* \"#utility.yul\":13491:13520   */\n      swap1\n      pop\n        /* \"#utility.yul\":13231:13526   */\n      swap3\n      swap2\n      pop\n      pop\n      jump\t// out\n        /* \"#utility.yul\":13531:14926   */\n    tag_52:\n        /* \"#utility.yul\":13648:13685   */\n      tag_261\n        /* \"#utility.yul\":13681:13684   */\n      dup3\n        /* \"#utility.yul\":13648:13685   */\n      tag_71\n      jump\t// in\n    tag_261:\n        /* \"#utility.yul\":13750:13768   */\n      0xffffffffffffffff\n        /* \"#utility.yul\":13742:13748   */\n      dup2\n        /* \"#utility.yul\":13739:13769   */\n      gt\n        /* \"#utility.yul\":13736:13792   */\n      iszero\n      tag_262\n      jumpi\n        /* \"#utility.yul\":13772:13790   */\n      tag_263\n      tag_81\n      jump\t// in\n    tag_263:\n        /* \"#utility.yul\":13736:13792   */\n    tag_262:\n        /* \"#utility.yul\":13816:13854   */\n      tag_264\n        /* \"#utility.yul\":13848:13852   */\n      dup3\n        /* \"#utility.yul\":13842:13853   */\n      sload\n        /* \"#utility.yul\":13816:13854   */\n      tag_30\n      jump\t// in\n    tag_264:\n        /* \"#utility.yul\":13901:13968   */\n      tag_265\n        /* \"#utility.yul\":13961:13967   */\n      dup3\n        /* \"#utility.yul\":13953:13959   */\n      dup3\n        /* \"#utility.yul\":13947:13951   */\n      dup6\n        /* \"#utility.yul\":13901:13968   */\n      tag_110\n      jump\t// in\n    tag_265:\n        /* \"#utility.yul\":13995:13996   */\n      0x00\n        /* \"#utility.yul\":14019:14023   */\n      0x20\n        /* \"#utility.yul\":14006:14023   */\n      swap1\n      pop\n        /* \"#utility.yul\":14051:14053   */\n      0x1f\n        /* \"#utility.yul\":14043:14049   */\n      dup4\n        /* \"#utility.yul\":14040:14054   */\n      gt\n        /* \"#utility.yul\":14068:14069   */\n      0x01\n        /* \"#utility.yul\":14063:14681   */\n      dup2\n      eq\n      tag_267\n      jumpi\n        /* \"#utility.yul\":14725:14726   */\n      0x00\n        /* \"#utility.yul\":14742:14748   */\n      dup5\n        /* \"#utility.yul\":14739:14816   */\n      iszero\n      tag_268\n      jumpi\n        /* \"#utility.yul\":14791:14800   */\n      dup3\n        /* \"#utility.yul\":14786:14789   */\n      dup8\n        /* \"#utility.yul\":14782:14801   */\n      add\n        /* \"#utility.yul\":14776:14802   */\n      mload\n        /* \"#utility.yul\":14767:14802   */\n      swap1\n      pop\n        /* \"#utility.yul\":14739:14816   */\n    tag_268:\n        /* \"#utility.yul\":14842:14909   */\n      tag_269\n        /* \"#utility.yul\":14902:14908   */\n      dup6\n        /* \"#utility.yul\":14895:14900   */\n      dup3\n        /* \"#utility.yul\":14842:14909   */\n      tag_113\n      jump\t// in\n    tag_269:\n        /* \"#utility.yul\":14836:14840   */\n      dup7\n        /* \"#utility.yul\":14829:14910   */\n      sstore\n        /* \"#utility.yul\":14698:14920   */\n      pop\n        /* \"#utility.yul\":14033:14920   */\n      jump(tag_266)\n        /* \"#utility.yul\":14063:14681   */\n    tag_267:\n        /* \"#utility.yul\":14115:14119   */\n      0x1f\n        /* \"#utility.yul\":14111:14120   */\n      not\n        /* \"#utility.yul\":14103:14109   */\n      dup5\n        /* \"#utility.yul\":14099:14121   */\n      and\n        /* \"#utility.yul\":14149:14186   */\n      tag_270\n        /* \"#utility.yul\":14181:14185   */\n      dup7\n        /* \"#utility.yul\":14149:14186   */\n      tag_99\n      jump\t// in\n    tag_270:\n        /* \"#utility.yul\":14208:14209   */\n      0x00\n        /* \"#utility.yul\":14222:14430   */\n    tag_271:\n        /* \"#utility.yul\":14236:14243   */\n      dup3\n        /* \"#utility.yul\":14233:14234   */\n      dup2\n        /* \"#utility.yul\":14230:14244   */\n      lt\n        /* \"#utility.yul\":14222:14430   */\n      iszero\n      tag_273\n      jumpi\n        /* \"#utility.yul\":14315:14324   */\n      dup5\n        /* \"#utility.yul\":14310:14313   */\n      dup10\n        /* \"#utility.yul\":14306:14325   */\n      add\n        /* \"#utility.yul\":14300:14326   */\n      mload\n        /* \"#utility.yul\":14292:14298   */\n      dup3\n        /* \"#utility.yul\":14285:14327   */\n      sstore\n        /* \"#utility.yul\":14366:14367   */\n      0x01\n        /* \"#utility.yul\":14358:14364   */\n      dup3\n        /* \"#utility.yul\":14354:14368   */\n      add\n        /* \"#utility.yul\":14344:14368   */\n      swap2\n      pop\n        /* \"#utility.yul\":14413:14415   */\n      0x20\n        /* \"#utility.yul\":14402:14411   */\n      dup6\n        /* \"#utility.yul\":14398:14416   */\n      add\n        /* \"#utility.yul\":14385:14416   */\n      swap5\n      pop\n        /* \"#utility.yul\":14259:14263   */\n      0x20\n        /* \"#utility.yul\":14256:14257   */\n      dup2\n        /* \"#utility.yul\":14252:14264   */\n      add\n        /* \"#utility.yul\":14247:14264   */\n      swap1\n      pop\n        /* \"#utility.yul\":14222:14430   */\n      jump(tag_271)\n    tag_273:\n        /* \"#utility.yul\":14458:14464   */\n      dup7\n        /* \"#utility.yul\":14449:14456   */\n      dup4\n        /* \"#utility.yul\":14446:14465   */\n      lt\n        /* \"#utility.yul\":14443:14622   */\n      iszero\n      tag_274\n      jumpi\n        /* \"#utility.yul\":14516:14525   */\n      dup5\n        /* \"#utility.yul\":14511:14514   */\n      dup10\n        /* \"#utility.yul\":14507:14526   */\n      add\n        /* \"#utility.yul\":14501:14527   */\n      mload\n        /* \"#utility.yul\":14559:14607   */\n      tag_275\n        /* \"#utility.yul\":14601:14605   */\n      0x1f\n        /* \"#utility.yul\":14593:14599   */\n      dup10\n        /* \"#utility.yul\":14589:14606   */\n      and\n        /* \"#utility.yul\":14578:14587   */\n      dup3\n        /* \"#utility.yul\":14559:14607   */\n      tag_112\n      jump\t// in\n    tag_275:\n        /* \"#utility.yul\":14551:14557   */\n      dup4\n        /* \"#utility.yul\":14544:14608   */\n      sstore\n        /* \"#utility.yul\":14466:14622   */\n      pop\n        /* \"#utility.yul\":14443:14622   */\n    tag_274:\n        /* \"#utility.yul\":14668:14669   */\n      0x01\n        /* \"#utility.yul\":14664:14665   */\n      0x02\n        /* \"#utility.yul\":14656:14662   */\n      dup9\n        /* \"#utility.yul\":14652:14666   */\n      mul\n        /* \"#utility.yul\":14648:14670   */\n      add\n        /* \"#utility.yul\":14642:14646   */\n      dup9\n        /* \"#utility.yul\":14635:14671   */\n      sstore\n        /* \"#utility.yul\":14070:14681   */\n      pop\n      pop\n      pop\n        /* \"#utility.yul\":14033:14920   */\n    tag_266:\n      pop\n        /* \"#utility.yul\":13623:14926   */\n      pop\n      pop\n      pop\n        /* \"#utility.yul\":13531:14926   */\n      pop\n      pop\n      jump\t// out\n\n    auxdata: 0xa264697066735822122099c14426254d9de1f16fc07b09e9a0ddd9caa1ce62db8a01d80fade8209bc09b64736f6c634300081a0033\n}\n",
				"bytecode": {
					"linkReferences": {},
					"object": "608060405234801561000f575f80fd5b5061001e61002360201b60201c565b610506565b5f6040518060a001604052805f81526020014281526020016040518060400160405280600b81526020017f466972737420626c6f636b00000000000000000000000000000000000000000081525081526020015f801b81526020015f425f801b604051602001610095939291906101bf565b6040516020818303038152906040528051906020012081525090505f81908060018154018082558091505060019003905f5260205f2090600502015f909190919091505f820151815f01556020820151816001015560408201518160020190816100ff9190610437565b506060820151816003015560808201518160040155505050565b5f819050919050565b5f819050919050565b61013c61013782610119565b610122565b82525050565b5f81905092915050565b7f466972737420626c6f636b0000000000000000000000000000000000000000005f82015250565b5f610180600b83610142565b915061018b8261014c565b600b82019050919050565b5f819050919050565b5f819050919050565b6101b96101b482610196565b61019f565b82525050565b5f6101ca828661012b565b6020820191506101da828561012b565b6020820191506101e982610174565b91506101f582846101a8565b602082019150819050949350505050565b5f81519050919050565b7f4e487b71000000000000000000000000000000000000000000000000000000005f52604160045260245ffd5b7f4e487b71000000000000000000000000000000000000000000000000000000005f52602260045260245ffd5b5f600282049050600182168061028157607f821691505b6020821081036102945761029361023d565b5b50919050565b5f819050815f5260205f209050919050565b5f6020601f8301049050919050565b5f82821b905092915050565b5f600883026102f67fffffffffffffffffffffffffffffffffffffffffffffffffffffffffffffffff826102bb565b61030086836102bb565b95508019841693508086168417925050509392505050565b5f819050919050565b5f61033b61033661033184610119565b610318565b610119565b9050919050565b5f819050919050565b61035483610321565b61036861036082610342565b8484546102c7565b825550505050565b5f90565b61037c610370565b61038781848461034b565b505050565b5b818110156103aa5761039f5f82610374565b60018101905061038d565b5050565b601f8211156103ef576103c08161029a565b6103c9846102ac565b810160208510156103d8578190505b6103ec6103e4856102ac565b83018261038c565b50505b505050565b5f82821c905092915050565b5f61040f5f19846008026103f4565b1980831691505092915050565b5f6104278383610400565b9150826002028217905092915050565b61044082610206565b67ffffffffffffffff81111561045957610458610210565b5b610463825461026a565b61046e8282856103ae565b5f60209050601f83116001811461049f575f841561048d578287015190505b610497858261041c565b8655506104fe565b601f1984166104ad8661029a565b5f5b828110156104d4578489015182556001820191506020850194506020810190506104af565b868310156104f157848901516104ed601f891682610400565b8355505b6001600288020188555050505b505050505050565b610cf4806105135f395ff3fe608060405234801561000f575f80fd5b506004361061003f575f3560e01c806304c07569146100435780638f07ae3f14610073578063c75941831461008f575b5f80fd5b61005d60048036038101906100589190610532565b6100ad565b60405161006a9190610667565b60405180910390f35b61008d600480360381019061008891906107b3565b6101e3565b005b6100976103bf565b6040516100a49190610667565b60405180910390f35b6100b56104bd565b5f8054905082106100fb576040517f08c379a00000000000000000000000000000000000000000000000000000000081526004016100f290610854565b60405180910390fd5b5f828154811061010e5761010d610872565b5b905f5260205f2090600502016040518060a00160405290815f820154815260200160018201548152602001600282018054610148906108cc565b80601f0160208091040260200160405190810160405280929190818152602001828054610174906108cc565b80156101bf5780601f10610196576101008083540402835291602001916101bf565b820191905f5260205f20905b8154815290600101906020018083116101a257829003601f168201915b50505050508152602001600382015481526020016004820154815250509050919050565b5f8060015f805490506101f69190610929565b8154811061020757610206610872565b5b905f5260205f2090600502016040518060a00160405290815f820154815260200160018201548152602001600282018054610241906108cc565b80601f016020809104026020016040519081016040528092919081815260200182805461026d906108cc565b80156102b85780601f1061028f576101008083540402835291602001916102b8565b820191905f5260205f20905b81548152906001019060200180831161029b57829003601f168201915b505050505081526020016003820154815260200160048201548152505090505f6001825f01516102e8919061095c565b90505f4290505f836080015190505f8383878460405160200161030e9493929190610a09565b6040516020818303038152906040528051906020012090505f6040518060a001604052808681526020018581526020018881526020018481526020018381525090505f81908060018154018082558091505060019003905f5260205f2090600502015f909190919091505f820151815f015560208201518160010155604082015181600201908161039f9190610bef565b506060820151816003015560808201518160040155505050505050505050565b6103c76104bd565b5f60015f805490506103d99190610929565b815481106103ea576103e9610872565b5b905f5260205f2090600502016040518060a00160405290815f820154815260200160018201548152602001600282018054610424906108cc565b80601f0160208091040260200160405190810160405280929190818152602001828054610450906108cc565b801561049b5780601f106104725761010080835404028352916020019161049b565b820191905f5260205f20905b81548152906001019060200180831161047e57829003601f168201915b5050505050815260200160038201548152602001600482015481525050905090565b6040518060a001604052805f81526020015f8152602001606081526020015f80191681526020015f80191681525090565b5f604051905090565b5f80fd5b5f80fd5b5f819050919050565b610511816104ff565b811461051b575f80fd5b50565b5f8135905061052c81610508565b92915050565b5f60208284031215610547576105466104f7565b5b5f6105548482850161051e565b91505092915050565b610566816104ff565b82525050565b5f81519050919050565b5f82825260208201905092915050565b8281835e5f83830152505050565b5f601f19601f8301169050919050565b5f6105ae8261056c565b6105b88185610576565b93506105c8818560208601610586565b6105d181610594565b840191505092915050565b5f819050919050565b6105ee816105dc565b82525050565b5f60a083015f8301516106095f86018261055d565b50602083015161061c602086018261055d565b506040830151848203604086015261063482826105a4565b915050606083015161064960608601826105e5565b50608083015161065c60808601826105e5565b508091505092915050565b5f6020820190508181035f83015261067f81846105f4565b905092915050565b5f80fd5b5f80fd5b7f4e487b71000000000000000000000000000000000000000000000000000000005f52604160045260245ffd5b6106c582610594565b810181811067ffffffffffffffff821117156106e4576106e361068f565b5b80604052505050565b5f6106f66104ee565b905061070282826106bc565b919050565b5f67ffffffffffffffff8211156107215761072061068f565b5b61072a82610594565b9050602081019050919050565b828183375f83830152505050565b5f61075761075284610707565b6106ed565b9050828152602081018484840111156107735761077261068b565b5b61077e848285610737565b509392505050565b5f82601f83011261079a57610799610687565b5b81356107aa848260208601610745565b91505092915050565b5f602082840312156107c8576107c76104f7565b5b5f82013567ffffffffffffffff8111156107e5576107e46104fb565b5b6107f184828501610786565b91505092915050565b5f82825260208201905092915050565b7f426c6f636b20646f6573206e6f742065786973742e00000000000000000000005f82015250565b5f61083e6015836107fa565b91506108498261080a565b602082019050919050565b5f6020820190508181035f83015261086b81610832565b9050919050565b7f4e487b71000000000000000000000000000000000000000000000000000000005f52603260045260245ffd5b7f4e487b71000000000000000000000000000000000000000000000000000000005f52602260045260245ffd5b5f60028204905060018216806108e357607f821691505b6020821081036108f6576108f561089f565b5b50919050565b7f4e487b71000000000000000000000000000000000000000000000000000000005f52601160045260245ffd5b5f610933826104ff565b915061093e836104ff565b9250828203905081811115610956576109556108fc565b5b92915050565b5f610966826104ff565b9150610971836104ff565b9250828201905080821115610989576109886108fc565b5b92915050565b5f819050919050565b6109a96109a4826104ff565b61098f565b82525050565b5f81905092915050565b5f6109c38261056c565b6109cd81856109af565b93506109dd818560208601610586565b80840191505092915050565b5f819050919050565b610a036109fe826105dc565b6109e9565b82525050565b5f610a148287610998565b602082019150610a248286610998565b602082019150610a3482856109b9565b9150610a4082846109f2565b60208201915081905095945050505050565b5f819050815f5260205f209050919050565b5f6020601f8301049050919050565b5f82821b905092915050565b5f60088302610aae7fffffffffffffffffffffffffffffffffffffffffffffffffffffffffffffffff82610a73565b610ab88683610a73565b95508019841693508086168417925050509392505050565b5f819050919050565b5f610af3610aee610ae9846104ff565b610ad0565b6104ff565b9050919050565b5f819050919050565b610b0c83610ad9565b610b20610b1882610afa565b848454610a7f565b825550505050565b5f90565b610b34610b28565b610b3f818484610b03565b505050565b5b81811015610b6257610b575f82610b2c565b600181019050610b45565b5050565b601f821115610ba757610b7881610a52565b610b8184610a64565b81016020851015610b90578190505b610ba4610b9c85610a64565b830182610b44565b50505b505050565b5f82821c905092915050565b5f610bc75f1984600802610bac565b1980831691505092915050565b5f610bdf8383610bb8565b9150826002028217905092915050565b610bf88261056c565b67ffffffffffffffff811115610c1157610c1061068f565b5b610c1b82546108cc565b610c26828285610b66565b5f60209050601f831160018114610c57575f8415610c45578287015190505b610c4f8582610bd4565b865550610cb6565b601f198416610c6586610a52565b5f5b82811015610c8c57848901518255600182019150602085019450602081019050610c67565b86831015610ca95784890151610ca5601f891682610bb8565b8355505b6001600288020188555050505b50505050505056fea264697066735822122099c14426254d9de1f16fc07b09e9a0ddd9caa1ce62db8a01d80fade8209bc09b64736f6c634300081a0033",
					"opcodes": "PUSH1 0x80 PUSH1 0x40 MSTORE CALLVALUE DUP1 ISZERO PUSH2 0xF JUMPI PUSH0 DUP1 REVERT JUMPDEST POP PUSH2 0x1E PUSH2 0x23 PUSH1 0x20 SHL PUSH1 0x20 SHR JUMP JUMPDEST PUSH2 0x506 JUMP JUMPDEST PUSH0 PUSH1 0x40 MLOAD DUP1 PUSH1 0xA0 ADD PUSH1 0x40 MSTORE DUP1 PUSH0 DUP2 MSTORE PUSH1 0x20 ADD TIMESTAMP DUP2 MSTORE PUSH1 0x20 ADD PUSH1 0x40 MLOAD DUP1 PUSH1 0x40 ADD PUSH1 0x40 MSTORE DUP1 PUSH1 0xB DUP2 MSTORE PUSH1 0x20 ADD PUSH32 0x466972737420626C6F636B000000000000000000000000000000000000000000 DUP2 MSTORE POP DUP2 MSTORE PUSH1 0x20 ADD PUSH0 DUP1 SHL DUP2 MSTORE PUSH1 0x20 ADD PUSH0 TIMESTAMP PUSH0 DUP1 SHL PUSH1 0x40 MLOAD PUSH1 0x20 ADD PUSH2 0x95 SWAP4 SWAP3 SWAP2 SWAP1 PUSH2 0x1BF JUMP JUMPDEST PUSH1 0x40 MLOAD PUSH1 0x20 DUP2 DUP4 SUB SUB DUP2 MSTORE SWAP1 PUSH1 0x40 MSTORE DUP1 MLOAD SWAP1 PUSH1 0x20 ADD KECCAK256 DUP2 MSTORE POP SWAP1 POP PUSH0 DUP2 SWAP1 DUP1 PUSH1 0x1 DUP2 SLOAD ADD DUP1 DUP3 SSTORE DUP1 SWAP2 POP POP PUSH1 0x1 SWAP1 SUB SWAP1 PUSH0 MSTORE PUSH1 0x20 PUSH0 KECCAK256 SWAP1 PUSH1 0x5 MUL ADD PUSH0 SWAP1 SWAP2 SWAP1 SWAP2 SWAP1 SWAP2 POP PUSH0 DUP3 ADD MLOAD DUP2 PUSH0 ADD SSTORE PUSH1 0x20 DUP3 ADD MLOAD DUP2 PUSH1 0x1 ADD SSTORE PUSH1 0x40 DUP3 ADD MLOAD DUP2 PUSH1 0x2 ADD SWAP1 DUP2 PUSH2 0xFF SWAP2 SWAP1 PUSH2 0x437 JUMP JUMPDEST POP PUSH1 0x60 DUP3 ADD MLOAD DUP2 PUSH1 0x3 ADD SSTORE PUSH1 0x80 DUP3 ADD MLOAD DUP2 PUSH1 0x4 ADD SSTORE POP POP POP JUMP JUMPDEST PUSH0 DUP2 SWAP1 POP SWAP2 SWAP1 POP JUMP JUMPDEST PUSH0 DUP2 SWAP1 POP SWAP2 SWAP1 POP JUMP JUMPDEST PUSH2 0x13C PUSH2 0x137 DUP3 PUSH2 0x119 JUMP JUMPDEST PUSH2 0x122 JUMP JUMPDEST DUP3 MSTORE POP POP JUMP JUMPDEST PUSH0 DUP2 SWAP1 POP SWAP3 SWAP2 POP POP JUMP JUMPDEST PUSH32 0x466972737420626C6F636B000000000000000000000000000000000000000000 PUSH0 DUP3 ADD MSTORE POP JUMP JUMPDEST PUSH0 PUSH2 0x180 PUSH1 0xB DUP4 PUSH2 0x142 JUMP JUMPDEST SWAP2 POP PUSH2 0x18B DUP3 PUSH2 0x14C JUMP JUMPDEST PUSH1 0xB DUP3 ADD SWAP1 POP SWAP2 SWAP1 POP JUMP JUMPDEST PUSH0 DUP2 SWAP1 POP SWAP2 SWAP1 POP JUMP JUMPDEST PUSH0 DUP2 SWAP1 POP SWAP2 SWAP1 POP JUMP JUMPDEST PUSH2 0x1B9 PUSH2 0x1B4 DUP3 PUSH2 0x196 JUMP JUMPDEST PUSH2 0x19F JUMP JUMPDEST DUP3 MSTORE POP POP JUMP JUMPDEST PUSH0 PUSH2 0x1CA DUP3 DUP7 PUSH2 0x12B JUMP JUMPDEST PUSH1 0x20 DUP3 ADD SWAP2 POP PUSH2 0x1DA DUP3 DUP6 PUSH2 0x12B JUMP JUMPDEST PUSH1 0x20 DUP3 ADD SWAP2 POP PUSH2 0x1E9 DUP3 PUSH2 0x174 JUMP JUMPDEST SWAP2 POP PUSH2 0x1F5 DUP3 DUP5 PUSH2 0x1A8 JUMP JUMPDEST PUSH1 0x20 DUP3 ADD SWAP2 POP DUP2 SWAP1 POP SWAP5 SWAP4 POP POP POP POP JUMP JUMPDEST PUSH0 DUP2 MLOAD SWAP1 POP SWAP2 SWAP1 POP JUMP JUMPDEST PUSH32 0x4E487B7100000000000000000000000000000000000000000000000000000000 PUSH0 MSTORE PUSH1 0x41 PUSH1 0x4 MSTORE PUSH1 0x24 PUSH0 REVERT JUMPDEST PUSH32 0x4E487B7100000000000000000000000000000000000000000000000000000000 PUSH0 MSTORE PUSH1 0x22 PUSH1 0x4 MSTORE PUSH1 0x24 PUSH0 REVERT JUMPDEST PUSH0 PUSH1 0x2 DUP3 DIV SWAP1 POP PUSH1 0x1 DUP3 AND DUP1 PUSH2 0x281 JUMPI PUSH1 0x7F DUP3 AND SWAP2 POP JUMPDEST PUSH1 0x20 DUP3 LT DUP2 SUB PUSH2 0x294 JUMPI PUSH2 0x293 PUSH2 0x23D JUMP JUMPDEST JUMPDEST POP SWAP2 SWAP1 POP JUMP JUMPDEST PUSH0 DUP2 SWAP1 POP DUP2 PUSH0 MSTORE PUSH1 0x20 PUSH0 KECCAK256 SWAP1 POP SWAP2 SWAP1 POP JUMP JUMPDEST PUSH0 PUSH1 0x20 PUSH1 0x1F DUP4 ADD DIV SWAP1 POP SWAP2 SWAP1 POP JUMP JUMPDEST PUSH0 DUP3 DUP3 SHL SWAP1 POP SWAP3 SWAP2 POP POP JUMP JUMPDEST PUSH0 PUSH1 0x8 DUP4 MUL PUSH2 0x2F6 PUSH32 0xFFFFFFFFFFFFFFFFFFFFFFFFFFFFFFFFFFFFFFFFFFFFFFFFFFFFFFFFFFFFFFFF DUP3 PUSH2 0x2BB JUMP JUMPDEST PUSH2 0x300 DUP7 DUP4 PUSH2 0x2BB JUMP JUMPDEST SWAP6 POP DUP1 NOT DUP5 AND SWAP4 POP DUP1 DUP7 AND DUP5 OR SWAP3 POP POP POP SWAP4 SWAP3 POP POP POP JUMP JUMPDEST PUSH0 DUP2 SWAP1 POP SWAP2 SWAP1 POP JUMP JUMPDEST PUSH0 PUSH2 0x33B PUSH2 0x336 PUSH2 0x331 DUP5 PUSH2 0x119 JUMP JUMPDEST PUSH2 0x318 JUMP JUMPDEST PUSH2 0x119 JUMP JUMPDEST SWAP1 POP SWAP2 SWAP1 POP JUMP JUMPDEST PUSH0 DUP2 SWAP1 POP SWAP2 SWAP1 POP JUMP JUMPDEST PUSH2 0x354 DUP4 PUSH2 0x321 JUMP JUMPDEST PUSH2 0x368 PUSH2 0x360 DUP3 PUSH2 0x342 JUMP JUMPDEST DUP5 DUP5 SLOAD PUSH2 0x2C7 JUMP JUMPDEST DUP3 SSTORE POP POP POP POP JUMP JUMPDEST PUSH0 SWAP1 JUMP JUMPDEST PUSH2 0x37C PUSH2 0x370 JUMP JUMPDEST PUSH2 0x387 DUP2 DUP5 DUP5 PUSH2 0x34B JUMP JUMPDEST POP POP POP JUMP JUMPDEST JUMPDEST DUP2 DUP2 LT ISZERO PUSH2 0x3AA JUMPI PUSH2 0x39F PUSH0 DUP3 PUSH2 0x374 JUMP JUMPDEST PUSH1 0x1 DUP2 ADD SWAP1 POP PUSH2 0x38D JUMP JUMPDEST POP POP JUMP JUMPDEST PUSH1 0x1F DUP3 GT ISZERO PUSH2 0x3EF JUMPI PUSH2 0x3C0 DUP2 PUSH2 0x29A JUMP JUMPDEST PUSH2 0x3C9 DUP5 PUSH2 0x2AC JUMP JUMPDEST DUP2 ADD PUSH1 0x20 DUP6 LT ISZERO PUSH2 0x3D8 JUMPI DUP2 SWAP1 POP JUMPDEST PUSH2 0x3EC PUSH2 0x3E4 DUP6 PUSH2 0x2AC JUMP JUMPDEST DUP4 ADD DUP3 PUSH2 0x38C JUMP JUMPDEST POP POP JUMPDEST POP POP POP JUMP JUMPDEST PUSH0 DUP3 DUP3 SHR SWAP1 POP SWAP3 SWAP2 POP POP JUMP JUMPDEST PUSH0 PUSH2 0x40F PUSH0 NOT DUP5 PUSH1 0x8 MUL PUSH2 0x3F4 JUMP JUMPDEST NOT DUP1 DUP4 AND SWAP2 POP POP SWAP3 SWAP2 POP POP JUMP JUMPDEST PUSH0 PUSH2 0x427 DUP4 DUP4 PUSH2 0x400 JUMP JUMPDEST SWAP2 POP DUP3 PUSH1 0x2 MUL DUP3 OR SWAP1 POP SWAP3 SWAP2 POP POP JUMP JUMPDEST PUSH2 0x440 DUP3 PUSH2 0x206 JUMP JUMPDEST PUSH8 0xFFFFFFFFFFFFFFFF DUP2 GT ISZERO PUSH2 0x459 JUMPI PUSH2 0x458 PUSH2 0x210 JUMP JUMPDEST JUMPDEST PUSH2 0x463 DUP3 SLOAD PUSH2 0x26A JUMP JUMPDEST PUSH2 0x46E DUP3 DUP3 DUP6 PUSH2 0x3AE JUMP JUMPDEST PUSH0 PUSH1 0x20 SWAP1 POP PUSH1 0x1F DUP4 GT PUSH1 0x1 DUP2 EQ PUSH2 0x49F JUMPI PUSH0 DUP5 ISZERO PUSH2 0x48D JUMPI DUP3 DUP8 ADD MLOAD SWAP1 POP JUMPDEST PUSH2 0x497 DUP6 DUP3 PUSH2 0x41C JUMP JUMPDEST DUP7 SSTORE POP PUSH2 0x4FE JUMP JUMPDEST PUSH1 0x1F NOT DUP5 AND PUSH2 0x4AD DUP7 PUSH2 0x29A JUMP JUMPDEST PUSH0 JUMPDEST DUP3 DUP2 LT ISZERO PUSH2 0x4D4 JUMPI DUP5 DUP10 ADD MLOAD DUP3 SSTORE PUSH1 0x1 DUP3 ADD SWAP2 POP PUSH1 0x20 DUP6 ADD SWAP5 POP PUSH1 0x20 DUP2 ADD SWAP1 POP PUSH2 0x4AF JUMP JUMPDEST DUP7 DUP4 LT ISZERO PUSH2 0x4F1 JUMPI DUP5 DUP10 ADD MLOAD PUSH2 0x4ED PUSH1 0x1F DUP10 AND DUP3 PUSH2 0x400 JUMP JUMPDEST DUP4 SSTORE POP JUMPDEST PUSH1 0x1 PUSH1 0x2 DUP9 MUL ADD DUP9 SSTORE POP POP POP JUMPDEST POP POP POP POP POP POP JUMP JUMPDEST PUSH2 0xCF4 DUP1 PUSH2 0x513 PUSH0 CODECOPY PUSH0 RETURN INVALID PUSH1 0x80 PUSH1 0x40 MSTORE CALLVALUE DUP1 ISZERO PUSH2 0xF JUMPI PUSH0 DUP1 REVERT JUMPDEST POP PUSH1 0x4 CALLDATASIZE LT PUSH2 0x3F JUMPI PUSH0 CALLDATALOAD PUSH1 0xE0 SHR DUP1 PUSH4 0x4C07569 EQ PUSH2 0x43 JUMPI DUP1 PUSH4 0x8F07AE3F EQ PUSH2 0x73 JUMPI DUP1 PUSH4 0xC7594183 EQ PUSH2 0x8F JUMPI JUMPDEST PUSH0 DUP1 REVERT JUMPDEST PUSH2 0x5D PUSH1 0x4 DUP1 CALLDATASIZE SUB DUP2 ADD SWAP1 PUSH2 0x58 SWAP2 SWAP1 PUSH2 0x532 JUMP JUMPDEST PUSH2 0xAD JUMP JUMPDEST PUSH1 0x40 MLOAD PUSH2 0x6A SWAP2 SWAP1 PUSH2 0x667 JUMP JUMPDEST PUSH1 0x40 MLOAD DUP1 SWAP2 SUB SWAP1 RETURN JUMPDEST PUSH2 0x8D PUSH1 0x4 DUP1 CALLDATASIZE SUB DUP2 ADD SWAP1 PUSH2 0x88 SWAP2 SWAP1 PUSH2 0x7B3 JUMP JUMPDEST PUSH2 0x1E3 JUMP JUMPDEST STOP JUMPDEST PUSH2 0x97 PUSH2 0x3BF JUMP JUMPDEST PUSH1 0x40 MLOAD PUSH2 0xA4 SWAP2 SWAP1 PUSH2 0x667 JUMP JUMPDEST PUSH1 0x40 MLOAD DUP1 SWAP2 SUB SWAP1 RETURN JUMPDEST PUSH2 0xB5 PUSH2 0x4BD JUMP JUMPDEST PUSH0 DUP1 SLOAD SWAP1 POP DUP3 LT PUSH2 0xFB JUMPI PUSH1 0x40 MLOAD PUSH32 0x8C379A000000000000000000000000000000000000000000000000000000000 DUP2 MSTORE PUSH1 0x4 ADD PUSH2 0xF2 SWAP1 PUSH2 0x854 JUMP JUMPDEST PUSH1 0x40 MLOAD DUP1 SWAP2 SUB SWAP1 REVERT JUMPDEST PUSH0 DUP3 DUP2 SLOAD DUP2 LT PUSH2 0x10E JUMPI PUSH2 0x10D PUSH2 0x872 JUMP JUMPDEST JUMPDEST SWAP1 PUSH0 MSTORE PUSH1 0x20 PUSH0 KECCAK256 SWAP1 PUSH1 0x5 MUL ADD PUSH1 0x40 MLOAD DUP1 PUSH1 0xA0 ADD PUSH1 0x40 MSTORE SWAP1 DUP2 PUSH0 DUP3 ADD SLOAD DUP2 MSTORE PUSH1 0x20 ADD PUSH1 0x1 DUP3 ADD SLOAD DUP2 MSTORE PUSH1 0x20 ADD PUSH1 0x2 DUP3 ADD DUP1 SLOAD PUSH2 0x148 SWAP1 PUSH2 0x8CC JUMP JUMPDEST DUP1 PUSH1 0x1F ADD PUSH1 0x20 DUP1 SWAP2 DIV MUL PUSH1 0x20 ADD PUSH1 0x40 MLOAD SWAP1 DUP2 ADD PUSH1 0x40 MSTORE DUP1 SWAP3 SWAP2 SWAP1 DUP2 DUP2 MSTORE PUSH1 0x20 ADD DUP3 DUP1 SLOAD PUSH2 0x174 SWAP1 PUSH2 0x8CC JUMP JUMPDEST DUP1 ISZERO PUSH2 0x1BF JUMPI DUP1 PUSH1 0x1F LT PUSH2 0x196 JUMPI PUSH2 0x100 DUP1 DUP4 SLOAD DIV MUL DUP4 MSTORE SWAP2 PUSH1 0x20 ADD SWAP2 PUSH2 0x1BF JUMP JUMPDEST DUP3 ADD SWAP2 SWAP1 PUSH0 MSTORE PUSH1 0x20 PUSH0 KECCAK256 SWAP1 JUMPDEST DUP2 SLOAD DUP2 MSTORE SWAP1 PUSH1 0x1 ADD SWAP1 PUSH1 0x20 ADD DUP1 DUP4 GT PUSH2 0x1A2 JUMPI DUP3 SWAP1 SUB PUSH1 0x1F AND DUP3 ADD SWAP2 JUMPDEST POP POP POP POP POP DUP2 MSTORE PUSH1 0x20 ADD PUSH1 0x3 DUP3 ADD SLOAD DUP2 MSTORE PUSH1 0x20 ADD PUSH1 0x4 DUP3 ADD SLOAD DUP2 MSTORE POP POP SWAP1 POP SWAP2 SWAP1 POP JUMP JUMPDEST PUSH0 DUP1 PUSH1 0x1 PUSH0 DUP1 SLOAD SWAP1 POP PUSH2 0x1F6 SWAP2 SWAP1 PUSH2 0x929 JUMP JUMPDEST DUP2 SLOAD DUP2 LT PUSH2 0x207 JUMPI PUSH2 0x206 PUSH2 0x872 JUMP JUMPDEST JUMPDEST SWAP1 PUSH0 MSTORE PUSH1 0x20 PUSH0 KECCAK256 SWAP1 PUSH1 0x5 MUL ADD PUSH1 0x40 MLOAD DUP1 PUSH1 0xA0 ADD PUSH1 0x40 MSTORE SWAP1 DUP2 PUSH0 DUP3 ADD SLOAD DUP2 MSTORE PUSH1 0x20 ADD PUSH1 0x1 DUP3 ADD SLOAD DUP2 MSTORE PUSH1 0x20 ADD PUSH1 0x2 DUP3 ADD DUP1 SLOAD PUSH2 0x241 SWAP1 PUSH2 0x8CC JUMP JUMPDEST DUP1 PUSH1 0x1F ADD PUSH1 0x20 DUP1 SWAP2 DIV MUL PUSH1 0x20 ADD PUSH1 0x40 MLOAD SWAP1 DUP2 ADD PUSH1 0x40 MSTORE DUP1 SWAP3 SWAP2 SWAP1 DUP2 DUP2 MSTORE PUSH1 0x20 ADD DUP3 DUP1 SLOAD PUSH2 0x26D SWAP1 PUSH2 0x8CC JUMP JUMPDEST DUP1 ISZERO PUSH2 0x2B8 JUMPI DUP1 PUSH1 0x1F LT PUSH2 0x28F JUMPI PUSH2 0x100 DUP1 DUP4 SLOAD DIV MUL DUP4 MSTORE SWAP2 PUSH1 0x20 ADD SWAP2 PUSH2 0x2B8 JUMP JUMPDEST DUP3 ADD SWAP2 SWAP1 PUSH0 MSTORE PUSH1 0x20 PUSH0 KECCAK256 SWAP1 JUMPDEST DUP2 SLOAD DUP2 MSTORE SWAP1 PUSH1 0x1 ADD SWAP1 PUSH1 0x20 ADD DUP1 DUP4 GT PUSH2 0x29B JUMPI DUP3 SWAP1 SUB PUSH1 0x1F AND DUP3 ADD SWAP2 JUMPDEST POP POP POP POP POP DUP2 MSTORE PUSH1 0x20 ADD PUSH1 0x3 DUP3 ADD SLOAD DUP2 MSTORE PUSH1 0x20 ADD PUSH1 0x4 DUP3 ADD SLOAD DUP2 MSTORE POP POP SWAP1 POP PUSH0 PUSH1 0x1 DUP3 PUSH0 ADD MLOAD PUSH2 0x2E8 SWAP2 SWAP1 PUSH2 0x95C JUMP JUMPDEST SWAP1 POP PUSH0 TIMESTAMP SWAP1 POP PUSH0 DUP4 PUSH1 0x80 ADD MLOAD SWAP1 POP PUSH0 DUP4 DUP4 DUP8 DUP5 PUSH1 0x40 MLOAD PUSH1 0x20 ADD PUSH2 0x30E SWAP5 SWAP4 SWAP3 SWAP2 SWAP1 PUSH2 0xA09 JUMP JUMPDEST PUSH1 0x40 MLOAD PUSH1 0x20 DUP2 DUP4 SUB SUB DUP2 MSTORE SWAP1 PUSH1 0x40 MSTORE DUP1 MLOAD SWAP1 PUSH1 0x20 ADD KECCAK256 SWAP1 POP PUSH0 PUSH1 0x40 MLOAD DUP1 PUSH1 0xA0 ADD PUSH1 0x40 MSTORE DUP1 DUP7 DUP2 MSTORE PUSH1 0x20 ADD DUP6 DUP2 MSTORE PUSH1 0x20 ADD DUP9 DUP2 MSTORE PUSH1 0x20 ADD DUP5 DUP2 MSTORE PUSH1 0x20 ADD DUP4 DUP2 MSTORE POP SWAP1 POP PUSH0 DUP2 SWAP1 DUP1 PUSH1 0x1 DUP2 SLOAD ADD DUP1 DUP3 SSTORE DUP1 SWAP2 POP POP PUSH1 0x1 SWAP1 SUB SWAP1 PUSH0 MSTORE PUSH1 0x20 PUSH0 KECCAK256 SWAP1 PUSH1 0x5 MUL ADD PUSH0 SWAP1 SWAP2 SWAP1 SWAP2 SWAP1 SWAP2 POP PUSH0 DUP3 ADD MLOAD DUP2 PUSH0 ADD SSTORE PUSH1 0x20 DUP3 ADD MLOAD DUP2 PUSH1 0x1 ADD SSTORE PUSH1 0x40 DUP3 ADD MLOAD DUP2 PUSH1 0x2 ADD SWAP1 DUP2 PUSH2 0x39F SWAP2 SWAP1 PUSH2 0xBEF JUMP JUMPDEST POP PUSH1 0x60 DUP3 ADD MLOAD DUP2 PUSH1 0x3 ADD SSTORE PUSH1 0x80 DUP3 ADD MLOAD DUP2 PUSH1 0x4 ADD SSTORE POP POP POP POP POP POP POP POP POP JUMP JUMPDEST PUSH2 0x3C7 PUSH2 0x4BD JUMP JUMPDEST PUSH0 PUSH1 0x1 PUSH0 DUP1 SLOAD SWAP1 POP PUSH2 0x3D9 SWAP2 SWAP1 PUSH2 0x929 JUMP JUMPDEST DUP2 SLOAD DUP2 LT PUSH2 0x3EA JUMPI PUSH2 0x3E9 PUSH2 0x872 JUMP JUMPDEST JUMPDEST SWAP1 PUSH0 MSTORE PUSH1 0x20 PUSH0 KECCAK256 SWAP1 PUSH1 0x5 MUL ADD PUSH1 0x40 MLOAD DUP1 PUSH1 0xA0 ADD PUSH1 0x40 MSTORE SWAP1 DUP2 PUSH0 DUP3 ADD SLOAD DUP2 MSTORE PUSH1 0x20 ADD PUSH1 0x1 DUP3 ADD SLOAD DUP2 MSTORE PUSH1 0x20 ADD PUSH1 0x2 DUP3 ADD DUP1 SLOAD PUSH2 0x424 SWAP1 PUSH2 0x8CC JUMP JUMPDEST DUP1 PUSH1 0x1F ADD PUSH1 0x20 DUP1 SWAP2 DIV MUL PUSH1 0x20 ADD PUSH1 0x40 MLOAD SWAP1 DUP2 ADD PUSH1 0x40 MSTORE DUP1 SWAP3 SWAP2 SWAP1 DUP2 DUP2 MSTORE PUSH1 0x20 ADD DUP3 DUP1 SLOAD PUSH2 0x450 SWAP1 PUSH2 0x8CC JUMP JUMPDEST DUP1 ISZERO PUSH2 0x49B JUMPI DUP1 PUSH1 0x1F LT PUSH2 0x472 JUMPI PUSH2 0x100 DUP1 DUP4 SLOAD DIV MUL DUP4 MSTORE SWAP2 PUSH1 0x20 ADD SWAP2 PUSH2 0x49B JUMP JUMPDEST DUP3 ADD SWAP2 SWAP1 PUSH0 MSTORE PUSH1 0x20 PUSH0 KECCAK256 SWAP1 JUMPDEST DUP2 SLOAD DUP2 MSTORE SWAP1 PUSH1 0x1 ADD SWAP1 PUSH1 0x20 ADD DUP1 DUP4 GT PUSH2 0x47E JUMPI DUP3 SWAP1 SUB PUSH1 0x1F AND DUP3 ADD SWAP2 JUMPDEST POP POP POP POP POP DUP2 MSTORE PUSH1 0x20 ADD PUSH1 0x3 DUP3 ADD SLOAD DUP2 MSTORE PUSH1 0x20 ADD PUSH1 0x4 DUP3 ADD SLOAD DUP2 MSTORE POP POP SWAP1 POP SWAP1 JUMP JUMPDEST PUSH1 0x40 MLOAD DUP1 PUSH1 0xA0 ADD PUSH1 0x40 MSTORE DUP1 PUSH0 DUP2 MSTORE PUSH1 0x20 ADD PUSH0 DUP2 MSTORE PUSH1 0x20 ADD PUSH1 0x60 DUP2 MSTORE PUSH1 0x20 ADD PUSH0 DUP1 NOT AND DUP2 MSTORE PUSH1 0x20 ADD PUSH0 DUP1 NOT AND DUP2 MSTORE POP SWAP1 JUMP JUMPDEST PUSH0 PUSH1 0x40 MLOAD SWAP1 POP SWAP1 JUMP JUMPDEST PUSH0 DUP1 REVERT JUMPDEST PUSH0 DUP1 REVERT JUMPDEST PUSH0 DUP2 SWAP1 POP SWAP2 SWAP1 POP JUMP JUMPDEST PUSH2 0x511 DUP2 PUSH2 0x4FF JUMP JUMPDEST DUP2 EQ PUSH2 0x51B JUMPI PUSH0 DUP1 REVERT JUMPDEST POP JUMP JUMPDEST PUSH0 DUP2 CALLDATALOAD SWAP1 POP PUSH2 0x52C DUP2 PUSH2 0x508 JUMP JUMPDEST SWAP3 SWAP2 POP POP JUMP JUMPDEST PUSH0 PUSH1 0x20 DUP3 DUP5 SUB SLT ISZERO PUSH2 0x547 JUMPI PUSH2 0x546 PUSH2 0x4F7 JUMP JUMPDEST JUMPDEST PUSH0 PUSH2 0x554 DUP5 DUP3 DUP6 ADD PUSH2 0x51E JUMP JUMPDEST SWAP2 POP POP SWAP3 SWAP2 POP POP JUMP JUMPDEST PUSH2 0x566 DUP2 PUSH2 0x4FF JUMP JUMPDEST DUP3 MSTORE POP POP JUMP JUMPDEST PUSH0 DUP2 MLOAD SWAP1 POP SWAP2 SWAP1 POP JUMP JUMPDEST PUSH0 DUP3 DUP3 MSTORE PUSH1 0x20 DUP3 ADD SWAP1 POP SWAP3 SWAP2 POP POP JUMP JUMPDEST DUP3 DUP2 DUP4 MCOPY PUSH0 DUP4 DUP4 ADD MSTORE POP POP POP JUMP JUMPDEST PUSH0 PUSH1 0x1F NOT PUSH1 0x1F DUP4 ADD AND SWAP1 POP SWAP2 SWAP1 POP JUMP JUMPDEST PUSH0 PUSH2 0x5AE DUP3 PUSH2 0x56C JUMP JUMPDEST PUSH2 0x5B8 DUP2 DUP6 PUSH2 0x576 JUMP JUMPDEST SWAP4 POP PUSH2 0x5C8 DUP2 DUP6 PUSH1 0x20 DUP7 ADD PUSH2 0x586 JUMP JUMPDEST PUSH2 0x5D1 DUP2 PUSH2 0x594 JUMP JUMPDEST DUP5 ADD SWAP2 POP POP SWAP3 SWAP2 POP POP JUMP JUMPDEST PUSH0 DUP2 SWAP1 POP SWAP2 SWAP1 POP JUMP JUMPDEST PUSH2 0x5EE DUP2 PUSH2 0x5DC JUMP JUMPDEST DUP3 MSTORE POP POP JUMP JUMPDEST PUSH0 PUSH1 0xA0 DUP4 ADD PUSH0 DUP4 ADD MLOAD PUSH2 0x609 PUSH0 DUP7 ADD DUP3 PUSH2 0x55D JUMP JUMPDEST POP PUSH1 0x20 DUP4 ADD MLOAD PUSH2 0x61C PUSH1 0x20 DUP7 ADD DUP3 PUSH2 0x55D JUMP JUMPDEST POP PUSH1 0x40 DUP4 ADD MLOAD DUP5 DUP3 SUB PUSH1 0x40 DUP7 ADD MSTORE PUSH2 0x634 DUP3 DUP3 PUSH2 0x5A4 JUMP JUMPDEST SWAP2 POP POP PUSH1 0x60 DUP4 ADD MLOAD PUSH2 0x649 PUSH1 0x60 DUP7 ADD DUP3 PUSH2 0x5E5 JUMP JUMPDEST POP PUSH1 0x80 DUP4 ADD MLOAD PUSH2 0x65C PUSH1 0x80 DUP7 ADD DUP3 PUSH2 0x5E5 JUMP JUMPDEST POP DUP1 SWAP2 POP POP SWAP3 SWAP2 POP POP JUMP JUMPDEST PUSH0 PUSH1 0x20 DUP3 ADD SWAP1 POP DUP2 DUP2 SUB PUSH0 DUP4 ADD MSTORE PUSH2 0x67F DUP2 DUP5 PUSH2 0x5F4 JUMP JUMPDEST SWAP1 POP SWAP3 SWAP2 POP POP JUMP JUMPDEST PUSH0 DUP1 REVERT JUMPDEST PUSH0 DUP1 REVERT JUMPDEST PUSH32 0x4E487B7100000000000000000000000000000000000000000000000000000000 PUSH0 MSTORE PUSH1 0x41 PUSH1 0x4 MSTORE PUSH1 0x24 PUSH0 REVERT JUMPDEST PUSH2 0x6C5 DUP3 PUSH2 0x594 JUMP JUMPDEST DUP2 ADD DUP2 DUP2 LT PUSH8 0xFFFFFFFFFFFFFFFF DUP3 GT OR ISZERO PUSH2 0x6E4 JUMPI PUSH2 0x6E3 PUSH2 0x68F JUMP JUMPDEST JUMPDEST DUP1 PUSH1 0x40 MSTORE POP POP POP JUMP JUMPDEST PUSH0 PUSH2 0x6F6 PUSH2 0x4EE JUMP JUMPDEST SWAP1 POP PUSH2 0x702 DUP3 DUP3 PUSH2 0x6BC JUMP JUMPDEST SWAP2 SWAP1 POP JUMP JUMPDEST PUSH0 PUSH8 0xFFFFFFFFFFFFFFFF DUP3 GT ISZERO PUSH2 0x721 JUMPI PUSH2 0x720 PUSH2 0x68F JUMP JUMPDEST JUMPDEST PUSH2 0x72A DUP3 PUSH2 0x594 JUMP JUMPDEST SWAP1 POP PUSH1 0x20 DUP2 ADD SWAP1 POP SWAP2 SWAP1 POP JUMP JUMPDEST DUP3 DUP2 DUP4 CALLDATACOPY PUSH0 DUP4 DUP4 ADD MSTORE POP POP POP JUMP JUMPDEST PUSH0 PUSH2 0x757 PUSH2 0x752 DUP5 PUSH2 0x707 JUMP JUMPDEST PUSH2 0x6ED JUMP JUMPDEST SWAP1 POP DUP3 DUP2 MSTORE PUSH1 0x20 DUP2 ADD DUP5 DUP5 DUP5 ADD GT ISZERO PUSH2 0x773 JUMPI PUSH2 0x772 PUSH2 0x68B JUMP JUMPDEST JUMPDEST PUSH2 0x77E DUP5 DUP3 DUP6 PUSH2 0x737 JUMP JUMPDEST POP SWAP4 SWAP3 POP POP POP JUMP JUMPDEST PUSH0 DUP3 PUSH1 0x1F DUP4 ADD SLT PUSH2 0x79A JUMPI PUSH2 0x799 PUSH2 0x687 JUMP JUMPDEST JUMPDEST DUP2 CALLDATALOAD PUSH2 0x7AA DUP5 DUP3 PUSH1 0x20 DUP7 ADD PUSH2 0x745 JUMP JUMPDEST SWAP2 POP POP SWAP3 SWAP2 POP POP JUMP JUMPDEST PUSH0 PUSH1 0x20 DUP3 DUP5 SUB SLT ISZERO PUSH2 0x7C8 JUMPI PUSH2 0x7C7 PUSH2 0x4F7 JUMP JUMPDEST JUMPDEST PUSH0 DUP3 ADD CALLDATALOAD PUSH8 0xFFFFFFFFFFFFFFFF DUP2 GT ISZERO PUSH2 0x7E5 JUMPI PUSH2 0x7E4 PUSH2 0x4FB JUMP JUMPDEST JUMPDEST PUSH2 0x7F1 DUP5 DUP3 DUP6 ADD PUSH2 0x786 JUMP JUMPDEST SWAP2 POP POP SWAP3 SWAP2 POP POP JUMP JUMPDEST PUSH0 DUP3 DUP3 MSTORE PUSH1 0x20 DUP3 ADD SWAP1 POP SWAP3 SWAP2 POP POP JUMP JUMPDEST PUSH32 0x426C6F636B20646F6573206E6F742065786973742E0000000000000000000000 PUSH0 DUP3 ADD MSTORE POP JUMP JUMPDEST PUSH0 PUSH2 0x83E PUSH1 0x15 DUP4 PUSH2 0x7FA JUMP JUMPDEST SWAP2 POP PUSH2 0x849 DUP3 PUSH2 0x80A JUMP JUMPDEST PUSH1 0x20 DUP3 ADD SWAP1 POP SWAP2 SWAP1 POP JUMP JUMPDEST PUSH0 PUSH1 0x20 DUP3 ADD SWAP1 POP DUP2 DUP2 SUB PUSH0 DUP4 ADD MSTORE PUSH2 0x86B DUP2 PUSH2 0x832 JUMP JUMPDEST SWAP1 POP SWAP2 SWAP1 POP JUMP JUMPDEST PUSH32 0x4E487B7100000000000000000000000000000000000000000000000000000000 PUSH0 MSTORE PUSH1 0x32 PUSH1 0x4 MSTORE PUSH1 0x24 PUSH0 REVERT JUMPDEST PUSH32 0x4E487B7100000000000000000000000000000000000000000000000000000000 PUSH0 MSTORE PUSH1 0x22 PUSH1 0x4 MSTORE PUSH1 0x24 PUSH0 REVERT JUMPDEST PUSH0 PUSH1 0x2 DUP3 DIV SWAP1 POP PUSH1 0x1 DUP3 AND DUP1 PUSH2 0x8E3 JUMPI PUSH1 0x7F DUP3 AND SWAP2 POP JUMPDEST PUSH1 0x20 DUP3 LT DUP2 SUB PUSH2 0x8F6 JUMPI PUSH2 0x8F5 PUSH2 0x89F JUMP JUMPDEST JUMPDEST POP SWAP2 SWAP1 POP JUMP JUMPDEST PUSH32 0x4E487B7100000000000000000000000000000000000000000000000000000000 PUSH0 MSTORE PUSH1 0x11 PUSH1 0x4 MSTORE PUSH1 0x24 PUSH0 REVERT JUMPDEST PUSH0 PUSH2 0x933 DUP3 PUSH2 0x4FF JUMP JUMPDEST SWAP2 POP PUSH2 0x93E DUP4 PUSH2 0x4FF JUMP JUMPDEST SWAP3 POP DUP3 DUP3 SUB SWAP1 POP DUP2 DUP2 GT ISZERO PUSH2 0x956 JUMPI PUSH2 0x955 PUSH2 0x8FC JUMP JUMPDEST JUMPDEST SWAP3 SWAP2 POP POP JUMP JUMPDEST PUSH0 PUSH2 0x966 DUP3 PUSH2 0x4FF JUMP JUMPDEST SWAP2 POP PUSH2 0x971 DUP4 PUSH2 0x4FF JUMP JUMPDEST SWAP3 POP DUP3 DUP3 ADD SWAP1 POP DUP1 DUP3 GT ISZERO PUSH2 0x989 JUMPI PUSH2 0x988 PUSH2 0x8FC JUMP JUMPDEST JUMPDEST SWAP3 SWAP2 POP POP JUMP JUMPDEST PUSH0 DUP2 SWAP1 POP SWAP2 SWAP1 POP JUMP JUMPDEST PUSH2 0x9A9 PUSH2 0x9A4 DUP3 PUSH2 0x4FF JUMP JUMPDEST PUSH2 0x98F JUMP JUMPDEST DUP3 MSTORE POP POP JUMP JUMPDEST PUSH0 DUP2 SWAP1 POP SWAP3 SWAP2 POP POP JUMP JUMPDEST PUSH0 PUSH2 0x9C3 DUP3 PUSH2 0x56C JUMP JUMPDEST PUSH2 0x9CD DUP2 DUP6 PUSH2 0x9AF JUMP JUMPDEST SWAP4 POP PUSH2 0x9DD DUP2 DUP6 PUSH1 0x20 DUP7 ADD PUSH2 0x586 JUMP JUMPDEST DUP1 DUP5 ADD SWAP2 POP POP SWAP3 SWAP2 POP POP JUMP JUMPDEST PUSH0 DUP2 SWAP1 POP SWAP2 SWAP1 POP JUMP JUMPDEST PUSH2 0xA03 PUSH2 0x9FE DUP3 PUSH2 0x5DC JUMP JUMPDEST PUSH2 0x9E9 JUMP JUMPDEST DUP3 MSTORE POP POP JUMP JUMPDEST PUSH0 PUSH2 0xA14 DUP3 DUP8 PUSH2 0x998 JUMP JUMPDEST PUSH1 0x20 DUP3 ADD SWAP2 POP PUSH2 0xA24 DUP3 DUP7 PUSH2 0x998 JUMP JUMPDEST PUSH1 0x20 DUP3 ADD SWAP2 POP PUSH2 0xA34 DUP3 DUP6 PUSH2 0x9B9 JUMP JUMPDEST SWAP2 POP PUSH2 0xA40 DUP3 DUP5 PUSH2 0x9F2 JUMP JUMPDEST PUSH1 0x20 DUP3 ADD SWAP2 POP DUP2 SWAP1 POP SWAP6 SWAP5 POP POP POP POP POP JUMP JUMPDEST PUSH0 DUP2 SWAP1 POP DUP2 PUSH0 MSTORE PUSH1 0x20 PUSH0 KECCAK256 SWAP1 POP SWAP2 SWAP1 POP JUMP JUMPDEST PUSH0 PUSH1 0x20 PUSH1 0x1F DUP4 ADD DIV SWAP1 POP SWAP2 SWAP1 POP JUMP JUMPDEST PUSH0 DUP3 DUP3 SHL SWAP1 POP SWAP3 SWAP2 POP POP JUMP JUMPDEST PUSH0 PUSH1 0x8 DUP4 MUL PUSH2 0xAAE PUSH32 0xFFFFFFFFFFFFFFFFFFFFFFFFFFFFFFFFFFFFFFFFFFFFFFFFFFFFFFFFFFFFFFFF DUP3 PUSH2 0xA73 JUMP JUMPDEST PUSH2 0xAB8 DUP7 DUP4 PUSH2 0xA73 JUMP JUMPDEST SWAP6 POP DUP1 NOT DUP5 AND SWAP4 POP DUP1 DUP7 AND DUP5 OR SWAP3 POP POP POP SWAP4 SWAP3 POP POP POP JUMP JUMPDEST PUSH0 DUP2 SWAP1 POP SWAP2 SWAP1 POP JUMP JUMPDEST PUSH0 PUSH2 0xAF3 PUSH2 0xAEE PUSH2 0xAE9 DUP5 PUSH2 0x4FF JUMP JUMPDEST PUSH2 0xAD0 JUMP JUMPDEST PUSH2 0x4FF JUMP JUMPDEST SWAP1 POP SWAP2 SWAP1 POP JUMP JUMPDEST PUSH0 DUP2 SWAP1 POP SWAP2 SWAP1 POP JUMP JUMPDEST PUSH2 0xB0C DUP4 PUSH2 0xAD9 JUMP JUMPDEST PUSH2 0xB20 PUSH2 0xB18 DUP3 PUSH2 0xAFA JUMP JUMPDEST DUP5 DUP5 SLOAD PUSH2 0xA7F JUMP JUMPDEST DUP3 SSTORE POP POP POP POP JUMP JUMPDEST PUSH0 SWAP1 JUMP JUMPDEST PUSH2 0xB34 PUSH2 0xB28 JUMP JUMPDEST PUSH2 0xB3F DUP2 DUP5 DUP5 PUSH2 0xB03 JUMP JUMPDEST POP POP POP JUMP JUMPDEST JUMPDEST DUP2 DUP2 LT ISZERO PUSH2 0xB62 JUMPI PUSH2 0xB57 PUSH0 DUP3 PUSH2 0xB2C JUMP JUMPDEST PUSH1 0x1 DUP2 ADD SWAP1 POP PUSH2 0xB45 JUMP JUMPDEST POP POP JUMP JUMPDEST PUSH1 0x1F DUP3 GT ISZERO PUSH2 0xBA7 JUMPI PUSH2 0xB78 DUP2 PUSH2 0xA52 JUMP JUMPDEST PUSH2 0xB81 DUP5 PUSH2 0xA64 JUMP JUMPDEST DUP2 ADD PUSH1 0x20 DUP6 LT ISZERO PUSH2 0xB90 JUMPI DUP2 SWAP1 POP JUMPDEST PUSH2 0xBA4 PUSH2 0xB9C DUP6 PUSH2 0xA64 JUMP JUMPDEST DUP4 ADD DUP3 PUSH2 0xB44 JUMP JUMPDEST POP POP JUMPDEST POP POP POP JUMP JUMPDEST PUSH0 DUP3 DUP3 SHR SWAP1 POP SWAP3 SWAP2 POP POP JUMP JUMPDEST PUSH0 PUSH2 0xBC7 PUSH0 NOT DUP5 PUSH1 0x8 MUL PUSH2 0xBAC JUMP JUMPDEST NOT DUP1 DUP4 AND SWAP2 POP POP SWAP3 SWAP2 POP POP JUMP JUMPDEST PUSH0 PUSH2 0xBDF DUP4 DUP4 PUSH2 0xBB8 JUMP JUMPDEST SWAP2 POP DUP3 PUSH1 0x2 MUL DUP3 OR SWAP1 POP SWAP3 SWAP2 POP POP JUMP JUMPDEST PUSH2 0xBF8 DUP3 PUSH2 0x56C JUMP JUMPDEST PUSH8 0xFFFFFFFFFFFFFFFF DUP2 GT ISZERO PUSH2 0xC11 JUMPI PUSH2 0xC10 PUSH2 0x68F JUMP JUMPDEST JUMPDEST PUSH2 0xC1B DUP3 SLOAD PUSH2 0x8CC JUMP JUMPDEST PUSH2 0xC26 DUP3 DUP3 DUP6 PUSH2 0xB66 JUMP JUMPDEST PUSH0 PUSH1 0x20 SWAP1 POP PUSH1 0x1F DUP4 GT PUSH1 0x1 DUP2 EQ PUSH2 0xC57 JUMPI PUSH0 DUP5 ISZERO PUSH2 0xC45 JUMPI DUP3 DUP8 ADD MLOAD SWAP1 POP JUMPDEST PUSH2 0xC4F DUP6 DUP3 PUSH2 0xBD4 JUMP JUMPDEST DUP7 SSTORE POP PUSH2 0xCB6 JUMP JUMPDEST PUSH1 0x1F NOT DUP5 AND PUSH2 0xC65 DUP7 PUSH2 0xA52 JUMP JUMPDEST PUSH0 JUMPDEST DUP3 DUP2 LT ISZERO PUSH2 0xC8C JUMPI DUP5 DUP10 ADD MLOAD DUP3 SSTORE PUSH1 0x1 DUP3 ADD SWAP2 POP PUSH1 0x20 DUP6 ADD SWAP5 POP PUSH1 0x20 DUP2 ADD SWAP1 POP PUSH2 0xC67 JUMP JUMPDEST DUP7 DUP4 LT ISZERO PUSH2 0xCA9 JUMPI DUP5 DUP10 ADD MLOAD PUSH2 0xCA5 PUSH1 0x1F DUP10 AND DUP3 PUSH2 0xBB8 JUMP JUMPDEST DUP4 SSTORE POP JUMPDEST PUSH1 0x1 PUSH1 0x2 DUP9 MUL ADD DUP9 SSTORE POP POP POP JUMPDEST POP POP POP POP POP POP JUMP INVALID LOG2 PUSH5 0x6970667358 0x22 SLT KECCAK256 SWAP10 0xC1 PREVRANDAO 0x26 0x25 0x4D SWAP14 0xE1 CALL PUSH16 0xC07B09E9A0DDD9CAA1CE62DB8A01D80F 0xAD 0xE8 KECCAK256 SWAP12 0xC0 SWAP12 PUSH5 0x736F6C6343 STOP ADDMOD BYTE STOP CALLER "
				},
				"gasEstimates": {
					"creation": {
						"codeDepositCost": "663200",
						"executionCost": "infinite",
						"totalCost": "infinite"
					},
					"external": {
						"addblock(string)": "infinite",
						"getBlock(uint256)": "infinite",
						"getlatestchain()": "infinite"
					},
					"internal": {
						"create()": "infinite"
					}
				},
				"methodIdentifiers": {
					"addblock(string)": "8f07ae3f",
					"getBlock(uint256)": "04c07569",
					"getlatestchain()": "c7594183"
				}
			},
			"storageLayout": {
				"storage": [
					{
						"astId": 16,
						"contract": "BC/prac1.sol:Storage",
						"label": "blockchain",
						"offset": 0,
						"slot": "0",
						"type": "t_array(t_struct(Block)12_storage)dyn_storage"
					}
				],
				"types": {
					"t_array(t_struct(Block)12_storage)dyn_storage": {
						"base": "t_struct(Block)12_storage",
						"encoding": "dynamic_array",
						"label": "struct Storage.Block[]",
						"numberOfBytes": "32"
					},
					"t_bytes32": {
						"encoding": "inplace",
						"label": "bytes32",
						"numberOfBytes": "32"
					},
					"t_string_storage": {
						"encoding": "bytes",
						"label": "string",
						"numberOfBytes": "32"
					},
					"t_struct(Block)12_storage": {
						"encoding": "inplace",
						"label": "struct Storage.Block",
						"members": [
							{
								"astId": 3,
								"contract": "BC/prac1.sol:Storage",
								"label": "index",
								"offset": 0,
								"slot": "0",
								"type": "t_uint256"
							},
							{
								"astId": 5,
								"contract": "BC/prac1.sol:Storage",
								"label": "timestamp",
								"offset": 0,
								"slot": "1",
								"type": "t_uint256"
							},
							{
								"astId": 7,
								"contract": "BC/prac1.sol:Storage",
								"label": "data",
								"offset": 0,
								"slot": "2",
								"type": "t_string_storage"
							},
							{
								"astId": 9,
								"contract": "BC/prac1.sol:Storage",
								"label": "previoushah",
								"offset": 0,
								"slot": "3",
								"type": "t_bytes32"
							},
							{
								"astId": 11,
								"contract": "BC/prac1.sol:Storage",
								"label": "currenthash",
								"offset": 0,
								"slot": "4",
								"type": "t_bytes32"
							}
						],
						"numberOfBytes": "160"
					},
					"t_uint256": {
						"encoding": "inplace",
						"label": "uint256",
						"numberOfBytes": "32"
					}
				}
			},
			"userdoc": {
				"kind": "user",
				"methods": {},
				"version": 1
			}
		}
	}
}