{
	"BC/prac7.sol": {
		"cal": {
			"abi": [
				{
					"inputs": [],
					"name": "inth",
					"outputs": [],
					"stateMutability": "nonpayable",
					"type": "function"
				},
				{
					"inputs": [],
					"name": "result",
					"outputs": [
						{
							"internalType": "uint256",
							"name": "",
							"type": "uint256"
						}
					],
					"stateMutability": "view",
					"type": "function"
				}
			],
			"devdoc": {
				"kind": "dev",
				"methods": {},
				"version": 1
			},
			"evm": {
				"assembly": "    /* \"BC/prac7.sol\":339:555  contract cal{... */\n  mstore(0x40, 0x80)\n    /* \"BC/prac7.sol\":369:380  new child() */\n  mload(0x40)\n  tag_1\n  swap1\n  tag_2\n  jump\t// in\ntag_1:\n  mload(0x40)\n  dup1\n  swap2\n  sub\n  swap1\n  0x00\n  create\n  dup1\n  iszero\n  dup1\n  iszero\n  tag_3\n  jumpi\n  returndatasize\n  0x00\n  dup1\n  returndatacopy\n  revert(0x00, returndatasize)\ntag_3:\n  pop\n    /* \"BC/prac7.sol\":358:380  child cc = new child() */\n  0x00\n  dup1\n  0x0100\n  exp\n  dup2\n  sload\n  dup2\n  0xffffffffffffffffffffffffffffffffffffffff\n  mul\n  not\n  and\n  swap1\n  dup4\n  0xffffffffffffffffffffffffffffffffffffffff\n  and\n  mul\n  or\n  swap1\n  sstore\n  pop\n    /* \"BC/prac7.sol\":339:555  contract cal{... */\n  callvalue\n  dup1\n  iszero\n  tag_4\n  jumpi\n  0x00\n  dup1\n  revert\ntag_4:\n  pop\n  jump(tag_5)\ntag_2:\n  dataSize(sub_1)\n  dup1\n  dataOffset(sub_1)\n  dup4\n  codecopy\n  add\n  swap1\n  jump\t// out\ntag_5:\n  dataSize(sub_0)\n  dup1\n  dataOffset(sub_0)\n  0x00\n  codecopy\n  0x00\n  return\nstop\n\nsub_0: assembly {\n        /* \"BC/prac7.sol\":339:555  contract cal{... */\n      mstore(0x40, 0x80)\n      callvalue\n      dup1\n      iszero\n      tag_1\n      jumpi\n      0x00\n      dup1\n      revert\n    tag_1:\n      pop\n      jumpi(tag_2, lt(calldatasize, 0x04))\n      shr(0xe0, calldataload(0x00))\n      dup1\n      0x65372147\n      eq\n      tag_3\n      jumpi\n      dup1\n      0xe67d7a5c\n      eq\n      tag_4\n      jumpi\n    tag_2:\n      0x00\n      dup1\n      revert\n        /* \"BC/prac7.sol\":481:552  function result()public view returns(uint){... */\n    tag_3:\n      tag_5\n      tag_6\n      jump\t// in\n    tag_5:\n      mload(0x40)\n      tag_7\n      swap2\n      swap1\n      tag_8\n      jump\t// in\n    tag_7:\n      mload(0x40)\n      dup1\n      swap2\n      sub\n      swap1\n      return\n        /* \"BC/prac7.sol\":402:475  function inth()public{... */\n    tag_4:\n      tag_9\n      tag_10\n      jump\t// in\n    tag_9:\n      stop\n        /* \"BC/prac7.sol\":481:552  function result()public view returns(uint){... */\n    tag_6:\n        /* \"BC/prac7.sol\":518:522  uint */\n      0x00\n        /* \"BC/prac7.sol\":541:544  res */\n      sload(0x01)\n        /* \"BC/prac7.sol\":534:544  return res */\n      swap1\n      pop\n        /* \"BC/prac7.sol\":481:552  function result()public view returns(uint){... */\n      swap1\n      jump\t// out\n        /* \"BC/prac7.sol\":402:475  function inth()public{... */\n    tag_10:\n        /* \"BC/prac7.sol\":434:436  cc */\n      0x00\n      dup1\n      sload\n      swap1\n      0x0100\n      exp\n      swap1\n      div\n      0xffffffffffffffffffffffffffffffffffffffff\n      and\n        /* \"BC/prac7.sol\":434:440  cc.set */\n      0xffffffffffffffffffffffffffffffffffffffff\n      and\n      0xb8e010de\n        /* \"BC/prac7.sol\":434:442  cc.set() */\n      mload(0x40)\n      dup2\n      0xffffffff\n      and\n      0xe0\n      shl\n      dup2\n      mstore\n      0x04\n      add\n      0x00\n      mload(0x40)\n      dup1\n      dup4\n      sub\n      dup2\n      0x00\n      dup8\n      dup1\n      extcodesize\n      iszero\n      dup1\n      iszero\n      tag_13\n      jumpi\n      0x00\n      dup1\n      revert\n    tag_13:\n      pop\n      gas\n      call\n      iszero\n      dup1\n      iszero\n      tag_15\n      jumpi\n      returndatasize\n      0x00\n      dup1\n      returndatacopy\n      revert(0x00, returndatasize)\n    tag_15:\n      pop\n      pop\n      pop\n      pop\n        /* \"BC/prac7.sol\":459:461  cc */\n      0x00\n      dup1\n      sload\n      swap1\n      0x0100\n      exp\n      swap1\n      div\n      0xffffffffffffffffffffffffffffffffffffffff\n      and\n        /* \"BC/prac7.sol\":459:465  cc.get */\n      0xffffffffffffffffffffffffffffffffffffffff\n      and\n      0x6d4ce63c\n        /* \"BC/prac7.sol\":459:467  cc.get() */\n      mload(0x40)\n      dup2\n      0xffffffff\n      and\n      0xe0\n      shl\n      dup2\n      mstore\n      0x04\n      add\n      0x20\n      mload(0x40)\n      dup1\n      dup4\n      sub\n      dup2\n      dup7\n      gas\n      staticcall\n      iszero\n      dup1\n      iszero\n      tag_17\n      jumpi\n      returndatasize\n      0x00\n      dup1\n      returndatacopy\n      revert(0x00, returndatasize)\n    tag_17:\n      pop\n      pop\n      pop\n      pop\n      mload(0x40)\n      returndatasize\n      not(0x1f)\n      0x1f\n      dup3\n      add\n      and\n      dup3\n      add\n      dup1\n      0x40\n      mstore\n      pop\n      dup2\n      add\n      swap1\n      tag_18\n      swap2\n      swap1\n      tag_19\n      jump\t// in\n    tag_18:\n        /* \"BC/prac7.sol\":453:456  res */\n      0x01\n        /* \"BC/prac7.sol\":453:467  res = cc.get() */\n      dup2\n      swap1\n      sstore\n      pop\n        /* \"BC/prac7.sol\":402:475  function inth()public{... */\n      jump\t// out\n        /* \"#utility.yul\":7:84   */\n    tag_20:\n        /* \"#utility.yul\":44:51   */\n      0x00\n        /* \"#utility.yul\":73:78   */\n      dup2\n        /* \"#utility.yul\":62:78   */\n      swap1\n      pop\n        /* \"#utility.yul\":7:84   */\n      swap2\n      swap1\n      pop\n      jump\t// out\n        /* \"#utility.yul\":90:208   */\n    tag_21:\n        /* \"#utility.yul\":177:201   */\n      tag_30\n        /* \"#utility.yul\":195:200   */\n      dup2\n        /* \"#utility.yul\":177:201   */\n      tag_20\n      jump\t// in\n    tag_30:\n        /* \"#utility.yul\":172:175   */\n      dup3\n        /* \"#utility.yul\":165:202   */\n      mstore\n        /* \"#utility.yul\":90:208   */\n      pop\n      pop\n      jump\t// out\n        /* \"#utility.yul\":214:436   */\n    tag_8:\n        /* \"#utility.yul\":307:311   */\n      0x00\n        /* \"#utility.yul\":345:347   */\n      0x20\n        /* \"#utility.yul\":334:343   */\n      dup3\n        /* \"#utility.yul\":330:348   */\n      add\n        /* \"#utility.yul\":322:348   */\n      swap1\n      pop\n        /* \"#utility.yul\":358:429   */\n      tag_32\n        /* \"#utility.yul\":426:427   */\n      0x00\n        /* \"#utility.yul\":415:424   */\n      dup4\n        /* \"#utility.yul\":411:428   */\n      add\n        /* \"#utility.yul\":402:408   */\n      dup5\n        /* \"#utility.yul\":358:429   */\n      tag_21\n      jump\t// in\n    tag_32:\n        /* \"#utility.yul\":214:436   */\n      swap3\n      swap2\n      pop\n      pop\n      jump\t// out\n        /* \"#utility.yul\":523:640   */\n    tag_23:\n        /* \"#utility.yul\":632:633   */\n      0x00\n        /* \"#utility.yul\":629:630   */\n      dup1\n        /* \"#utility.yul\":622:634   */\n      revert\n        /* \"#utility.yul\":769:891   */\n    tag_25:\n        /* \"#utility.yul\":842:866   */\n      tag_37\n        /* \"#utility.yul\":860:865   */\n      dup2\n        /* \"#utility.yul\":842:866   */\n      tag_20\n      jump\t// in\n    tag_37:\n        /* \"#utility.yul\":835:840   */\n      dup2\n        /* \"#utility.yul\":832:867   */\n      eq\n        /* \"#utility.yul\":822:885   */\n      tag_38\n      jumpi\n        /* \"#utility.yul\":881:882   */\n      0x00\n        /* \"#utility.yul\":878:879   */\n      dup1\n        /* \"#utility.yul\":871:883   */\n      revert\n        /* \"#utility.yul\":822:885   */\n    tag_38:\n        /* \"#utility.yul\":769:891   */\n      pop\n      jump\t// out\n        /* \"#utility.yul\":897:1040   */\n    tag_26:\n        /* \"#utility.yul\":954:959   */\n      0x00\n        /* \"#utility.yul\":985:991   */\n      dup2\n        /* \"#utility.yul\":979:992   */\n      mload\n        /* \"#utility.yul\":970:992   */\n      swap1\n      pop\n        /* \"#utility.yul\":1001:1034   */\n      tag_40\n        /* \"#utility.yul\":1028:1033   */\n      dup2\n        /* \"#utility.yul\":1001:1034   */\n      tag_25\n      jump\t// in\n    tag_40:\n        /* \"#utility.yul\":897:1040   */\n      swap3\n      swap2\n      pop\n      pop\n      jump\t// out\n        /* \"#utility.yul\":1046:1397   */\n    tag_19:\n        /* \"#utility.yul\":1116:1122   */\n      0x00\n        /* \"#utility.yul\":1165:1167   */\n      0x20\n        /* \"#utility.yul\":1153:1162   */\n      dup3\n        /* \"#utility.yul\":1144:1151   */\n      dup5\n        /* \"#utility.yul\":1140:1163   */\n      sub\n        /* \"#utility.yul\":1136:1168   */\n      slt\n        /* \"#utility.yul\":1133:1252   */\n      iszero\n      tag_42\n      jumpi\n        /* \"#utility.yul\":1171:1250   */\n      tag_43\n      tag_23\n      jump\t// in\n    tag_43:\n        /* \"#utility.yul\":1133:1252   */\n    tag_42:\n        /* \"#utility.yul\":1291:1292   */\n      0x00\n        /* \"#utility.yul\":1316:1380   */\n      tag_44\n        /* \"#utility.yul\":1372:1379   */\n      dup5\n        /* \"#utility.yul\":1363:1369   */\n      dup3\n        /* \"#utility.yul\":1352:1361   */\n      dup6\n        /* \"#utility.yul\":1348:1370   */\n      add\n        /* \"#utility.yul\":1316:1380   */\n      tag_26\n      jump\t// in\n    tag_44:\n        /* \"#utility.yul\":1306:1380   */\n      swap2\n      pop\n        /* \"#utility.yul\":1262:1390   */\n      pop\n        /* \"#utility.yul\":1046:1397   */\n      swap3\n      swap2\n      pop\n      pop\n      jump\t// out\n\n    auxdata: 0xa2646970667358221220738d4d3e70771c45f67baf888dd36146e9bc3c62f72bb6bdcfc77af06db931db64736f6c634300081a0033\n}\n\nsub_1: assembly {\n        /* \"BC/prac7.sol\":233:337  contract child is parent{... */\n      mstore(0x40, 0x80)\n      callvalue\n      dup1\n      iszero\n      tag_1\n      jumpi\n      0x00\n      dup1\n      revert\n    tag_1:\n      pop\n      dataSize(sub_0)\n      dup1\n      dataOffset(sub_0)\n      0x00\n      codecopy\n      0x00\n      return\n    stop\n\n    sub_0: assembly {\n            /* \"BC/prac7.sol\":233:337  contract child is parent{... */\n          mstore(0x40, 0x80)\n          callvalue\n          dup1\n          iszero\n          tag_1\n          jumpi\n          0x00\n          dup1\n          revert\n        tag_1:\n          pop\n          jumpi(tag_2, lt(calldatasize, 0x04))\n          shr(0xe0, calldataload(0x00))\n          dup1\n          0x6d4ce63c\n          eq\n          tag_3\n          jumpi\n          dup1\n          0xb8e010de\n          eq\n          tag_4\n          jumpi\n        tag_2:\n          0x00\n          dup1\n          revert\n            /* \"BC/prac7.sol\":264:334  function get()external view returns(uint){... */\n        tag_3:\n          tag_5\n          tag_6\n          jump\t// in\n        tag_5:\n          mload(0x40)\n          tag_7\n          swap2\n          swap1\n          tag_8\n          jump\t// in\n        tag_7:\n          mload(0x40)\n          dup1\n          swap2\n          sub\n          swap1\n          return\n            /* \"BC/prac7.sol\":115:228  function set()external {... */\n        tag_4:\n          tag_9\n          tag_10\n          jump\t// in\n        tag_9:\n          stop\n            /* \"BC/prac7.sol\":264:334  function get()external view returns(uint){... */\n        tag_6:\n            /* \"BC/prac7.sol\":300:304  uint */\n          0x00\n            /* \"BC/prac7.sol\":323:326  sum */\n          dup1\n          sload\n            /* \"BC/prac7.sol\":316:326  return sum */\n          swap1\n          pop\n            /* \"BC/prac7.sol\":264:334  function get()external view returns(uint){... */\n          swap1\n          jump\t// out\n            /* \"BC/prac7.sol\":115:228  function set()external {... */\n        tag_10:\n            /* \"BC/prac7.sol\":153:159  uint a */\n          0x00\n            /* \"BC/prac7.sol\":162:164  10 */\n          0x0a\n            /* \"BC/prac7.sol\":153:164  uint a = 10 */\n          swap1\n          pop\n            /* \"BC/prac7.sol\":179:185  uint b */\n          0x00\n            /* \"BC/prac7.sol\":188:190  10 */\n          0x0a\n            /* \"BC/prac7.sol\":179:190  uint b = 10 */\n          swap1\n          pop\n            /* \"BC/prac7.sol\":215:216  b */\n          dup1\n            /* \"BC/prac7.sol\":211:212  a */\n          dup3\n            /* \"BC/prac7.sol\":211:216  a + b */\n          tag_13\n          swap2\n          swap1\n          tag_14\n          jump\t// in\n        tag_13:\n            /* \"BC/prac7.sol\":205:208  sum */\n          0x00\n            /* \"BC/prac7.sol\":205:216  sum = a + b */\n          dup2\n          swap1\n          sstore\n          pop\n            /* \"BC/prac7.sol\":138:228  {... */\n          pop\n          pop\n            /* \"BC/prac7.sol\":115:228  function set()external {... */\n          jump\t// out\n            /* \"#utility.yul\":7:84   */\n        tag_15:\n            /* \"#utility.yul\":44:51   */\n          0x00\n            /* \"#utility.yul\":73:78   */\n          dup2\n            /* \"#utility.yul\":62:78   */\n          swap1\n          pop\n            /* \"#utility.yul\":7:84   */\n          swap2\n          swap1\n          pop\n          jump\t// out\n            /* \"#utility.yul\":90:208   */\n        tag_16:\n            /* \"#utility.yul\":177:201   */\n          tag_21\n            /* \"#utility.yul\":195:200   */\n          dup2\n            /* \"#utility.yul\":177:201   */\n          tag_15\n          jump\t// in\n        tag_21:\n            /* \"#utility.yul\":172:175   */\n          dup3\n            /* \"#utility.yul\":165:202   */\n          mstore\n            /* \"#utility.yul\":90:208   */\n          pop\n          pop\n          jump\t// out\n            /* \"#utility.yul\":214:436   */\n        tag_8:\n            /* \"#utility.yul\":307:311   */\n          0x00\n            /* \"#utility.yul\":345:347   */\n          0x20\n            /* \"#utility.yul\":334:343   */\n          dup3\n            /* \"#utility.yul\":330:348   */\n          add\n            /* \"#utility.yul\":322:348   */\n          swap1\n          pop\n            /* \"#utility.yul\":358:429   */\n          tag_23\n            /* \"#utility.yul\":426:427   */\n          0x00\n            /* \"#utility.yul\":415:424   */\n          dup4\n            /* \"#utility.yul\":411:428   */\n          add\n            /* \"#utility.yul\":402:408   */\n          dup5\n            /* \"#utility.yul\":358:429   */\n          tag_16\n          jump\t// in\n        tag_23:\n            /* \"#utility.yul\":214:436   */\n          swap3\n          swap2\n          pop\n          pop\n          jump\t// out\n            /* \"#utility.yul\":442:622   */\n        tag_17:\n            /* \"#utility.yul\":490:567   */\n          0x4e487b7100000000000000000000000000000000000000000000000000000000\n            /* \"#utility.yul\":487:488   */\n          0x00\n            /* \"#utility.yul\":480:568   */\n          mstore\n            /* \"#utility.yul\":587:591   */\n          0x11\n            /* \"#utility.yul\":584:585   */\n          0x04\n            /* \"#utility.yul\":577:592   */\n          mstore\n            /* \"#utility.yul\":611:615   */\n          0x24\n            /* \"#utility.yul\":608:609   */\n          0x00\n            /* \"#utility.yul\":601:616   */\n          revert\n            /* \"#utility.yul\":628:819   */\n        tag_14:\n            /* \"#utility.yul\":668:671   */\n          0x00\n            /* \"#utility.yul\":687:707   */\n          tag_26\n            /* \"#utility.yul\":705:706   */\n          dup3\n            /* \"#utility.yul\":687:707   */\n          tag_15\n          jump\t// in\n        tag_26:\n            /* \"#utility.yul\":682:707   */\n          swap2\n          pop\n            /* \"#utility.yul\":721:741   */\n          tag_27\n            /* \"#utility.yul\":739:740   */\n          dup4\n            /* \"#utility.yul\":721:741   */\n          tag_15\n          jump\t// in\n        tag_27:\n            /* \"#utility.yul\":716:741   */\n          swap3\n          pop\n            /* \"#utility.yul\":764:765   */\n          dup3\n            /* \"#utility.yul\":761:762   */\n          dup3\n            /* \"#utility.yul\":757:766   */\n          add\n            /* \"#utility.yul\":750:766   */\n          swap1\n          pop\n            /* \"#utility.yul\":785:788   */\n          dup1\n            /* \"#utility.yul\":782:783   */\n          dup3\n            /* \"#utility.yul\":779:789   */\n          gt\n            /* \"#utility.yul\":776:812   */\n          iszero\n          tag_28\n          jumpi\n            /* \"#utility.yul\":792:810   */\n          tag_29\n          tag_17\n          jump\t// in\n        tag_29:\n            /* \"#utility.yul\":776:812   */\n        tag_28:\n            /* \"#utility.yul\":628:819   */\n          swap3\n          swap2\n          pop\n          pop\n          jump\t// out\n\n        auxdata: 0xa2646970667358221220ddd34466610f62eee04689a8b57fd19394424b3ab7655557a4dc05e8dbcb1e0664736f6c634300081a0033\n    }\n}\n",
				"bytecode": {
					"linkReferences": {},
					"object": "6080604052604051600e906074565b604051809103905ff0801580156026573d5f803e3d5ffd5b505f806101000a81548173ffffffffffffffffffffffffffffffffffffffff021916908373ffffffffffffffffffffffffffffffffffffffff160217905550348015606f575f80fd5b506081565b61016a806102c583390190565b6102378061008e5f395ff3fe608060405234801561000f575f80fd5b5060043610610034575f3560e01c80636537214714610038578063e67d7a5c14610056575b5f80fd5b610040610060565b60405161004d919061018f565b60405180910390f35b61005e610069565b005b5f600154905090565b5f8054906101000a900473ffffffffffffffffffffffffffffffffffffffff1673ffffffffffffffffffffffffffffffffffffffff1663b8e010de6040518163ffffffff1660e01b81526004015f604051808303815f87803b1580156100cd575f80fd5b505af11580156100df573d5f803e3d5ffd5b505050505f8054906101000a900473ffffffffffffffffffffffffffffffffffffffff1673ffffffffffffffffffffffffffffffffffffffff16636d4ce63c6040518163ffffffff1660e01b8152600401602060405180830381865afa15801561014b573d5f803e3d5ffd5b505050506040513d601f19601f8201168201806040525081019061016f91906101d6565b600181905550565b5f819050919050565b61018981610177565b82525050565b5f6020820190506101a25f830184610180565b92915050565b5f80fd5b6101b581610177565b81146101bf575f80fd5b50565b5f815190506101d0816101ac565b92915050565b5f602082840312156101eb576101ea6101a8565b5b5f6101f8848285016101c2565b9150509291505056fea2646970667358221220738d4d3e70771c45f67baf888dd36146e9bc3c62f72bb6bdcfc77af06db931db64736f6c634300081a00336080604052348015600e575f80fd5b5061014e8061001c5f395ff3fe608060405234801561000f575f80fd5b5060043610610034575f3560e01c80636d4ce63c14610038578063b8e010de14610056575b5f80fd5b610040610060565b60405161004d919061009f565b60405180910390f35b61005e610068565b005b5f8054905090565b5f600a90505f600a9050808261007e91906100e5565b5f819055505050565b5f819050919050565b61009981610087565b82525050565b5f6020820190506100b25f830184610090565b92915050565b7f4e487b71000000000000000000000000000000000000000000000000000000005f52601160045260245ffd5b5f6100ef82610087565b91506100fa83610087565b9250828201905080821115610112576101116100b8565b5b9291505056fea2646970667358221220ddd34466610f62eee04689a8b57fd19394424b3ab7655557a4dc05e8dbcb1e0664736f6c634300081a0033",
					"opcodes": "PUSH1 0x80 PUSH1 0x40 MSTORE PUSH1 0x40 MLOAD PUSH1 0xE SWAP1 PUSH1 0x74 JUMP JUMPDEST PUSH1 0x40 MLOAD DUP1 SWAP2 SUB SWAP1 PUSH0 CREATE DUP1 ISZERO DUP1 ISZERO PUSH1 0x26 JUMPI RETURNDATASIZE PUSH0 DUP1 RETURNDATACOPY RETURNDATASIZE PUSH0 REVERT JUMPDEST POP PUSH0 DUP1 PUSH2 0x100 EXP DUP2 SLOAD DUP2 PUSH20 0xFFFFFFFFFFFFFFFFFFFFFFFFFFFFFFFFFFFFFFFF MUL NOT AND SWAP1 DUP4 PUSH20 0xFFFFFFFFFFFFFFFFFFFFFFFFFFFFFFFFFFFFFFFF AND MUL OR SWAP1 SSTORE POP CALLVALUE DUP1 ISZERO PUSH1 0x6F JUMPI PUSH0 DUP1 REVERT JUMPDEST POP PUSH1 0x81 JUMP JUMPDEST PUSH2 0x16A DUP1 PUSH2 0x2C5 DUP4 CODECOPY ADD SWAP1 JUMP JUMPDEST PUSH2 0x237 DUP1 PUSH2 0x8E PUSH0 CODECOPY PUSH0 RETURN INVALID PUSH1 0x80 PUSH1 0x40 MSTORE CALLVALUE DUP1 ISZERO PUSH2 0xF JUMPI PUSH0 DUP1 REVERT JUMPDEST POP PUSH1 0x4 CALLDATASIZE LT PUSH2 0x34 JUMPI PUSH0 CALLDATALOAD PUSH1 0xE0 SHR DUP1 PUSH4 0x65372147 EQ PUSH2 0x38 JUMPI DUP1 PUSH4 0xE67D7A5C EQ PUSH2 0x56 JUMPI JUMPDEST PUSH0 DUP1 REVERT JUMPDEST PUSH2 0x40 PUSH2 0x60 JUMP JUMPDEST PUSH1 0x40 MLOAD PUSH2 0x4D SWAP2 SWAP1 PUSH2 0x18F JUMP JUMPDEST PUSH1 0x40 MLOAD DUP1 SWAP2 SUB SWAP1 RETURN JUMPDEST PUSH2 0x5E PUSH2 0x69 JUMP JUMPDEST STOP JUMPDEST PUSH0 PUSH1 0x1 SLOAD SWAP1 POP SWAP1 JUMP JUMPDEST PUSH0 DUP1 SLOAD SWAP1 PUSH2 0x100 EXP SWAP1 DIV PUSH20 0xFFFFFFFFFFFFFFFFFFFFFFFFFFFFFFFFFFFFFFFF AND PUSH20 0xFFFFFFFFFFFFFFFFFFFFFFFFFFFFFFFFFFFFFFFF AND PUSH4 0xB8E010DE PUSH1 0x40 MLOAD DUP2 PUSH4 0xFFFFFFFF AND PUSH1 0xE0 SHL DUP2 MSTORE PUSH1 0x4 ADD PUSH0 PUSH1 0x40 MLOAD DUP1 DUP4 SUB DUP2 PUSH0 DUP8 DUP1 EXTCODESIZE ISZERO DUP1 ISZERO PUSH2 0xCD JUMPI PUSH0 DUP1 REVERT JUMPDEST POP GAS CALL ISZERO DUP1 ISZERO PUSH2 0xDF JUMPI RETURNDATASIZE PUSH0 DUP1 RETURNDATACOPY RETURNDATASIZE PUSH0 REVERT JUMPDEST POP POP POP POP PUSH0 DUP1 SLOAD SWAP1 PUSH2 0x100 EXP SWAP1 DIV PUSH20 0xFFFFFFFFFFFFFFFFFFFFFFFFFFFFFFFFFFFFFFFF AND PUSH20 0xFFFFFFFFFFFFFFFFFFFFFFFFFFFFFFFFFFFFFFFF AND PUSH4 0x6D4CE63C PUSH1 0x40 MLOAD DUP2 PUSH4 0xFFFFFFFF AND PUSH1 0xE0 SHL DUP2 MSTORE PUSH1 0x4 ADD PUSH1 0x20 PUSH1 0x40 MLOAD DUP1 DUP4 SUB DUP2 DUP7 GAS STATICCALL ISZERO DUP1 ISZERO PUSH2 0x14B JUMPI RETURNDATASIZE PUSH0 DUP1 RETURNDATACOPY RETURNDATASIZE PUSH0 REVERT JUMPDEST POP POP POP POP PUSH1 0x40 MLOAD RETURNDATASIZE PUSH1 0x1F NOT PUSH1 0x1F DUP3 ADD AND DUP3 ADD DUP1 PUSH1 0x40 MSTORE POP DUP2 ADD SWAP1 PUSH2 0x16F SWAP2 SWAP1 PUSH2 0x1D6 JUMP JUMPDEST PUSH1 0x1 DUP2 SWAP1 SSTORE POP JUMP JUMPDEST PUSH0 DUP2 SWAP1 POP SWAP2 SWAP1 POP JUMP JUMPDEST PUSH2 0x189 DUP2 PUSH2 0x177 JUMP JUMPDEST DUP3 MSTORE POP POP JUMP JUMPDEST PUSH0 PUSH1 0x20 DUP3 ADD SWAP1 POP PUSH2 0x1A2 PUSH0 DUP4 ADD DUP5 PUSH2 0x180 JUMP JUMPDEST SWAP3 SWAP2 POP POP JUMP JUMPDEST PUSH0 DUP1 REVERT JUMPDEST PUSH2 0x1B5 DUP2 PUSH2 0x177 JUMP JUMPDEST DUP2 EQ PUSH2 0x1BF JUMPI PUSH0 DUP1 REVERT JUMPDEST POP JUMP JUMPDEST PUSH0 DUP2 MLOAD SWAP1 POP PUSH2 0x1D0 DUP2 PUSH2 0x1AC JUMP JUMPDEST SWAP3 SWAP2 POP POP JUMP JUMPDEST PUSH0 PUSH1 0x20 DUP3 DUP5 SUB SLT ISZERO PUSH2 0x1EB JUMPI PUSH2 0x1EA PUSH2 0x1A8 JUMP JUMPDEST JUMPDEST PUSH0 PUSH2 0x1F8 DUP5 DUP3 DUP6 ADD PUSH2 0x1C2 JUMP JUMPDEST SWAP2 POP POP SWAP3 SWAP2 POP POP JUMP INVALID LOG2 PUSH5 0x6970667358 0x22 SLT KECCAK256 PUSH20 0x8D4D3E70771C45F67BAF888DD36146E9BC3C62F7 0x2B 0xB6 0xBD 0xCF 0xC7 PUSH27 0xF06DB931DB64736F6C634300081A00336080604052348015600E57 PUSH0 DUP1 REVERT JUMPDEST POP PUSH2 0x14E DUP1 PUSH2 0x1C PUSH0 CODECOPY PUSH0 RETURN INVALID PUSH1 0x80 PUSH1 0x40 MSTORE CALLVALUE DUP1 ISZERO PUSH2 0xF JUMPI PUSH0 DUP1 REVERT JUMPDEST POP PUSH1 0x4 CALLDATASIZE LT PUSH2 0x34 JUMPI PUSH0 CALLDATALOAD PUSH1 0xE0 SHR DUP1 PUSH4 0x6D4CE63C EQ PUSH2 0x38 JUMPI DUP1 PUSH4 0xB8E010DE EQ PUSH2 0x56 JUMPI JUMPDEST PUSH0 DUP1 REVERT JUMPDEST PUSH2 0x40 PUSH2 0x60 JUMP JUMPDEST PUSH1 0x40 MLOAD PUSH2 0x4D SWAP2 SWAP1 PUSH2 0x9F JUMP JUMPDEST PUSH1 0x40 MLOAD DUP1 SWAP2 SUB SWAP1 RETURN JUMPDEST PUSH2 0x5E PUSH2 0x68 JUMP JUMPDEST STOP JUMPDEST PUSH0 DUP1 SLOAD SWAP1 POP SWAP1 JUMP JUMPDEST PUSH0 PUSH1 0xA SWAP1 POP PUSH0 PUSH1 0xA SWAP1 POP DUP1 DUP3 PUSH2 0x7E SWAP2 SWAP1 PUSH2 0xE5 JUMP JUMPDEST PUSH0 DUP2 SWAP1 SSTORE POP POP POP JUMP JUMPDEST PUSH0 DUP2 SWAP1 POP SWAP2 SWAP1 POP JUMP JUMPDEST PUSH2 0x99 DUP2 PUSH2 0x87 JUMP JUMPDEST DUP3 MSTORE POP POP JUMP JUMPDEST PUSH0 PUSH1 0x20 DUP3 ADD SWAP1 POP PUSH2 0xB2 PUSH0 DUP4 ADD DUP5 PUSH2 0x90 JUMP JUMPDEST SWAP3 SWAP2 POP POP JUMP JUMPDEST PUSH32 0x4E487B7100000000000000000000000000000000000000000000000000000000 PUSH0 MSTORE PUSH1 0x11 PUSH1 0x4 MSTORE PUSH1 0x24 PUSH0 REVERT JUMPDEST PUSH0 PUSH2 0xEF DUP3 PUSH2 0x87 JUMP JUMPDEST SWAP2 POP PUSH2 0xFA DUP4 PUSH2 0x87 JUMP JUMPDEST SWAP3 POP DUP3 DUP3 ADD SWAP1 POP DUP1 DUP3 GT ISZERO PUSH2 0x112 JUMPI PUSH2 0x111 PUSH2 0xB8 JUMP JUMPDEST JUMPDEST SWAP3 SWAP2 POP POP JUMP INVALID LOG2 PUSH5 0x6970667358 0x22 SLT KECCAK256 0xDD 0xD3 PREVRANDAO PUSH7 0x610F62EEE04689 0xA8 0xB5 PUSH32 0xD19394424B3AB7655557A4DC05E8DBCB1E0664736F6C634300081A0033000000 "
				},
				"gasEstimates": {
					"creation": {
						"codeDepositCost": "113400",
						"executionCost": "infinite",
						"totalCost": "infinite"
					},
					"external": {
						"inth()": "infinite",
						"result()": "2410"
					}
				},
				"methodIdentifiers": {
					"inth()": "e67d7a5c",
					"result()": "65372147"
				}
			},
			"storageLayout": {
				"storage": [
					{
						"astId": 40,
						"contract": "BC/prac7.sol:cal",
						"label": "cc",
						"offset": 0,
						"slot": "0",
						"type": "t_contract(child)33"
					},
					{
						"astId": 42,
						"contract": "BC/prac7.sol:cal",
						"label": "res",
						"offset": 0,
						"slot": "1",
						"type": "t_uint256"
					}
				],
				"types": {
					"t_contract(child)33": {
						"encoding": "inplace",
						"label": "contract child",
						"numberOfBytes": "20"
					},
					"t_uint256": {
						"encoding": "inplace",
						"label": "uint256",
						"numberOfBytes": "32"
					}
				}
			},
			"userdoc": {
				"kind": "user",
				"methods": {},
				"version": 1
			}
		}
	}
}