{
	"data": {
		"bytecode": {
			"linkReferences": {},
			"object": "6080604052348015600e575f80fd5b506104818061001c5f395ff3fe608060405234801561000f575f80fd5b5060043610610055575f3560e01c80630b95d228146100595780632a31efc7146100895780637afbe4f1146100b957806390f1f758146100e9578063e72918cf14610119575b5f80fd5b610073600480360381019061006e9190610282565b610149565b60405161008091906102bc565b60405180910390f35b6100a3600480360381019061009e91906102d5565b610198565b6040516100b091906102bc565b60405180910390f35b6100d360048036038101906100ce9190610325565b6101b9565b6040516100e091906102bc565b60405180910390f35b61010360048036038101906100fe9190610282565b6101ce565b60405161011091906102bc565b60405180910390f35b610133600480360381019061012e9190610282565b6101e2565b60405161014091906102bc565b60405180910390f35b5f80820361015a5760019050610193565b5f600190505f600190505b83811161018d5780826101789190610390565b91508080610185906103d1565b915050610165565b50809150505b919050565b5f8183856101a69190610418565b6101b09190610418565b90509392505050565b5f81836101c69190610418565b905092915050565b5f81826101db9190610418565b9050919050565b5f8082036101f2575f9050610246565b600182036102035760019050610246565b5f80600190505f80600290505b85811161023e5782846102239190610418565b91508293508192508080610236906103d1565b915050610210565b508093505050505b919050565b5f80fd5b5f819050919050565b6102618161024f565b811461026b575f80fd5b50565b5f8135905061027c81610258565b92915050565b5f602082840312156102975761029661024b565b5b5f6102a48482850161026e565b91505092915050565b6102b68161024f565b82525050565b5f6020820190506102cf5f8301846102ad565b92915050565b5f805f606084860312156102ec576102eb61024b565b5b5f6102f98682870161026e565b935050602061030a8682870161026e565b925050604061031b8682870161026e565b9150509250925092565b5f806040838503121561033b5761033a61024b565b5b5f6103488582860161026e565b92505060206103598582860161026e565b9150509250929050565b7f4e487b71000000000000000000000000000000000000000000000000000000005f52601160045260245ffd5b5f61039a8261024f565b91506103a58361024f565b92508282026103b38161024f565b915082820484148315176103ca576103c9610363565b5b5092915050565b5f6103db8261024f565b91507fffffffffffffffffffffffffffffffffffffffffffffffffffffffffffffffff820361040d5761040c610363565b5b600182019050919050565b5f6104228261024f565b915061042d8361024f565b925082820190508082111561044557610444610363565b5b9291505056fea26469706673582212209e52f25cf2eaccbb257efb415b3d7b8d873924f6c3e1d4d5238f7879ebc2636564736f6c634300081a0033",
			"opcodes": "PUSH1 0x80 PUSH1 0x40 MSTORE CALLVALUE DUP1 ISZERO PUSH1 0xE JUMPI PUSH0 DUP1 REVERT JUMPDEST POP PUSH2 0x481 DUP1 PUSH2 0x1C PUSH0 CODECOPY PUSH0 RETURN INVALID PUSH1 0x80 PUSH1 0x40 MSTORE CALLVALUE DUP1 ISZERO PUSH2 0xF JUMPI PUSH0 DUP1 REVERT JUMPDEST POP PUSH1 0x4 CALLDATASIZE LT PUSH2 0x55 JUMPI PUSH0 CALLDATALOAD PUSH1 0xE0 SHR DUP1 PUSH4 0xB95D228 EQ PUSH2 0x59 JUMPI DUP1 PUSH4 0x2A31EFC7 EQ PUSH2 0x89 JUMPI DUP1 PUSH4 0x7AFBE4F1 EQ PUSH2 0xB9 JUMPI DUP1 PUSH4 0x90F1F758 EQ PUSH2 0xE9 JUMPI DUP1 PUSH4 0xE72918CF EQ PUSH2 0x119 JUMPI JUMPDEST PUSH0 DUP1 REVERT JUMPDEST PUSH2 0x73 PUSH1 0x4 DUP1 CALLDATASIZE SUB DUP2 ADD SWAP1 PUSH2 0x6E SWAP2 SWAP1 PUSH2 0x282 JUMP JUMPDEST PUSH2 0x149 JUMP JUMPDEST PUSH1 0x40 MLOAD PUSH2 0x80 SWAP2 SWAP1 PUSH2 0x2BC JUMP JUMPDEST PUSH1 0x40 MLOAD DUP1 SWAP2 SUB SWAP1 RETURN JUMPDEST PUSH2 0xA3 PUSH1 0x4 DUP1 CALLDATASIZE SUB DUP2 ADD SWAP1 PUSH2 0x9E SWAP2 SWAP1 PUSH2 0x2D5 JUMP JUMPDEST PUSH2 0x198 JUMP JUMPDEST PUSH1 0x40 MLOAD PUSH2 0xB0 SWAP2 SWAP1 PUSH2 0x2BC JUMP JUMPDEST PUSH1 0x40 MLOAD DUP1 SWAP2 SUB SWAP1 RETURN JUMPDEST PUSH2 0xD3 PUSH1 0x4 DUP1 CALLDATASIZE SUB DUP2 ADD SWAP1 PUSH2 0xCE SWAP2 SWAP1 PUSH2 0x325 JUMP JUMPDEST PUSH2 0x1B9 JUMP JUMPDEST PUSH1 0x40 MLOAD PUSH2 0xE0 SWAP2 SWAP1 PUSH2 0x2BC JUMP JUMPDEST PUSH1 0x40 MLOAD DUP1 SWAP2 SUB SWAP1 RETURN JUMPDEST PUSH2 0x103 PUSH1 0x4 DUP1 CALLDATASIZE SUB DUP2 ADD SWAP1 PUSH2 0xFE SWAP2 SWAP1 PUSH2 0x282 JUMP JUMPDEST PUSH2 0x1CE JUMP JUMPDEST PUSH1 0x40 MLOAD PUSH2 0x110 SWAP2 SWAP1 PUSH2 0x2BC JUMP JUMPDEST PUSH1 0x40 MLOAD DUP1 SWAP2 SUB SWAP1 RETURN JUMPDEST PUSH2 0x133 PUSH1 0x4 DUP1 CALLDATASIZE SUB DUP2 ADD SWAP1 PUSH2 0x12E SWAP2 SWAP1 PUSH2 0x282 JUMP JUMPDEST PUSH2 0x1E2 JUMP JUMPDEST PUSH1 0x40 MLOAD PUSH2 0x140 SWAP2 SWAP1 PUSH2 0x2BC JUMP JUMPDEST PUSH1 0x40 MLOAD DUP1 SWAP2 SUB SWAP1 RETURN JUMPDEST PUSH0 DUP1 DUP3 SUB PUSH2 0x15A JUMPI PUSH1 0x1 SWAP1 POP PUSH2 0x193 JUMP JUMPDEST PUSH0 PUSH1 0x1 SWAP1 POP PUSH0 PUSH1 0x1 SWAP1 POP JUMPDEST DUP4 DUP2 GT PUSH2 0x18D JUMPI DUP1 DUP3 PUSH2 0x178 SWAP2 SWAP1 PUSH2 0x390 JUMP JUMPDEST SWAP2 POP DUP1 DUP1 PUSH2 0x185 SWAP1 PUSH2 0x3D1 JUMP JUMPDEST SWAP2 POP POP PUSH2 0x165 JUMP JUMPDEST POP DUP1 SWAP2 POP POP JUMPDEST SWAP2 SWAP1 POP JUMP JUMPDEST PUSH0 DUP2 DUP4 DUP6 PUSH2 0x1A6 SWAP2 SWAP1 PUSH2 0x418 JUMP JUMPDEST PUSH2 0x1B0 SWAP2 SWAP1 PUSH2 0x418 JUMP JUMPDEST SWAP1 POP SWAP4 SWAP3 POP POP POP JUMP JUMPDEST PUSH0 DUP2 DUP4 PUSH2 0x1C6 SWAP2 SWAP1 PUSH2 0x418 JUMP JUMPDEST SWAP1 POP SWAP3 SWAP2 POP POP JUMP JUMPDEST PUSH0 DUP2 DUP3 PUSH2 0x1DB SWAP2 SWAP1 PUSH2 0x418 JUMP JUMPDEST SWAP1 POP SWAP2 SWAP1 POP JUMP JUMPDEST PUSH0 DUP1 DUP3 SUB PUSH2 0x1F2 JUMPI PUSH0 SWAP1 POP PUSH2 0x246 JUMP JUMPDEST PUSH1 0x1 DUP3 SUB PUSH2 0x203 JUMPI PUSH1 0x1 SWAP1 POP PUSH2 0x246 JUMP JUMPDEST PUSH0 DUP1 PUSH1 0x1 SWAP1 POP PUSH0 DUP1 PUSH1 0x2 SWAP1 POP JUMPDEST DUP6 DUP2 GT PUSH2 0x23E JUMPI DUP3 DUP5 PUSH2 0x223 SWAP2 SWAP1 PUSH2 0x418 JUMP JUMPDEST SWAP2 POP DUP3 SWAP4 POP DUP2 SWAP3 POP DUP1 DUP1 PUSH2 0x236 SWAP1 PUSH2 0x3D1 JUMP JUMPDEST SWAP2 POP POP PUSH2 0x210 JUMP JUMPDEST POP DUP1 SWAP4 POP POP POP POP JUMPDEST SWAP2 SWAP1 POP JUMP JUMPDEST PUSH0 DUP1 REVERT JUMPDEST PUSH0 DUP2 SWAP1 POP SWAP2 SWAP1 POP JUMP JUMPDEST PUSH2 0x261 DUP2 PUSH2 0x24F JUMP JUMPDEST DUP2 EQ PUSH2 0x26B JUMPI PUSH0 DUP1 REVERT JUMPDEST POP JUMP JUMPDEST PUSH0 DUP2 CALLDATALOAD SWAP1 POP PUSH2 0x27C DUP2 PUSH2 0x258 JUMP JUMPDEST SWAP3 SWAP2 POP POP JUMP JUMPDEST PUSH0 PUSH1 0x20 DUP3 DUP5 SUB SLT ISZERO PUSH2 0x297 JUMPI PUSH2 0x296 PUSH2 0x24B JUMP JUMPDEST JUMPDEST PUSH0 PUSH2 0x2A4 DUP5 DUP3 DUP6 ADD PUSH2 0x26E JUMP JUMPDEST SWAP2 POP POP SWAP3 SWAP2 POP POP JUMP JUMPDEST PUSH2 0x2B6 DUP2 PUSH2 0x24F JUMP JUMPDEST DUP3 MSTORE POP POP JUMP JUMPDEST PUSH0 PUSH1 0x20 DUP3 ADD SWAP1 POP PUSH2 0x2CF PUSH0 DUP4 ADD DUP5 PUSH2 0x2AD JUMP JUMPDEST SWAP3 SWAP2 POP POP JUMP JUMPDEST PUSH0 DUP1 PUSH0 PUSH1 0x60 DUP5 DUP7 SUB SLT ISZERO PUSH2 0x2EC JUMPI PUSH2 0x2EB PUSH2 0x24B JUMP JUMPDEST JUMPDEST PUSH0 PUSH2 0x2F9 DUP7 DUP3 DUP8 ADD PUSH2 0x26E JUMP JUMPDEST SWAP4 POP POP PUSH1 0x20 PUSH2 0x30A DUP7 DUP3 DUP8 ADD PUSH2 0x26E JUMP JUMPDEST SWAP3 POP POP PUSH1 0x40 PUSH2 0x31B DUP7 DUP3 DUP8 ADD PUSH2 0x26E JUMP JUMPDEST SWAP2 POP POP SWAP3 POP SWAP3 POP SWAP3 JUMP JUMPDEST PUSH0 DUP1 PUSH1 0x40 DUP4 DUP6 SUB SLT ISZERO PUSH2 0x33B JUMPI PUSH2 0x33A PUSH2 0x24B JUMP JUMPDEST JUMPDEST PUSH0 PUSH2 0x348 DUP6 DUP3 DUP7 ADD PUSH2 0x26E JUMP JUMPDEST SWAP3 POP POP PUSH1 0x20 PUSH2 0x359 DUP6 DUP3 DUP7 ADD PUSH2 0x26E JUMP JUMPDEST SWAP2 POP POP SWAP3 POP SWAP3 SWAP1 POP JUMP JUMPDEST PUSH32 0x4E487B7100000000000000000000000000000000000000000000000000000000 PUSH0 MSTORE PUSH1 0x11 PUSH1 0x4 MSTORE PUSH1 0x24 PUSH0 REVERT JUMPDEST PUSH0 PUSH2 0x39A DUP3 PUSH2 0x24F JUMP JUMPDEST SWAP2 POP PUSH2 0x3A5 DUP4 PUSH2 0x24F JUMP JUMPDEST SWAP3 POP DUP3 DUP3 MUL PUSH2 0x3B3 DUP2 PUSH2 0x24F JUMP JUMPDEST SWAP2 POP DUP3 DUP3 DIV DUP5 EQ DUP4 ISZERO OR PUSH2 0x3CA JUMPI PUSH2 0x3C9 PUSH2 0x363 JUMP JUMPDEST JUMPDEST POP SWAP3 SWAP2 POP POP JUMP JUMPDEST PUSH0 PUSH2 0x3DB DUP3 PUSH2 0x24F JUMP JUMPDEST SWAP2 POP PUSH32 0xFFFFFFFFFFFFFFFFFFFFFFFFFFFFFFFFFFFFFFFFFFFFFFFFFFFFFFFFFFFFFFFF DUP3 SUB PUSH2 0x40D JUMPI PUSH2 0x40C PUSH2 0x363 JUMP JUMPDEST JUMPDEST PUSH1 0x1 DUP3 ADD SWAP1 POP SWAP2 SWAP1 POP JUMP JUMPDEST PUSH0 PUSH2 0x422 DUP3 PUSH2 0x24F JUMP JUMPDEST SWAP2 POP PUSH2 0x42D DUP4 PUSH2 0x24F JUMP JUMPDEST SWAP3 POP DUP3 DUP3 ADD SWAP1 POP DUP1 DUP3 GT ISZERO PUSH2 0x445 JUMPI PUSH2 0x444 PUSH2 0x363 JUMP JUMPDEST JUMPDEST SWAP3 SWAP2 POP POP JUMP INVALID LOG2 PUSH5 0x6970667358 0x22 SLT KECCAK256 SWAP15 MSTORE CALLCODE TLOAD CALLCODE 0xEA 0xCC 0xBB 0x25 PUSH31 0xFB415B3D7B8D873924F6C3E1D4D5238F7879EBC2636564736F6C634300081A STOP CALLER "
		},
		"gasEstimates": {
			"creation": {
				"codeDepositCost": "230600",
				"executionCost": "273",
				"totalCost": "230873"
			},
			"external": {
				"Add(uint256)": "infinite",
				"Add(uint256,uint256)": "infinite",
				"Add(uint256,uint256,uint256)": "infinite",
				"fact(uint256)": "infinite",
				"fibb(uint256)": "infinite"
			}
		},
		"methodIdentifiers": {
			"Add(uint256)": "90f1f758",
			"Add(uint256,uint256)": "7afbe4f1",
			"Add(uint256,uint256,uint256)": "2a31efc7",
			"fact(uint256)": "0b95d228",
			"fibb(uint256)": "e72918cf"
		}
	},
	"abi": [
		{
			"inputs": [
				{
					"internalType": "uint256",
					"name": "a",
					"type": "uint256"
				},
				{
					"internalType": "uint256",
					"name": "b",
					"type": "uint256"
				},
				{
					"internalType": "uint256",
					"name": "c",
					"type": "uint256"
				}
			],
			"name": "Add",
			"outputs": [
				{
					"internalType": "uint256",
					"name": "",
					"type": "uint256"
				}
			],
			"stateMutability": "pure",
			"type": "function"
		},
		{
			"inputs": [
				{
					"internalType": "uint256",
					"name": "a",
					"type": "uint256"
				},
				{
					"internalType": "uint256",
					"name": "b",
					"type": "uint256"
				}
			],
			"name": "Add",
			"outputs": [
				{
					"internalType": "uint256",
					"name": "",
					"type": "uint256"
				}
			],
			"stateMutability": "pure",
			"type": "function"
		},
		{
			"inputs": [
				{
					"internalType": "uint256",
					"name": "a",
					"type": "uint256"
				}
			],
			"name": "Add",
			"outputs": [
				{
					"internalType": "uint256",
					"name": "",
					"type": "uint256"
				}
			],
			"stateMutability": "pure",
			"type": "function"
		},
		{
			"inputs": [
				{
					"internalType": "uint256",
					"name": "num",
					"type": "uint256"
				}
			],
			"name": "fact",
			"outputs": [
				{
					"internalType": "uint256",
					"name": "",
					"type": "uint256"
				}
			],
			"stateMutability": "pure",
			"type": "function"
		},
		{
			"inputs": [
				{
					"internalType": "uint256",
					"name": "num",
					"type": "uint256"
				}
			],
			"name": "fibb",
			"outputs": [
				{
					"internalType": "uint256",
					"name": "",
					"type": "uint256"
				}
			],
			"stateMutability": "pure",
			"type": "function"
		}
	]
}