{
	"data": {
		"bytecode": {
			"linkReferences": {},
			"object": "6080604052348015600e575f80fd5b506102218061001c5f395ff3fe608060405234801561000f575f80fd5b5060043610610029575f3560e01c8063255fe5d01461002d575b5f80fd5b610047600480360381019061004291906100fc565b61005d565b60405161005491906101aa565b60405180910390f35b60608183036100a3576040518060400160405280601d81526020017f4e756d626572203120697320657175616c20746f204e756d626572203200000081525090506100bf565b6040518060600160405280602181526020016101cb6021913990505b92915050565b5f80fd5b5f819050919050565b6100db816100c9565b81146100e5575f80fd5b50565b5f813590506100f6816100d2565b92915050565b5f8060408385031215610112576101116100c5565b5b5f61011f858286016100e8565b9250506020610130858286016100e8565b9150509250929050565b5f81519050919050565b5f82825260208201905092915050565b8281835e5f83830152505050565b5f601f19601f8301169050919050565b5f61017c8261013a565b6101868185610144565b9350610196818560208601610154565b61019f81610162565b840191505092915050565b5f6020820190508181035f8301526101c28184610172565b90509291505056fe4e756d6265722031206973206e6f7420657175616c20746f204e756d6265722032a2646970667358221220960033208e9b2703f4bf7803f67ac97f3a69cf09c6fa307ef565093256e5828264736f6c634300081a0033",
			"opcodes": "PUSH1 0x80 PUSH1 0x40 MSTORE CALLVALUE DUP1 ISZERO PUSH1 0xE JUMPI PUSH0 DUP1 REVERT JUMPDEST POP PUSH2 0x221 DUP1 PUSH2 0x1C PUSH0 CODECOPY PUSH0 RETURN INVALID PUSH1 0x80 PUSH1 0x40 MSTORE CALLVALUE DUP1 ISZERO PUSH2 0xF JUMPI PUSH0 DUP1 REVERT JUMPDEST POP PUSH1 0x4 CALLDATASIZE LT PUSH2 0x29 JUMPI PUSH0 CALLDATALOAD PUSH1 0xE0 SHR DUP1 PUSH4 0x255FE5D0 EQ PUSH2 0x2D JUMPI JUMPDEST PUSH0 DUP1 REVERT JUMPDEST PUSH2 0x47 PUSH1 0x4 DUP1 CALLDATASIZE SUB DUP2 ADD SWAP1 PUSH2 0x42 SWAP2 SWAP1 PUSH2 0xFC JUMP JUMPDEST PUSH2 0x5D JUMP JUMPDEST PUSH1 0x40 MLOAD PUSH2 0x54 SWAP2 SWAP1 PUSH2 0x1AA JUMP JUMPDEST PUSH1 0x40 MLOAD DUP1 SWAP2 SUB SWAP1 RETURN JUMPDEST PUSH1 0x60 DUP2 DUP4 SUB PUSH2 0xA3 JUMPI PUSH1 0x40 MLOAD DUP1 PUSH1 0x40 ADD PUSH1 0x40 MSTORE DUP1 PUSH1 0x1D DUP2 MSTORE PUSH1 0x20 ADD PUSH32 0x4E756D626572203120697320657175616C20746F204E756D6265722032000000 DUP2 MSTORE POP SWAP1 POP PUSH2 0xBF JUMP JUMPDEST PUSH1 0x40 MLOAD DUP1 PUSH1 0x60 ADD PUSH1 0x40 MSTORE DUP1 PUSH1 0x21 DUP2 MSTORE PUSH1 0x20 ADD PUSH2 0x1CB PUSH1 0x21 SWAP2 CODECOPY SWAP1 POP JUMPDEST SWAP3 SWAP2 POP POP JUMP JUMPDEST PUSH0 DUP1 REVERT JUMPDEST PUSH0 DUP2 SWAP1 POP SWAP2 SWAP1 POP JUMP JUMPDEST PUSH2 0xDB DUP2 PUSH2 0xC9 JUMP JUMPDEST DUP2 EQ PUSH2 0xE5 JUMPI PUSH0 DUP1 REVERT JUMPDEST POP JUMP JUMPDEST PUSH0 DUP2 CALLDATALOAD SWAP1 POP PUSH2 0xF6 DUP2 PUSH2 0xD2 JUMP JUMPDEST SWAP3 SWAP2 POP POP JUMP JUMPDEST PUSH0 DUP1 PUSH1 0x40 DUP4 DUP6 SUB SLT ISZERO PUSH2 0x112 JUMPI PUSH2 0x111 PUSH2 0xC5 JUMP JUMPDEST JUMPDEST PUSH0 PUSH2 0x11F DUP6 DUP3 DUP7 ADD PUSH2 0xE8 JUMP JUMPDEST SWAP3 POP POP PUSH1 0x20 PUSH2 0x130 DUP6 DUP3 DUP7 ADD PUSH2 0xE8 JUMP JUMPDEST SWAP2 POP POP SWAP3 POP SWAP3 SWAP1 POP JUMP JUMPDEST PUSH0 DUP2 MLOAD SWAP1 POP SWAP2 SWAP1 POP JUMP JUMPDEST PUSH0 DUP3 DUP3 MSTORE PUSH1 0x20 DUP3 ADD SWAP1 POP SWAP3 SWAP2 POP POP JUMP JUMPDEST DUP3 DUP2 DUP4 MCOPY PUSH0 DUP4 DUP4 ADD MSTORE POP POP POP JUMP JUMPDEST PUSH0 PUSH1 0x1F NOT PUSH1 0x1F DUP4 ADD AND SWAP1 POP SWAP2 SWAP1 POP JUMP JUMPDEST PUSH0 PUSH2 0x17C DUP3 PUSH2 0x13A JUMP JUMPDEST PUSH2 0x186 DUP2 DUP6 PUSH2 0x144 JUMP JUMPDEST SWAP4 POP PUSH2 0x196 DUP2 DUP6 PUSH1 0x20 DUP7 ADD PUSH2 0x154 JUMP JUMPDEST PUSH2 0x19F DUP2 PUSH2 0x162 JUMP JUMPDEST DUP5 ADD SWAP2 POP POP SWAP3 SWAP2 POP POP JUMP JUMPDEST PUSH0 PUSH1 0x20 DUP3 ADD SWAP1 POP DUP2 DUP2 SUB PUSH0 DUP4 ADD MSTORE PUSH2 0x1C2 DUP2 DUP5 PUSH2 0x172 JUMP JUMPDEST SWAP1 POP SWAP3 SWAP2 POP POP JUMP INVALID 0x4E PUSH22 0x6D6265722031206973206E6F7420657175616C20746F KECCAK256 0x4E PUSH22 0x6D6265722032A2646970667358221220960033208E9B 0x27 SUB DELEGATECALL 0xBF PUSH25 0x3F67AC97F3A69CF09C6FA307EF565093256E5828264736F6C PUSH4 0x4300081A STOP CALLER "
		},
		"gasEstimates": {
			"creation": {
				"codeDepositCost": "109000",
				"executionCost": "157",
				"totalCost": "109157"
			},
			"external": {
				"Comp(uint256,uint256)": "infinite"
			}
		},
		"methodIdentifiers": {
			"Comp(uint256,uint256)": "255fe5d0"
		}
	},
	"abi": [
		{
			"inputs": [
				{
					"internalType": "uint256",
					"name": "num1",
					"type": "uint256"
				},
				{
					"internalType": "uint256",
					"name": "num2",
					"type": "uint256"
				}
			],
			"name": "Comp",
			"outputs": [
				{
					"internalType": "string",
					"name": "",
					"type": "string"
				}
			],
			"stateMutability": "pure",
			"type": "function"
		}
	]
}