{
	"data": {
		"bytecode": {
			"linkReferences": {},
			"object": "6080604052348015600e575f80fd5b506105298061001c5f395ff3fe608060405234801561000f575f80fd5b506004361061004a575f3560e01c80632ef0c2201461004e5780633455a38a1461008157806371ca2ecf146100b6578063aa093375146100d4575b5f80fd5b6100686004803603810190610063919061020a565b610104565b6040516100789493929190610257565b60405180910390f35b61009b600480360381019061009691906102cd565b610130565b6040516100ad9695949392919061030b565b60405180910390f35b6100be610161565b6040516100cb9190610379565b60405180910390f35b6100ee60048036038101906100e991906102cd565b6101b9565b6040516100fb9190610379565b60405180910390f35b5f805f808580156101125750845b868061011b5750855b87158715935093509350935092959194509250565b5f805f805f8086881487891415888a11898b108a8c10158b8d11159550955095509550955095509295509295509295565b5f80600a905060058161017491906103bf565b905060038161018391906103f2565b90506002816101929190610425565b90506004816101a19190610493565b90506005816101b091906104c3565b90508091505090565b5f8183116101c757816101c9565b825b905092915050565b5f80fd5b5f8115159050919050565b6101e9816101d5565b81146101f3575f80fd5b50565b5f81359050610204816101e0565b92915050565b5f80604083850312156102205761021f6101d1565b5b5f61022d858286016101f6565b925050602061023e858286016101f6565b9150509250929050565b610251816101d5565b82525050565b5f60808201905061026a5f830187610248565b6102776020830186610248565b6102846040830185610248565b6102916060830184610248565b95945050505050565b5f819050919050565b6102ac8161029a565b81146102b6575f80fd5b50565b5f813590506102c7816102a3565b92915050565b5f80604083850312156102e3576102e26101d1565b5b5f6102f0858286016102b9565b9250506020610301858286016102b9565b9150509250929050565b5f60c08201905061031e5f830189610248565b61032b6020830188610248565b6103386040830187610248565b6103456060830186610248565b6103526080830185610248565b61035f60a0830184610248565b979650505050505050565b6103738161029a565b82525050565b5f60208201905061038c5f83018461036a565b92915050565b7f4e487b71000000000000000000000000000000000000000000000000000000005f52601160045260245ffd5b5f6103c98261029a565b91506103d48361029a565b92508282019050808211156103ec576103eb610392565b5b92915050565b5f6103fc8261029a565b91506104078361029a565b925082820390508181111561041f5761041e610392565b5b92915050565b5f61042f8261029a565b915061043a8361029a565b92508282026104488161029a565b9150828204841483151761045f5761045e610392565b5b5092915050565b7f4e487b71000000000000000000000000000000000000000000000000000000005f52601260045260245ffd5b5f61049d8261029a565b91506104a88361029a565b9250826104b8576104b7610466565b5b828204905092915050565b5f6104cd8261029a565b91506104d88361029a565b9250826104e8576104e7610466565b5b82820690509291505056fea264697066735822122090dffd86306d4c8c613a495dc2db4404799f712fca89e8e91a7b37a5e2e78af364736f6c634300081a0033",
			"opcodes": "PUSH1 0x80 PUSH1 0x40 MSTORE CALLVALUE DUP1 ISZERO PUSH1 0xE JUMPI PUSH0 DUP1 REVERT JUMPDEST POP PUSH2 0x529 DUP1 PUSH2 0x1C PUSH0 CODECOPY PUSH0 RETURN INVALID PUSH1 0x80 PUSH1 0x40 MSTORE CALLVALUE DUP1 ISZERO PUSH2 0xF JUMPI PUSH0 DUP1 REVERT JUMPDEST POP PUSH1 0x4 CALLDATASIZE LT PUSH2 0x4A JUMPI PUSH0 CALLDATALOAD PUSH1 0xE0 SHR DUP1 PUSH4 0x2EF0C220 EQ PUSH2 0x4E JUMPI DUP1 PUSH4 0x3455A38A EQ PUSH2 0x81 JUMPI DUP1 PUSH4 0x71CA2ECF EQ PUSH2 0xB6 JUMPI DUP1 PUSH4 0xAA093375 EQ PUSH2 0xD4 JUMPI JUMPDEST PUSH0 DUP1 REVERT JUMPDEST PUSH2 0x68 PUSH1 0x4 DUP1 CALLDATASIZE SUB DUP2 ADD SWAP1 PUSH2 0x63 SWAP2 SWAP1 PUSH2 0x20A JUMP JUMPDEST PUSH2 0x104 JUMP JUMPDEST PUSH1 0x40 MLOAD PUSH2 0x78 SWAP5 SWAP4 SWAP3 SWAP2 SWAP1 PUSH2 0x257 JUMP JUMPDEST PUSH1 0x40 MLOAD DUP1 SWAP2 SUB SWAP1 RETURN JUMPDEST PUSH2 0x9B PUSH1 0x4 DUP1 CALLDATASIZE SUB DUP2 ADD SWAP1 PUSH2 0x96 SWAP2 SWAP1 PUSH2 0x2CD JUMP JUMPDEST PUSH2 0x130 JUMP JUMPDEST PUSH1 0x40 MLOAD PUSH2 0xAD SWAP7 SWAP6 SWAP5 SWAP4 SWAP3 SWAP2 SWAP1 PUSH2 0x30B JUMP JUMPDEST PUSH1 0x40 MLOAD DUP1 SWAP2 SUB SWAP1 RETURN JUMPDEST PUSH2 0xBE PUSH2 0x161 JUMP JUMPDEST PUSH1 0x40 MLOAD PUSH2 0xCB SWAP2 SWAP1 PUSH2 0x379 JUMP JUMPDEST PUSH1 0x40 MLOAD DUP1 SWAP2 SUB SWAP1 RETURN JUMPDEST PUSH2 0xEE PUSH1 0x4 DUP1 CALLDATASIZE SUB DUP2 ADD SWAP1 PUSH2 0xE9 SWAP2 SWAP1 PUSH2 0x2CD JUMP JUMPDEST PUSH2 0x1B9 JUMP JUMPDEST PUSH1 0x40 MLOAD PUSH2 0xFB SWAP2 SWAP1 PUSH2 0x379 JUMP JUMPDEST PUSH1 0x40 MLOAD DUP1 SWAP2 SUB SWAP1 RETURN JUMPDEST PUSH0 DUP1 PUSH0 DUP1 DUP6 DUP1 ISZERO PUSH2 0x112 JUMPI POP DUP5 JUMPDEST DUP7 DUP1 PUSH2 0x11B JUMPI POP DUP6 JUMPDEST DUP8 ISZERO DUP8 ISZERO SWAP4 POP SWAP4 POP SWAP4 POP SWAP4 POP SWAP3 SWAP6 SWAP2 SWAP5 POP SWAP3 POP JUMP JUMPDEST PUSH0 DUP1 PUSH0 DUP1 PUSH0 DUP1 DUP7 DUP9 EQ DUP8 DUP10 EQ ISZERO DUP9 DUP11 GT DUP10 DUP12 LT DUP11 DUP13 LT ISZERO DUP12 DUP14 GT ISZERO SWAP6 POP SWAP6 POP SWAP6 POP SWAP6 POP SWAP6 POP SWAP6 POP SWAP3 SWAP6 POP SWAP3 SWAP6 POP SWAP3 SWAP6 JUMP JUMPDEST PUSH0 DUP1 PUSH1 0xA SWAP1 POP PUSH1 0x5 DUP2 PUSH2 0x174 SWAP2 SWAP1 PUSH2 0x3BF JUMP JUMPDEST SWAP1 POP PUSH1 0x3 DUP2 PUSH2 0x183 SWAP2 SWAP1 PUSH2 0x3F2 JUMP JUMPDEST SWAP1 POP PUSH1 0x2 DUP2 PUSH2 0x192 SWAP2 SWAP1 PUSH2 0x425 JUMP JUMPDEST SWAP1 POP PUSH1 0x4 DUP2 PUSH2 0x1A1 SWAP2 SWAP1 PUSH2 0x493 JUMP JUMPDEST SWAP1 POP PUSH1 0x5 DUP2 PUSH2 0x1B0 SWAP2 SWAP1 PUSH2 0x4C3 JUMP JUMPDEST SWAP1 POP DUP1 SWAP2 POP POP SWAP1 JUMP JUMPDEST PUSH0 DUP2 DUP4 GT PUSH2 0x1C7 JUMPI DUP2 PUSH2 0x1C9 JUMP JUMPDEST DUP3 JUMPDEST SWAP1 POP SWAP3 SWAP2 POP POP JUMP JUMPDEST PUSH0 DUP1 REVERT JUMPDEST PUSH0 DUP2 ISZERO ISZERO SWAP1 POP SWAP2 SWAP1 POP JUMP JUMPDEST PUSH2 0x1E9 DUP2 PUSH2 0x1D5 JUMP JUMPDEST DUP2 EQ PUSH2 0x1F3 JUMPI PUSH0 DUP1 REVERT JUMPDEST POP JUMP JUMPDEST PUSH0 DUP2 CALLDATALOAD SWAP1 POP PUSH2 0x204 DUP2 PUSH2 0x1E0 JUMP JUMPDEST SWAP3 SWAP2 POP POP JUMP JUMPDEST PUSH0 DUP1 PUSH1 0x40 DUP4 DUP6 SUB SLT ISZERO PUSH2 0x220 JUMPI PUSH2 0x21F PUSH2 0x1D1 JUMP JUMPDEST JUMPDEST PUSH0 PUSH2 0x22D DUP6 DUP3 DUP7 ADD PUSH2 0x1F6 JUMP JUMPDEST SWAP3 POP POP PUSH1 0x20 PUSH2 0x23E DUP6 DUP3 DUP7 ADD PUSH2 0x1F6 JUMP JUMPDEST SWAP2 POP POP SWAP3 POP SWAP3 SWAP1 POP JUMP JUMPDEST PUSH2 0x251 DUP2 PUSH2 0x1D5 JUMP JUMPDEST DUP3 MSTORE POP POP JUMP JUMPDEST PUSH0 PUSH1 0x80 DUP3 ADD SWAP1 POP PUSH2 0x26A PUSH0 DUP4 ADD DUP8 PUSH2 0x248 JUMP JUMPDEST PUSH2 0x277 PUSH1 0x20 DUP4 ADD DUP7 PUSH2 0x248 JUMP JUMPDEST PUSH2 0x284 PUSH1 0x40 DUP4 ADD DUP6 PUSH2 0x248 JUMP JUMPDEST PUSH2 0x291 PUSH1 0x60 DUP4 ADD DUP5 PUSH2 0x248 JUMP JUMPDEST SWAP6 SWAP5 POP POP POP POP POP JUMP JUMPDEST PUSH0 DUP2 SWAP1 POP SWAP2 SWAP1 POP JUMP JUMPDEST PUSH2 0x2AC DUP2 PUSH2 0x29A JUMP JUMPDEST DUP2 EQ PUSH2 0x2B6 JUMPI PUSH0 DUP1 REVERT JUMPDEST POP JUMP JUMPDEST PUSH0 DUP2 CALLDATALOAD SWAP1 POP PUSH2 0x2C7 DUP2 PUSH2 0x2A3 JUMP JUMPDEST SWAP3 SWAP2 POP POP JUMP JUMPDEST PUSH0 DUP1 PUSH1 0x40 DUP4 DUP6 SUB SLT ISZERO PUSH2 0x2E3 JUMPI PUSH2 0x2E2 PUSH2 0x1D1 JUMP JUMPDEST JUMPDEST PUSH0 PUSH2 0x2F0 DUP6 DUP3 DUP7 ADD PUSH2 0x2B9 JUMP JUMPDEST SWAP3 POP POP PUSH1 0x20 PUSH2 0x301 DUP6 DUP3 DUP7 ADD PUSH2 0x2B9 JUMP JUMPDEST SWAP2 POP POP SWAP3 POP SWAP3 SWAP1 POP JUMP JUMPDEST PUSH0 PUSH1 0xC0 DUP3 ADD SWAP1 POP PUSH2 0x31E PUSH0 DUP4 ADD DUP10 PUSH2 0x248 JUMP JUMPDEST PUSH2 0x32B PUSH1 0x20 DUP4 ADD DUP9 PUSH2 0x248 JUMP JUMPDEST PUSH2 0x338 PUSH1 0x40 DUP4 ADD DUP8 PUSH2 0x248 JUMP JUMPDEST PUSH2 0x345 PUSH1 0x60 DUP4 ADD DUP7 PUSH2 0x248 JUMP JUMPDEST PUSH2 0x352 PUSH1 0x80 DUP4 ADD DUP6 PUSH2 0x248 JUMP JUMPDEST PUSH2 0x35F PUSH1 0xA0 DUP4 ADD DUP5 PUSH2 0x248 JUMP JUMPDEST SWAP8 SWAP7 POP POP POP POP POP POP POP JUMP JUMPDEST PUSH2 0x373 DUP2 PUSH2 0x29A JUMP JUMPDEST DUP3 MSTORE POP POP JUMP JUMPDEST PUSH0 PUSH1 0x20 DUP3 ADD SWAP1 POP PUSH2 0x38C PUSH0 DUP4 ADD DUP5 PUSH2 0x36A JUMP JUMPDEST SWAP3 SWAP2 POP POP JUMP JUMPDEST PUSH32 0x4E487B7100000000000000000000000000000000000000000000000000000000 PUSH0 MSTORE PUSH1 0x11 PUSH1 0x4 MSTORE PUSH1 0x24 PUSH0 REVERT JUMPDEST PUSH0 PUSH2 0x3C9 DUP3 PUSH2 0x29A JUMP JUMPDEST SWAP2 POP PUSH2 0x3D4 DUP4 PUSH2 0x29A JUMP JUMPDEST SWAP3 POP DUP3 DUP3 ADD SWAP1 POP DUP1 DUP3 GT ISZERO PUSH2 0x3EC JUMPI PUSH2 0x3EB PUSH2 0x392 JUMP JUMPDEST JUMPDEST SWAP3 SWAP2 POP POP JUMP JUMPDEST PUSH0 PUSH2 0x3FC DUP3 PUSH2 0x29A JUMP JUMPDEST SWAP2 POP PUSH2 0x407 DUP4 PUSH2 0x29A JUMP JUMPDEST SWAP3 POP DUP3 DUP3 SUB SWAP1 POP DUP2 DUP2 GT ISZERO PUSH2 0x41F JUMPI PUSH2 0x41E PUSH2 0x392 JUMP JUMPDEST JUMPDEST SWAP3 SWAP2 POP POP JUMP JUMPDEST PUSH0 PUSH2 0x42F DUP3 PUSH2 0x29A JUMP JUMPDEST SWAP2 POP PUSH2 0x43A DUP4 PUSH2 0x29A JUMP JUMPDEST SWAP3 POP DUP3 DUP3 MUL PUSH2 0x448 DUP2 PUSH2 0x29A JUMP JUMPDEST SWAP2 POP DUP3 DUP3 DIV DUP5 EQ DUP4 ISZERO OR PUSH2 0x45F JUMPI PUSH2 0x45E PUSH2 0x392 JUMP JUMPDEST JUMPDEST POP SWAP3 SWAP2 POP POP JUMP JUMPDEST PUSH32 0x4E487B7100000000000000000000000000000000000000000000000000000000 PUSH0 MSTORE PUSH1 0x12 PUSH1 0x4 MSTORE PUSH1 0x24 PUSH0 REVERT JUMPDEST PUSH0 PUSH2 0x49D DUP3 PUSH2 0x29A JUMP JUMPDEST SWAP2 POP PUSH2 0x4A8 DUP4 PUSH2 0x29A JUMP JUMPDEST SWAP3 POP DUP3 PUSH2 0x4B8 JUMPI PUSH2 0x4B7 PUSH2 0x466 JUMP JUMPDEST JUMPDEST DUP3 DUP3 DIV SWAP1 POP SWAP3 SWAP2 POP POP JUMP JUMPDEST PUSH0 PUSH2 0x4CD DUP3 PUSH2 0x29A JUMP JUMPDEST SWAP2 POP PUSH2 0x4D8 DUP4 PUSH2 0x29A JUMP JUMPDEST SWAP3 POP DUP3 PUSH2 0x4E8 JUMPI PUSH2 0x4E7 PUSH2 0x466 JUMP JUMPDEST JUMPDEST DUP3 DUP3 MOD SWAP1 POP SWAP3 SWAP2 POP POP JUMP INVALID LOG2 PUSH5 0x6970667358 0x22 SLT KECCAK256 SWAP1 0xDF REVERT DUP7 ADDRESS PUSH14 0x4C8C613A495DC2DB4404799F712F 0xCA DUP10 0xE8 0xE9 BYTE PUSH28 0x37A5E2E78AF364736F6C634300081A00330000000000000000000000 "
		},
		"gasEstimates": {
			"creation": {
				"codeDepositCost": "264200",
				"executionCost": "304",
				"totalCost": "264504"
			},
			"external": {
				"assignment()": "infinite",
				"comparison(uint256,uint256)": "infinite",
				"logical(bool,bool)": "infinite",
				"ternary(uint256,uint256)": "infinite"
			}
		},
		"methodIdentifiers": {
			"assignment()": "71ca2ecf",
			"comparison(uint256,uint256)": "3455a38a",
			"logical(bool,bool)": "2ef0c220",
			"ternary(uint256,uint256)": "aa093375"
		}
	},
	"abi": [
		{
			"inputs": [],
			"name": "assignment",
			"outputs": [
				{
					"internalType": "uint256",
					"name": "",
					"type": "uint256"
				}
			],
			"stateMutability": "pure",
			"type": "function"
		},
		{
			"inputs": [
				{
					"internalType": "uint256",
					"name": "a",
					"type": "uint256"
				},
				{
					"internalType": "uint256",
					"name": "b",
					"type": "uint256"
				}
			],
			"name": "comparison",
			"outputs": [
				{
					"internalType": "bool",
					"name": "",
					"type": "bool"
				},
				{
					"internalType": "bool",
					"name": "",
					"type": "bool"
				},
				{
					"internalType": "bool",
					"name": "",
					"type": "bool"
				},
				{
					"internalType": "bool",
					"name": "",
					"type": "bool"
				},
				{
					"internalType": "bool",
					"name": "",
					"type": "bool"
				},
				{
					"internalType": "bool",
					"name": "",
					"type": "bool"
				}
			],
			"stateMutability": "pure",
			"type": "function"
		},
		{
			"inputs": [
				{
					"internalType": "bool",
					"name": "a",
					"type": "bool"
				},
				{
					"internalType": "bool",
					"name": "b",
					"type": "bool"
				}
			],
			"name": "logical",
			"outputs": [
				{
					"internalType": "bool",
					"name": "",
					"type": "bool"
				},
				{
					"internalType": "bool",
					"name": "",
					"type": "bool"
				},
				{
					"internalType": "bool",
					"name": "",
					"type": "bool"
				},
				{
					"internalType": "bool",
					"name": "",
					"type": "bool"
				}
			],
			"stateMutability": "pure",
			"type": "function"
		},
		{
			"inputs": [
				{
					"internalType": "uint256",
					"name": "a",
					"type": "uint256"
				},
				{
					"internalType": "uint256",
					"name": "b",
					"type": "uint256"
				}
			],
			"name": "ternary",
			"outputs": [
				{
					"internalType": "uint256",
					"name": "",
					"type": "uint256"
				}
			],
			"stateMutability": "pure",
			"type": "function"
		}
	]
}